S0130000494F554669726D776172652E73726563E7
S11300000C9485090C94A2090C94A2090C94A209DD
S11300100C94A2090C94A2090C94A2090C94A209B0
S11300200C94A2090C94A2090C94A2090C94A209A0
S11300300C94A2090C94A2090C94A2090C946728AC
S11300400C94A2090C94A2090C94F01B0C94341C7B
S11300500C94A2090C94A2090C94A2090C94A20970
S11300600C94A2090C94A2090C94A2090C94A20960
S11300700C94A2090C94A2090C94671C0C94AE1C59
S11300800C94A2090C94D2190C94A2091C131F13EA
S11300902213251328132B132E13311334134B134C
S11300A04B134B1337133A133D13401343134613A7
S11300B04913DE1AE21AE21AE21AE21AE21AE21A00
S11300C0E21AF219E21AE21AE21AE21AE21AE21A3D
S11300D0E21AF219E21AE21AE21AE21AE21AE21A2D
S11300E0E21AFA19E21AE21AE21AE21AE21AE21A15
S11300F0E21A201AE21AE21AE21AE21AE21AE21ADE
S1130100E21AFA19E21AE21AE21AE21AE21AE21AF4
S1130110E21A261AE21AE21AE21AE21AE21AE21AB7
S1130120E21A2C1AE21AE21AE21AE21AE21AE21AA1
S1130130E21A3E1AE21AE21AE21AE21AE21AE21A7F
S1130140E21A681AE21AE21AE21AE21AE21AE21A45
S1130150E21A321AE21AE21AE21AE21AE21AE21A6B
S1130160E21A4C1AE21AE21AE21AE21AE21AE21A41
S1130170E21A6B1AE21AE21AE21AE21AE21AE21A12
S1130180E21A6B1AE21AE21AE21AE21AE21AE21A02
S1130190E21A6B1AE21AE21AE21AE21AE21AE21AF2
S11301A0E21A6B1AE21AE21AE21AE21AE21AE21AE2
S11301B0E21A741AE21AE21AE21AE21AE21AE21AC9
S11301C0E21AA51AE21AE21AE21AE21AE21AE21A88
S11301D0E21A741AE21AE21AE21AE21AE21AE21AA9
S11301E0E21AA51AE21AE21AE21AE21AE21AE21A68
S11301F0E21A8C1AE21AE21AE21AE21AE21AE21A71
S1130200E21AA91AE21AE21AE21AE21AE21AE21A43
S1130210E21AA91AE21AE21AE21AE21AE21AE21A33
S1130220E21ABE1AE21AE21AE21AE21AE21AE21A0E
S1130230E21AD81AE21AE21AE21AE21AE21AE21AE4
S1130240E21AD81A1120162016201620162016207D
S1130250162016201620162016206F1D6F1D6F1DE8
S11302606F1D6F1D6F1D6F1D6F1D6F1D6F1D162080
S113027016201620162016201620162016201620CA
S113028016201620162016201620162016201620BA
S113029016201620162016201620162016201620AA
S11302A016201620162016201620A11E1620162011
S11302B0162016201620162016201620162016208A
S11302C0AE1DC51D1620162016201620C51D16208D
S11302D016201620162016201620A11E16201620E1
S11302E0041E1620831E16201620A11E6E616E00A9
S11302F0696E660000407A10F35A00A0724E180925
S11303000010A5D4E80000E87648170000E40B5478
S1130310020000CA9A3B000000E1F5050000809647
S11303209800000040420F000000A0860100000079
S1130330102700000000E803000000006400000033
S113034000000A00000000000100000000002C76FC
S1130350D888DC674F0823DFC1DFAE59E1B1B79617
S1130360E5E3E453C63AE651997696E8E6C2842674
S1130370EB898C9B62ED407C6FFCEFBC9C9F40F250
S1130380BAA56FA5F490055A2AF75C936B6CF967CC
S11303906DC11BFCE0E40D47FEF520E6B500D0ED91
S11303A0902E0300943577050080841E08000020F9
S11303B04E0A000000C80C333333330F986E128397
S11303C01141EF8D2114893BE65516CFFEE6DB186B
S11303D0D1844B381BF77C1D901DA4BBE424203230
S11303E084725E228100C9F124ECA1E53D272E2E02
S11303F02E2E2E2E2E2E2E2E2E2E2E2E2E2E2E2E19
S11304002E2E2E2E2E2E2E2E2E2E2E2E2E2E2E2E08
S11304102E2E2E2E2E2E2E2E2E2E2E2E2E2E2E2EF8
S11304202E2E2E2E2E0D0A00000000000000002E9D
S11304302E2E2E2E2E2E2E2E2E2E2E2E2E2E2E2ED8
S11304402E2E2E2E2E2E2E2E2E2E2E2E2E2E2E2EC8
S11304502E2E2E2E2E2E2E2E2E2E2E2E2E2E2E2EB8
S11304602E2E2E2E2E2E0D0A00000000000000005D
S11304702E2E20202020202020202020202020205C
S11304802020202020202020202020202020202068
S11304902020202020202020202020202020202058
S11304A020202020202E2E0D0A0000000000000035
S11304B0002E2E202020202020202020202020203C
S11304C02020202020202020202020202020202028
S11304D02020202020202020202020202020202018
S11304E02020202020202E2E0D0A000000000000D5
S11304F000002E2E2020202020202020202020201C
S113050020205F5F5F5F5F202020202020202020AC
S113051020202020202020202020202020202020D7
S1130520202020202020202E2E0D0A000000000074
S11305300000002E2E2020202020202020202020FB
S113054020202F205F5F5F5F7C2020202020202040
S11305502020202020202020202020202020202097
S113056020202020202020202E2E0D0A0000000014
S1130570000000002E2E20202020202020202020DB
S113058020207C20285F5F5F20205F205F5F202089
S1130590205F5F205F20205F5F5F205F5F5F202020
S11305A02020202020202020202E2E0D0A000000B4
S11305B000000000002E2E202020202020202020BB
S11305C0202020205C5F5F5F205C7C20275F205C14
S11305D0202F205F60207C2F205F5F2F205F205C16
S11305E0202020202020202020202E2E0D0A000054
S11305F00000000000002E2E20202020202020209B
S113060020202020205F5F5F5F29207C207C5F29E1
S1130610207C20285F7C207C20285F7C20205F5F5A
S11306202F202020202020202020202E2E0D0A00E4
S1130630000000000000002E2E202020202020207A
S113064020202020207C5F5F5F5F5F2F7C202E5F57
S11306505F2F205C5F5F2C5F7C5C5F5F5F5C5F5F34
S11306605F7C202020202020202020202E2E0D0AF8
S113067000000000000000002E2E2020202020205A
S11306802020205F2020202020205F205F7C207CF1
S1130690205F5F5F5F5F5F5F20202020202020209D
S11306A05F2020202020202020202020202E2E0DFE
S11306B00A00000000000000002E2E202020202030
S11306C02020207C207C20202020285F7C5F295F44
S11306D07C7C5F5F2020205F5F7C20202020202006
S11306E07C207C20202020202020202020202E2E32
S11306F00D0A00000000000000002E2E2020202003
S1130700202020207C207C20202020205F205F20AF
S11307105F205F5F207C207C205F5F5F20205F5F25
S11307205F7C207C5F5F2020202020202020202E42
S11307302E0D0A00000000000000002E2E202020B4
S113074020202020207C207C202020207C207C2035
S11307507C20275F205C7C207C2F205F205C2F2066
S11307605F5F7C20275F205C202020202020202029
S11307702E2E0D0A00000000000000002E2E202066
S11307802020202020207C207C5F5F5F5F7C207CF9
S1130790207C207C207C207C207C20205F5F2F20FC
S11307A0285F5F7C207C207C207C2020202020204F
S11307B0202E2E0D0A00000000000000002E2E2026
S11307C0202020202020207C5F5F5F5F5F5F7C5FB4
S11307D07C5F7C5F7C207C5F7C5F7C5C5F5F5F7C9C
S11307E05C5F5F5F7C5F7C207C5F7C20202020201E
S11307F020202E2E0D0A00000000000000002E2EE6
S113080020202020202020202020202020202020E4
S113081020202020202020202020202020202020D4
S113082020202020202020202020202020202020C4
S11308302020202E2E0D0A00000000000000002EB3
S11308402E20202020202020202020202020202096
S11308502020202020202020202020202020202094
S11308602020202020202020202020202020202084
S1130870202020202E2E0D0A000000000000000081
S11308802E2E202020205F5F5F5F5F205F5F5F5F11
S113089020205F202020205F20205F5F2020202058
S11308A05F5F5F5F2020205F5F5F2020205F5F5FCE
S11308B020202020202E2E0D0A0000000000000021
S11308C0002E2E2020207C5F2020205F2F205F5FC1
S11308D0205C7C207C20207C207C205C205C2020F0
S11308E02F202F5F207C202F205F205C202F205F73
S11308F0205C202020202E2E0D0A00000000000085
S113090000002E2E20202020207C207C7C207C2097
S1130910207C207C207C20207C207C20205C205C8F
S11309202F202F207C207C7C207C207C207C207C21
S1130930207C207C2020202E2E0D0A0000000000A8
S11309400000002E2E202020205F7C207C7C207C38
S11309505F5F7C207C207C5F5F7C207C2020205C8F
S113096020202F20207C207C7C207C5F7C207C200D
S11309707C5F7C207C2020202E2E0D0A00000000AD
S1130980000000002E2E2020207C5F5F5F5F5F5CF4
S11309905F5F5F5F2F205C5F5F5F5F2F2020202001
S11309A0205C2F2020207C5F285F295F5F5F285F09
S11309B0295F5F5F2F202020202E2E0D0A000000CB
S11309C000000000002E2E202020202020202020A7
S11309D02020202020202020202020202020202013
S11309E02020202020202020202020202020202003
S11309F0202020202020202020202E2E0D0A000040
S1130A000000000000002E2E202020202020202086
S1130A1020202020202020202020202020202020D2
S1130A2020202020202020202020202020202020C2
S1130A3020202020202020202020202E2E0D0A00DF
S1130A40000000000000002E2E2E2E2E2E2E2E2E04
S1130A502E2E2E2E2E2E2E2E2E2E2E2E2E2E2E2EB2
S1130A602E2E2E2E2E2E2E2E2E2E2E2E2E2E2E2EA2
S1130A702E2E2E2E2E2E2E2E2E2E2E2E2E2E0D0AD7
S1130A8000000000000000002E2E2E2E2E2E2E2EF2
S1130A902E2E2E2E2E2E2E2E2E2E2E2E2E2E2E2E72
S1130AA02E2E2E2E2E2E2E2E2E2E2E2E2E2E2E2E62
S1130AB02E2E2E2E2E2E2E2E2E2E2E2E2E2E2E0D73
S1130AC00A00000000000000000D0A000000000001
S1130AD00000000000000000000000000000000012
S1130AE00000000000000000000000000000000002
S1130AF000000000000000000000000000000000F2
S1130B000000000000000000000015FD40FD6BFD2A
S1130B108BFDA4FDB9FDCCFDDCFDEAFDF7FD03FE74
S1130B200EFE19FE22FE2BFE34FE3CFE43FE4BFE5F
S1130B3052FE58FE5FFE65FE6BFE71FE76FE7CFE85
S1130B4081FE86FE8BFE90FE94FE99FE9DFEA1FE24
S1130B50A6FEAAFEAEFEB2FEB6FEB9FEBDFEC1FE04
S1130B60C4FEC8FECBFECEFED2FED5FED8FEDBFE12
S1130B70DEFEE1FEE4FEE7FEEAFEEDFEF0FEF3FE3D
S1130B80F5FEF8FEFBFEFDFE00FF03FF05FF08FF78
S1130B900AFF0DFF0FFF11FF14FF16FF18FF1BFFC5
S1130BA01DFF1FFF21FF24FF26FF28FF2AFF2CFF24
S1130BB02EFF30FF32FF34FF37FF39FF3AFF3CFF8F
S1130BC03EFF40FF42FF44FF46FF48FF4AFF4CFF01
S1130BD04EFF4FFF51FF53FF55FF56FF58FF5AFF7B
S1130BE05CFF5DFF5FFF61FF63FF64FF66FF68FFFB
S1130BF069FF6BFF6CFF6EFF70FF71FF73FF74FF83
S1130C0076FF78FF79FF7BFF7CFF7EFF7FFF81FF0C
S1130C1082FF84FF85FF87FF88FF8AFF8BFF8CFF9D
S1130C208EFF8FFF91FF92FF94FF95FF96FF98FF31
S1130C3099FF9BFF9CFF9DFF9FFFA0FFA1FFA3FFC8
S1130C40A4FFA5FFA7FFA8FFA9FFABFFACFFADFF63
S1130C50AFFFB0FFB1FFB2FFB4FFB5FFB6FFB7FF00
S1130C60B9FFBAFFBBFFBCFFBEFFBFFFC0FFC1FFA0
S1130C70C3FFC4FFC5FFC6FFC7FFC9FFCAFFCBFF41
S1130C80CCFFCDFFCFFFD0FFD1FFD2FFD3FFD4FFE6
S1130C90D6FFD7FFD8FFD9FFDAFFDBFFDCFFDEFF8B
S1130CA0DFFFE0FFE1FFE2FFE3FFE4FFE5FFE6FF34
S1130CB0E8FFE9FFEAFFEBFFECFFEDFFEEFFEFFFDC
S1130CC0F0FFF1FFF2FFF4FFF5FFF6FFF7FFF8FF87
S1130CD0F9FFFAFFFBFFFCFFFDFFFEFFFFFF000033
S1130CE001000200030004000500060008000900DA
S1130CF00A000B000C000D000E000F001000110084
S1130D001200130014001500160017001800190033
S1130D101A001B001C001D001E001F0020002100E3
S1130D202200230024002400250026002700280098
S1130D3029002A002B002C002D002E002F0030004B
S1130D4031003200330034003500360037003800FB
S1130D5039003A003A003B003C003D003E003F00B1
S1130D604000410042004300440045004600470063
S1130D704800480049004A004B004C004D004E001A
S1130D804F005000510052005300530054005500CE
S1130D9056005700580059005A005B005C005C0084
S1130DA05D005E005F00600061006200630064003B
S1130DB06500650066006700680069006A006B00F2
S1130DC06C006D006D006E006F00700071007200A9
S1130DD07300740075007500760077007800790060
S1130DE07A007B007C007C007D007E007F00800018
S1130DF081008200830083008400850086008700D0
S1130E00880089008A008A008B008C008D008E0087
S1130E108F0090009100910092009300940095003F
S1130E20960097009700980099009A009B009C00F8
S1130E309D009D009E009F00A000A100A200A300B1
S1130E40A400A400A500A600A700A800A900AA0069
S1130E50AA00AB00AC00AD00AE00AF00B000B00023
S1130E60B100B200B300B400B500B600B600B700DC
S1130E70B800B900BA00BB00BC00BC00BD00BE0095
S1130E80BF00C000C100C200C200C300C400C5004E
S1130E90C600C700C800C900C900CA00CB00CC0006
S1130EA0CD00CE00CF00CF00D000D100D200D300BF
S1130EB0D400D500D500D600D700D800D900DA0078
S1130EC0DB00DB00DC00DD00DE00DF00E000E10031
S1130ED0E200E200E300E400E500E600E700E800E9
S1130EE0E900E900EA00EB00EC00ED00EE00EF00A1
S1130EF0EF00F000F100F200F300F400F500F6005A
S1130F00F600F700F800F900FA00FB00FC00FD0011
S1130F10FE00FE00FF0000010101020103010401C3
S1130F200501050106010701080109010A010B0178
S1130F300C010D010D010E010F011001110112012F
S1130F4013011401150116011601170118011901E5
S1130F501A011B011C011D011E011F011F0120019B
S1130F602101220123012401250126012701280151
S1130F7029012A012A012B012C012D012E012F0107
S1130F8030013101320133013401350136013601BA
S1130F903701380139013A013B013C013D013E0171
S1130FA03F01400141014201430144014501450122
S1130FB046014701480149014A014B014C014D01D9
S1130FC04E014F0150015101520153015401550189
S1130FD056015701580159015A015B015C015D0139
S1130FE05E015F01600161016201630164016501E9
S1130FF066016701680169016A016B016C016D0199
S11310006E016F0170017101720173017401750148
S113101076017701780179017A017B017C017D01F8
S11310207E017F01800181018201830184018501A8
S113103086018701880189018A018C018D018E0155
S11310408F01900191019201930194019501960100
S11310509701980199019B019C019D019E019F01AB
S1131060A001A101A201A301A501A601A701A80154
S1131070A901AA01AB01AC01AE01AF01B001B101FC
S1131080B201B301B401B601B701B801B901BA01A3
S1131090BB01BC01BE01BF01C001C101C201C40149
S11310A0C501C601C701C801CA01CB01CC01CD01EC
S11310B0CE01D001D101D201D301D501D601D7018E
S11310C0D801D901DB01DC01DD01DF01E001E1012F
S11310D0E201E401E501E601E701E901EA01EB01CE
S11310E0ED01EE01EF01F101F201F301F501F60169
S11310F0F701F901FA01FB01FD01FE01FF01010203
S11311000202030205020602080209020A020C0294
S11311100D020F021002110213021402160217022A
S113112019021A021C021D021F02200222022302BB
S113113024022602280229022B022C022E022F024C
S11311403102320234023502370239023A023C02D9
S11311503D023F0240024202440245024702490264
S11311604A024C024E024F025102530254025602EA
S113117058025A025B025D025F026102620264026B
S11311806602680269026B026D026F0271027302E9
S11311907402760278027A027C027E028002820263
S11311A08402860288028A028C028E0290029202D3
S11311B09402960298029A029C029E02A002A20243
S11311C0A402A602A902AB02AD02AF02B102B402AC
S11311D0B602B802BA02BD02BF02C102C302C6020D
S11311E0C802CB02CD02CF02D202D402D702D90266
S11311F0DC02DE02E102E302E602E902EB02EE02B5
S1131200F002F302F602F902FB02FE0201030403F8
S1131210070309030C030F031203150318031B032D
S11312201E032103240328032B032E033103340359
S113123038033B033E034203450349034C03500375
S1131240530357035B035E03620366036A036E037F
S11312507103750379037E03820386038A038E0375
S1131260930397039C03A003A503A903AE03B3034D
S1131270B803BC03C103C703CC03D103D603DC0307
S1131280E103E703EC03F203F803FE0304040A0496
S1131290110417041E0424042B04320439044004EA
S11312A04804500457045F046704700478048104FC
S11312B08A0493049D04A704B104BB04C604D104A6
S11312C0DC04E804F40400050D051B0529053705B5
S11312D046055605670578058A059D05B105C705C8
S11312E0DD05F5050E062A06470666068806AD06E0
S11312F0D606030736076F07B107FD075808C90864
S11313005A09210A560BC10D2C1011241FBECFEF10
S1131310D0E1DEBFCDBF1BE0A0E0B1E0E6EEF4E635
S113132002C005900D92A430B107D9F72EE0A4E0D5
S1131330BBE001C01D92A435B207E1F70E9421145D
S11313400C9471320C9400008EE69CE00E946A2496
S113135088E69CE00E94CD240895CF930E945924EE
S1131360C82F811104C087EF91E00E945C1B8C2F71
S1131370CF91089561E071E080E091E00E94F6264B
S11313800895CF93DF9300D000D000D0CDB7DEB75F
S113139086E0EEE6FCE0DE01119601900D928A955E
S11313A0E1F729813A814B815C816D817E8180E006
S11313B090E026960FB6F894DEBF0FBECDBFDF9146
S11313C0CF910895CF93DF9300D000D000D0CDB754
S11313D0DEB786E0E8E6FCE0DE01119601900D92AE
S11313E08A95E1F729813A814B815C816D817E8107
S11313F080E090E026960FB6F894DEBF0FBECDBF16
S1131400DF91CF910895EF92FF920F931F93CF93A3
S1131410FC018081882309F444C091E0C0E020E00D
S113142031E0803219F41082932F0EC0992361F0B9
S1131430C830C8F5AC2FB0E0AA0FBB1FAC5FB44FE7
S1131440ED93FC93CF5F922F319680818111E9CF88
S1131450CC2359F160910E0170910F016115710552
S113146031F1E090040BF090050B0EE011E0C701A0
S11314700E949931892B59F4D8011296ED91FC916F
S1131480139764E07BE08C2F90E0099511C00A5F0C
S11314901F4FF801608171816115710541F781E089
S11314A007C081E005C082E003C081E001C081E0A3
S11314B0CF911F910F91FF90EF900895CF93DF93F9
S11314C083E192E00E945C1B89E292E00E945C1B33
S11314D080910E0190910F01009789F0CEE0D1E048
S11314E00E945C1B8C819D810E945C1B84E693E0BE
S11314F00E945C1B269688819981009789F780E079
S113150090E0DF91CF910895CF934DC08091570B18
S11315109091580B0E941B1BC82F0E944C1BCD306E
S113152011F0CA3029F58091160B8823E1F0E82FD9
S1131530F0E0E95EF44F10828F5F8093160B87E131
S11315409BE00E94030A1092160B880F990BFC0172
S1131550E457FE4F808191810E945C1B87E39AE0EF
S11315600E945C1B20C085E39AE00E945C1B1BC0A8
S1131570C83011F0CF3741F48091160B882399F0CD
S113158081508093160B0FC08091160BE82FF0E06A
S1131590E95EF44FC0838F5F813418F48093160B97
S11315A002C01092160B8091570B9091580B0E9419
S11315B0FF1A882309F4AACFCF9108950F931F939C
S11315C0CF93DF93833091053CF1049744F5EB010D
S11315D08A819B810E9498308C01843018F58C811B
S11315E09D810E949830C82FD92F602F0E946D14BE
S11315F0DF93CF9311271F930F938EE392E09F9372
S11316008F930E943E200F900F900F900F900F9099
S11316100F9080E090E008C083E090E005C082E095
S113162090E002C084E090E0DF91CF911F910F9190
S11316300895CF92DF92EF92FF920F931F93CF936F
S1131640DF93CDB7DEB764970FB6F894DEBF0FBE55
S1131650CDBF8C017B01FB01C280D3806AE572E0BF
S1131660C6010E949931892BF9F4033011051CF04D
S113167002E010E08EC00E9488149F938F9381E64D
S113168092E09F938F938E010F5F1F4F1F930F93D1
S11316900E94F131C8010E945C1B0F900F900F90C3
S11316A00F900F900F9077C0033011050CF466C0B3
S11316B0043011050CF065C0F701848195810E9406
S11316C098307C01F1E0F81708F45EC064E772E03A
S11316D0C6010E9499318C01892B21F58E2D0E941F
S11316E076149F938F93FF24FF92EF9288E792E002
S11316F09F938F93CE0101967C019F938F930E94B9
S1131700F131F70101900020E9F73197BF016E191B
S11317107F09C7010E946B1B0FB6F894DEBF0FBE92
S1131720CDBF37C064E872E0C6010E9499318C01D4
S1131730892B69F58E2D0E947F149F938F93FF242C
S1131740FF92EF928CE892E09F938F93CE010196E3
S11317507C019F938F930E94F131F7010190002047
S1131760E9F73197BF016E197F09C7010E946B1B0E
S11317700FB6F894DEBF0FBECDBF0BC003E010E080
S113178008C002E010E005C004E010E002C004E07C
S113179010E0802F912F64960FB6F894DEBF0FBE31
S11317A0CDBFDF91CF911F910F91FF90EF90DF900C
S11317B0CF9008950F931F93CF93DF9383309105B8
S11317C04CF1049754F5EB018A819B810E94983077
S11317D08C01843028F58C819D810E949830C82F1B
S11317E0D92F682F792F802F0E94D517DF93CF939D
S11317F011271F930F938BE992E09F938F930E947D
S11318003E200F900F900F900F900F900F9080E05C
S113181090E008C083E090E005C082E090E002C060
S113182084E090E0DF91CF911F910F910895823071
S1131830910574F003977CF4FB01828193810E94EB
S11318409830843058F40E948D1480E090E008951C
S113185083E090E0089582E090E0089584E090E0D1
S113186008950F931F93CF93DF93823091054CF12A
S1131870039754F5FB010281138168E375E0C80105
S11318800E949931EC01892B91F480E00E94A0140C
S113189081E00E94A01482E00E94A0148AEB92E0EE
S11318A09F938F930E943E200F900F9012C0C80107
S11318B00E949830843058F40E94A014C0E0D0E014
S11318C008C0C3E0D0E005C0C2E0D0E002C0C4E07C
S11318D0D0E0CE01DF91CF911F910F910895CF9366
S11318E082309105C4F00397CCF4FB01828193818B
S11318F00E9498308430A8F4C82FCC0F8C2F0E94FB
S1131900A0178C2F0E94A01481E08C0F0E94A014B9
S113191080E090E008C083E090E005C082E090E0C1
S113192002C084E090E0CF910895823091057CF06C
S1131930039784F4FB01828193810E949830843060
S113194060F4880F0E94B41480E090E0089583E06E
S113195090E0089582E090E0089584E090E0089596
S113196002972CF40E94DE1780E090E0089582E054
S113197090E0089502972CF40E94DE1880E090E035
S1131980089582E090E0089502972CF40E94E218F2
S113199080E090E0089582E090E008950F931F9313
S11319A0CF93DF9384309105DCF00597E4F4EB01E9
S11319B08C819D810E949830082F8A819B810E948E
S11319C09830182F8E819F810E949830143070F4C3
S11319D0AC01602F812F0E94C81480E090E008C001
S11319E083E090E005C082E090E002C084E090E0F3
S11319F0DF91CF911F910F910895CF93DF938230A0
S1131A00910504F103970CF5FB01828193810E94F7
S1131A109830EC018330E0F40E94CC179F938F93AD
S1131A20DD27DF93CF9381ED92E09F938F930E9404
S1131A303E200F900F900F900F900F900F9080E02A
S1131A4090E008C083E090E005C082E090E002C02E
S1131A5084E090E0DF91CF910895FF920F931F935C
S1131A60CF93DF9385309105FCF0069704F5EB01E5
S1131A708A819B810E949830182F8C819D810E94BD
S1131A809830082F8E819F810E949830F82E888587
S1131A9099850E949830282F4F2D602F812F0E9406
S1131AA0582680E090E005C083E090E002C082E028
S1131AB090E0DF91CF911F910F91FF9008950297CD
S1131AC0DCF40E9470261F929F931F928F931F92A3
S1131AD07F931F926F938DEE92E09F938F930E945A
S1131AE03E208DB79EB70A960FB6F8949EBF0FBEE0
S1131AF08DBF80E090E0089582E090E00895CF9358
S1131B00DF9382309105ECF00397F4F4EB018A81C2
S1131B109B810E949830853608F084E60E947A13EF
S1131B208B818F938A818F9385E293E09F938F9328
S1131B300E943E200F900F900F900F9080E090E055
S1131B4005C083E090E002C082E090E0DF91CF9195
S1131B50089502978CF40E9486131F928F9387E452
S1131B6093E09F938F930E943E200F900F900F90CD
S1131B700F9080E090E0089582E090E008950F9344
S1131B801F93CF93DF93CDB7DEB7A0970FB6F8942A
S1131B90DEBF0FBECDBF02970CF059C00E94C10931
S1131BA029833A834B835C836D837E830E94E2099D
S1131BB02F83388749875A876B877C878E818F93D9
S1131BC08D818F938C818F938B818F938A818F9357
S1131BD089818F9387E693E09F938F938E01035FB0
S1131BE01F4F1F930F930E94F131F80101900020C1
S1131BF0E9F73197BF01601B710BC8010E946B1B91
S1131C008C858F938B858F938A858F9389858F930A
S1131C1088858F938F818F9380E893E09F938F9330
S1131C201F930F930E94F131F80101900020E9F70E
S1131C303197BF01601B710BC8010E946B1B0FB66B
S1131C40F894DEBF0FBECDBF80E090E002C082E01A
S1131C5090E0A0960FB6F894DEBF0FBECDBFDF9123
S1131C60CF911F910F91089502978CF40E946314F1
S1131C709F938F9385E993E09F938F930E943E20D7
S1131C800F900F900F900F9080E090E0089582E005
S1131C9090E00895CF92DF92EF92FF920F931F93FB
S1131CA0CF93DF93CDB7DEB7A0970FB6F894DEBF1E
S1131CB00FBECDBF00E010E00F2EF8E7CF2EF2E00C
S1131CC0DF2EF02DCE0101967C01802F0E94761428
S1131CD09F938F931F930F93DF92CF92FF92EF9274
S1131CE00E94F131F70101900020E9F73197BF011B
S1131CF06E197F09C7010E946B1B0F5F1F4F0FB640
S1131D00F894DEBF0FBECDBF04301105F1F681EAB1
S1131D1093E09F938F930E943E200E94DE170E94BF
S1131D2070261F929F931F928F931F927F931F92EF
S1131D306F938DEA93E09F938F930E943E200E94BD
S1131D4086131F928F938EEC93E09F938F930E9440
S1131D503E200E94C1092D8B3E8B4F8B588F698F7B
S1131D607A8F0E94E2092B8F3C8F4D8F5E8F6F8F8D
S1131D7078A38A8D8F93898D8F93888D8F938F8984
S1131D808F938E898F938D898F9387E693E09F93AA
S1131D908F938E010F5F1F4F1F930F930E94F1319A
S1131DA0F80101900020E9F73197BF01601B710B26
S1131DB0C8010E946B1B88A18F938F8D8F938E8D8A
S1131DC08F938D8D8F938C8D8F938B8D8F9380E8D4
S1131DD093E09F938F931F930F930E94F131F80127
S1131DE001900020E9F73197BF01601B710B0FB61A
S1131DF0F894DEBF0FBECDBFC8010E946B1B0E94CA
S1131E0063149F938F9385E993E09F938F930E942C
S1131E103E200F900F900F900F9080E090E0A096DE
S1131E200FB6F894DEBF0FBECDBFDF91CF911F91E7
S1131E300F91FF90EF90DF90CF90089568E071E0EC
S1131E4087E091E00E94F62608950F931F93CF93A5
S1131E50DF93CEEED3E00AE01BE0CE010E94841BA8
S1131E60CF5BDF4FC017D107C1F787E39AE00E9429
S1131E705C1BDF91CF911F910F9108950E94301B3D
S1131E800E94961B9093580B8093570B80E4E7E1D4
S1131E90FBE0DF011D928A95E9F71092160B82EEA2
S1131EA093E00E945C1B87E39AE00E945C1B0E9403
S1131EB0250F08950E949B1B85E00E94B4280E9470
S1131EC0EB1B9093C50B8093C40B86E99BE0909326
S1131ED05D0B80935C0B83E69BE090935B0B80939C
S1131EE05A0B08950E945A0F67E971E086E991E060
S1131EF00E94F6260895CF92DF92EF92FF920F93FD
S1131F00CF93DF93CDB7DEB760970FB6F894DEBFFB
S1131F100FBECDBF6E0182E0C80ED11C8FE0F6016A
S1131F2011928A95E9F7E0915C0BF0915D0B808149
S1131F308A830F2EFEE5EF2EFBE0FF2EF02D00E04E
S1131F4021E041E0B60180E00E94F328AE014F5F3A
S1131F505F4FB601C7010E9410296981C6010E9422
S1131F60D21B60960FB6F894DEBF0FBECDBFDF91D3
S1131F70CF910F91FF90EF90DF90CF900895E09173
S1131F805C0BF0915D0B6181623050F4828190E0D2
S1131F90982F88272381822B0E946D140E947B0F27
S1131FA00895E0915C0BF0915D0B8181823020F407
S1131FB00E948D140E947B0F0895E0915C0BF091B8
S1131FC05D0B8181823020F40E94A0140E947B0F5B
S1131FD00895CF93E0915C0BF0915D0B8181823089
S1131FE070F4C82FCC0F8C2F0E94A0178C2F0E9446
S1131FF0A01481E08C0F0E94A0140E947B0FCF914B
S11320000895E0915C0BF0915D0B8181823028F49E
S1132010880F0E94B4140E947B0F0895E0915C0B1A
S1132020F0915D0B8181823058F4438150E0542F4C
S113203044279481492B62810E94C8140E947B0F1B
S11320400895E0915C0BF0915D0B8181823050F436
S1132050628170E0762F66279381692B0E94D517E1
S11320600E947B0F0895E0915C0BF0915D0B24813D
S11320704381628181810E9458260E947B0F0895CA
S1132080E0915C0BF0915D0B8181853608F084E66C
S11320900E947A130E947B0F0895EF92FF920F9390
S11320A0CF93DF93CDB7DEB7E3970FB6F894DEBFD7
S11320B00FBECDBFE0915C0BF0915D0B218123300D
S11320C008F041C082818230F0F5A0915A0BB091A2
S11320D05B0B40814C9311962C93119712968C9321
S11320E0211104C00E947614382F0BC0213021F432
S11320F00E947F14382F05C0223019F40E948814DE
S1132100382F60915A0B70915B0BFB0193833483DE
S11321100F2EFEE5EF2EFBE0FF2EF02D07E021E071
S113212045E080E090E00E94B928AE014D5C5F4F2D
S1132130BE016F5F7F4FC7010E9410296BA9CE01BA
S113214001960E94D21BE3960FB6F894DEBF0FBE31
S1132150CDBFDF91CF910F91FF90EF900895EF9253
S1132160FF920F931F93CF93DF93CDB7DEB7E3971F
S11321700FB6F894DEBF0FBECDBFE0915C0BF091BB
S11321805D0B1181123060F5812F0E94CC17E09114
S11321905A0BF0915B0BA0915C0BB0915D0B2C91F1
S11321A020831183928383830F2EFEE5EF2EFBE0C1
S11321B0FF2EF02D07E021E044E0BF0180E090E035
S11321C00E94B928AE014D5C5F4FBE016F5F7F4F27
S11321D0C7010E9410296BA9CE0101960E94D21B4F
S11321E0E3960FB6F894DEBF0FBECDBFDF91CF915B
S11321F01F910F91FF90EF900895EF92FF920F932C
S1132200CF93DF93CDB7DEB7E3970FB6F894DEBF75
S11322100FBECDBF0E947026E0915A0BF0915B0B6C
S1132220A0915C0BB0915D0B2C9120836183728330
S1132230838394830F2EFEE5EF2EFBE0FF2EF02D1B
S113224007E021E045E0BF0180E090E00E94B9286A
S1132250AE014D5C5F4FBE016F5F7F4FC7010E94AF
S113226010296BA9CE0101960E94D21BE3960FB6EA
S1132270F894DEBF0FBECDBFDF91CF910F91FF90D9
S1132280EF900895EF92FF920F93CF93DF93CDB722
S1132290DEB7E3970FB6F894DEBF0FBECDBF0E9442
S11322A0861360915A0B70915B0BE0915C0BF0917B
S11322B05D0B9081FB01908381830F2EFEE5EF2E51
S11322C0FBE0FF2EF02D07E021E042E080E090E00B
S11322D00E94B928AE014D5C5F4FBE016F5F7F4F16
S11322E0C7010E9410296BA9CE0101960E94D21B3E
S11322F0E3960FB6F894DEBF0FBECDBFDF91CF914A
S11323000F91FF90EF900895CF92DF92EF92FF929A
S11323100F931F93CF93DF93CDB7DEB7EF970FB62D
S1132320F894DEBF0FBECDBF0E94C109D22EC32ECA
S1132330F42EE52E162F072F2CAB3DAB4EAB5FAB27
S113234068AF79AF0E94E2092AAF3BAF4CAF5DAFF3
S11323506EAF7FAFE0915A0BF0915B0BA0915C0BD9
S1132360B0915D0B8C918083C182D282E382F4822E
S11323700583168337832087518742877387648751
S11323800F2EFEE5EF2EFBE0FF2EF02D07E021E0FF
S11323904DE0BF0180E090E00E94B928AE014D5CA1
S11323A05F4FBE016F5F7F4FC7010E9410296BA969
S11323B0CE0101960E94D21BEF960FB6F894DEBFB1
S11323C00FBECDBFDF91CF911F910F91FF90EF9082
S11323D0DF90CF900895EF92FF920F93CF93DF9306
S11323E0CDB7DEB7E3970FB6F894DEBF0FBECDBF0F
S11323F00E94631460915A0B70915B0BE0915C0B2B
S1132400F0915D0B9081FB01908381830F2EFEE59B
S1132410EF2EFBE0FF2EF02D07E021E043E080E00B
S113242090E00E94B928AE014D5C5F4FBE016F5F22
S11324307F4FC7010E9410296BA9CE0101960E940B
S1132440D21BE3960FB6F894DEBF0FBECDBFDF916B
S1132450CF910F91FF90EF900895EF92FF920F9319
S11324601F93CF93DF93CDB7DEB7E3970FB6F894FE
S1132470DEBF0FBECDBFE0915C0BF0915D0B8081A0
S1132480E0915A0BF0915B0B808380E00E947614FC
S1132490E0915A0BF0915B0B9183828381E00E945F
S11324A07614E0915A0BF0915B0B9383848382E062
S11324B00E947614E0915A0BF0915B0B958386830E
S11324C083E00E947614E0915A0BF0915B0B9783A2
S11324D0808780E00E947F14E0915A0BF0915B0B9F
S11324E09187828781E00E947F14E0915A0BF091DA
S11324F05B0B938784870E948814E0915A0BF091B8
S11325005B0B9587868780E00E94CC17E0915A0B7D
S1132510F0915B0B9787808B81E00E94CC17E09150
S11325205A0BF0915B0B918B828B82E00E94CC174B
S1132530E0915A0BF0915B0B938B848B83E00E94A8
S1132540CC17E0915A0BF0915B0B958B868B80E056
S11325500E94C317E0915A0BF0915B0B978B808F0D
S113256081E00E94C317E0915A0BF0915B0B918FAD
S1132570828F82E00E94C317E0915A0BF0915B0BAB
S1132580938F848F83E00E94C317E0915A0BF091DC
S11325905B0B958F868F0E94702600915A0B1091C9
S11325A05B0BF801678F70A381A392A30E9486132B
S11325B0F80183A360915A0B70915B0B0F2EFEE51B
S11325C0EF2EFBE0FF2EF02D07E021E044E280E057
S11325D090E00E94B928AE014D5C5F4FBE016F5F71
S11325E07F4FC7010E9410296BA9CE0101960E945A
S11325F0D21BE3960FB6F894DEBF0FBECDBFDF91BA
S1132600CF911F910F91FF90EF900895E0915C0B93
S1132610F0915D0B8081A0915A0BB0915B0B8C9370
S1132620E0818E2F90E0FC013197E331F10598F5BC
S1132630EA5BFF4F0C9441300E94BF0F08950E9443
S11326404D1008950E94AF1008950E94D10F08956F
S11326500E94DD0F08950E94E90F08950E94011061
S113266008950E940E1008950E94211008950E945A
S1132670331008950E94FD1008950E94401008959B
S11326800E94421108950E94841108950E94EB1142
S113269008950E942D1208951DC08091C40B90913D
S11326A0C50B0E941B1B9091590B91111092590B51
S11326B061E97BE00E94F729813019F0833031F021
S11326C009C081E99BE00E94061304C088E09AE0F7
S11326D00E945C1B8091C40B9091C50B0E94FF1A51
S11326E08823D9F2089540E068EE73E086E00E9402
S11326F00B190895CF93C82F853608F0C4E68C2FA4
S11327000E944F19C093C60BCF9108958091C60BB8
S113271008956AE084E79CE00E940B2608956EE920
S113272071E08DE991E00E94F6260895E2E6F0E07A
S11327308081846080830895E091C80BF091C90B77
S11327408081882319F08130C9F108958091C70BE5
S113275080FF1AC080E00E94E926882309F445C05E
S1132760E7ECFBE080818E7F80830E949613E2E693
S1132770F0E080818860808344EF51E060E070E0A5
S113278080E00E94DE26089580E00E94E9268823E6
S113279061F1E7ECFBE0808181608083E2E6F0E0B8
S11327A080818B7F80838081877F808344EF51E0A9
S11327B060E070E080E00E94DE2608958091C70BFF
S11327C080FF13C080E00E94E926882371F0E7ECC3
S11327D0FBE080818E7F80830E94961348EB5BE050
S11327E060E070E080E00E94DE260895CF93DF93DE
S11327F0E1E6F0E0808184608083C2E6D0E08881F5
S11328008B7F88838081886080838881877F8883A9
S1132810E7ECFBE080818E7F8D7F80838CEA9DE0F6
S1132820928381830E949613888188608883DF91D4
S1132830CF91089565EA71E084EA91E00E94F6265A
S113284008950E94BE260E943E0F0E94E8180E942E
S1132850EB180E94F6130E94F8140E9450260E945E
S113286073130E945A0F0E94F7270E941A140E94A1
S11328701E0F0E9466140E948F130E94720F0E9402
S1132880AD0981110E94BA090E944F1481110E945E
S11328905C140E94FA27FDCF0E9404240895CF936C
S11328A00E941B22C82F811104C080E29AE00E947A
S11328B05C1B8C2FCF9108956CEA71E08BEA91E058
S11328C00E94F62608950E941F24089567EE71E081
S11328D086EE91E00E94F6260895E62FF0E0EE0FD2
S11328E0FF1FE054FE4F918380830895E82FF0E0AA
S11328F0EE0FFF1FEE54FE4F808191810895E82F63
S1132900F0E0EE0FFF1FE654FE4F808191810895A1
S11329108091BE019091BF010895CF93C82F0E946A
S11329208226E2EBF1E0CC0F81E090E002C0880F58
S1132930991FCA95E2F796A1892B86A3CF91089592
S1132940CF93C82F0E949C26E2EBF1E0CC0F81E0EC
S113295090E002C0880F991FCA95E2F7809596A16E
S1132960892386A3CF910895E2EBF1E090E0880FEC
S1132970991F019621E030E0A90102C0440F551FC0
S11329808A95E2F7CA01809596A1892386A30895C2
S11329900F93CF93082FC62FCA01A0E0B0E0BC016B
S11329A0CD01052E5CE0660F771F881F991F5A958D
S11329B0D1F7502D2EE734E040E050E00E941F3064
S11329C0C13049F480E098E0A0E0B0E0821B930BB2
S11329D0A40BB50B05C0DA01C901985FAF4FBF4F17
S11329E021E040E060E00E946E25CF910F910895B0
S11329F0CF930E94F6180E9479260E9442250E94D5
S1132A006719C0E08C2F0E949C2642E350E061E0ED
S1132A108C2F0E94C814CF5FC430A1F7CF910895C2
S1132A20DF92EF92FF920F931F93CF93DF938C016A
S1132A30D62EC62FD0E07E01EE0CFF1C8091D8016B
S1132A4090E00E2C02C0959587950A94E2F780FFDA
S1132A5082C0F701E053FE4F80819181F701E85372
S1132A60FE4F208131818217930768F5F701E55302
S1132A70F44F408151814F5F5F4F4431510508F459
S1132A8005C1F701E553F44F1182108244962817CB
S1132A90390730F0F701E053FE4F9183808307C07C
S1132AA0FE01EE0FFF1FE053FE4F31832083FE0132
S1132AB0EE0FFF1FE053FE4F4081518161E08D2DE9
S1132AC00E94C8143DC02817390708F0BBC0FE0196
S1132AD0EE0FFF1FE553F44F408151814F5F5F4F6D
S1132AE04431510540F4FE01EE0FFF1FE553F44F4E
S1132AF051834083A7C0FE01EE0FFF1FE553F44F3F
S1132B001182108244978217930740F0FE01EE0F62
S1132B10FF1FE053FE4F9183808307C0FE01EE0F39
S1132B20FF1FE053FE4F31832083FE01EE0FFF1F92
S1132B30E053FE4F4081518161E08D2D0E94C81405
S1132B408091D80190E00E2C02C0959587950A9447
S1132B50E2F780FD77C0FE01EE0FFF1FE054FE4F49
S1132B6020813181C901029708171907F8F48D2DC6
S1132B700E94822602EB11E0CC0FDD1FC053DE4F12
S1132B8082E390E09983888342E350E060E08D2DF6
S1132B900E94C81481E090E002C0880F991FEA9453
S1132BA0E2F7F80196A1892B86A378C080179107D4
S1132BB008F074C0FE01EE0FFF1FEE54FE4F80813B
S1132BC091818017910730F0225E3F4F2017310723
S1132BD008F064C0FE01EE0FFF1FED52F44F808138
S1132BE09181019691838083853F914008F456C07A
S1132BF0FE01EE54FE4F10AAFE01EE0FFF1FED5230
S1132C00F44F118210828091CA0B882361F01F92C5
S1132C10DF928AE39AE09F938F930E943E200F9065
S1132C200F900F900F90CC0FDD1FC053DE4F82E347
S1132C3090E09983888342E350E060E08D2D0E9408
S1132C40C8142CC0FE01EE0FFF1FE054FE4F80811C
S1132C50918102968017910708F58D2D0E949C267C
S1132C60E2EBF1E0CC0FDD1FC053DE4F82E390E0D6
S1132C709983888381E090E002C0880F991FEA94C9
S1132C80E2F7809596A1892386A308C0FE01EE0F82
S1132C90FF1FE553F44F51834083D4CFDF91CF918D
S1132CA01F910F91FF90EF90DF900895DF92EF92C4
S1132CB0FF920F931F93CF93DF938C01D62EC62FD1
S1132CC0D0E07E01EE0CFF1C8091D80190E00E2C28
S1132CD002C0959587950A94E2F780FF82C0F701B8
S1132CE0E053FE4F80819181F701E853FE4F20812C
S1132CF031818217930768F5F701E553F44F40815A
S1132D0051814F5F5F4F4431510509F009C1F7010B
S1132D10E553F44F1182108244962817390730F096
S1132D20F701E053FE4F9183808307C0FE01EE0F4D
S1132D30FF1FE053FE4F31832083FE01EE0FFF1F80
S1132D40E053FE4F4081518160E08D2D0E94C814F4
S1132D503DC02817390708F0BFC0FE01EE0FFF1F62
S1132D60E553F44F408151814F5F5F4F443151052A
S1132D7041F0FE01EE0FFF1FE553F44F51834083F2
S1132D80ABC0FE01EE0FFF1FE553F44F118210821A
S1132D9044978217930740F0FE01EE0FFF1FE053A4
S1132DA0FE4F9183808307C0FE01EE0FFF1FE053A7
S1132DB0FE4F31832083FE01EE0FFF1FE053FE4FD1
S1132DC04081518160E08D2D0E94C8148091D8010A
S1132DD090E00E2C02C0959587950A94E2F780FD49
S1132DE07BC0FE01EE0FFF1FE054FE4F80819181F6
S1132DF09C012E5F3F4F20173107F8F48D2D0E9460
S1132E00822602EB11E0CC0FDD1FC053DE4F82E3BC
S1132E1090E09983888342E350E060E08D2D0E9426
S1132E20C81481E090E002C0880F991FEA94E2F789
S1132E30F80196A1892B86A37BC09C0122503109FD
S1132E400217130708F074C0FE01EE0FFF1FEE54C3
S1132E50FE4F208131810217130728F04E9708177F
S1132E60190708F065C0FE01EE0FFF1FED52F44F85
S1132E7080819181019691838083853F914008F4FC
S1132E8057C081E0FE01EE54FE4F80ABFE01EE0F11
S1132E90FF1FED52F44F118210828091CA0B8823D8
S1132EA061F01F92DF9287E69AE09F938F930E94CE
S1132EB03E200F900F900F900F90CC0FDD1FC0534A
S1132EC0DE4F82E390E09983888342E350E061E03F
S1132ED08D2D0E94C8142CC0FE01EE0FFF1FE0547C
S1132EE0FE4F8081918102970817190708F58D2DEF
S1132EF00E949C26E2EBF1E0CC0FDD1FC053DE4FB5
S1132F0082E390E09983888381E090E002C0880F97
S1132F10991FEA94E2F7809596A1892386A308C0B5
S1132F20FE01EE0FFF1FE553F44F51834083D4CFCE
S1132F30DF91CF911F910F91FF90EF90DF90089553
S1132F40282F30E0E2EBF1E0B901660F771F6F5FE5
S1132F507F4F41E050E002C0440F551F6A95E2F7ED
S1132F6096A1492B46A3220F331FF901E853FE4FC4
S1132F7040815181E82FE695F0E0EE54FE4F60A9C0
S1132F800E94C8140895E82FF0E0EE0FFF1FE853E5
S1132F90FE4F808191810895E82FF0E0EE0FFF1F2E
S1132FA0E054FE4F808191810895E82FF0E0EE0F08
S1132FB0FF1FE853FE4F718360830895E2EBF1E055
S1132FC086A193A91F929F9392A91F929F9391A95F
S1132FD01F929F9390A91F929F9386FB992790F924
S1132FE01F929F9384FB992790F91F929F9382FBD2
S1132FF0992790F91F929F93982F91701F929F93F6
S1133000982F991F9927991F1F929F9385FB9927A2
S113301090F91F929F9383FB992790F91F929F9396
S1133020869581701F928F93858D8F93848D8F9356
S1133030838D8F93828D8F93818D8F93808D8F93CA
S113304087898F9386898F9385A18F9384A18F938A
S113305083A18F9382A18F9381A18F9380A18F935A
S1133060878D8F93868D8F9387818F9386818F939E
S113307085818F9384818F9383818F9382818F93B2
S113308081818F9380818F9384E99AE09F938F93BA
S11330900E943E208DB79EB7C2960FB6F8949EBF8D
S11330A00FBE8DBF0895AF92BF92CF92DF92EF9281
S11330B0FF920F931F93CF93DF9380E00E9401262A
S11330C08C0181E00E9401267C0182E00E9401269D
S11330D05C0183E00E9401266C018091D80181FF8C
S11330E00DC08091E201813029F460E0C8010E94A2
S11330F0101504C060E0C8010E9456168091D801E2
S113310083FF0DC08091E301813029F461E0C8019F
S11331100E94101504C061E0C8010E9456168091F7
S1133120D80185FF0DC08091E401813029F462E06B
S1133130C7010E94101504C062E0C7010E94561620
S11331408091D80188237CF48091E501813031F4A9
S113315063E08AE090E00E94101505C063E08AE015
S113316090E00E945616C2EBD1E019830883FB82DB
S1133170EA82BD82AC82DF82CE820E9413249D87C4
S11331808C8781E00E94E926882369F08091CA0B2C
S1133190882349F048EE53E060E070E081E00E944B
S11331A0DE260E94DE17DF91CF911F910F91FF90D1
S11331B0EF90DF90CF90BF90AF90089581E080931F
S11331C0CA0B08951092CA0B08950E94BB26089555
S11331D00E94B62608956EEE71E08DEE91E00E9495
S11331E02A278091ED010E945B27089517B83E9A23
S11331F086B1876886B9089597B1907F97B997B1DA
S11332008F70982B97B9369A3699FECF84B125B131
S113321090E0922B0895CF93C42F48B321E030E07F
S1133220F90102C0EE0FFF1F8A95E2F7CF019E2F2E
S11332309095492348BB97B3892B87BB8FB5826090
S11332408FBD8EB588618EBD8FB580628FBD8EB502
S113325083608EBD80E090E00E94972B20E030E0F8
S113326040E05EE30E94252C0E94682B77BD66BD7A
S113327086B597B5C89FB001C99F700D112480E031
S113328090E00E94972B2AE037ED43E25CE30E9432
S1133290252C0E94682B79BD68BDCF91089526B571
S11332A037B5482F429FC001439F900D1124BC01A4
S11332B080E090E00E94972B2AE037ED43E25CE344
S11332C00E94252C0E94682B79BD68BD0895B89A88
S11332D0C09A87B3866087BBBB988DB181658DB971
S11332E008958FB9779BFECF8FB1089583B784601B
S11332F083BF87B7826087BF7894089583B7886057
S113330083BF12BE8CE781BF089584EA8093740062
S11333108AEFE4E7F0E002C0815019F0908199232C
S1133320DCF7089584E9809374008AEFE4E7F0E021
S113333002C0815019F0908194FDFBCF08958093D1
S1133340730084E8809374008AEFE4E7F0E002C03D
S1133350815019F090819923DCF7089584EC8093CF
S113336074008AEFE4E7F0E002C0815029F0908114
S11333709923DCF780917300089584E880937400A6
S11333808AEFE4E7F0E002C0815029F090819923AC
S1133390DCF780917300089585EC8093740010929B
S11333A00A0C08951F920F920FB60F9211242F93B7
S11333B03F934F935F936F937F938F939F93AF93B9
S11333C0BF93EF93FF9380917100E82FE87F8E2FD6
S11333D090E0893C910508F0F5C0FC01E75AFF4FE5
S11333E00C9441308091090C8093730085E880939C
S11333F07400E8C09091FA0B8091F90B981780F44F
S1133400E091FA0B81E08E0F8093FA0BF0E0E55027
S1133410F44F80818093730085EC80937400D2C054
S11334208091080C882319F00E949219CBC081E086
S11334308093070C84EA8093740010920A0CC2C033
S113344080E28093DB0B0E949219BCC080E38093DE
S1133450DB0B0E949219B6C088E38093DB0B0E94B9
S1133460CC19B0C0E091F00B81E08E0F8093F00B8B
S113347080917300F0E0EF50F44F80839091F00B53
S11334808091EF0B981720F485EC809374009AC018
S113349085E88093740096C0E091F00B81E08E0F74
S11334A08093F00B80917300F0E0EF50F44F808331
S11334B08091080C882319F00E94921983C081E03E
S11334C08093070C84EA8093740010920A0C7AC0EB
S11334D00E94921977C083E080930A0C1092DC0B4F
S11334E085EC809374006EC08091DC0B883080F48E
S11334F0E091DC0B81E08E0F8093DC0B80917300F4
S1133500F0E0E352F44F808385EC809374005AC05A
S113351085E88093740056C00E94CC198091DC0B1E
S1133520883030F4E091DC0BF0E0E352F44F108289
S11335306091DC0B70E0E091030CF091040C8DEDD4
S11335409BE009951092DC0B3DC085E880937400E4
S113355039C084E080930A0C1092E60B1092E50BBC
S1133560E091050CF091060C09958091E50B811111
S113357005C081E08093E50B1092E70BE091E60B28
S113358081E08E0F8093E60BF0E0E951F44F8081E7
S1133590809373009091E60B8091E50B981720F4CB
S11335A085EC809374000EC085E8809374000AC093
S11335B085EC8093740010920A0C04C01092DB0B0B
S11335C00E949219FF91EF91BF91AF919F918F91BA
S11335D07F916F915F914F913F912F910F900FBE0B
S11335E00F901F9018952FB7F894FC01E05CFF4FE3
S11335F0108231961082319610822FBF08958E5B0F
S11336009F4FFC01908181E0911180E00895FB01BE
S1133610E05CFF4F9081DB01A90FB11D8C939FB734
S1133620F89480818F5F8F738083329680818F5F5F
S113363080839FBF0895FC01EF5BFF4F2081DC0175
S1133640A20FB11D3C914FB7F89420812F5F2F73C7
S1133650208331969081915090834FBF832F08959A
S11336608091F5019091F6018D5B9F4F0E94F31AB2
S11336708091F5019091F6010E94F31A1092900046
S113368083E389B98AB188698AB9E5E9F0E0808180
S113369086608083789408956091F5017091F601B5
S11336A0FB01EB57FF4F90819034E9F36D5B7F4F43
S11336B00E94071B559A0895CF93DF93EC018881EC
S11336C0882331F021960E944C1B89918111FBCFF4
S11336D0DF91CF9108950F931F93CF93DF936623C8
S11336E071F0EC016150062F10E00F5F1F4F080FBF
S11336F0191F89910E944C1BC017D107D1F7DF9184
S1133700CF911F910F910895CF93DF93EC012196F0
S1133710FC018491882339F00E944C1BFE018491A2
S113372021968111F9CFDF91CF9108958091F50110
S11337309091F60108958091F3019091F4018D5BCD
S11337409F4F0E94F31A8091F3019091F4010E941B
S1133750F31A1092980089E180939900EAE9F0E065
S1133760808188698083EDE9F0E0808186608083D0
S1133770EBE9F0E080818260808308956091F30139
S11337807091F401FB01EB57FF4F90819034E9F302
S11337906D5B7F4F0E94071BEAE9F0E08081806245
S11337A0808308950F931F93CF93DF93662371F063
S11337B0EC016150062F10E00F5F1F4F080F191F17
S11337C089910E94BE1BC017D107D1F7DF91CF9119
S11337D01F910F9108958091F3019091F401089540
S11337E01F920F920FB60F9211242F933F934F9372
S11337F05F936F937F938F939F93AF93BF93EF9355
S1133800FF938CB16091F5017091F601FB01EE5BC1
S1133810FF4F9081903471F00E94071BE091F501F5
S1133820F091F6018BB18C7190E0EA57FF4F9183D0
S1133830808309C08BB18C71816090E0FB01EA57F1
S1133840FF4F91838083FF91EF91BF91AF919F913F
S11338508F917F916F915F914F913F912F910F9035
S11338600FBE0F901F9018951F920F920FB60F92D4
S113387011242F933F934F935F936F937F938F9371
S11338809F93AF93BF93EF93FF938091F501909132
S1133890F601FC01EB57FF4F2081222331F08D5BB1
S11338A09F4F0E941B1B8CB901C05598FF91EF914B
S11338B0BF91AF919F918F917F916F915F914F9144
S11338C03F912F910F900FBE0F901F9018951F924C
S11338D00F920FB60F9211242F933F934F935F9340
S11338E06F937F938F939F93AF93BF93EF93FF93C4
S11338F080919C006091F3017091F401FB01EE5BF7
S1133900FF4F9081903479F00E94071BE091F301FE
S1133910F091F40180919B008C7190E0EA57FF4F85
S1133920918380830AC080919B008C7190E09160A8
S1133930FB01EA57FF4F91838083FF91EF91BF9181
S1133940AF919F918F917F916F915F914F913F9133
S11339502F910F900FBE0F901F9018951F920F92EA
S11339600FB60F9211242F933F934F935F936F934E
S11339707F938F939F93AF93BF93EF93FF93809124
S1133980F3019091F401FC01EB57FF4F20812223B6
S113399039F08D5B9F4F0E941B1B80939C0005C0D8
S11339A0EAE9F0E080818F7D8083FF91EF91BF9100
S11339B0AF919F918F917F916F915F914F913F91C3
S11339C02F910F900FBE0F901F9018952F923F923A
S11339D04F925F926F927F928F929F92AF92BF921B
S11339E0CF92DF92EF92FF920F931F93CF93DF93C7
S11339F0CDB7DEB7AA970FB6F894DEBF0FBECDBF22
S1133A008C017AA769A76E0189E1C80ED11C2C2C00
S1133A103D2C17C319821A821B821C8289819A81C8
S1133A20AB81BC81F801E80FF91F8081853249F12F
S1133A3089819A81AB81BC81F801E80FF91F8081EB
S1133A408823F9F089819A81AB81BC810196A11DFB
S1133A50B11D89839A83AB83BC8389819A81AB81AD
S1133A60BC81F801E80FF91F8081853251F089810A
S1133A709A81AB81BC81F801E80FF91F8081811123
S1133A80E1CF69817A818B819C81C8010E946B1B83
S1133A9089819A81AB81BC81080F191FD8018C914F
S1133AA0853209F0CEC211961D861E861F86188A9D
S1133AB06894FF24F5F88D010F5F1F4F2C91422F5E
S1133AC0022E000C550B660B770BFA01B597E43503
S1133AD0F10508F0ABC2EE5DFE4F0C94413020338B
S1133AE061F48D859E85AF85B889892B8A2B8B2BB4
S1133AF021F40F2EF0E3FF2EF02D8D859E85AF85EA
S1133B00B889880F991FAA1FBB1FAC01BD01440FC0
S1133B10551F661F771F440F551F661F771F840F9D
S1133B20951FA61FB71F8D879E87AF87B88B4D85BE
S1133B305E856F857889022E000C330BC901C0970E
S1133B40092E000CAA0BBB0B840F951FA61FB71FD1
S1133B508D879E87AF87B88BD801ADCFE9A4FAA42F
S1133B60B4E0EB0EF11CE9A5FAA580819181A28154
S1133B70B3818D839E83AF83B88761E0CE010596C0
S1133B800E946B1BFAA6E9A65CC229A53AA52E5F82
S1133B903F4FA9A5BAA58D919C91A0E0B0E08D837B
S1133BA09E83AF83B88719861A861B861C868D81EF
S1133BB09E81AF81B885BB23C4F48D819E81AF8182
S1133BC0B885B095A095909581959F4FAF4FBF4F05
S1133BD08D839E83AF83B88781E090E0A0E0B0E05E
S1133BE08D8B9E8BAF8BB88F04C01D8A1E8A1F8A53
S1133BF0188E8AE090E0A0E0B0E0898B9A8BAB8BC2
S1133C00BC8B3AA729A7BCC0E9A4FAA492E0E90EA8
S1133C10F11CA9A5BAA58D919C9119821A821B82C7
S1133C201C8249815A816B817C81FC01E40FF51F60
S1133C3020812223B1F049815A816B817C814F5FBD
S1133C405F4F6F4F7F4F49835A836B837C834981D6
S1133C505A816B817C81FC01E40FF51F20812111C5
S1133C60EACF49815A816B817C81642F0E946B1B4E
S1133C704D855E856F85788989819A81AB81BC8108
S1133C8084179507A607B70708F0D6C149815A815A
S1133C906B817C818D859E85AF85B889841B950B4E
S1133CA0A60BB70B8D879E87AF87B88B8D859E85B6
S1133CB0AF85B889AC01BD01415051096109710951
S1133CC04D875E876F87788B892B8A2B8B2B09F422
S1133CD0B6C161E088E39AE00E946B1B8D859E85E6
S1133CE0AF85B889AC01BD01415051096109710921
S1133CF04D875E876F87788B892B8A2B8B2B49F7AF
S1133D00FAA6E9A69EC1E9A5FAA580819181A0E061
S1133D10B0E08D839E83AF83B88719861A861B868D
S1133D201C868AE090E0A0E0B0E0898B9A8BAB8B94
S1133D30BC8B1D8A1E8A1F8A188E3296FAA7E9A7A1
S1133D401FC0A9A5BAA58D919C91A0E0B0E08D8378
S1133D509E83AF83B88719861A861B861C8680E1EA
S1133D6090E0A0E0B0E0898B9A8BAB8BBC8B1D8A72
S1133D701E8A1F8A188EA9A5BAA51296BAA7A9A742
S1133D8081E090E0A0E0B0E089839A83AB83BC83B8
S1133D9029813A814B815C8169897A898B899C89E3
S1133DA08D809E80AF80B8840E940F30861697065F
S1133DB0A806B90668F548C029893A894B895C89FF
S1133DC069817A818B819C810E940F3069837A8317
S1133DD08B839C838D859E85AF85B8890197A109C6
S1133DE0B1098D879E87AF87B88B29813A814B8132
S1133DF05C8169897A898B899C898D809E80AF805A
S1133E00B8840E940F3086169706A806B906E0F01B
S1133E1029813A814B815C8169897A898B899C8962
S1133E2049885A886B887C8889809A80AB80BC805A
S1133E300E940F30A30192010E941F3028153905FA
S1133E404A055B0509F4B8CF8D899E89AF89B88D81
S1133E50892B8A2B8B2B59F08D859E85AF85B8894C
S1133E600197A109B1098D879E87AF87B88B8D898A
S1133E709E89AF89B88D892B8A2B8B2BD1F090E347
S1133E80F91217C089859A85AB85BC85AC01BD0143
S1133E904F5F5F4F6F4F7F4F49875A876B877C8790
S1133EA0F601E80FF91FADE2A0831D8A1E8A1F8A5E
S1133EB0188E8D859E85AF85B8890297A105B105B9
S1133EC008F440C08D859E85AF85B8894097A105CB
S1133ED0B105C0F58D859E85AF85B8890197A10987
S1133EE0B1098D879E87AF87B88B8D859E85AF85F9
S1133EF0B889892B8A2B8B2B29F189859A85AB85E7
S1133F00BC85AC01BD014F5F5F4F6F4F7F4F498749
S1133F105A876B877C87F601E80FF91FF0828D853D
S1133F209E85AF85B8890197A109B1098D879E87C0
S1133F30AF87B88B8D859E85AF85B889892B8A2BF1
S1133F408B2BD9F68D899E89AF89B88D892B8A2BC5
S1133F508B2B99F089859A85AB85BC85AC01BD0115
S1133F604F5F5F4F6F4F7F4F49875A876B877C87BF
S1133F70F601E80FF91FBDE2B08389819A81AB8114
S1133F80BC81892B8A2B8B2B09F442C049845A8427
S1133F906B847C84B301A2014F5F5F4F6F4F7F4FEF
S1133FA049875A876B877C876D817E818F8198854D
S1133FB029813A814B815C8189889A88AB88BC8845
S1133FC07601E40CF51C0E941F30CA01B901A50159
S1133FD094010E941F30FB01E351F54F8081F701EA
S1133FE0808329893A894B895C8969817A818B81AB
S1133FF09C810E941F3029833A834B835C8389818F
S11340009A81AB81BC81892B8A2B8B2B09F0BECF83
S113401069857A858B859C85822D932D0E946B1BE7
S113402010C061E0CD010E946B1B0BC065E08EEFF8
S11340309AE00E946B1B05C0FAA6E9A602C0FAA684
S1134040E9A6D8018C918111E5CCAA960FB6F89413
S1134050DEBF0FBECDBFDF91CF911F910F91FF90B7
S1134060EF90DF90CF90BF90AF909F908F907F9014
S11340706F905F904F903F902F900895CF93DF9370
S1134080CDB7DEB7BE016B5F7F4FFB01819191918C
S1134090BF010E94E61CDF91CF910895CF92DF9279
S11340A0EF92FF920F931F93CF93DF93CDB7DEB7B9
S11340B065970FB6F894DEBF0FBECDBF6C010E94AA
S11340C085198EEE0E949F1981E30E949F190E9418
S11340D085198FEE0E949F198E010F5F1F4F7E017D
S11340E085E1E80EF11C0E94AE19F80181938F015D
S11340F0EE15FF05C1F70E94BD19882309F44AC0D3
S11341002A8130E0322F22279981292BF601328B24
S1134110218B2C8130E0322F22279B81292B348B59
S1134120238B9D81958B2F8130E0322F22279E8116
S1134130292B378B268B298530E0322F222798852F
S1134140292B318F208F9A85928F9B85938F2D8574
S113415030E0322F22279C85292B358F248F2F8501
S113416030E0322F22279E85292B378F268F98897E
S113417090A3998991A32B8930E0322F22279A8921
S1134180292B33A322A39C8994A385A30E9492196B
S113419081E001C080E065960FB6F894DEBF0FBEE3
S11341A0CDBFDF91CF911F910F91FF90EF90DF90E2
S11341B0CF9008950F931F93CF93DF93EC016989F8
S11341C07A8980E090E00E94972B20E030E040E87C
S11341D053E40E94252C6EA37FA388A799A76B891B
S11341E07C8980E090E00E94972B20E030E040E85A
S11341F050E30E94252C6AA77BA78CA79DA76D89F5
S1134200062E000C770B880B990B0E94992B20E04B
S113421030E040E857E20E94252C6EA77FA788ABC8
S113422099AB6E897F897054072E000C880B990B0B
S11342300E94992B20E030E040E855E30E94252CB1
S11342406AAB7BAB8CAB9DAB688D798D7054072EBC
S1134250000C880B990B0E94992B20E030E040E081
S113426051E30E94252C6EAB7FAB88AF99AF6A8D6A
S1134270062E000C770B880B990B0E94992B20E0DB
S113428030E040E85FE20E94252C6AAF7BAF8CAF40
S11342909DAF8E01025C1F4F6B8D062E000C770BB9
S11342A0880B990B0E94992B20E030E040E05DE2FE
S11342B00E94252CF80160837183828393830C5FB1
S11342C01F4F6C8D7D8D80E090E00E94972B20E045
S11342D030E040E051E40E94252CF80160837183B2
S11342E0828393830C5F1F4F6E8D7F8D80E090E0FF
S11342F00E94972B20E030E040E85CE30E94252CEC
S1134300F80160837183828393830C5F1F4F68A1DC
S1134310062E000C770B880B990B0E94992B20E03A
S113432030E040E85BE30E94252CF8016083718350
S1134330828393830C5F1F4F69A1062E000C770BB9
S1134340880B990B0E94992B20E030E040E058E361
S11343500E94252CF80160837183828393830C5F10
S11343601F4F6AA17BA180E090E00E94972B20E080
S113437030E040E857E20E94252CF8016083718305
S1134380828393830C5F1F4F6CA1062E000C770B66
S1134390880B990B0E94992B20E030E040E857E20B
S11343A00E94252CF80160837183828393830C5FC0
S11343B01F4F6DA1062E000C770B880B990B0E94E2
S11343C0992B20E030E040E05FE10E94252CF801C9
S11343D06083718382839383DF91CF911F910F91C7
S11343E00895CF93C82F0E9485198EEE0E949F19BD
S11343F08BE10E949F190E9485198FEE0E949F19DC
S11344000E94BD1990E1C99F900111248F7CC82F8F
S1134410C22B0E9492190E9485198EEE0E949F1948
S11344208BE10E949F198C2F83600E949F190E9428
S11344309219CF910895CF9383E00E94F1218AEEDF
S11344409DE00E944E20C82F8AEE9DE00E94DA2053
S11344508C2FCF910895CF92DF92EF92FF920F931A
S11344601F93CF93DF9300D000D000D0CDB7DEB739
S11344707C010E9485198EEE0E949F1984E00E949F
S11344809F190E9485198FEE0E949F198E010F5F5C
S11344901F4F6E0186E0C80ED11C0E94AE19F801B0
S11344A081938F01EC15FD05C1F70E94BD199B8115
S11344B04A8150E060E070E0762F652F542F442746
S11344C0692B9981492B0D8110E020E030E0322FD7
S11344D0212F102F00279C81092B282BF701008303
S11344E011832283338340875187628773870E94B5
S11344F0921926960FB6F894DEBF0FBECDBFDF919A
S1134500CF911F910F91FF90EF90DF90CF9008957E
S11345108F929F92AF92BF92CF92DF92EF92FF92CF
S1134520CF93DF93EC01688179818A819B810E941A
S1134530992B2EA13FA148A559A50E94822A6B015F
S11345407C019B01AC010E94252C2EA53FA548A906
S113455059A90E94252C4B015C012AA53BA54CA519
S11345605DA5C701B6010E94252C9B01AC01C501C4
S1134570B4010E94832A20E030E040E251E40E942A
S1134580252C6C837D838E839F83DF91CF91FF9055
S1134590EF90DF90CF90BF90AF909F908F90089551
S11345A04F925F926F927F928F929F92AF92BF923F
S11345B0CF92DF92EF92FF920F931F93CF93DF93EB
S11345C0CDB7DEB762970FB6F894DEBF0FBECDBF8E
S11345D09A8B898BFC014480558066807780A30187
S11345E09201C301B2010E94252C6B017C019B0145
S11345F0AC01C301B2010E94252C6D837E838F839D
S11346009887E989FA8960857185828593850E94F6
S1134610992B69837A838B839C839B01AC010E94D1
S1134620252C69877A878B879C87E989FA8926A94B
S113463037A940AD51ADC301B2010E94252CE989CF
S1134640FA8922A933A944A955A90E94832A4B01B6
S11346505C01E989FA8922AD33AD44AD55ADC7019A
S1134660B6010E94252C9B01AC01C501B4010E9436
S1134670832A4B015C01E989FA89FE962081318104
S1134680428153816D817E818F8198850E94252C82
S11346909B01AC01C501B4010E94832A29813A819E
S11346A04B815C810E94252C4B015C01E989FA89CC
S11346B0EA5BFF4F2081318142815381C301B20102
S11346C00E94252CE989FA89EE5BFF4F2081318114
S11346D0428153810E94832A6D877E878F87988BBE
S11346E0E989FA89E65BFF4F208131814281538158
S11346F0C701B6010E94252C9B01AC016D857E8506
S11347008F8598890E94832A6B017C01E989FA8943
S1134710E25BFF4F20813181428153816D817E8133
S11347208F8198850E94252C9B01AC01C701B6019D
S11347300E94832A9B01AC01C501B4010E94832A13
S11347406B017C01E989FA89EE5AFF4FA989BA897C
S1134750AA5ABF4F2D913D914D915C916081718119
S1134760828193810E94252CA30192010E94252C11
S113477029853A854B855C850E94252C4B015C017B
S113478009891A89065A1F4F29853A854B855C8504
S113479069817A818B819C810E94252CF80120817A
S11347A03181428153810E94252C9B01AC01C501BA
S11347B0B4010E94832A9B01AC01C701B6010E9487
S11347C0832A20E030E040E251E40E94EF2AE989A4
S11347D0FA89648775878687978762960FB6F894F7
S11347E0DEBF0FBECDBFDF91CF911F910F91FF9020
S11347F0EF90DF90CF90BF90AF909F908F907F907D
S11348006F905F904F9008950E941B228AEE9DE066
S11348100E942B228AEE9DE00E9488228AEE9DE06F
S11348200E94D02208956091EE0D7091EF0D809159
S1134830F00D9091F10D0E94612BCB0108956091D0
S1134840F60D7091F70D8091F80D9091F90D0E947D
S1134850682BCB010895CF93DF93D82FC62F0E94E6
S1134860851984ED0E949F198D2F0E949F198C2F0A
S11348700E949F190E94921981E0DF91CF910895BF
S1134880CF93C82F0E94851984ED0E949F198C2F05
S11348900E949F190E94851985ED0E949F190E940C
S11348A0BD198093480E0E9492198091480ECF91B1
S11348B0089560E480E10E942B2460E481E10E9479
S11348C02B248DE20E94402491E0811101C090E0EC
S11348D0892F0895CF92DF92EF92FF920F931F9347
S11348E0CF93DF93EC0188E20E944024E82E89E212
S11348F00E944024C82E8AE20E944024082F8BE2A2
S11349000E944024D82E8CE20E944024182F8DE26D
S11349100E944024F82E6E2D70E07C29072E000C96
S1134920880B990B0E94992B23E23BED49E75DE349
S11349300E94252C0E94612B79836883602F70E08C
S11349407D29072E000C880B990B0E94992B23E2DA
S11349503BED49E75DE30E94252C0E94612B7B839C
S11349606A83612F70E07F29072E000C880B990B56
S11349700E94992B23E23BED49E75DE30E94252C3D
S11349800E94612B7D836C83DF91CF911F910F91E6
S1134990FF90EF90DF90CF900895CF92DF92EF9247
S11349A0FF920F931F93CF93DF93EC0182E20E9457
S11349B04024E82E83E20E944024C82E84E20E9410
S11349C04024082F8BE20E944024D82E8CE20E94BF
S11349D04024182F8DE20E944024F82E6E2D70E0A2
S11349E07C29072E000C880B990B0E94992B20E040
S11349F030E04CE051E40E94252C20E030E04AE70E
S1134A0054E40E94EF2A0E94612B79836883602F0B
S1134A1070E07D29072E000C880B990B0E94992BBE
S1134A2020E030E04CE051E40E94252C20E030E00E
S1134A304AE754E40E94EF2A0E94612B7B836A8335
S1134A40612F70E07F29072E000C880B990B0E94C0
S1134A50992B20E030E04CE051E40E94252C20E02A
S1134A6030E04AE754E40E94EF2A0E94612B7D83E0
S1134A706C83DF91CF911F910F91FF90EF90DF90A6
S1134A80CF900895BC9A8E9AA49AA59A8F9A0E9460
S1134A9067190895813041F028F0823039F083306D
S1134AA039F00895C498089596980895AC98089597
S1134AB0AD980895813041F028F0823039F0833088
S1134AC039F00895C49A0895969A0895AC9A089571
S1134AD0AD9A089597980895979A0895AF92BF92C2
S1134AE0CF92DF92EF92FF920F931F93CF93DF93B6
S1134AF0CDB7DEB728970FB6F894DEBF0FBECDBF93
S1134B00043008F06CC0122FB42EA62E6C01802F36
S1134B100E944A25E02EF12CC6019F70F701EE0F8A
S1134B20FF1F21E030E02C0F3D1FE20FF31F8083B5
S1134B309F708181807F892B8183AA2049F0F701AE
S1134B40EE0FFF1FE20FF31F81818F7E81830CC064
S1134B50F701EE0FFF1F81E090E08C0F9D1FE80F1F
S1134B60F91F818180618183BB2069F0F701EE0F19
S1134B70FF1F21E030E02C0F3D1FE20FF31F818166
S1134B808F7D81830CC0F701EE0FFF1F81E090E061
S1134B908C0F9D1FE80FF91F818180628183EE0CC9
S1134BA0FF1CE1E0F0E0EC0FFD1FEE0EFF1EF7012D
S1134BB0818110FB86F9818381818F778183818153
S1134BC00E947119F70180810E947119802F0E943F
S1134BD05A250E946A250E946C2580E001C081E06C
S1134BE028960FB6F894DEBF0FBECDBFDF91CF91EC
S1134BF01F910F91FF90EF90DF90CF90BF90AF90F7
S1134C0008950E94FC18880F991FFC01E65FF44F79
S1134C10859194910895FC01C798BF9AF8942FEF59
S1134C20260F662309F428C098B3892F8F779068DC
S1134C300190008009D0029007D00190019001906A
S1134C4003D0019001D015C008D007D006D005D0FC
S1134C5004D003D002D001D00895001C90933800F2
S1134C6010F0809338000000000010F480933800A6
S1134C700895215008F0D8CF7894089580E090E00A
S1134C80FC01EE0FFF1FEE0FFF1FEC58F34F1082D5
S1134C9011821282138201968A30910589F7089550
S1134CA00E943E266AE084E79CE00E940B26089559
S1134CB0E9E4FEE08083618342832383E4E7FCE04C
S1134CC0ACE9BCE080836183428323833496EA1792
S1134CD0FB07C1F76AE084E79CE00E940B26089575
S1134CE06091490E70914A0E80914B0E90914C0E3A
S1134CF00895E4E6F0E0808181608083D79AD49AB5
S1134D00A69A0895813069F028F0823069F08330E2
S1134D1071F010C0E5E6F0E080818160808380E07E
S1134D200895DF9A80E00895DC9A80E00895AE9AB1
S1134D3080E0089581E00895813069F028F08230A0
S1134D4069F0833071F010C0E5E6F0E080818E7F79
S1134D50808380E00895DF9880E00895DC9880E007
S1134D600895AE9880E0089581E00895129A169807
S1134D701E9A1A9808951A9A1A98089510924E0E27
S1134D8010924D0E10922A0C10920B0C8CE3EBE255
S1134D90FCE0DF011D928A95E9F78EE1ECE0FCE08E
S1134DA0DF011D928A95E9F788E0EFE4FEE0DF0178
S1134DB01D928A95E9F70E947E190895823040F485
S1134DC0E82FF0E0EE0FFF1FE15BF14F51834083CA
S1134DD00895E82FF0E0EE0FFF1FE15BF14F208113
S1134DE0318181E0232B09F080E00895CF93DF9394
S1134DF0EC01892B39F16115710531F190912A0C7F
S1134E00993020F5292F30E0F901EE0FFF1FDF0163
S1134E10A20FB31FAA0FBB1FA55DB34F15967C93BA
S1134E206E93149711961C92119713961C921E92CE
S1134E301297FD0181E0808398839F5F90932A0CF1
S1134E4080E005C081E003C081E001C081E0DF9122
S1134E50CF910895CF93DF93EC01892B21F1611554
S1134E60710519F190910B0C943008F5292F30E05D
S1134E70F901EE0FFF1FDF01A20FB31FAA0FBB1F23
S1134E80A45FB34F15967C936E9314971C9211965E
S1134E901C921197FD011382128298839F5F909355
S1134EA00B0C80E005C081E003C081E001C081E01B
S1134EB0DF91CF91089590910B0C8917A0F490E0A5
S1134EC0FC01EE0FFF1FDF01A80FB91FAA0FBB1FC4
S1134ED0A45FB34F13961C921E921297FD0181E0BA
S1134EE0808380E0089581E008951F93CF93DF933A
S1134EF080914D0E90914E0E019690934E0E80939C
S1134F004D0E80912A0C882359F1EBE2FCE081508C
S1134F1090E001969C01220F331F820F931F880F8C
S1134F20991F855D934F61E0A481B5812C91213057
S1134F3099F42081213081F4228133812F5F3F4F06
S1134F403383228312964D915C911397241735076E
S1134F5018F01382128261833696E817F90721F755
S1134F6040910B0C442361F1ECE0FCE080E051E063
S1134F7010E0DF0190819130B1F4228133812F5F01
S1134F803F4F33832283C481D58169817A81261777
S1134F90370748F0518313821282952F28812230DB
S1134FA009F0912F9C938F5F36968413E2CF08C04B
S1134FB0EFE4FEE08281938101979383828313C09F
S1134FC080914F0E9091500E892B39F0EFE4FEE062
S1134FD0808191810197918380838091510E90917A
S1134FE0520E892B29F7DF91CF911F9108950E94CA
S1134FF076190895CF9380912A0C8823B9F1C0E0E3
S11350008C2F90E0FC01EE0FFF1FE80FF91FEE0F4D
S1135010FF1FE55DF34F2181213019F5FC01EE0FEF
S1135020FF1FE80FF91FEE0FFF1FE55DF34F20810F
S11350302130B9F4FC01EE0FFF1FDF01A80FB91FE7
S1135040AA0FBB1FA55DB34F11961C921197FD01CA
S11350500480F581E02D0480F581E02D309709F07E
S11350600995CF5F80912A0CC81750F280910B0CE0
S1135070882359F1C0E08C2F90E0FC01EE0FFF1F54
S1135080E80FF91FEE0FFF1FE45FF34F218121307A
S1135090B9F4FC01EE0FFF1FDF01A80FB91FAA0F1F
S11350A0BB1FA45FB34F11961C921197FD0104809E
S11350B0F581E02D0380F481E02D309709F0099506
S11350C0CF5F80910B0CC817B0F2CF9108951F9257
S11350D00F920FB60F9211242F933F934F935F9328
S11350E06F937F938F939F93AF93BF93EF93FF93AC
S11350F00E947527FF91EF91BF91AF919F918F917E
S11351007F916F915F914F913F912F910F900FBEBF
S11351100F901F901895FC015FEF540F442311F179
S1135120A62FB72F2D912F27322F32953F70922F14
S11351309327292F30E0FE2FEE27E227F327C9011A
S1135140982F88279295907FE827F927220F331FFD
S113515022953295307F3227207F3227E227F327AA
S1135160515000F7CF0108958093530E1092670CAD
S11351700895EF92FF920F93CF93DF93E7013AECF8
S113518038833091530E39832A834B830C832FEE5B
S11351902AAB009741F021E0240F2B83FC0180818E
S11351A08D8381E001C080E0442361F0E62FF72F76
S11351B0480F9191DE01A80FB11D15969C938F5F46
S11351C04813F7CF4B814C5FBE016F5F7F4F80E088
S11351D090E00E948B2899AB88ABDF91CF910F911F
S11351E0FF90EF900895EF92FF920F93CF93DF9388
S11351F01F92CDB7DEB78983013031F408E0CE01C8
S113520001960E94B92805C007E0CE0101960E94CC
S1135210B9280F90DF91CF910F91FF90EF900895EF
S1135220AF92BF92DF92EF92FF920F931F93CF93AF
S1135230DF93FC01DB01D0A8E1A87E2D6D2D8081D8
S11352408C93818111968C931197828112968C9301
S11352501297838113968C931397848114968C935D
S113526014978381882309F444C020E095E08DEBF2
S11352700F2EFBEDFF2EF02D1EED3CEDEF01C20FC6
S1135280D11D0D810A3C69F4ED01C90FD11D88833C
S1135290C1E0C90F5D01AC0EB11CE5019E5F38830E
S11352A023C00F3E69F4ED01C90FD11D8883C1E00D
S11352B0C90F5D01AC0EB11CE5019E5F188314C0DB
S11352C00D3B69F4ED01C90FD11D8883C1E0C90FFD
S11352D05D01AC0EB11CE5019E5FF88205C0ED01D5
S11352E0C90FD11D08839F5F2F5FC3812C1730F234
S11352F001C095E07A3C71F4FD01E90FF11D8DEBDD
S1135300808322E0290F9F5FFD01E90FF11D8CEDE1
S1135310808326C07F3E71F4FD01E90FF11D8DEB02
S1135320808322E0290F9F5FFD01E90FF11D8EEDBF
S1135330808316C07D3B71F4FD01E90FF11D8DEBF7
S1135340808322E0290F9F5FFD01E90FF11D8BEDA2
S1135350808306C021E0290FFD01E90FF11DE082E1
S11353606A3C71F4FD01E20FF11D8DEB808382E054
S1135370820F2F5FFD01E20FF11D9CED908326C08B
S11353806F3E71F4FD01E20FF11D8DEB808382E02D
S1135390820F2F5FFD01E20FF11D9EED908316C079
S11353A06D3B71F4FD01E20FF11D8DEB808382E012
S11353B0820F2F5FFD01E20FF11D9BED908306C06C
S11353C081E0820FFD01E20FF11DD082A80FB11D13
S11353D09FEE9C938F5FFA018083DF91CF911F91A1
S11353E00F91FF90EF90DF90BF90AF900895CF930F
S11353F0DF93982F8091670C823001F128F4882381
S113540041F08130A1F03DC0833039F1843091F115
S113541038C09A3C41F4FB0190839091670C9F5FE4
S11354209093670C6CC01092670C82E068C0FB011B
S1135430918382E08093670C80E061C0FB019283DA
S11354408091530E981305C083E08093670C80E02D
S113545056C01092670C83E052C09C3220F0109228
S1135460670C82E04CC0FB01938384E08093670C5B
S113547080E045C0FB01948385E08093670C80E065
S11354803EC0282F30E0FB014381E42FF0E0DF0130
S113549015962A173B074CF4FB01E20FF31F908388
S11354A08F5F8093670C80E02AC02A173B0741F482
S11354B0FB0110AA91AB8F5F8093670C80E01FC043
S11354C036962E173F07C1F4FB01C0A9D1A9C92BF9
S11354D0D1ABC0AB4C5F6F5F7F4F80E090E00E9428
S11354E08B28C817D90721F41092670C81E007C0F4
S11354F01092670C82E003C01092670C84E0DF9185
S1135500CF9108955058BB27AA270E949A2A0C9439
S1135510EB2B0E94DD2B38F00E94E42B20F039F4B1
S11355209F3F19F426F40C94DA2B0EF4E095E7FB74
S11355300C94D42BE92F0E94FC2B58F3BA17620762
S113554073078407950720F079F4A6F50C941E2CB4
S11355500EF4E0950B2EBA2FA02D0B01B90190018A
S11355600C01CA01A0011124FF27591B99F0593FCE
S113557050F4503E68F11A16F040A22F232F342F16
S11355804427585FF3CF469537952795A795F04064
S11355905395C9F77EF41F16BA0B620B730B840B79
S11355A0BAF09150A1F0FF0FBB1F661F771F881F31
S11355B0C2F70EC0BA0F621F731F841F48F4879589
S11355C077956795B795F7959E3F08F0B0CF93957B
S11355D0880F08F09927EE0F9795879508950E94F4
S11355E0032B0C94EB2B0E94E42B58F00E94DD2B30
S11355F040F029F45F3F29F00C94D42B51110C9402
S11356001F2C0C94DA2B0E94FC2B68F39923B1F322
S1135610552391F3951B550BBB27AA2762177307D4
S1135620840738F09F5F5F4F220F331F441FAA1F68
S1135630A9F335D00E2E3AF0E0E832D09150504024
S1135640E695001CCAF72BD0FE2F29D0660F771FD2
S1135650881FBB1F261737074807AB07B0E809F0B8
S1135660BB0B802DBF01FF2793585F4F3AF09E3F3D
S1135670510578F00C94D42B0C941F2C5F3FE4F369
S1135680983ED4F3869577956795B795F7959F5F80
S1135690C9F7880F911D9695879597F90895E1E0CC
S11356A0660F771F881FBB1F621773078407BA072B
S11356B020F0621B730B840BBA0BEE1F88F7E09586
S11356C008950E94682B6894B1110C941F2C0895BE
S11356D00E94042C88F09F5798F0B92F9927B7514E
S11356E0B0F0E1F0660F771F881F991F1AF0BA9582
S11356F0C9F714C0B13091F00E941E2CB1E0089596
S11357000C941E2C672F782F8827B85F39F0B93F87
S1135710CCF3869577956795B395D9F73EF4909534
S11357208095709561957F4F8F4F9F4F0895E894B2
S113573009C097FB3EF490958095709561957F4FD5
S11357408F4F9F4F9923A9F0F92F96E9BB27939583
S1135750F695879577956795B795F111F8CFFAF493
S1135760BB0F11F460FF1BC06F5F7F4F8F4F9F4FC4
S113577016C0882311F096E911C0772321F09EE822
S1135780872F762F05C0662371F096E8862F70E088
S113579060E02AF09A95660F771F881FDAF7880F62
S11357A09695879597F9089597F99F6780E870E033
S11357B060E008959FEF80EC089500240A94161683
S11357C0170618060906089500240A9412161306EB
S11357D0140605060895092E0394000C11F4882379
S11357E052F0BB0F40F4BF2B11F460FF04C06F5F95
S11357F07F4F8F4F9F4F089557FD9058440F551F6B
S113580059F05F3F71F04795880F97FB991F61F03E
S11358109F3F79F087950895121613061406551FB5
S1135820F2CF4695F1DF08C0161617061806991F21
S1135830F1CF86957105610508940895E894BB2716
S113584066277727CB0197F908950E94382C0C948A
S1135850EB2B0E94DD2B38F00E94E42B20F09523E3
S113586011F00C94D42B0C94DA2B11240C941F2CCF
S11358700E94FC2B70F3959FC1F3950F50E0551FC8
S1135880629FF001729FBB27F00DB11D639FAA2791
S1135890F00DB11DAA1F649F6627B00DA11D661FE0
S11358A0829F2227B00DA11D621F739FB00DA11D01
S11358B0621F839FA00D611D221F749F3327A00DBB
S11358C0611D231F849F600D211D822F762F6A2F57
S11358D011249F5750409AF0F1F088234AF0EE0FBC
S11358E0FF1FBB1F661F771F881F91505040A9F7E9
S11358F09E3F510580F00C94D42B0C941F2C5F3FD9
S1135900E4F3983ED4F3869577956795B795F79524
S1135910E7959F5FC1F7FE2B880F911D969587959C
S113592097F90895A0E1B0E0E8E9FCE20C94523064
S11359307C011B016A01FC0117821682838181FFAD
S113594044C39E012F5F3F4F3901F7019381F10159
S113595093FD859193FF81911F01882309F431C33D
S1135960853239F493FD859193FF81911F0185322E
S113597039F4B70190E00E94B53156016501E5CFD5
S113598010E0512C912CFFE1F915D8F08B3279F00D
S113599038F4803279F08332A1F4F92DF0612EC00D
S11359A08D3261F0803369F4292D21602DC0392DA9
S11359B03260932E892D8460982E2AC0E92DE860E8
S11359C015C097FC2DC020ED280F2A3088F496FED0
S11359D006C03AE0139F200D1124122F19C08AE04B
S11359E0589E200D1124522EE92DE0629E2E10C0E7
S11359F08E3231F496FCE5C2F92DF0649F2E08C076
S1135A008C3621F4292D2068922E02C0883641F468
S1135A10F10193FD859193FF81911F018111B3CF12
S1135A209BEB980F933020F4992D9061805E07C012
S1135A309BE9980F933008F066C1992D9F7E96FFDD
S1135A4016E09F73992E853619F49064992E08C038
S1135A50863621F4392F3068932E02C0111111506B
S1135A6097FE07C01C3350F444244394410E27E0AE
S1135A700BC0183038F027E017E005C027E09CE39E
S1135A80492E02C0212F412C560184E0A80EB11CDE
S1135A90F6016081718182819381042DA3010E94AA
S1135AA0B6306C01F981FC87F0FF02C0F3FF06C039
S1135AB091FC06C092FE06C000E205C00DE203C0E0
S1135AC00BE201C000E08C858C7019F001115AC200
S1135AD09BC297FE10C04C0CFC85F4FF04C08A8165
S1135AE0813309F44A94141474F528E0241578F5E4
S1135AF088E0482E2CC096FC2AC0812F90E08C159B
S1135B009D059CF03CEFC3163FEFD30674F0892D3E
S1135B108068982E0AC0E2E0F0E0EC0FFD1FE10F70
S1135B20F11D8081803319F411501111F4CF97FEC7
S1135B300EC044244394410E812F90E0C816D90628
S1135B402CF41C1904C04424439401C010E097FEB3
S1135B5006C01C141D0434F4C601019605C085E07A
S1135B6090E002C081E090E001110196112331F030
S1135B70212F30E02F5F3F4F820F931F252D30E000
S1135B808217930714F4581A01C0512C892D897077
S1135B9049F4552039F0B70180E290E00E94B53114
S1135BA05A94F7CF002329F0B701802F90E00E9488
S1135BB0B53193FC09C0552039F0B70180E390E07A
S1135BC00E94B5315A94F7CF97FE4CC04601D7FED8
S1135BD002C0812C912CC60188199909F301E80FA0
S1135BE0F91FFE87ED87960124193109388B2F8719
S1135BF0012F10E01195019511093FEF83169306CB
S1135C0029F4B7018EE290E00E94B531C814D9049A
S1135C104CF08F8598898815990524F4ED85FE85C7
S1135C20818101C080E3F1E08F1A91082D853E85C2
S1135C302F5F3F4F3E872D87801691062CF0B701CA
S1135C4090E00E94B531D9CFC814D90441F49A81A7
S1135C50963320F4953319F43C8534FF81E3B7017E
S1135C6090E04EC08A81813319F09C859F7E9C8789
S1135C70B70190E00E94B531111105C094FC18C021
S1135C8085E690E017C0B7018EE290E00E94B5313E
S1135C901E5F82E001E0080FF301E80FF11D80812F
S1135CA0B70190E00E94B531802F0113F3CFE6CF06
S1135CB085E490E0B7010E94B531D7FC06C0C11459
S1135CC0D10441F4EC85E4FF05C0D194C194D1081A
S1135CD08DE201C08BE2B70190E00E94B53180E310
S1135CE02AE0C216D1042CF08F5FFAE0CF1AD10853
