S0130000494F554669726D776172652E73726563E7
S11300000C9485090C94A2090C94A2090C94A209DD
S11300100C94A2090C94A2090C94A2090C94A209B0
S11300200C94A2090C94A2090C94A2090C94A209A0
S11300300C94A2090C94A2090C94A2090C940F220A
S11300400C94A2090C94A2090C94581A0C949C1AAE
S11300500C94A2090C94A2090C94A2090C94A20970
S11300600C94A2090C94A2090C94A2090C94A20960
S11300700C94A2090C94A2090C94CF1A0C94161B8C
S11300800C94A2090C943A180C94A209920FA10F93
S1130090F50F3A1044104E1062106D107E1031139B
S11300A0311331138D109B10DA10E4101211B611B4
S11300B0EC1146194A194A194A194A194A194A198E
S11300C04A195A184A194A194A194A194A194A1905
S11300D04A195A184A194A194A194A194A194A19F5
S11300E04A1962184A194A194A194A194A194A19DD
S11300F04A1988184A194A194A194A194A194A19A7
S11301004A1962184A194A194A194A194A194A19BC
S11301104A198E184A194A194A194A194A194A1980
S11301204A1994184A194A194A194A194A194A196A
S11301304A19A6184A194A194A194A194A194A1948
S11301404A19D0184A194A194A194A194A194A190E
S11301504A199A184A194A194A194A194A194A1934
S11301604A19B4184A194A194A194A194A194A190A
S11301704A19D3184A194A194A194A194A194A19DB
S11301804A19D3184A194A194A194A194A194A19CB
S11301904A19D3184A194A194A194A194A194A19BB
S11301A04A19D3184A194A194A194A194A194A19AB
S11301B04A19DC184A194A194A194A194A194A1992
S11301C04A190D194A194A194A194A194A194A1950
S11301D04A19DC184A194A194A194A194A194A1972
S11301E04A190D194A194A194A194A194A194A1930
S11301F04A19F4184A194A194A194A194A194A193A
S11302004A1911194A194A194A194A194A194A190B
S11302104A1911194A194A194A194A194A194A19FB
S11302204A1926194A194A194A194A194A194A19D6
S11302304A1940194A194A194A194A194A194A19AC
S11302404A194019791E7E1E7E1E7E1E7E1E7E1E4B
S11302507E1E7E1E7E1E7E1E7E1ED71BD71BD71BB8
S1130260D71BD71BD71BD71BD71BD71BD71B7E1E50
S11302707E1E7E1E7E1E7E1E7E1E7E1E7E1E7E1E9A
S11302807E1E7E1E7E1E7E1E7E1E7E1E7E1E7E1E8A
S11302907E1E7E1E7E1E7E1E7E1E7E1E7E1E7E1E7A
S11302A07E1E7E1E7E1E7E1E7E1E091D7E1E7E1EE0
S11302B07E1E7E1E7E1E7E1E7E1E7E1E7E1E7E1E5A
S11302C0161C2D1C7E1E7E1E7E1E7E1E2D1C7E1E5A
S11302D07E1E7E1E7E1E7E1E7E1E091D7E1E7E1EB0
S11302E06C1C7E1EEB1C7E1E7E1E091D6E616E0044
S11302F0696E660000407A10F35A00A0724E180925
S11303000010A5D4E80000E87648170000E40B5478
S1130310020000CA9A3B000000E1F5050000809647
S11303209800000040420F000000A0860100000079
S1130330102700000000E803000000006400000033
S113034000000A00000000000100000000002C76FC
S1130350D888DC674F0823DFC1DFAE59E1B1B79617
S1130360E5E3E453C63AE651997696E8E6C2842674
S1130370EB898C9B62ED407C6FFCEFBC9C9F40F250
S1130380BAA56FA5F490055A2AF75C936B6CF967CC
S11303906DC11BFCE0E40D47FEF520E6B500D0ED91
S11303A0902E0300943577050080841E08000020F9
S11303B04E0A000000C80C333333330F986E128397
S11303C01141EF8D2114893BE65516CFFEE6DB186B
S11303D0D1844B381BF77C1D901DA4BBE424203230
S11303E084725E228100C9F124ECA1E53D272E2E02
S11303F02E2E2E2E2E2E2E2E2E2E2E2E2E2E2E2E19
S11304002E2E2E2E2E2E2E2E2E2E2E2E2E2E2E2E08
S11304102E2E2E2E2E2E2E2E2E2E2E2E2E2E2E2EF8
S11304202E2E2E2E2E0D0A00000000000000002E9D
S11304302E2E2E2E2E2E2E2E2E2E2E2E2E2E2E2ED8
S11304402E2E2E2E2E2E2E2E2E2E2E2E2E2E2E2EC8
S11304502E2E2E2E2E2E2E2E2E2E2E2E2E2E2E2EB8
S11304602E2E2E2E2E2E0D0A00000000000000005D
S11304702E2E20202020202020202020202020205C
S11304802020202020202020202020202020202068
S11304902020202020202020202020202020202058
S11304A020202020202E2E0D0A0000000000000035
S11304B0002E2E202020202020202020202020203C
S11304C02020202020202020202020202020202028
S11304D02020202020202020202020202020202018
S11304E02020202020202E2E0D0A000000000000D5
S11304F000002E2E2020202020202020202020201C
S113050020205F5F5F5F5F202020202020202020AC
S113051020202020202020202020202020202020D7
S1130520202020202020202E2E0D0A000000000074
S11305300000002E2E2020202020202020202020FB
S113054020202F205F5F5F5F7C2020202020202040
S11305502020202020202020202020202020202097
S113056020202020202020202E2E0D0A0000000014
S1130570000000002E2E20202020202020202020DB
S113058020207C20285F5F5F20205F205F5F202089
S1130590205F5F205F20205F5F5F205F5F5F202020
S11305A02020202020202020202E2E0D0A000000B4
S11305B000000000002E2E202020202020202020BB
S11305C0202020205C5F5F5F205C7C20275F205C14
S11305D0202F205F60207C2F205F5F2F205F205C16
S11305E0202020202020202020202E2E0D0A000054
S11305F00000000000002E2E20202020202020209B
S113060020202020205F5F5F5F29207C207C5F29E1
S1130610207C20285F7C207C20285F7C20205F5F5A
S11306202F202020202020202020202E2E0D0A00E4
S1130630000000000000002E2E202020202020207A
S113064020202020207C5F5F5F5F5F2F7C202E5F57
S11306505F2F205C5F5F2C5F7C5C5F5F5F5C5F5F34
S11306605F7C202020202020202020202E2E0D0AF8
S113067000000000000000002E2E2020202020205A
S11306802020205F2020202020205F205F7C207CF1
S1130690205F5F5F5F5F5F5F20202020202020209D
S11306A05F2020202020202020202020202E2E0DFE
S11306B00A00000000000000002E2E202020202030
S11306C02020207C207C20202020285F7C5F295F44
S11306D07C7C5F5F2020205F5F7C20202020202006
S11306E07C207C20202020202020202020202E2E32
S11306F00D0A00000000000000002E2E2020202003
S1130700202020207C207C20202020205F205F20AF
S11307105F205F5F207C207C205F5F5F20205F5F25
S11307205F7C207C5F5F2020202020202020202E42
S11307302E0D0A00000000000000002E2E202020B4
S113074020202020207C207C202020207C207C2035
S11307507C20275F205C7C207C2F205F205C2F2066
S11307605F5F7C20275F205C202020202020202029
S11307702E2E0D0A00000000000000002E2E202066
S11307802020202020207C207C5F5F5F5F7C207CF9
S1130790207C207C207C207C207C20205F5F2F20FC
S11307A0285F5F7C207C207C207C2020202020204F
S11307B0202E2E0D0A00000000000000002E2E2026
S11307C0202020202020207C5F5F5F5F5F5F7C5FB4
S11307D07C5F7C5F7C207C5F7C5F7C5C5F5F5F7C9C
S11307E05C5F5F5F7C5F7C207C5F7C20202020201E
S11307F020202E2E0D0A00000000000000002E2EE6
S113080020202020202020202020202020202020E4
S113081020202020202020202020202020202020D4
S113082020202020202020202020202020202020C4
S11308302020202E2E0D0A00000000000000002EB3
S11308402E20202020202020202020202020202096
S11308502020202020202020202020202020202094
S11308602020202020202020202020202020202084
S1130870202020202E2E0D0A000000000000000081
S11308802E2E202020205F5F5F5F5F205F5F5F5F11
S113089020205F202020205F20205F5F2020202058
S11308A05F5F5F5F2020205F5F5F2020205F5F5FCE
S11308B020202020202E2E0D0A0000000000000021
S11308C0002E2E2020207C5F2020205F2F205F5FC1
S11308D0205C7C207C20207C207C205C205C2020F0
S11308E02F202F5F207C202F205F205C202F205F73
S11308F0205C202020202E2E0D0A00000000000085
S113090000002E2E20202020207C207C7C207C2097
S1130910207C207C207C20207C207C20205C205C8F
S11309202F202F207C207C7C207C207C207C207C21
S1130930207C207C2020202E2E0D0A0000000000A8
S11309400000002E2E202020205F7C207C7C207C38
S11309505F5F7C207C207C5F5F7C207C2020205C8F
S113096020202F20207C207C7C207C5F7C207C200D
S11309707C5F7C207C2020202E2E0D0A00000000AD
S1130980000000002E2E2020207C5F5F5F5F5F5CF4
S11309905F5F5F5F2F205C5F5F5F5F2F2020202001
S11309A0205C2F2020207C5F285F295F5F5F285F09
S11309B0295F5F5F2F202020202E2E0D0A000000CB
S11309C000000000002E2E202020202020202020A7
S11309D02020202020202020202020202020202013
S11309E02020202020202020202020202020202003
S11309F0202020202020202020202E2E0D0A000040
S1130A000000000000002E2E202020202020202086
S1130A1020202020202020202020202020202020D2
S1130A2020202020202020202020202020202020C2
S1130A3020202020202020202020202E2E0D0A00DF
S1130A40000000000000002E2E2E2E2E2E2E2E2E04
S1130A502E2E2E2E2E2E2E2E2E2E2E2E2E2E2E2EB2
S1130A602E2E2E2E2E2E2E2E2E2E2E2E2E2E2E2EA2
S1130A702E2E2E2E2E2E2E2E2E2E2E2E2E2E0D0AD7
S1130A8000000000000000002E2E2E2E2E2E2E2EF2
S1130A902E2E2E2E2E2E2E2E2E2E2E2E2E2E2E2E72
S1130AA02E2E2E2E2E2E2E2E2E2E2E2E2E2E2E2E62
S1130AB02E2E2E2E2E2E2E2E2E2E2E2E2E2E2E0D73
S1130AC00A00000000000000000D0A000000000001
S1130AD00000000000000000000000000000000012
S1130AE00000000000000000000000000000000002
S1130AF000000000000000000000000000000000F2
S1130B000000000000000000000015FD40FD6BFD2A
S1130B108BFDA4FDB9FDCCFDDCFDEAFDF7FD03FE74
S1130B200EFE19FE22FE2BFE34FE3CFE43FE4BFE5F
S1130B3052FE58FE5FFE65FE6BFE71FE76FE7CFE85
S1130B4081FE86FE8BFE90FE94FE99FE9DFEA1FE24
S1130B50A6FEAAFEAEFEB2FEB6FEB9FEBDFEC1FE04
S1130B60C4FEC8FECBFECEFED2FED5FED8FEDBFE12
S1130B70DEFEE1FEE4FEE7FEEAFEEDFEF0FEF3FE3D
S1130B80F5FEF8FEFBFEFDFE00FF03FF05FF08FF78
S1130B900AFF0DFF0FFF11FF14FF16FF18FF1BFFC5
S1130BA01DFF1FFF21FF24FF26FF28FF2AFF2CFF24
S1130BB02EFF30FF32FF34FF37FF39FF3AFF3CFF8F
S1130BC03EFF40FF42FF44FF46FF48FF4AFF4CFF01
S1130BD04EFF4FFF51FF53FF55FF56FF58FF5AFF7B
S1130BE05CFF5DFF5FFF61FF63FF64FF66FF68FFFB
S1130BF069FF6BFF6CFF6EFF70FF71FF73FF74FF83
S1130C0076FF78FF79FF7BFF7CFF7EFF7FFF81FF0C
S1130C1082FF84FF85FF87FF88FF8AFF8BFF8CFF9D
S1130C208EFF8FFF91FF92FF94FF95FF96FF98FF31
S1130C3099FF9BFF9CFF9DFF9FFFA0FFA1FFA3FFC8
S1130C40A4FFA5FFA7FFA8FFA9FFABFFACFFADFF63
S1130C50AFFFB0FFB1FFB2FFB4FFB5FFB6FFB7FF00
S1130C60B9FFBAFFBBFFBCFFBEFFBFFFC0FFC1FFA0
S1130C70C3FFC4FFC5FFC6FFC7FFC9FFCAFFCBFF41
S1130C80CCFFCDFFCFFFD0FFD1FFD2FFD3FFD4FFE6
S1130C90D6FFD7FFD8FFD9FFDAFFDBFFDCFFDEFF8B
S1130CA0DFFFE0FFE1FFE2FFE3FFE4FFE5FFE6FF34
S1130CB0E8FFE9FFEAFFEBFFECFFEDFFEEFFEFFFDC
S1130CC0F0FFF1FFF2FFF4FFF5FFF6FFF7FFF8FF87
S1130CD0F9FFFAFFFBFFFCFFFDFFFEFFFFFF000033
S1130CE001000200030004000500060008000900DA
S1130CF00A000B000C000D000E000F001000110084
S1130D001200130014001500160017001800190033
S1130D101A001B001C001D001E001F0020002100E3
S1130D202200230024002400250026002700280098
S1130D3029002A002B002C002D002E002F0030004B
S1130D4031003200330034003500360037003800FB
S1130D5039003A003A003B003C003D003E003F00B1
S1130D604000410042004300440045004600470063
S1130D704800480049004A004B004C004D004E001A
S1130D804F005000510052005300530054005500CE
S1130D9056005700580059005A005B005C005C0084
S1130DA05D005E005F00600061006200630064003B
S1130DB06500650066006700680069006A006B00F2
S1130DC06C006D006D006E006F00700071007200A9
S1130DD07300740075007500760077007800790060
S1130DE07A007B007C007C007D007E007F00800018
S1130DF081008200830083008400850086008700D0
S1130E00880089008A008A008B008C008D008E0087
S1130E108F0090009100910092009300940095003F
S1130E20960097009700980099009A009B009C00F8
S1130E309D009D009E009F00A000A100A200A300B1
S1130E40A400A400A500A600A700A800A900AA0069
S1130E50AA00AB00AC00AD00AE00AF00B000B00023
S1130E60B100B200B300B400B500B600B600B700DC
S1130E70B800B900BA00BB00BC00BC00BD00BE0095
S1130E80BF00C000C100C200C200C300C400C5004E
S1130E90C600C700C800C900C900CA00CB00CC0006
S1130EA0CD00CE00CF00CF00D000D100D200D300BF
S1130EB0D400D500D500D600D700D800D900DA0078
S1130EC0DB00DB00DC00DD00DE00DF00E000E10031
S1130ED0E200E200E300E400E500E600E700E800E9
S1130EE0E900E900EA00EB00EC00ED00EE00EF00A1
S1130EF0EF00F000F100F200F300F400F500F6005A
S1130F00F600F700F800F900FA00FB00FC00FD0011
S1130F10FE00FE00FF0000010101020103010401C3
S1130F200501050106010701080109010A010B0178
S1130F300C010D010D010E010F011001110112012F
S1130F4013011401150116011601170118011901E5
S1130F501A011B011C011D011E011F011F0120019B
S1130F602101220123012401250126012701280151
S1130F7029012A012A012B012C012D012E012F0107
S1130F8030013101320133013401350136013601BA
S1130F903701380139013A013B013C013D013E0171
S1130FA03F01400141014201430144014501450122
S1130FB046014701480149014A014B014C014D01D9
S1130FC04E014F0150015101520153015401550189
S1130FD056015701580159015A015B015C015D0139
S1130FE05E015F01600161016201630164016501E9
S1130FF066016701680169016A016B016C016D0199
S11310006E016F0170017101720173017401750148
S113101076017701780179017A017B017C017D01F8
S11310207E017F01800181018201830184018501A8
S113103086018701880189018A018C018D018E0155
S11310408F01900191019201930194019501960100
S11310509701980199019B019C019D019E019F01AB
S1131060A001A101A201A301A501A601A701A80154
S1131070A901AA01AB01AC01AE01AF01B001B101FC
S1131080B201B301B401B601B701B801B901BA01A3
S1131090BB01BC01BE01BF01C001C101C201C40149
S11310A0C501C601C701C801CA01CB01CC01CD01EC
S11310B0CE01D001D101D201D301D501D601D7018E
S11310C0D801D901DB01DC01DD01DF01E001E1012F
S11310D0E201E401E501E601E701E901EA01EB01CE
S11310E0ED01EE01EF01F101F201F301F501F60169
S11310F0F701F901FA01FB01FD01FE01FF01010203
S11311000202030205020602080209020A020C0294
S11311100D020F021002110213021402160217022A
S113112019021A021C021D021F02200222022302BB
S113113024022602280229022B022C022E022F024C
S11311403102320234023502370239023A023C02D9
S11311503D023F0240024202440245024702490264
S11311604A024C024E024F025102530254025602EA
S113117058025A025B025D025F026102620264026B
S11311806602680269026B026D026F0271027302E9
S11311907402760278027A027C027E028002820263
S11311A08402860288028A028C028E0290029202D3
S11311B09402960298029A029C029E02A002A20243
S11311C0A402A602A902AB02AD02AF02B102B402AC
S11311D0B602B802BA02BD02BF02C102C302C6020D
S11311E0C802CB02CD02CF02D202D402D702D90266
S11311F0DC02DE02E102E302E602E902EB02EE02B5
S1131200F002F302F602F902FB02FE0201030403F8
S1131210070309030C030F031203150318031B032D
S11312201E032103240328032B032E033103340359
S113123038033B033E034203450349034C03500375
S1131240530357035B035E03620366036A036E037F
S11312507103750379037E03820386038A038E0375
S1131260930397039C03A003A503A903AE03B3034D
S1131270B803BC03C103C703CC03D103D603DC0307
S1131280E103E703EC03F203F803FE0304040A0496
S1131290110417041E0424042B04320439044004EA
S11312A04804500457045F046704700478048104FC
S11312B08A0493049D04A704B104BB04C604D104A6
S11312C0DC04E804F40400050D051B0529053705B5
S11312D046055605670578058A059D05B105C705C8
S11312E0DD05F5050E062A06470666068806AD06E0
S11312F0D606030736076F07B107FD075808C90864
S11313005A09210A560BC10D2C1011241FBECFEF10
S1131310D0E1DEBFCDBF19E0A0E0B1E0E0E7F6E543
S113132002C005900D92A63EB107D9F72DE0A6EEB6
S1131330B9E001C01D92AC31B207E1F70E94F41389
S11313400C94362B0C940000CF93DF9300D000D084
S113135000D0CDB7DEB786E0ECEEF9E0DE01119601
S113136001900D928A95E1F729813A814B815C8144
S11313706D817E8180E090E026960FB6F894DEBF02
S11313800FBECDBFDF91CF910895CF93DF9300D0EF
S113139000D000D0CDB7DEB786E0E6EEF9E0DE019E
S11313A0119601900D928A95E1F729813A814B813A
S11313B05C816D817E8180E090E026960FB6F89482
S11313C0DEBF0FBECDBFDF91CF910895EF92FF92A4
S11313D00F931F93CF93FC018081882309F444C0A9
S11313E091E0C0E020E031E0803219F41082932FC4
S11313F00EC0992361F0C830C8F5AC2FB0E0AA0F35
S1131400BB1FAE50B64FED93FC93CF5F922F319636
S113141080818111E9CFCC2359F16091070170914A
S113142008016115710531F1E090F209F090F309BA
S113143007E011E0C7010E945E2A892B59F4D80104
S11314401296ED91FC91139762EF79E08C2F90E066
S1131450099511C00A5F1F4FF80160817181611500
S1131460710541F781E007C081E005C082E003C057
S113147081E001C081E0CF911F910F91FF90EF9027
S11314800895CF93DF9381EE91E00E94C41987EF12
S113149091E00E94C419809107019091080100977E
S11314A089F0C7E0D1E00E94C4198C819D810E941B
S11314B0C4198FE593E00E94C41926968881998106
S11314C0009789F780E090E0DF91CF910895CF9362
S11314D04DC08091450A9091460A0E948319C82FF5
S11314E00E94B419CD3011F0CA3029F58091040A54
S11314F08823E1F0E82FF0E0EB5FF54F10828F5F77
S11315008093040A85E09AE00E94E6091092040A96
S1131510880F990BFC01EB57FE4F808191810E944B
S1131520C4198EE092E00E94C41920C08CE092E0BD
S11315300E94C4191BC0C83011F0CF3741F4809108
S1131540040A882399F081508093040A0FC0809183
S1131550040AE82FF0E0EB5FF54FC0838F5F81341E
S113156018F48093040A02C01092040A8091450A78
S11315709091460A0E946719882309F4AACFCF9153
S113158008950F931F93CF93DF93833091057CF1DC
S1131590049784F5FB0182819381F2E081319F07F6
S11315A009F058F528E08E30920750F1EB010E94C3
S11315B05D298C018C819D810E945D29C82FD92FC2
S11315C0602F0E941F14DF93CF9311271F930F9353
S11315D083E192E09F938F930E94A61E0F900F9039
S11315E00F900F900F900F9080E090E00BC083E07D
S11315F090E008C082E090E005C084E090E002C082
S113160084E090E0DF91CF911F910F910895CF92E4
S1131610DF92EF92FF920F931F93CF93DF9300D04B
S113162000D01F92CDB7DEB78C016B01FB01E280C5
S1131630F3806FE272E0C7010E945E2A892B59F59C
S1131640033011051CF002E010E0A5C00E943A141A
S1131650BC01990F880B990B0E945E249F938F9372
S11316607F936F9386E392E09F938F938E010F5F36
S11316701F4F1F930F930E94B62A1F930F938BE360
S113168092E09F938F930E94A61E0FB6F894DEBF3C
S11316900FBECDBF82C0033011050CF471C00430FD
S11316A011050CF070C0F601848195810E945D29BA
S11316B06C01F3E0F81708F469C061E572E0C70152
S11316C00E945E2A8C01892B51F58C2D0E942814CE
S11316D0BC01990F880B990B0E945E249F938F93F2
S11316E07F936F9386E392E09F938F939E012F5F86
S11316F03F4F79013F932F930E94B62AFF92EF92B6
S1131700DD24DF92CF9285E592E09F938F930E9430
S1131710A61E0FB6F894DEBF0FBECDBF3CC064E674
S113172072E0C7010E945E2A8C01892B91F58C2DF1
S11317300E943114BC01990F880B990B0E945E24FE
S11317409F938F937F936F9386E392E09F938F93FE
S1131750FE0131967F01FF93EF930E94B62AFF9218
S1131760EF92DD24DF92CF928CE692E09F938F93E9
S11317700E94A61E0FB6F894DEBF0FBECDBF0BC0ED
S113178003E010E008C002E010E005C004E010E04F
S113179002C004E010E0802F912F0F900F900F9063
S11317A00F900F90DF91CF911F910F91FF90EF90C9
S11317B0DF90CF9008950F931F93CF93DF938330DF
S11317C091054CF1049754F5EB018A819B810E94A9
S11317D05D298C01843028F58C819D810E945D29CE
S11317E0C82FD92F682F792F802F0E94AE16DF9330
S11317F0CF9311271F930F938AE892E09F938F93BF
S11318000E94A61E0F900F900F900F900F900F90B4
S113181080E090E008C083E090E005C082E090E0C2
S113182002C084E090E0DF91CF911F910F91089561
S11318308230910574F003977CF4FB0182819381DB
S11318400E945D29853058F40E943F1480E090E0A6
S1131850089583E090E0089582E090E0089584E0A4
S113186090E008950F931F93CF93DF9382309105F7
S11318704CF1039754F5FB010281138164E874E091
S1131880C8010E945E2AEC01892B91F480E00E9439
S1131890521481E00E94521482E00E94521489EA98
S11318A092E09F938F930E94A61E0F900F9012C0F8
S11318B0C8010E945D29853058F40E945214C0E08A
S11318C0D0E008C0C3E0D0E005C0C2E0D0E002C070
S11318D0C4E0D0E0CE01DF91CF911F910F91089524
S11318E0CF9382309105C4F00397CCF4FB0182813D
S11318F093810E945D298330A8F4C82FCC0F8C2FCC
S11319000E9482168C2F0E94521481E08C0F0E9438
S1131910521480E090E008C083E090E005C082E0CB
S113192090E002C084E090E0CF9108958230910568
S11319307CF0039784F4FB01828193810E945D29EA
S1131940833060F4880F0E94661480E090E008956C
S113195083E090E0089582E090E0089584E090E0D0
S1131960089502972CF40E94B71680E090E0089541
S113197082E090E00895AF92BF92CF92DF92EF920F
S1131980FF920F931F93CF93DF9300D000D01F9249
S1131990CDB7DEB700E010E00F2EF6E3AF2EF2E095
S11319A0BF2EF02DCE0101966C010F2EF5E5EF2E22
S11319B0F2E0FF2EF02D802F0E942814BC01990F15
S11319C0880B990B0E945E249F938F937F936F9350
S11319D0BF92AF92DF92CF920E94B62ADF92CF924B
S11319E01F930F93FF92EF920E94A61E0F5F1F4F4B
S11319F00FB6F894DEBF0FBECDBF04301105D9F683
S1131A0080EC92E09F938F930E94A61E0E94B716CB
S1131A100F900F9080E090E00F900F900F900F9038
S1131A200F90DF91CF911F910F91FF90EF90DF9076
S1131A30CF90BF90AF90089502972CF40E947A172C
S1131A4080E090E0089582E090E0089502972CF4FD
S1131A500E947E1780E090E0089582E090E008956F
S1131A600F931F93CF93DF9384309105DCF0059798
S1131A70E4F4EB018C819D810E945D29082F8A8109
S1131A809B810E945D29182F8E819F810E945D2970
S1131A90143070F4AC01602F812F0E947A1480E01E
S1131AA090E008C083E090E005C082E090E002C0CE
S1131AB084E090E0DF91CF911F910F910895CF932F
S1131AC0DF938230910504F103970CF5FB018281C9
S1131AD093810E945D29EC018330E0F40E94A516F5
S1131AE09F938F93DD27DF93CF938CEC92E09F93AA
S1131AF08F930E94A61E0F900F900F900F900F903F
S1131B000F9080E090E008C083E090E005C082E0A0
S1131B1090E002C084E090E0DF91CF910895FF92BD
S1131B200F931F93CF93DF9385309105FCF00697B5
S1131B3004F5EB018A819B810E945D29182F8C8119
S1131B409D810E945D29082F8E819F810E945D29BD
S1131B50F82E888599850E945D29282F4F2D602FA6
S1131B60812F0E94E41F80E090E005C083E090E0B4
S1131B7002C082E090E0DF91CF911F910F91FF901E
S1131B8008950297DCF40E94FC1F1F929F931F92FA
S1131B908F931F927F931F926F9388EE92E09F938F
S1131BA08F930E94A61E8DB79EB70A960FB6F8941F
S1131BB09EBF0FBE8DBF80E090E0089582E090E06C
S1131BC00895CF93DF9382309105ECF00397F4F4FA
S1131BD0EB018A819B810E945D29853608F084E6A9
S1131BE00E946E138B818F938A818F9380E293E09E
S1131BF09F938F930E94A61E0F900F900F900F90AB
S1131C0080E090E005C083E090E002C082E090E0D4
S1131C10DF91CF91089502978CF40E947A131F925A
S1131C208F9382E493E09F938F930E94A61E0F905C
S1131C300F900F900F9080E090E0089582E090E084
S1131C4008950F931F93CF93DF93CDB7DEB7EE972D
S1131C500FB6F894DEBF0FBECDBF02970CF059C08B
S1131C600E94A40929833A834B835C836D837E831A
S1131C700E94C5092F83388749875A876B877C87D9
S1131C808E818F938D818F938C818F938B818F9392
S1131C908A818F9389818F9382E693E09F938F93B8
S1131CA08E01035F1F4F1F930F930E94B62AF80102
S1131CB001900020E9F73197BF01601B710BC80147
S1131CC00E94D3198C858F938B858F938A858F93EC
S1131CD089858F9388858F938F818F9380E893E094
S1131CE09F938F931F930F930E94B62AF80101903C
S1131CF00020E9F73197BF01601B710BC8010E94F6
S1131D00D3190FB6F894DEBF0FBECDBF80E090E0CC
S1131D1002C082E090E0EE960FB6F894DEBF0FBEEC
S1131D20CDBFDF91CF911F910F9108950F931F9312
S1131D30CF93DF93CDB7DEB7E2970FB6F894DEBF4B
S1131D400FBECDBF02971CF50E9415149F938F936D
S1131D508BE993E09F938F938E010F5F1F4F1F9327
S1131D600F930E94B62AF80101900020E9F73197F9
S1131D70BF01601B710BC8010E94D3190F900F9013
S1131D800F900F900F900F9080E090E002C082E0DF
S1131D9090E0E2960FB6F894DEBF0FBECDBFDF91A0
S1131DA0CF911F910F91089561E071E080E091E07F
S1131DB00E949E2008950F931F93CF93DF93CEEE3E
S1131DC0D3E00AE01BE0CE010E94EC19CF5BDF4FA9
S1131DD0C017D107C1F78EE092E00E94C419DF91C9
S1131DE0CF911F910F9108950E9498190E94FE1996
S1131DF09093460A8093450A80E4E5E0FAE0DF0127
S1131E001D928A95E9F71092040A89EA93E00E94E8
S1131E10C41985E997E00E94C4190E94DB0E089555
S1131E200E94031A85E00E945C220E94531A909338
S1131E30B10A8093B00A82E89AE09093490A8093A9
S1131E40480A08950E94100F60E971E08FE891E05C
S1131E500E949E200895CF92DF92EF92FF920F93FB
S1131E60CF93DF93CDB7DEB760970FB6F894DEBF9C
S1131E700FBECDBF19826E0182E0C80ED11C8FE067
S1131E80F60111928A95E9F7E091480AF091490A1E
S1131E9080818A830F2EFAE4EF2EFAE0FF2EF02DD4
S1131EA000E021E041E0B60180E00E949B22AE0107
S1131EB04F5F5F4FB601C7010E94B8226981C60116
S1131EC00E943A1A60960FB6F894DEBF0FBECDBFDB
S1131ED0DF91CF910F91FF90EF90DF90CF90089515
S1131EE0CF92DF92EF92FF920F931F93CF93DF93E2
S1131EF0CDB7DEB7E8970FB6F894DEBF0FBECDBFFF
S1131F001982A091480AB091490AEC914E2F50E0F1
S1131F10FA013197E331F10508F0A3C3EA5BFF4FFF
S1131F200C94062911966C911197643008F099C3AA
S1131F3012968D919C9113970E941F140E942B0F4F
S1131F4090C311962C911197233008F08AC31296EE
S1131F508C91843008F085C32A8342E049838B83C3
S1131F60211104C00E942814382F0BC0213021F401
S1131F700E943114382F05C0223019F40E943A14FB
S1131F80382F2981E2E0F0E0EC0FFD1FE20FF11D94
S1131F90908342E0420F49832F5FE2E0F0E0EC0FD0
S1131FA0FD1FE20FF11D3083E091480AF091490AC8
S1131FB00F2EFAE4EF2EFAE0FF2EF02D00E021E0E0
S1131FC0BE016E5F7F4F80810E949B22AE014F5FF6
S1131FD05F4FBE016E5F7F4FC7010E94B8226981C7
S1131FE0CE0102960E943A1A3CC311961C911430F9
S1131FF008F037C3812F0E94A5162981E2E0F0E0A2
S1132000EC0FFD1FE20FF11D108331E0320FE2E00F
S1132010F0E0EC0FFD1FE30FF11D808343E0420F5E
S113202049832E5FE2E0F0E0EC0FFD1FE20FF11DAB
S11320309083E091480AF091490A0F2EFAE4EF2EBA
S1132040FAE0FF2EF02D00E021E0BE016E5F7F4F2D
S113205080810E949B22AE014F5F5F4FBE016E5F85
S11320607F4FC7010E94B8226981CE0102960E9467
S11320703A1AF7C211968C91843008F0F2C20E9489
S11320803F140E942B0FEDC211968C91843008F0FE
S1132090E8C20E9452140E942B0FE3C211968C9145
S11320A0843008F0DEC2182F110F812F0E9482168F
S11320B0812F0E94521481E0810F0E9452140E94C9
S11320C02B0FCFC211968C91843008F0CAC2880FAE
S11320D00E9466140E942B0FC4C211968C91119712
S11320E0843008F0BEC213964D915C9114971296F9
S11320F06C910E947A140E942B0FB3C211968C919A
S11321001197843008F0ADC212966D917C911397AB
S11321100E94AE160E942B0FA4C220E013964C918D
S1132120139712966C91129711968C910E94E41F4A
S11321300E942B0F96C20E94FC1F9981E2E0F0E0FE
S1132140EC0FFD1FE90FF11D608321E0290FE2E090
S1132150F0E0EC0FFD1FE20FF11D708343E0490F27
S113216049839E5FE2E0F0E0EC0FFD1FE90FF11DF3
S11321708083E091480AF091490A0F2EFAE4EF2E89
S1132180FAE0FF2EF02D00E021E0BE016E5F7F4FEC
S113219080810E949B22AE014F5F5F4FBE016E5F44
S11321A07F4FC7010E94B8226981CE0102960E9426
S11321B03A1A57C211968C91853608F084E60E942B
S11321C06E130E942B0F4DC20E947A13998141E035
S11321D0490F4983E2E0F0E0EC0FFD1FE90FF11D28
S11321E08083E091480AF091490A0F2EFAE4EF2E19
S11321F0FAE0FF2EF02D00E021E0BE016E5F7F4F7C
S113220080810E949B22AE014F5F5F4FBE016E5FD3
S11322107F4FC7010E94B8226981CE0102960E94B5
S11322203A1A1FC20E94A409D22EC32EF42EE52E00
S1132230162F072F2DA73EA74FA758AB69AB7AAB34
S11322400E94C5092BAB3CAB4DAB5EAB6FAB78AF1B
S11322508981E2E0F0E0EC0FFD1FE80FF11DC08280
S113226091E0980FE2E0F0E0EC0FFD1FE90FF11DA3
S1132270D08292E0980FE2E0F0E0EC0FFD1FE90F4E
S1132280F11DE08293E0980FE2E0F0E0EC0FFD1F17
S1132290E90FF11DF08294E0980FE2E0F0E0EC0F1A
S11322A0FD1FE90FF11D008395E0980FE2E0F0E0D7
S11322B0EC0FFD1FE90FF11D108396E0980FE2E08B
S11322C0F0E0EC0FFD1FE90FF11D308397E0980F4C
S11322D0E2E0F0E0EC0FFD1FE90FF11D208398E030
S11322E0980FE2E0F0E0EC0FFD1FE90FF11D5083C1
S11322F099E0980FE2E0F0E0EC0FFD1FE90FF11D0B
S113230040839AE0980FE2E0F0E0EC0FFD1FE90F44
S1132310F11D70834CE0480F4983855FE2E0F0E0F3
S1132320EC0FFD1FE80FF11D6083E091480AF09166
S1132330490A0F2EFAE4EF2EFAE0FF2EF02D00E00A
S113234021E0BE016E5F7F4F80810E949B22AE011F
S11323504F5F5F4FBE016E5F7F4FC7010E94B8227F
S11323606981CE0102960E943A1A7BC10E9415141B
S11323702981E2E0F0E0EC0FFD1FE20FF11D9083F4
S113238042E0420F49832F5FE2E0F0E0EC0FFD1FD3
S1132390E20FF11D8083E091480AF091490A0F2E63
S11323A0FAE4EF2EFAE0FF2EF02D00E021E0BE016A
S11323B06E5F7F4F80810E949B22AE014F5F5F4F13
S11323C0BE016E5F7F4FC7010E94B8226981CE01B2
S11323D002960E943A1A45C180E00E94281429817D
S11323E0E2E0F0E0EC0FFD1FE20FF11D908392E0BC
S11323F0920F99832F5FE2E0F0E0EC0FFD1FE20FF4
S1132400F11D808381E00E9428142981E2E0F0E03C
S1132410EC0FFD1FE20FF11D908392E0920F998360
S11324202F5FE2E0F0E0EC0FFD1FE20FF11D80836F
S113243082E00E9428142981E2E0F0E0EC0FFD1F05
S1132440E20FF11D908392E0920F99832F5FE2E0F7
S1132450F0E0EC0FFD1FE20FF11D808383E00E948A
S113246028142981E2E0F0E0EC0FFD1FE20FF11DDA
S1132470908392E0920F99832F5FE2E0F0E0EC0FFB
S1132480FD1FE20FF11D808380E00E943114298139
S1132490E2E0F0E0EC0FFD1FE20FF11D908392E00B
S11324A0920F99832F5FE2E0F0E0EC0FFD1FE20F43
S11324B0F11D808381E00E9431142981E2E0F0E083
S11324C0EC0FFD1FE20FF11D908392E0920F9983B0
S11324D02F5FE2E0F0E0EC0FFD1FE20FF11D8083BF
S11324E00E943A142981E2E0F0E0EC0FFD1FE20FB4
S11324F0F11D908392E0920F99832F5FE2E0F0E068
S1132500EC0FFD1FE20FF11D808380E00E94A516F1
S11325102981E2E0F0E0EC0FFD1FE20FF11D808362
S113252082E0820F89832F5FE2E0F0E0EC0FFD1F71
S1132530E20FF11D908381E00E94A5162981E2E05B
S1132540F0E0EC0FFD1FE20FF11D808382E0820FAB
S113255089832F5FE2E0F0E0EC0FFD1FE20FF11D35
S1132560908382E00E94A5162981E2E0F0E0EC0F5E
S1132570FD1FE20FF11D808382E0820F89832F5FAC
S1132580E2E0F0E0EC0FFD1FE20FF11D908383E029
S11325900E94A5162981E2E0F0E0EC0FFD1FE20F96
S11325A0F11D808382E0820F89832F5FE2E0F0E0F7
S11325B0EC0FFD1FE20FF11D90830E94FC1F298187
S11325C0E2E0F0E0EC0FFD1FE20FF11D608331E06B
S11325D0320FE2E0F0E0EC0FFD1FE30FF11D70831A
S11325E032E0320FE2E0F0E0EC0FFD1FE30FF11DEB
S11325F0808384E0820F89832D5FE2E0F0E0EC0FBA
S1132600FD1FE20FF11D90830E947A13998141E02E
S1132610490F4983E2E0F0E0EC0FFD1FE90FF11DE3
S11326208083E091480AF091490A0F2EFAE4EF2ED4
S1132630FAE0FF2EF02D00E021E0BE016E5F7F4F37
S113264080810E949B22AE014F5F5F4FBE016E5F8F
S11326507F4FC7010E94B8226981CE0102960E9471
S11326603A1AE8960FB6F894DEBF0FBECDBFDF91DD
S1132670CF911F910F91FF90EF90DF90CF9008952D
S11326801DC08091B00A9091B10A0E948319909163
S1132690470A91111092470A6DE77AE00E949F233E
S11326A0813019F0833031F009C08DE79AE00E943F
S11326B0700F04C082E499E00E94C4198091B00AAA
S11326C09091B10A0E9467198823D9F2089540E0D5
S11326D068EE73E087E00E94AD170895CF93C82F8A
S11326E0853608F0C4E68C2F0E94F317C093B20A13
S11326F0CF9108958091B20A08956AE088E49BE03E
S11327000E94971F089567E971E086E991E00E94AD
S11327109E200895AB9A0895E091B40AF091B50A09
S11327208081882319F0813071F108958091B30A72
S113273080FF15C080E00E9491208823D9F1E3EB4B
S1132740FAE080818E7F80830E948A13AA9A44EFE4
S113275051E060E070E080E00E948620089580E00F
S11327600E949120882331F1E3EBFAE080818160BB
S11327708083AB98AA9844EF51E060E070E080E079
S11327800E94862008958091B30A80FF13C080E0E0
S11327900E949120882371F0E3EBFAE080818E7F20
S11327A080830E948A1348EB5BE060E070E080E085
S11327B00E9486200895A39AAB98A29AAA98E3EB64
S11327C0FAE080818E7F8D7F808380E89CE0928315
S11327D081830E948A13AA9A08956EE971E08DE9B3
S11327E091E00E949E2008950E9466200E94F40EAB
S11327F00E9484170E9487170E94DB130E94AA1468
S11328000E94DC1F0E9467130E94100F0E94ED13A8
S11328100E94D40E0E9418140E9483130E94220F57
S11328200E949F210E94A221FDCF0E94C21E0895F2
S113283061ED71E080ED91E00E949E200895E62F05
S1132840F0E0EE0FFF1FEE54FE4F91838083089556
S1132850E82FF0E0EE0FFF1FEC55FE4F80819181D1
S11328600895E82FF0E0EE0FFF1FE455FE4F80813E
S1132870918108958091B0019091B1010895CF9311
S1132880C82F0E941020E4EAF1E0CC0F81E090E030
S113289002C0880F991FCA95E2F7968D892B868FFF
S11328A0CF910895CF93C82F0E942E20E4EAF1E03F
S11328B0CC0F81E090E002C0880F991FCA95E2F71F
S11328C08095968D8923868FCF910895E4EAF1E06F
S11328D090E0880F991F019621E030E0A90102C021
S11328E0440F551F8A95E2F7CA018095968D892376
S11328F0868F08950F93CF93082FC62FCA01A0E0A7
S1132900B0E0BC01CD01052E5CE0660F771F881F87
S1132910991F5A95D1F7502D2EE734E040E050E04E
S11329200E94E428C13049F480E098E0A0E0B0E0DF
S1132930821B930BA40BB50B05C0DA01C901985F88
S1132940AF4FBF4F21E040E060E00E94FA1ECF91FC
S11329500F910895CF930E9492170E9405200E9420
S1132960CE1E0E940D18C0E08C2F0E942E2042E340
S113297050E061E08C2F0E947A14CF5FC430A1F73D
S1132980CF910895EF92FF920F931F93CF93DF930C
S1132990F62EE42EC62FD0E08E01000F111F000F7B
S11329A0111F2091C20130E0002E02C035952795F9
S11329B00A94E2F720FD8BC0FE01EE0FFF1FEE54D8
S11329C0FE4F408151819A012250310982179307A9
S11329D038F5FF0C8F2D0E941020E4EAF1E081E02D
S11329E090E0002E02C0880F991F0A94E2F7968D9A
S11329F0892B868FEE2009F49CC081E08F0D0E9404
S1132A001020E4EAF1E00E5F1F4F81E090E002C085
S1132A10880F991F0A95E2F7968D892B868F89C0B6
S1132A202817390708F085C0FE01EE0FFF1FEC558B
S1132A30FE4F208131812817390730F0425E5F4F05
S1132A404817590708F075C0FE01EE0FFF1FE9543F
S1132A50F54F80819181019691838083853F9140D8
S1132A6008F467C0FE01EC55FE4F10A6FE01EE0F00
S1132A70FF1FE954F54F118210828091B60A882312
S1132A8061F01F92FF928AE599E09F938F930E94D1
S1132A90A61E0F900F900F900F90CC0FDD1FFF0C10
S1132AA0FE01EE0FFF1FE654FE4F4081518160E0AE
S1132AB08F2D0E947A14CC0FDD1FC454DE4F488141
S1132AC0598160E081E08F0D0E947A1432C0CC0FEE
S1132AD0DD1FCE54DE4F288139812E5F3F4F2817EA
S1132AE0390738F5FF0C8F2D0E942E20E4EAF1E01F
S1132AF081E090E0002E02C0880F991F0A94E2F74B
S1132B008095968D8923868FEE2099F081E08F0D34
S1132B100E942E20E4EAF1E00E5F1F4F81E090E076
S1132B2002C0880F991F0A95E2F78095968D892334
S1132B30868FDF91CF911F910F91FF90EF900895B1
S1132B40EF92FF920F931F93CF93DF93F62EE42E11
S1132B50C62FD0E08E01000F111F000F111F20910E
S1132B60C20130E0002E02C0359527950A94E2F7A1
S1132B7020FD8FC0FE01EE0FFF1FEE54FE4F20819B
S1132B803181A9014E5F5F4F4817590738F5FF0C93
S1132B908F2D0E941020E4EAF1E081E090E0002E05
S1132BA002C0880F991F0A94E2F7968D892B868FAD
S1132BB0EE2009F4A0C081E08F0D0E941020E4EA09
S1132BC0F1E00E5F1F4F81E090E002C0880F991F73
S1132BD00A95E2F7968D892B868F8DC0A901425004
S1132BE051098417950708F086C0FE01EE0FFF1FF8
S1132BF0EC55FE4F408151818417950730F02E51DA
S1132C0031098217930708F076C0FE01EE0FFF1F0B
S1132C10E954F54F80819181019691838083853FAA
S1132C20914008F468C081E0FE01EC55FE4F80A796
S1132C30FE01EE0FFF1FE954F54F118210828091BF
S1132C40B60A882361F01F92FF9287E899E09F9368
S1132C508F930E94A61E0F900F900F900F90CC0F91
S1132C60DD1FFF0CFE01EE0FFF1FE654FE4F4081F7
S1132C70518161E08F2D0E947A14CC0FDD1FC45462
S1132C80DE4F4881598161E081E08F0D0E947A1402
S1132C9032C0CC0FDD1FCE54DE4F28813981225043
S1132CA031098217930738F5FF0C8F2D0E942E20CF
S1132CB0E4EAF1E081E090E0002E02C0880F991F61
S1132CC00A94E2F78095968D8923868FEE2099F0F9
S1132CD081E08F0D0E942E20E4EAF1E00E5F1F4F89
S1132CE081E090E002C0880F991F0A95E2F7809571
S1132CF0968D8923868FDF91CF911F910F91FF903D
S1132D00EF900895282F30E0E4EAF1E0B901660F6E
S1132D10771F6F5F7F4F41E050E002C0440F551FA3
S1132D206A95E2F7968D492B468F220F331FF901DE
S1132D30E654FE4F40815181E82FE695F0E0EC55D2
S1132D40FE4F60A50E947A140895E82FF0E0EE0F7C
S1132D50FF1FEE54FE4F808191810895E82FF0E02B
S1132D60EE0FFF1FE654FE4F718360830895E4EA7B
S1132D70F1E0868D91899F9390899F9397859F9386
S1132D8096859F9391A51F929F9390A51F929F93C1
S1132D9086FB992790F91F929F9384FB992790F9BA
S1132DA01F929F9382FB992790F91F929F938170A2
S1132DB01F928F9384EB99E09F938F930E94A61E9A
S1132DC08DB79EB742960FB6F8949EBF0FBE8DBFC7
S1132DD00895AF92BF92CF92DF92EF92FF920F933A
S1132DE01F93CF93DF9380E00E948D1F7C0181E0CD
S1132DF00E948D1F8C0182E00E948D1F5C0183E084
S1132E000E948D1F6C018091C20181FF0FC08091CF
S1132E10CC01813031F441E060E0C7010E94C2146A
S1132E2005C041E060E0C7010E94A0158091C20185
S1132E3083FF35C08091CD01813031F441E061E000
S1132E40C8010E94C21405C041E061E0C8010E94AB
S1132E50A0158091C20183FF22C08091CD018130F1
S1132E6031F441E062E0C8010E94C21405C041E0AF
S1132E7062E0C8010E94A0158091C20183FF0FC0C7
S1132E808091CD01813031F441E063E0C8010E94BA
S1132E90C21405C041E063E0C8010E94A015C4EA61
S1132EA0D1E0F982E8821B830A83BD82AC82DF828F
S1132EB0CE820E94B61E9D878C8781E00E9491205D
S1132EC0882369F08091B60A882349F048EE53E0DC
S1132ED060E070E081E00E9486200E94B716DF91D6
S1132EE0CF911F910F91FF90EF90DF90CF90BF9003
S1132EF0AF90089581E08093B60A08951092B60ABF
S1132F0008950E945D2008950E944C20089568ED64
S1132F1071E087ED91E00E94D2208091D7010E9458
S1132F200321089517B886B1876886B90895882360
S1132F3021F0813019F480E001C081E097B1907FE5
S1132F4097B997B18F70892B87B9369A3699FECF86
S1132F5084B125B190E0922B0895CF93C42F48B348
S1132F6021E030E0F90102C0EE0FFF1F8A95E2F77D
S1132F70CF019E2F9095492348BB97B3892B87BBDC
S1132F808FB582608FBD8EB588618EBD8FB5886028
S1132F908FBD8EB583608EBD80E090E00E945C247E
S1132FA020E030E040E05EE30E94EA240E942D2409
S1132FB077BD66BD86B597B5C89FB001C99F700D32
S1132FC0112480E090E00E945C242AE037ED43E283
S1132FD05CE30E94EA240E942D247093790060939C
S1132FE07800CF91089526B537B5482F429FC00188
S1132FF0439F900D1124BC0180E090E00E945C246A
S11330002AE037ED43E25CE30E94EA240E942D2487
S113301070937900609378000895A69AAE9A87B366
S1133020866087BBBB988DB181658DB908958FB9D2
S1133030779BFECF8FB1089583B7846083BF87B732
S1133040826087BF7894089583B7886083BF12BE77
S11330508CE781BF089584E980937400E4E7F0E08D
S1133060808184FDFDCF089585EC809374001092D7
S1133070EA0A08951F920F920FB60F9211242F930C
S11330803F934F935F936F937F938F939F93AF93EC
S1133090BF93EF93FF9380917100E82FE87F8E2F09
S11330A090E0893C910508F0F5C0FC01E75AFF4F18
S11330B00C9406298091E90A8093730085E8809333
S11330C07400E8C09091DA0A8091D90A981780F4C4
S11330D0E091DA0A81E08E0F8093DA0AF0E0E5529B
S11330E0F54F80818093730085EC80937400D2C087
S11330F08091E80A882319F00E942B18CBC081E044
S11331008093E70A84EA809374001092EA0AC2C0AA
S113311080E28093BB0A0E942B18BCC080E380939A
S1133120BB0A0E942B18B6C088E38093BB0A0E9496
S11331303418B0C0E091D00A81E08E0F8093D00A99
S113314080917300F0E0EF52F54F80839091D00AA4
S11331508091CF0A981720F485EC809374009AC06C
S113316085E88093740096C0E091D00A81E08E0FC8
S11331708093D00A80917300F0E0EF52F54F808382
S11331808091E80A882319F00E942B1883C081E0FB
S11331908093E70A84EA809374001092EA0A7AC062
S11331A00E942B1877C083E08093EA0A1092BC0A2D
S11331B085EC809374006EC08091BC0A883080F4E2
S11331C0E091BC0A81E08E0F8093BC0A8091730069
S11331D0F0E0E354F54F808385EC809374005AC08B
S11331E085E88093740056C00E9434188091BC0A0C
S11331F0883030F4E091BC0AF0E0E354F54F1082DB
S11332006091BC0A70E0E091E30AF091E40A8DEB6E
S11332109AE009951092BC0A3DC085E88093740039
S113322039C084E08093EA0A1092C60A1092C50A53
S1133230E091E50AF091E60A09958091C50A8111A9
S113324005C081E08093C50A1092C70AE091C60ABE
S113325081E08E0F8093C60AF0E0E953F54F808138
S1133260809373009091C60A8091C50A981720F440
S113327085EC809374000EC085E8809374000AC0C6
S113328085EC809374001092EA0A04C01092BB0A81
S11332900E942B18FF91EF91BF91AF919F918F9155
S11332A07F916F915F914F913F912F910F900FBE3E
S11332B00F901F9018952FB7F894FC01E05CFF4F16
S11332C0108231961082319610822FBF08958E5B42
S11332D09F4FFC01908181E0911180E00895FB01F2
S11332E0E05CFF4F9081DB01A90FB11D8C939FB768
S11332F0F89480818F5F8F738083329680818F5F93
S113330080839FBF0895FC01EF5BFF4F2081DC01A8
S1133310A20FB11D3C914FB7F89420812F5F2F73FA
S1133320208331969081915090834FBF832F0895CD
S11333308091DF019091E0018D5B9F4F0E945B19AA
S11333408091DF019091E0010E945B19109290003E
S113335083E389B98AB188698AB9E5E9F0E08081B3
S113336086608083789408956091DF017091E00114
S1133370FB01EB57FF4F90819034E9F36D5B7F4F76
S11333800E946F19559A0895CF93DF93EC018881B9
S1133390882331F021960E94B41989918111FBCFC1
S11333A0DF91CF9108950F931F93CF93DF936623FB
S11333B071F0EC016150062F10E00F5F1F4F080FF2
S11333C0191F89910E94B419C017D107D1F7DF9151
S11333D0CF911F910F910895CF93DF93EC01219624
S11333E0FC018491882339F00E94B419FE01849170
S11333F021968111F9CFDF91CF9108958091DF015A
S11334009091E00108958091DD019091DE018D5B42
S11334109F4F0E945B198091DD019091DE010E9413
S11334205B191092980089E180939900EAE9F0E031
S1133430808188698083EDE9F0E080818660808303
S1133440EBE9F0E080818260808308956091DD0182
S11334507091DE01FB01EB57FF4F90819034E9F34B
S11334606D5B7F4F0E946F19EAE9F0E08081806212
S1133470808308950F931F93CF93DF93662371F096
S1133480EC016150062F10E00F5F1F4F080F191F4A
S113349089910E94261AC017D107D1F7DF91CF91E5
S11334A01F910F9108958091DD019091DE0108959F
S11334B01F920F920FB60F9211242F933F934F93A5
S11334C05F936F937F938F939F93AF93BF93EF9388
S11334D0FF938CB16091DF017091E001FB01EE5B21
S11334E0FF4F9081903471F00E946F19E091DF01D9
S11334F0F091E0018BB18C7190E0EA57FF4F91831A
S1133500808309C08BB18C71816090E0FB01EA5724
S1133510FF4F91838083FF91EF91BF91AF919F9172
S11335208F917F916F915F914F913F912F910F9068
S11335300FBE0F901F9018951F920F920FB60F9207
S113354011242F933F934F935F936F937F938F93A4
S11335509F93AF93BF93EF93FF938091DF0190917B
S1133560E001FC01EB57FF4F2081222331F08D5BFA
S11335709F4F0E9483198CB901C05598FF91EF9118
S1133580BF91AF919F918F917F916F915F914F9177
S11335903F912F910F900FBE0F901F9018951F927F
S11335A00F920FB60F9211242F933F934F935F9373
S11335B06F937F938F939F93AF93BF93EF93FF93F7
S11335C080919C006091DD017091DE01FB01EE5B56
S11335D0FF4F9081903479F00E946F19E091DD01E2
S11335E0F091DE0180919B008C7190E0EA57FF4FCF
S11335F0918380830AC080919B008C7190E09160DC
S1133600FB01EA57FF4F91838083FF91EF91BF91B4
S1133610AF919F918F917F916F915F914F913F9166
S11336202F910F900FBE0F901F9018951F920F921D
S11336300FB60F9211242F933F934F935F936F9381
S11336407F938F939F93AF93BF93EF93FF93809157
S1133650DD019091DE01FC01EB57FF4F2081222315
S113366039F08D5B9F4F0E94831980939C0005C0A5
S1133670EAE9F0E080818F7D8083FF91EF91BF9133
S1133680AF919F918F917F916F915F914F913F91F6
S11336902F910F900FBE0F901F9018952F923F926D
S11336A04F925F926F927F928F929F92AF92BF924E
S11336B0CF92DF92EF92FF920F931F93CF93DF93FA
S11336C0CDB7DEB7AA970FB6F894DEBF0FBECDBF55
S11336D08C017AA769A76E0189E1C80ED11C2C2C34
S11336E03D2C17C319821A821B821C8289819A81FC
S11336F0AB81BC81F801E80FF91F8081853249F163
S113370089819A81AB81BC81F801E80FF91F80811E
S11337108823F9F089819A81AB81BC810196A11D2E
S1133720B11D89839A83AB83BC8389819A81AB81E0
S1133730BC81F801E80FF91F8081853251F089813D
S11337409A81AB81BC81F801E80FF91F8081811156
S1133750E1CF69817A818B819C81C8010E94D31950
S113376089819A81AB81BC81080F191FD8018C9182
S1133770853209F0CEC211961D861E861F86188AD0
S11337806894FF24F5F88D010F5F1F4F2C91422F91
S1133790022E000C550B660B770BFA01B597E43536
S11337A0F10508F0ABC2EE5DFE4F0C940629203300
S11337B061F48D859E85AF85B889892B8A2B8B2BE7
S11337C021F40F2EF0E3FF2EF02D8D859E85AF851D
S11337D0B889880F991FAA1FBB1FAC01BD01440FF4
S11337E0551F661F771F440F551F661F771F840FD1
S11337F0951FA61FB71F8D879E87AF87B88B4D85F2
S11338005E856F857889022E000C330BC901C09741
S1133810092E000CAA0BBB0B840F951FA61FB71F04
S11338208D879E87AF87B88BD801ADCFE9A4FAA462
S1133830B4E0EB0EF11CE9A5FAA580819181A28187
S1133840B3818D839E83AF83B88761E0CE010596F3
S11338500E94D319FAA6E9A65CC229A53AA52E5F4F
S11338603F4FA9A5BAA58D919C91A0E0B0E08D83AE
S11338709E83AF83B88719861A861B861C868D8122
S11338809E81AF81B885BB23C4F48D819E81AF81B5
S1133890B885B095A095909581959F4FAF4FBF4F38
S11338A08D839E83AF83B88781E090E0A0E0B0E091
S11338B08D8B9E8BAF8BB88F04C01D8A1E8A1F8A86
S11338C0188E8AE090E0A0E0B0E0898B9A8BAB8BF5
S11338D0BC8B3AA729A7BCC0E9A4FAA492E0E90EDC
S11338E0F11CA9A5BAA58D919C9119821A821B82FB
S11338F01C8249815A816B817C81FC01E40FF51F94
S113390020812223B1F049815A816B817C814F5FF0
S11339105F4F6F4F7F4F49835A836B837C83498109
S11339205A816B817C81FC01E40FF51F20812111F8
S1133930EACF49815A816B817C81642F0E94D3191B
S11339404D855E856F85788989819A81AB81BC813B
S113395084179507A607B70708F0D6C149815A818D
S11339606B817C818D859E85AF85B889841B950B81
S1133970A60BB70B8D879E87AF87B88B8D859E85E9
S1133980AF85B889AC01BD01415051096109710984
S11339904D875E876F87788B892B8A2B8B2B09F455
S11339A0B6C161E08FE092E00E94D3198D859E85B7
S11339B0AF85B889AC01BD01415051096109710954
S11339C04D875E876F87788B892B8A2B8B2B49F7E2
S11339D0FAA6E9A69EC1E9A5FAA580819181A0E095
S11339E0B0E08D839E83AF83B88719861A861B86C1
S11339F01C868AE090E0A0E0B0E0898B9A8BAB8BC8
S1133A00BC8B1D8A1E8A1F8A188E3296FAA7E9A7D4
S1133A101FC0A9A5BAA58D919C91A0E0B0E08D83AB
S1133A209E83AF83B88719861A861B861C8680E11D
S1133A3090E0A0E0B0E0898B9A8BAB8BBC8B1D8AA5
S1133A401E8A1F8A188EA9A5BAA51296BAA7A9A775
S1133A5081E090E0A0E0B0E089839A83AB83BC83EB
S1133A6029813A814B815C8169897A898B899C8916
S1133A708D809E80AF80B8840E94D42886169706D5
S1133A80A806B90668F548C029893A894B895C8932
S1133A9069817A818B819C810E94D42869837A838D
S1133AA08B839C838D859E85AF85B8890197A109F9
S1133AB0B1098D879E87AF87B88B29813A814B8165
S1133AC05C8169897A898B899C898D809E80AF808D
S1133AD0B8840E94D42886169706A806B906E0F092
S1133AE029813A814B815C8169897A898B899C8996
S1133AF049885A886B887C8889809A80AB80BC808E
S1133B000E94D428A30192010E94E42828153905B3
S1133B104A055B0509F4B8CF8D899E89AF89B88DB4
S1133B20892B8A2B8B2B59F08D859E85AF85B8897F
S1133B300197A109B1098D879E87AF87B88B8D89BD
S1133B409E89AF89B88D892B8A2B8B2BD1F090E37A
S1133B50F91217C089859A85AB85BC85AC01BD0176
S1133B604F5F5F4F6F4F7F4F49875A876B877C87C3
S1133B70F601E80FF91FADE2A0831D8A1E8A1F8A91
S1133B80188E8D859E85AF85B8890297A105B105EC
S1133B9008F440C08D859E85AF85B8894097A105FE
S1133BA0B105C0F58D859E85AF85B8890197A109BA
S1133BB0B1098D879E87AF87B88B8D859E85AF852C
S1133BC0B889892B8A2B8B2B29F189859A85AB851A
S1133BD0BC85AC01BD014F5F5F4F6F4F7F4F49877D
S1133BE05A876B877C87F601E80FF91FF0828D8571
S1133BF09E85AF85B8890197A109B1098D879E87F4
S1133C00AF87B88B8D859E85AF85B889892B8A2B24
S1133C108B2BD9F68D899E89AF89B88D892B8A2BF8
S1133C208B2B99F089859A85AB85BC85AC01BD0148
S1133C304F5F5F4F6F4F7F4F49875A876B877C87F2
S1133C40F601E80FF91FBDE2B08389819A81AB8147
S1133C50BC81892B8A2B8B2B09F442C049845A845A
S1133C606B847C84B301A2014F5F5F4F6F4F7F4F22
S1133C7049875A876B877C876D817E818F81988580
S1133C8029813A814B815C8189889A88AB88BC8878
S1133C907601E40CF51C0E94E428CA01B901A501CF
S1133CA094010E94E428FB01E253F64F8081F7015E
S1133CB0808329893A894B895C8969817A818B81DE
S1133CC09C810E94E42829833A834B835C83898105
S1133CD09A81AB81BC81892B8A2B8B2B09F0BECFB7
S1133CE069857A858B859C85822D932D0E94D319B5
S1133CF010C061E0CD010E94D3190BC065E08FEDC7
S1133D0099E00E94D31905C0FAA6E9A602C0FAA652
S1133D10E9A6D8018C918111E5CCAA960FB6F89446
S1133D20DEBF0FBECDBFDF91CF911F910F91FF90EA
S1133D30EF90DF90CF90BF90AF909F908F907F9047
S1133D406F905F904F903F902F900895CF93DF93A3
S1133D50CDB7DEB7BE016B5F7F4FFB0181919191BF
S1133D60BF010E944E1BDF91CF9108956091B70C63
S1133D707091B80C8091B90C9091BA0C0E942624D1
S1133D80CB0108956091BF0C7091C00C8091C10C5F
S1133D909091C20C0E942624CB010895BC9AD79A14
S1133DA0139AD19AD09A0E940D180895813041F047
S1133DB028F0823039F0833039F00895C49808959A
S1133DC0DF9808951B980895D9980895813041F09B
S1133DD028F0823039F0833039F00895C49A089578
S1133DE0DF9A08951B9A0895D99A0895D89808954A
S1133DF0D89A0895AF92BF92CF92DF92EF92FF923A
S1133E000F931F93CF93DF93CDB7DEB728970FB6E9
S1133E10F894DEBF0FBECDBF043008F06CC0122F83
S1133E20B42EA62E6C01802F0E94D61EE02EF12CFB
S1133E30C6019F70F701EE0FFF1F21E030E02C0F49
S1133E403D1FE20FF31F80839F708181807F892B48
S1133E508183AA2049F0F701EE0FFF1FE20FF31F41
S1133E6081818F7E81830CC0F701EE0FFF1F81E0FB
S1133E7090E08C0F9D1FE80FF91F81818061818381
S1133E80BB2069F0F701EE0FFF1F21E030E02C0F9B
S1133E903D1FE20FF31F81818F7D81830CC0F701E9
S1133EA0EE0FFF1F81E090E08C0F9D1FE80FF91FBC
S1133EB0818180628183EE0CFF1CE1E0F0E0EC0F75
S1133EC0FD1FEE0EFF1EF701818110FB86F9818331
S1133ED081818F77818381810E941718F701808106
S1133EE00E941718802F0E94E61E0E94F61E0E9450
S1133EF0F81E80E001C081E028960FB6F894DEBF7A
S1133F000FBECDBFDF91CF911F910F91FF90EF9026
S1133F10DF90CF90BF90AF9008950E949717880FBD
S1133F20991FFC01E65FF44F859194910895FC017B
S1133F3094988C9AF8942FEF260F662309F428C0DE
S1133F4092B3892F8F7E90610190008009D00290F6
S1133F5007D001900190019003D0019001D015C0C9
S1133F6008D007D006D005D004D003D002D001D0A9
S1133F700895001C9093320010F0809332000000EA
S1133F80000010F4809332000895215008F0D8CF37
S1133F907894089580E090E0FC01EE0FFF1FEE0F8F
S1133FA0FF1FE85BF44F1082118212821382019684
S1133FB08A30910589F708950E94CA1F6AE088E44F
S1133FC09BE00E94971F0895E1E1FDE080836183F7
S1133FD042832383E8E4FBE0A0E7BBE080836183C2
S1133FE0428323833496EA17FB07C1F76AE088E427
S1133FF09BE00E94971F08956091110D7091120D1E
S11340008091130D9091140D0895E4E6F0E0808101
S113401080618083808184608083D49AB89A089573
S1134020813069F028F0823089F0833091F014C037
S1134030E5E6F0E080818061808380E00895E5E634
S1134040F0E080818460808380E00895DC9A80E0E1
S11340500895C09A80E0089581E00895813069F060
S113406028F0823089F0833091F014C0E5E6F0E066
S113407080818F7E808380E00895E5E6F0E0808192
S11340808B7F808380E00895DC9880E00895C09859
S113409080E0089581E00895E4E6F0E080818160A5
S11340A0808380818D7F8083E5E6F0E0808182607B
S11340B0808380818E7F80830895E5E6F0E08081AF
S11340C08160808380818E7F808308951092160D95
S11340D01092150D10920A0B1092EB0A8CE3EBE090
S11340E0FBE0DF011D928A95E9F78EE1ECEEFAE040
S11340F0DF011D928A95E9F788E0E7E1FDE0DF0141
S11341001D928A95E9F70E9424180895823040F49C
S1134110E82FF0E0EE0FFF1FE95EF24F518340837A
S11341200895E82FF0E0EE0FFF1FE95EF24F2081C3
S1134130318181E0232B09F080E00895CF93DF9350
S1134140EC01892B39F16115710531F190910A0B5C
S1134150993020F5292F30E0F901EE0FFF1FDF0120
S1134160A20FB31FAA0FBB1FA55FB44F15967C9374
S11341706E93149711961C92119713961C921E928B
S11341801297FD0181E0808398839F5F90930A0BCF
S113419080E005C081E003C081E001C081E0DF91DF
S11341A0CF910895CF93DF93EC01892B21F1611511
S11341B0710519F19091EB0A943008F5292F30E03C
S11341C0F901EE0FFF1FDF01A20FB31FAA0FBB1FE0
S11341D0A451B54F15967C936E9314971C92119627
S11341E01C921197FD011382128298839F5F909312
S11341F0EB0A80E005C081E003C081E001C081E0FA
S1134200DF91CF9108959091EB0A8917A0F490E083
S1134210FC01EE0FFF1FDF01A80FB91FAA0FBB1F80
S1134220A451B54F13961C921E921297FD0181E082
S1134230808380E0089581E008951F93CF93DF93F6
S11342408091150D9091160D01969093160D809303
S1134250150D80910A0B882359F1EBE0FBE08150A6
S113426090E001969C01220F331F820F931F880F49
S1134270991F855F944F61E0A481B5812C91213011
S113428099F42081213081F4228133812F5F3F4FC3
S11342903383228312964D915C911397241735072B
S11342A018F01382128261833696E817F90721F712
S11342B04091EB0A442361F1ECEEFAE080E051E036
S11342C010E0DF0190819130B1F4228133812F5FBE
S11342D03F4F33832283C481D58169817A81261734
S11342E0370748F0518313821282952F2881223098
S11342F009F0912F9C938F5F36968413E2CF08C008
S1134300E7E1FDE08281938101979383828313C067
S11343108091170D9091180D892B39F0E7E1FDE09C
S1134320808191810197918380838091190D90916F
S11343301A0D892B29F7DF91CF911F9108950E94BF
S11343401C180895CF9380910A0B8823B9F1C0E01B
S11343508C2F90E0FC01EE0FFF1FE80FF91FEE0F0A
S1134360FF1FE55FF44F2181213019F5FC01EE0FA9
S1134370FF1FE80FF91FEE0FFF1FE55FF44F2081C9
S11343802130B9F4FC01EE0FFF1FDF01A80FB91FA4
S1134390AA0FBB1FA55FB44F11961C921197FD0184
S11343A00480F581E02D0480F581E02D309709F03B
S11343B00995CF5F80910A0BC81750F28091EB0AE0
S11343C0882359F1C0E08C2F90E0FC01EE0FFF1F11
S11343D0E80FF91FEE0FFF1FE451F54F2181213043
S11343E0B9F4FC01EE0FFF1FDF01A80FB91FAA0FDC
S11343F0BB1FA451B54F11961C921197FD01048067
S1134400F581E02D0380F481E02D309709F00995C2
S1134410CF5F8091EB0AC817B0F2CF9108951F9235
S11344200F920FB60F9211242F933F934F935F93E4
S11344306F937F938F939F93AF93BF93EF93FF9368
S11344400E941D21FF91EF91BF91AF919F918F9198
S11344507F916F915F914F913F912F910F900FBE7C
S11344600F901F901895FC015FEF540F442311F136
S1134470A62FB72F2D912F27322F32953F70922FD1
S11344809327292F30E0FE2FEE27E227F327C901D7
S1134490982F88279295907FE827F927220F331FBA
S11344A022953295307F3227207F3227E227F32767
S11344B0515000F7CF01089580931B0D1092470BC4
S11344C00895EF92FF920F93CF93DF93E7013AECB5
S11344D0388330911B0D39832A834B830C832FEE51
S11344E02AAB009741F021E0240F2B83FC0180814B
S11344F08D8381E001C080E0442361F0E62FF72F33
S1134500480F9191DE01A80FB11D15969C938F5F02
S11345104813F7CF4B814C5FBE016F5F7F4F80E044
S113452090E00E94332299AB88ABDF91CF910F9139
S1134530FF90EF900895EF92FF920F93CF93DF9344
S11345401F92CDB7DEB78983013031F408E0CE0184
S113455001960E94612205C007E0CE0101960E94E7
S113456061220F90DF91CF910F91FF90EF9008950A
S1134570AF92BF92DF92EF92FF920F931F93CF936C
S1134580DF93FC01DB01D0A8E1A87E2D6D2D808195
S11345908C93818111968C931197828112968C93BE
S11345A01297838113968C931397848114968C931A
S11345B014978381882309F444C020E095E08DEBAF
S11345C00F2EFBEDFF2EF02D1EED3CEDEF01C20F83
S11345D0D11D0D810A3C69F4ED01C90FD11D8883F9
S11345E0C1E0C90F5D01AC0EB11CE5019E5F3883CB
S11345F023C00F3E69F4ED01C90FD11D8883C1E0CA
S1134600C90F5D01AC0EB11CE5019E5F188314C097
S11346100D3B69F4ED01C90FD11D8883C1E0C90FB9
S11346205D01AC0EB11CE5019E5FF88205C0ED0191
S1134630C90FD11D08839F5F2F5FC3812C1730F2F0
S113464001C095E07A3C71F4FD01E90FF11D8DEB99
S1134650808322E0290F9F5FFD01E90FF11D8CED9E
S1134660808326C07F3E71F4FD01E90FF11D8DEBBF
S1134670808322E0290F9F5FFD01E90FF11D8EED7C
S1134680808316C07D3B71F4FD01E90FF11D8DEBB4
S1134690808322E0290F9F5FFD01E90FF11D8BED5F
S11346A0808306C021E0290FFD01E90FF11DE0829E
S11346B06A3C71F4FD01E20FF11D8DEB808382E011
S11346C0820F2F5FFD01E20FF11D9CED908326C048
S11346D06F3E71F4FD01E20FF11D8DEB808382E0EA
S11346E0820F2F5FFD01E20FF11D9EED908316C036
S11346F06D3B71F4FD01E20FF11D8DEB808382E0CF
S1134700820F2F5FFD01E20FF11D9BED908306C028
S113471081E0820FFD01E20FF11DD082A80FB11DCF
S11347209FEE9C938F5FFA018083DF91CF911F915D
S11347300F91FF90EF90DF90BF90AF900895CF93CB
S1134740DF93982F8091470B8230E9F028F4882377
S113475041F0813089F037C0833009F1843061F150
S113476032C09A3C09F06AC0FB0190839091470BD8
S11347709F5F9093470B67C0FB01918382E0809316
S1134780470B80E060C0FB01928383E08093470B7A
S113479080911B0D981709F453C083E054C09C32D8
S11347A020F01092470B82E04EC0FB01938384E01B
S11347B08093470B80E047C0FB01948385E080939E
S11347C0470B80E040C0282F30E0FB014381E42FF9
S11347D0F0E0DF0115962A173B074CF4FB01E20FCA
S11347E0F31F90838F5F8093470B80E02CC02A17C0
S11347F03B0741F4FB0110AA91AB8F5F8093470BF9
S113480080E021C036962E173F07A1F4FB01C0A912
S1134810D1A9C92BD1ABC0AB1092470B4C5F6F5FD2
S11348207F4F80E090E00E943322C817D90751F0EF
S113483082E009C01092470B84E005C082E003C007
S113484080E001C081E0DF91CF9108950E942D2482
S11348506894B1110C94E42408950E94C92488F04A
S11348609F5798F0B92F9927B751B0F0E1F0660F30
S1134870771F881F991F1AF0BA95C9F714C0B13071
S113488091F00E94E324B1E008950C94E324672F8F
S1134890782F8827B85F39F0B93FCCF386957795A0
S11348A06795B395D9F73EF4909580957095619589
S11348B07F4F8F4F9F4F0895E89409C097FB3EF4B4
S11348C090958095709561957F4F8F4F9F4F992359
S11348D0A9F0F92F96E9BB279395F69587957795D7
S11348E06795B795F111F8CFFAF4BB0F11F460FF97
S11348F01BC06F5F7F4F8F4F9F4F16C0882311F0EF
S113490096E911C0772321F09EE8872F762F05C002
S1134910662371F096E8862F70E060E02AF09A959D
S1134920660F771F881FDAF7880F9695879597F992
S1134930089597F99F6780E870E060E008959FEF1D
S113494080EC089500240A94161617061806090622
S1134950089500240A9412161306140605060895F1
S1134960092E0394000C11F4882352F0BB0F40F479
S1134970BF2B11F460FF04C06F5F7F4F8F4F9F4FB9
S1134980089557FD9058440F551F59F05F3F71F03B
S11349904795880F97FB991F61F09F3F79F08795A2
S11349A00895121613061406551FF2CF4695F1DF2B
S11349B008C0161617061806991FF1CF86957105BB
S11349C0610508940895E894BB2766277727CB01EF
S11349D097F908950E94FD240C94B0240E94A22407
S11349E038F00E94A92420F0952311F00C94992406
S11349F00C949F2411240C94E4240E94C12470F389
S1134A00959FC1F3950F50E0551F629FF001729F6F
S1134A10BB27F00DB11D639FAA27F00DB11DAA1F7E
S1134A20649F6627B00DA11D661F829F2227B00DCB
S1134A30A11D621F739FB00DA11D621F839FA00D56
S1134A40611D221F749F3327A00D611D231F849FA6
S1134A50600D211D822F762F6A2F11249F575040FD
S1134A609AF0F1F088234AF0EE0FFF1FBB1F661F78
S1134A70771F881F91505040A9F79E3F510580F041
S1134A800C9499240C94E4245F3FE4F3983ED4F30B
S1134A90869577956795B795F795E7959F5FC1F7E5
S1134AA0FE2B880F911D9695879597F90895A0E19F
S1134AB0B0E0EDE5F5E20C9417297C011B016A01D5
S1134AC0FC0117821682838181FF44C39E012F5FFC
S1134AD03F4F3901F7019381F10193FD859193FFD4
S1134AE081911F01882309F431C3853239F493FD80
S1134AF0859193FF81911F01853239F4B70190E0CC
S1134B000E947A2A56016501E5CF10E0512C912CC0
S1134B10FFE1F915D8F08B3279F038F4803279F06E
S1134B208332A1F4F92DF0612EC08D3261F080330F
S1134B3069F4292D21602DC0392D3260932E892DE1
S1134B408460982E2AC0E92DE86015C097FC2DC01A
S1134B5020ED280F2A3088F496FE06C03AE0139F11
S1134B60200D1124122F19C08AE0589E200D112403
S1134B70522EE92DE0629E2E10C08E3231F496FC46
S1134B80E5C2F92DF0649F2E08C08C3621F4292D3E
S1134B902068922E02C0883641F4F10193FD85917C
S1134BA093FF81911F018111B3CF9BEB980F933039
S1134BB020F4992D9061805E07C09BE9980F933093
S1134BC008F066C1992D9F7E96FF16E09F73992E7B
S1134BD0853619F49064992E08C0863621F4392F4D
S1134BE03068932E02C01111115097FE07C01C3378
S1134BF050F444244394410E27E00BC0183038F09D
S1134C0027E017E005C027E09CE3492E02C0212FCE
S1134C10412C560184E0A80EB11CF601608171811B
S1134C2082819381042DA3010E947B296C01F98167
S1134C30FC87F0FF02C0F3FF06C091FC06C092FEA1
S1134C4006C000E205C00DE203C00BE201C000E0B3
S1134C508C858C7019F001115AC29BC297FE10C04A
S1134C604C0CFC85F4FF04C08A81813309F44A9416
S1134C70141474F528E0241578F588E0482E2CC027
S1134C8096FC2AC0812F90E08C159D059CF03CEF8A
S1134C90C3163FEFD30674F0892D8068982E0AC09E
S1134CA0E2E0F0E0EC0FFD1FE10FF11D80818033A5
S1134CB019F411501111F4CF97FE0EC044244394FB
S1134CC0410E812F90E0C816D9062CF41C1904C09B
S1134CD04424439401C010E097FE06C01C141D0434
S1134CE034F4C601019605C085E090E002C081E07D
S1134CF090E001110196112331F0212F30E02F5F54
S1134D003F4F820F931F252D30E08217930714F431
S1134D10581A01C0512C892D897049F4552039F055
S1134D20B70180E290E00E947A2A5A94F7CF0023D8
S1134D3029F0B701802F90E00E947A2A93FC09C0E1
S1134D40552039F0B70180E390E00E947A2A5A9402
S1134D50F7CF97FE4CC04601D7FE02C0812C912CA0
S1134D60C60188199909F301E80FF91FFE87ED8739
S1134D70960124193109388B2F87012F10E01195E2
S1134D80019511093FEF8316930629F4B7018EE2CA
S1134D9090E00E947A2AC814D9044CF08F8598892F
S1134DA08815990524F4ED85FE85818101C080E391
S1134DB0F1E08F1A91082D853E852F5F3F4F3E8786
S1134DC02D87801691062CF0B70190E00E947A2A74
S1134DD0D9CFC814D90441F49A81963320F4953379
S1134DE019F43C8534FF81E3B70190E04EC08A8119
S1134DF0813319F09C859F7E9C87B70190E00E94C7
S1134E007A2A111105C094FC18C085E690E017C0F9
S1134E10B7018EE290E00E947A2A1E5F82E001E0F0
S1134E20080FF301E80FF11D8081B70190E00E94A3
S1134E307A2A802F0113F3CFE6CF85E490E0B701FF
S1134E400E947A2AD7FC06C0C114D10441F4EC852F
S1134E50E4FF05C0D194C194D1088DE201C08BE276
S1134E60B70190E00E947A2A80E32AE0C216D104B6
S1134E702CF08F5FFAE0CF1AD108F7CFB70190E09A
S1134E800E947A2AB701C601C0960E947A2A54C1A8
S1134E90833631F0833779F0833509F056C020C06A
S1134EA0560132E0A30EB11CF6018081898301E032
S1134EB010E0630112C05601F2E0AF0EB11CF6011E
S1134EC0C080D18096FE03C0612F70E002C06FEFF6
S1134ED07FEFC6010E94672A8C01F92DFF7714C069
S1134EE0560122E0A20EB11CF601C080D18096FECC
S1134EF003C0612F70E002C06FEF7FEFC6010E9414
S1134F00532A8C01F92DF0689F2EF3FD1AC0852DCC
S1134F1090E008171907A8F4B70180E290E00E9416
S1134F207A2A5A94F4CFF60197FC859197FE8191E1
S1134F306F01B70190E00E947A2A51105A940150EF
S1134F4011090115110579F7F7C0843611F0893676
S1134F5061F5560197FE09C024E0A20EB11CF601CA
S1134F6060817181828193810AC0F2E0AF0EB11C2D
S1134F70F60160817181072E000C880B990BF92DC5
S1134F80FF769F2E97FF09C0909580957095619547
S1134F907F4F8F4F9F4FF0689F2E2AE030E0A30190
S1134FA00E94D82AC82EC6183FC0092D853721F47F
S1134FB00F7E2AE030E01DC0097F8F3691F018F48F
S1134FC0883559F0C3C0803719F0883711F0BEC056
S1134FD0006104FF09C0046007C094FE08C00660B5
S1134FE006C028E030E005C020E130E002C020E146
S1134FF032E0560107FF09C084E0A80EB11CF60197
S1135000608171818281938108C0F2E0AF0EB11C8E
S1135010F6016081718180E090E0A3010E94D82AAA
S1135020C82EC6180F77902E96FE0BC0092D0E7F42
S1135030C11650F494FE0AC092FC08C0092D0E7EDD
S113504005C0DC2C092D03C0DC2C01C0D12E04FFCB
S11350500DC0FE01EC0DF11D8081803311F4097E39
S113506009C002FF06C0D394D39404C0802F86786D
S113507009F0D39403FD11C000FF06C01C2DD51404
S113508080F4150D1D190DC0D51458F4B70180E234
S113509090E00E947A2AD394F7CFD51410F45D18C7
S11350A001C0512C04FF10C0B70180E390E00E94BE
S11350B07A2A02FF17C001FD03C088E790E002C00E
S11350C088E590E0B7010CC0802F867859F001FF85
S11350D002C08BE201C080E207FD8DE2B70190E0DF
S11350E00E947A2AC11638F4B70180E390E00E9446
S11350F07A2A1150F7CFCA94F301EC0DF11D808187
S1135100B70190E00E947A2AC110F5CF15C0F4E0EF
S1135110F51560F584E0581A93FE1FC0011127C0ED
S11351202C8523FF2AC00CEE12E0392D3071932E0A
S1135130F8018491811124C0552009F4E4CCB7010D
S113514080E290E00E947A2A5A94F6CFF701868191
S1135150978126C08FEF9FEF23C0B70180E290E0D4
S11351600E947A2A5A945110F8CFD8CF512CB70103
S1135170802F90E00E947A2AD3CF00EF12E0D5CF9F
S113518091108052B70190E00E947A2A0F5F1F4F5E
S1135190CFCF23E0251510F483E0BDCF512CC0CF31
S11351A06096E2E10C943329DB018F939F930E9474
S11351B00C29BF91AF91A29F800D911DA39F900DCB
S11351C0B29F900D11240895A1E21A2EAA1BBB1BB5
S11351D0FD010DC0AA1FBB1FEE1FFF1FA217B307BF
S11351E0E407F50720F0A21BB30BE40BF50B661FD5
S11351F0771F881F991F1A9469F760957095809599
S113520090959B01AC01BD01CF010895EE0FFF1FE6
S11352100590F491E02D09940E944E29A59F900DCC
S1135220B49F900DA49F800D911D112408952F9279
S11352303F924F925F926F927F928F929F92AF9222
S1135240BF92CF92DF92EF92FF920F931F93CF936F
S1135250DF93CDB7DEB7CA1BDB0B0FB6F894DEBF06
S11352600FBECDBF09942A88398848885F846E842C
S11352707D848C849B84AA84B984C884DF80EE8076
S1135280FD800C811B81AA81B981CE0FD11D0FB67F
S1135290F894DEBF0FBECDBFED010895A29FB0010B
S11352A0B39FC001A39F700D811D1124911DB29F56
S11352B0700D811D1124911D0895FC0188279927E3
S11352C0E89421912032E9F3293010F02E30C8F30C
S11352D02B3241F02D3239F4689404C00E94722AB2
S11352E0820F911D219120532A30C0F31EF4909512
S11352F081959F4F0895283008F027E03327DA017D
S1135300990F311D87FD916000966105710539F48F
S113531032602E5F3D9330E32A95E1F708959F3F75
S113532030F080387105610509F03C5F3C5F3D93C6
S1135330913008F08068911DDF93CF931F930F93F2
S1135340FF92EF92192F987F9695E92F969596954F
S1135350E90FFF27E25BFC4F99273327EE24FF2454
S1135360A701E70105900894079428F4360FE71E77
S1135370F81E491F511D660F771F881F991F069439
S1135380A1F70590079428F4E70EF81E491F561F4D
S1135390C11D770F881F991F661F0694A1F70590FA
S11353A0079428F4F80E491F561FC71FD11D880FF4
S11353B0991F661F771F0694A1F70590079420F4A0
S11353C0490F561FC71FD81F990F661F771F881FC5
S11353D00694A9F784911095177041F0D695C79556
S11353E057954795F794E7941A95C1F7E4EFF2E0DF
S11353F068941590159135916591959105907FE28A
S11354007395E118F10A430B560BC90BD009C0F789
S1135410E10CF11E431F561FC91FD01D7EF47033CB
S113542011F48A95E6CFE894015030F0080F0AF49D
S11354300027021708F4202F2395022F7A3328F02F
S113544079E37D932A95E9F710C07D932A9589F62F
S1135450069497956795379517951794E118F10A6F
S1135460430B560BC90BD00998F023957E91739585
S11354707A3308F070E37C932013B8F77E9170615F
S11354807D9330F0839571E37D9370E32A95E1F782
S11354901124EF90FF900F911F91CF91DF919927E5
S11354A087FD90950895FC010590615070400110AE
S11354B0D8F7809590958E0F9F1F0895FB01DC010E
S11354C08D91019080190110D9F3990B0895FC0175
S11354D06150704001900110D8F7809590958E0F1F
S11354E09F1F08957AE0979F902D879F802D910D9F
S11354F0112408950F931F93CF93DF93FB0123810E
S113550021FD03C08FEF9FEF2CC022FF16C0468100
S11355105781248135814217530744F4A081B18116
S11355209D012F5F3F4F318320838C9326813781E8
S11355302F5F3F4F3783268314C08B01EC01FB019F
S11355400084F185E02D0995892BE1F6D8011696A2
S11355508D919C911797019617969C938E9316970D
S1135560CE01DF91CF911F910F910895AEE0B0E08D
S1135570ECEBFAE20C9425290D891E8986E08C83D4
S11355801A8309838FEF9FE79E838D83AE01475E65
S11355905F4F6F89788DCE0101960E945725EF8168
S11355A0F885E00FF11F10822E96E4E00C94412957
S11355B0FA01AA27283051F1203181F1E8946F9340
S11355C06E7F6E5F7F4F8F4F9F4FAF4FB1E03ED0E6
S11355D0B4E03CD0670F781F891F9A1FA11D680F84
S11355E0791F8A1F911DA11D6A0F711D811D911DB7
S11355F0A11D20D009F468943F912AE0269F11242C
S11356003019305D3193DEF6CF010895462F47708F
S1135610405D4193B3E00FD0C9F7F6CF462F4F70EA
S1135620405D4A3318F0495D31FD4052419302D048
S1135630A9F7EACFB4E0A6959795879577956795EE
S1135640BA95C9F700976105710508959B01AC01EE
S11356500A2E06945795479537952795BA95C9F715
S1135660620F731F841F951FA01D0895F894FFCF28
S1135670FF01000A00670AC003C10AC90309044103
S11356800AE4030E04070B17043D045F0D4F047E68
S113569004180C8604B504320CBD04ED04960CFA0F
S11356A0042F05700C3C057305300D8205F005DBF5
S11356B00B05066E06B10C7D060F071C0DEF061BCD
S11356C007260D270754078F0D6407AA07C10D97F6
S11356D007BA07E10DCC073F080B0E100888082114
S11356E00E5108BC08960E9708D708BB0CC60800D4
S11356F00000000000E608EB08FD0815092C09FF6E
S113570001000A004013FF01001E007D13FF010089
S113571032008C13000000000000000000000000B4
S11357200000FA00FA00FA00FA00320032003200F7
S1135730320000000000000000000000010101012F
S1135740FF01006400E916FF0264008117700BF882
S11357500B0A417661696C61626C6520636F6D6DE3
S1135760616E64730D0A002D2D2D2D2D2D2D2D2DE3
S11357702D2D2D2D2D2D2D2D2D0D0A000D0A3E2004
S11357800033004368616E6E656C20256420736588
S11357907420706F696E743A202564200D0A0062CB
S11357A06D7033393000252E30660054656D7020DD
S11357B06F6620424D503439303A202573200D0A4B
S11357C0004E5443004E54435B25645D3A202573D8
S11357D0200D0A006F6E65776972650054656D70FF
S11357E020312D57697265206368616E6E656C2087
S11357F025643A202573200D0A004368616E6E65A6
S11358006C202564206175746F20766F6C746167F9
S1135810653A202564200D0A0064697361626C6531
S11358206420616C6C206368616E6E656C0D0A00A7
S1135830537461747573205445433A00536574700E
S11358406F696E74206368616E6E656C5B25645D60
S11358503A202564200D0A0052696E676C65643A2B
S113586020524544203D2025642C20475245454E76
S1135870203D2025642C20424C5545203D202564A4
S11358802C205748495445203D202564200D0A000A
S11358904C6564204952207365742062726967689C
S11358A0746E657373206973202573202525200D7C
S11358B00A004C6564204952277320627269676844
S11358C0746E657373206973202564202525200D6B
S11358D00A00616363656C65726174696F6E20258B
S11358E02E326620252E326620252E32660D0A00C1
S11358F06779726F73636F706520252E3266202579
S11359002E326620252E32660D0A0050726573739E
S11359103A20252E35660D0A00494F552046495236
S11359204D574152452056312E302E30200D0A005D
S11359307365745F74656D7000203A20736574201C
S1135940646573697265642074656D7065726174F1
S113595075726500203A20446973706C6179206C1B
S1135960697374206F6620636F6D6D616E64732C50
S113597020666F726D61743A2068656C70006765AB
S1135980745F74656D7000203A20476574207468F4
S1135990652063757272656E742074656D706572CE
S11359A06174757265206F662054454300676574A1
S11359B05F74656D705F736574706F696E740020D9
S11359C03A20476574207468652063757272656E49
S11359D0742074656D706572617475726520736589
S11359E074706F696E74206F66205445430074654B
S11359F0635F656E6100203A20656E61626C6520AC
S1135A00544543206368616E6E656C2C20666F722A
S1135A106D61743A207465635F656E6120636861CB
S1135A206E6E656C007465635F64697300203A2070
S1135A3064697361626C6520544543206368616ED8
S1135A406E656C2C20666F726D61743A20746563A8
S1135A505F646973206368616E6E656C007465636E
S1135A605F6469735F6175746F00203A20646973C1
S1135A7061626C65206175746F20636F6E74726F00
S1135A806C2C20666F726D6174207465635F646949
S1135A90735F6175746F206368616E6E656C00740A
S1135AA065635F656E615F6175746F00203A2020E5
S1135AB0656E61626C65206175746F20636F6E74CE
S1135AC0726F6C2C2020666F726D61743A2074655D
S1135AD0635F656E615F6175746F206368616E6E8C
S1135AE0656C007465635F7365745F6F757470755E
S1135AF07400203A202073657420746865206F75E3
S1135B0074707574206D616E75616C6C792C2020D5
S1135B10666F726D61743A207465635F7365745F58
S1135B206F7574707574206368616E6E656C20683F
S1135B306561745F636F6F6C28303A434F4F4C2C30
S1135B4020313A20484541542920766F6C746167AE
S1135B506528313530206D65616E20312E35290080
S1135B607465635F7365745F6175746F5F766F6C82
S1135B707461676500203A20207365742074686539
S1135B8020766F6C7461676520666F72206175742E
S1135B906F20636F6E74726F6C206D6F64652C2060
S1135BA020666F726D61743A207465635F73657407
S1135BB05F6175746F5F766F6C746167652063688D
S1135BC0616E6E656C2020766F6C74616765092860
S1135BD0313530206D65616E20312E3529007465B4
S1135BE0635F6765745F73746174757300203A2032
S1135BF02067657420746563207374617475732CF5
S1135C002020666F726D61743A207465635F676506
S1135C10745F7374617475732C20726573706F6E26
S1135C207365206E746330206E7463312074656311
S1135C30305F7374617420746563315F737461746D
S1135C4020746563325F7374617420746563335FB9
S1135C507374617420482F433020482F433100204F
S1135C603A20656E61626C6520706572696F646963
S1135C7063206C6F672C20666F726D61743A2074B8
S1135C8065635F6C6F675F656E61007465635F6C0D
S1135C906F675F64697300203A2064697361626CA2
S1135CA06520706572696F646963206C6F672C206E
S1135CB0666F726D61743A207465635F6C6F675FC1
S1135CC0656E610072696E676C65645F7365745FAD
S1135CD052474200203A2064657461696C2C206646
S1135CE06F726D61743A2072696E676C65645F737C
