S0130000494F554669726D776172652E73726563E7
S11300000C9485090C94A2090C94A2090C94A209DD
S11300100C94A2090C94A2090C94A2090C94A209B0
S11300200C94A2090C94A2090C94A2090C94A209A0
S11300300C94A2090C94A2090C94A2090C940F220A
S11300400C94A2090C94A2090C94741A0C94B81A76
S11300500C94A2090C94A2090C94A2090C94A20970
S11300600C94A2090C94A2090C94A2090C94A20960
S11300700C94A2090C94A2090C94EB1A0C94321B54
S11300800C94A2090C9456180C94A209EF12F212C3
S1130090F512F812FB12FE120113041307131E13B8
S11300A01E131E130A130D1310131313161319130F
S11300B01C13621966196619661966196619661998
S11300C06619761866196619661966196619661925
S11300D06619761866196619661966196619661915
S11300E066197E18661966196619661966196619FD
S11300F06619A418661966196619661966196619C7
S113010066197E18661966196619661966196619DC
S11301106619AA18661966196619661966196619A0
S11301206619B0186619661966196619661966198A
S11301306619C21866196619661966196619661968
S11301406619EC186619661966196619661966192E
S11301506619B61866196619661966196619661954
S11301606619D0186619661966196619661966192A
S11301706619EF18661966196619661966196619FB
S11301806619EF18661966196619661966196619EB
S11301906619EF18661966196619661966196619DB
S11301A06619EF18661966196619661966196619CB
S11301B06619F818661966196619661966196619B2
S11301C06619291966196619661966196619661970
S11301D06619F81866196619661966196619661992
S11301E06619291966196619661966196619661950
S11301F06619101966196619661966196619661959
S113020066192D196619661966196619661966192B
S113021066192D196619661966196619661966191B
S113022066194219661966196619661966196619F6
S113023066195C19661966196619661966196619CC
S113024066195C19951E9A1E9A1E9A1E9A1E9A1E6B
S11302509A1E9A1E9A1E9A1E9A1EF31BF31BF31BD8
S1130260F31BF31BF31BF31BF31BF31BF31B9A1E70
S11302709A1E9A1E9A1E9A1E9A1E9A1E9A1E9A1EBA
S11302809A1E9A1E9A1E9A1E9A1E9A1E9A1E9A1EAA
S11302909A1E9A1E9A1E9A1E9A1E9A1E9A1E9A1E9A
S11302A09A1E9A1E9A1E9A1E9A1E251D9A1E9A1E00
S11302B09A1E9A1E9A1E9A1E9A1E9A1E9A1E9A1E7A
S11302C0321C491C9A1E9A1E9A1E9A1E491C9A1E7A
S11302D09A1E9A1E9A1E9A1E9A1E251D9A1E9A1ED0
S11302E0881C9A1E071D9A1E9A1E251D6E616E009B
S11302F0696E660000407A10F35A00A0724E180925
S11303000010A5D4E80000E87648170000E40B5478
S1130310020000CA9A3B000000E1F5050000809647
S11303209800000040420F000000A0860100000079
S1130330102700000000E803000000006400000033
S113034000000A00000000000100000000002C76FC
S1130350D888DC674F0823DFC1DFAE59E1B1B79617
S1130360E5E3E453C63AE651997696E8E6C2842674
S1130370EB898C9B62ED407C6FFCEFBC9C9F40F250
S1130380BAA56FA5F490055A2AF75C936B6CF967CC
S11303906DC11BFCE0E40D47FEF520E6B500D0ED91
S11303A0902E0300943577050080841E08000020F9
S11303B04E0A000000C80C333333330F986E128397
S11303C01141EF8D2114893BE65516CFFEE6DB186B
S11303D0D1844B381BF77C1D901DA4BBE424203230
S11303E084725E228100C9F124ECA1E53D272E2E02
S11303F02E2E2E2E2E2E2E2E2E2E2E2E2E2E2E2E19
S11304002E2E2E2E2E2E2E2E2E2E2E2E2E2E2E2E08
S11304102E2E2E2E2E2E2E2E2E2E2E2E2E2E2E2EF8
S11304202E2E2E2E2E0D0A00000000000000002E9D
S11304302E2E2E2E2E2E2E2E2E2E2E2E2E2E2E2ED8
S11304402E2E2E2E2E2E2E2E2E2E2E2E2E2E2E2EC8
S11304502E2E2E2E2E2E2E2E2E2E2E2E2E2E2E2EB8
S11304602E2E2E2E2E2E0D0A00000000000000005D
S11304702E2E20202020202020202020202020205C
S11304802020202020202020202020202020202068
S11304902020202020202020202020202020202058
S11304A020202020202E2E0D0A0000000000000035
S11304B0002E2E202020202020202020202020203C
S11304C02020202020202020202020202020202028
S11304D02020202020202020202020202020202018
S11304E02020202020202E2E0D0A000000000000D5
S11304F000002E2E2020202020202020202020201C
S113050020205F5F5F5F5F202020202020202020AC
S113051020202020202020202020202020202020D7
S1130520202020202020202E2E0D0A000000000074
S11305300000002E2E2020202020202020202020FB
S113054020202F205F5F5F5F7C2020202020202040
S11305502020202020202020202020202020202097
S113056020202020202020202E2E0D0A0000000014
S1130570000000002E2E20202020202020202020DB
S113058020207C20285F5F5F20205F205F5F202089
S1130590205F5F205F20205F5F5F205F5F5F202020
S11305A02020202020202020202E2E0D0A000000B4
S11305B000000000002E2E202020202020202020BB
S11305C0202020205C5F5F5F205C7C20275F205C14
S11305D0202F205F60207C2F205F5F2F205F205C16
S11305E0202020202020202020202E2E0D0A000054
S11305F00000000000002E2E20202020202020209B
S113060020202020205F5F5F5F29207C207C5F29E1
S1130610207C20285F7C207C20285F7C20205F5F5A
S11306202F202020202020202020202E2E0D0A00E4
S1130630000000000000002E2E202020202020207A
S113064020202020207C5F5F5F5F5F2F7C202E5F57
S11306505F2F205C5F5F2C5F7C5C5F5F5F5C5F5F34
S11306605F7C202020202020202020202E2E0D0AF8
S113067000000000000000002E2E2020202020205A
S11306802020205F2020202020205F205F7C207CF1
S1130690205F5F5F5F5F5F5F20202020202020209D
S11306A05F2020202020202020202020202E2E0DFE
S11306B00A00000000000000002E2E202020202030
S11306C02020207C207C20202020285F7C5F295F44
S11306D07C7C5F5F2020205F5F7C20202020202006
S11306E07C207C20202020202020202020202E2E32
S11306F00D0A00000000000000002E2E2020202003
S1130700202020207C207C20202020205F205F20AF
S11307105F205F5F207C207C205F5F5F20205F5F25
S11307205F7C207C5F5F2020202020202020202E42
S11307302E0D0A00000000000000002E2E202020B4
S113074020202020207C207C202020207C207C2035
S11307507C20275F205C7C207C2F205F205C2F2066
S11307605F5F7C20275F205C202020202020202029
S11307702E2E0D0A00000000000000002E2E202066
S11307802020202020207C207C5F5F5F5F7C207CF9
S1130790207C207C207C207C207C20205F5F2F20FC
S11307A0285F5F7C207C207C207C2020202020204F
S11307B0202E2E0D0A00000000000000002E2E2026
S11307C0202020202020207C5F5F5F5F5F5F7C5FB4
S11307D07C5F7C5F7C207C5F7C5F7C5C5F5F5F7C9C
S11307E05C5F5F5F7C5F7C207C5F7C20202020201E
S11307F020202E2E0D0A00000000000000002E2EE6
S113080020202020202020202020202020202020E4
S113081020202020202020202020202020202020D4
S113082020202020202020202020202020202020C4
S11308302020202E2E0D0A00000000000000002EB3
S11308402E20202020202020202020202020202096
S11308502020202020202020202020202020202094
S11308602020202020202020202020202020202084
S1130870202020202E2E0D0A000000000000000081
S11308802E2E202020205F5F5F5F5F205F5F5F5F11
S113089020205F202020205F20205F5F2020202058
S11308A05F5F5F5F2020205F5F5F2020205F5F5FCE
S11308B020202020202E2E0D0A0000000000000021
S11308C0002E2E2020207C5F2020205F2F205F5FC1
S11308D0205C7C207C20207C207C205C205C2020F0
S11308E02F202F5F207C202F205F205C202F205F73
S11308F0205C202020202E2E0D0A00000000000085
S113090000002E2E20202020207C207C7C207C2097
S1130910207C207C207C20207C207C20205C205C8F
S11309202F202F207C207C7C207C207C207C207C21
S1130930207C207C2020202E2E0D0A0000000000A8
S11309400000002E2E202020205F7C207C7C207C38
S11309505F5F7C207C207C5F5F7C207C2020205C8F
S113096020202F20207C207C7C207C5F7C207C200D
S11309707C5F7C207C2020202E2E0D0A00000000AD
S1130980000000002E2E2020207C5F5F5F5F5F5CF4
S11309905F5F5F5F2F205C5F5F5F5F2F2020202001
S11309A0205C2F2020207C5F285F295F5F5F285F09
S11309B0295F5F5F2F202020202E2E0D0A000000CB
S11309C000000000002E2E202020202020202020A7
S11309D02020202020202020202020202020202013
S11309E02020202020202020202020202020202003
S11309F0202020202020202020202E2E0D0A000040
S1130A000000000000002E2E202020202020202086
S1130A1020202020202020202020202020202020D2
S1130A2020202020202020202020202020202020C2
S1130A3020202020202020202020202E2E0D0A00DF
S1130A40000000000000002E2E2E2E2E2E2E2E2E04
S1130A502E2E2E2E2E2E2E2E2E2E2E2E2E2E2E2EB2
S1130A602E2E2E2E2E2E2E2E2E2E2E2E2E2E2E2EA2
S1130A702E2E2E2E2E2E2E2E2E2E2E2E2E2E0D0AD7
S1130A8000000000000000002E2E2E2E2E2E2E2EF2
S1130A902E2E2E2E2E2E2E2E2E2E2E2E2E2E2E2E72
S1130AA02E2E2E2E2E2E2E2E2E2E2E2E2E2E2E2E62
S1130AB02E2E2E2E2E2E2E2E2E2E2E2E2E2E2E0D73
S1130AC00A00000000000000000D0A000000000001
S1130AD00000000000000000000000000000000012
S1130AE00000000000000000000000000000000002
S1130AF000000000000000000000000000000000F2
S1130B000000000000000000000015FD40FD6BFD2A
S1130B108BFDA4FDB9FDCCFDDCFDEAFDF7FD03FE74
S1130B200EFE19FE22FE2BFE34FE3CFE43FE4BFE5F
S1130B3052FE58FE5FFE65FE6BFE71FE76FE7CFE85
S1130B4081FE86FE8BFE90FE94FE99FE9DFEA1FE24
S1130B50A6FEAAFEAEFEB2FEB6FEB9FEBDFEC1FE04
S1130B60C4FEC8FECBFECEFED2FED5FED8FEDBFE12
S1130B70DEFEE1FEE4FEE7FEEAFEEDFEF0FEF3FE3D
S1130B80F5FEF8FEFBFEFDFE00FF03FF05FF08FF78
S1130B900AFF0DFF0FFF11FF14FF16FF18FF1BFFC5
S1130BA01DFF1FFF21FF24FF26FF28FF2AFF2CFF24
S1130BB02EFF30FF32FF34FF37FF39FF3AFF3CFF8F
S1130BC03EFF40FF42FF44FF46FF48FF4AFF4CFF01
S1130BD04EFF4FFF51FF53FF55FF56FF58FF5AFF7B
S1130BE05CFF5DFF5FFF61FF63FF64FF66FF68FFFB
S1130BF069FF6BFF6CFF6EFF70FF71FF73FF74FF83
S1130C0076FF78FF79FF7BFF7CFF7EFF7FFF81FF0C
S1130C1082FF84FF85FF87FF88FF8AFF8BFF8CFF9D
S1130C208EFF8FFF91FF92FF94FF95FF96FF98FF31
S1130C3099FF9BFF9CFF9DFF9FFFA0FFA1FFA3FFC8
S1130C40A4FFA5FFA7FFA8FFA9FFABFFACFFADFF63
S1130C50AFFFB0FFB1FFB2FFB4FFB5FFB6FFB7FF00
S1130C60B9FFBAFFBBFFBCFFBEFFBFFFC0FFC1FFA0
S1130C70C3FFC4FFC5FFC6FFC7FFC9FFCAFFCBFF41
S1130C80CCFFCDFFCFFFD0FFD1FFD2FFD3FFD4FFE6
S1130C90D6FFD7FFD8FFD9FFDAFFDBFFDCFFDEFF8B
S1130CA0DFFFE0FFE1FFE2FFE3FFE4FFE5FFE6FF34
S1130CB0E8FFE9FFEAFFEBFFECFFEDFFEEFFEFFFDC
S1130CC0F0FFF1FFF2FFF4FFF5FFF6FFF7FFF8FF87
S1130CD0F9FFFAFFFBFFFCFFFDFFFEFFFFFF000033
S1130CE001000200030004000500060008000900DA
S1130CF00A000B000C000D000E000F001000110084
S1130D001200130014001500160017001800190033
S1130D101A001B001C001D001E001F0020002100E3
S1130D202200230024002400250026002700280098
S1130D3029002A002B002C002D002E002F0030004B
S1130D4031003200330034003500360037003800FB
S1130D5039003A003A003B003C003D003E003F00B1
S1130D604000410042004300440045004600470063
S1130D704800480049004A004B004C004D004E001A
S1130D804F005000510052005300530054005500CE
S1130D9056005700580059005A005B005C005C0084
S1130DA05D005E005F00600061006200630064003B
S1130DB06500650066006700680069006A006B00F2
S1130DC06C006D006D006E006F00700071007200A9
S1130DD07300740075007500760077007800790060
S1130DE07A007B007C007C007D007E007F00800018
S1130DF081008200830083008400850086008700D0
S1130E00880089008A008A008B008C008D008E0087
S1130E108F0090009100910092009300940095003F
S1130E20960097009700980099009A009B009C00F8
S1130E309D009D009E009F00A000A100A200A300B1
S1130E40A400A400A500A600A700A800A900AA0069
S1130E50AA00AB00AC00AD00AE00AF00B000B00023
S1130E60B100B200B300B400B500B600B600B700DC
S1130E70B800B900BA00BB00BC00BC00BD00BE0095
S1130E80BF00C000C100C200C200C300C400C5004E
S1130E90C600C700C800C900C900CA00CB00CC0006
S1130EA0CD00CE00CF00CF00D000D100D200D300BF
S1130EB0D400D500D500D600D700D800D900DA0078
S1130EC0DB00DB00DC00DD00DE00DF00E000E10031
S1130ED0E200E200E300E400E500E600E700E800E9
S1130EE0E900E900EA00EB00EC00ED00EE00EF00A1
S1130EF0EF00F000F100F200F300F400F500F6005A
S1130F00F600F700F800F900FA00FB00FC00FD0011
S1130F10FE00FE00FF0000010101020103010401C3
S1130F200501050106010701080109010A010B0178
S1130F300C010D010D010E010F011001110112012F
S1130F4013011401150116011601170118011901E5
S1130F501A011B011C011D011E011F011F0120019B
S1130F602101220123012401250126012701280151
S1130F7029012A012A012B012C012D012E012F0107
S1130F8030013101320133013401350136013601BA
S1130F903701380139013A013B013C013D013E0171
S1130FA03F01400141014201430144014501450122
S1130FB046014701480149014A014B014C014D01D9
S1130FC04E014F0150015101520153015401550189
S1130FD056015701580159015A015B015C015D0139
S1130FE05E015F01600161016201630164016501E9
S1130FF066016701680169016A016B016C016D0199
S11310006E016F0170017101720173017401750148
S113101076017701780179017A017B017C017D01F8
S11310207E017F01800181018201830184018501A8
S113103086018701880189018A018C018D018E0155
S11310408F01900191019201930194019501960100
S11310509701980199019B019C019D019E019F01AB
S1131060A001A101A201A301A501A601A701A80154
S1131070A901AA01AB01AC01AE01AF01B001B101FC
S1131080B201B301B401B601B701B801B901BA01A3
S1131090BB01BC01BE01BF01C001C101C201C40149
S11310A0C501C601C701C801CA01CB01CC01CD01EC
S11310B0CE01D001D101D201D301D501D601D7018E
S11310C0D801D901DB01DC01DD01DF01E001E1012F
S11310D0E201E401E501E601E701E901EA01EB01CE
S11310E0ED01EE01EF01F101F201F301F501F60169
S11310F0F701F901FA01FB01FD01FE01FF01010203
S11311000202030205020602080209020A020C0294
S11311100D020F021002110213021402160217022A
S113112019021A021C021D021F02200222022302BB
S113113024022602280229022B022C022E022F024C
S11311403102320234023502370239023A023C02D9
S11311503D023F0240024202440245024702490264
S11311604A024C024E024F025102530254025602EA
S113117058025A025B025D025F026102620264026B
S11311806602680269026B026D026F0271027302E9
S11311907402760278027A027C027E028002820263
S11311A08402860288028A028C028E0290029202D3
S11311B09402960298029A029C029E02A002A20243
S11311C0A402A602A902AB02AD02AF02B102B402AC
S11311D0B602B802BA02BD02BF02C102C302C6020D
S11311E0C802CB02CD02CF02D202D402D702D90266
S11311F0DC02DE02E102E302E602E902EB02EE02B5
S1131200F002F302F602F902FB02FE0201030403F8
S1131210070309030C030F031203150318031B032D
S11312201E032103240328032B032E033103340359
S113123038033B033E034203450349034C03500375
S1131240530357035B035E03620366036A036E037F
S11312507103750379037E03820386038A038E0375
S1131260930397039C03A003A503A903AE03B3034D
S1131270B803BC03C103C703CC03D103D603DC0307
S1131280E103E703EC03F203F803FE0304040A0496
S1131290110417041E0424042B04320439044004EA
S11312A04804500457045F046704700478048104FC
S11312B08A0493049D04A704B104BB04C604D104A6
S11312C0DC04E804F40400050D051B0529053705B5
S11312D046055605670578058A059D05B105C705C8
S11312E0DD05F5050E062A06470666068806AD06E0
S11312F0D606030736076F07B107FD075808C90864
S11313005A09210A560BC10D2C1011241FBECFEF10
S1131310D0E1DEBFCDBF1AE0A0E0B1E0E8E7F6E53A
S113132002C005900D92A632B107D9F72DE0A6E2CE
S1131330BAE001C01D92AF35B207E1F70E94F41381
S11313400C943A2B0C940000CF93DF9300D000D080
S113135000D0CDB7DEB786E0ECE2FAE0DE0111960C
S113136001900D928A95E1F729813A814B815C8144
S11313706D817E8180E090E026960FB6F894DEBF02
S11313800FBECDBFDF91CF910895CF93DF9300D0EF
S113139000D000D0CDB7DEB786E0E6E2FAE0DE01A9
S11313A0119601900D928A95E1F729813A814B813A
S11313B05C816D817E8180E090E026960FB6F89482
S11313C0DEBF0FBECDBFDF91CF910895EF92FF92A4
S11313D00F931F93CF93FC018081882309F444C0A9
S11313E091E0C0E020E031E0803219F41082932FC4
S11313F00EC0992361F0C830C8F5AC2FB0E0AA0F35
S1131400BB1FAE5CB54FED93FC93CF5F922F31962B
S113141080818111E9CFCC2359F16091070170914A
S113142008016115710531F1E090320AF090330A38
S113143007E011E0C7010E94622A892B59F4D80100
S11314401296ED91FC91139762E37AE08C2F90E071
S1131450099511C00A5F1F4FF80160817181611500
S1131460710541F781E007C081E005C082E003C057
S113147081E001C081E0CF911F910F91FF90EF9027
S11314800895CF93DF9381EE91E00E94E01987EFF6
S113149091E00E94E0198091070190910801009762
S11314A089F0C7E0D1E00E94E0198C819D810E94FF
S11314B0E01983E593E00E94E019269688819981DA
S11314C0009789F780E090E0DF91CF910895CF9362
S11314D04DC08091850A9091860A0E949F19C82F59
S11314E00E94D019CD3011F0CA3029F58091440AF8
S11314F08823E1F0E82FF0E0EB5BF54F10828F5F7B
S11315008093440A85E49AE00E94E6091092440A12
S1131510880F990BFC01EB57FE4F808191810E944B
S1131520E0198EE092E00E94E01920C08CE092E085
S11315300E94E0191BC0C83011F0CF3741F48091EC
S1131540440A882399F081508093440A0FC0809103
S1131550440AE82FF0E0EB5BF54FC0838F5F8134E2
S113156018F48093440A02C01092440A8091850AB8
S11315709091860A0E948319882309F4AACFCF91F7
S113158008950F931F93CF93DF93833091057CF1DC
S1131590049784F5FB0182819381F2E081319F07F6
S11315A009F058F528E08334920750F1EB010E94CA
S11315B061298C018C819D810E946129C82FD92FBA
S11315C0602F0E941F14DF93CF9311271F930F9353
S11315D083E192E09F938F930E94C21E0F900F901D
S11315E00F900F900F900F9080E090E00BC083E07D
S11315F090E008C082E090E005C084E090E002C082
S113160084E090E0DF91CF911F910F910895CF92E4
S1131610DF92EF92FF920F931F93CF93DF9300D04B
S113162000D01F92CDB7DEB78C017B01FB01C280D5
S1131630D3806FE272E0C6010E94622A892B59F5B9
S1131640033011051CF002E010E0A5C00E943A141A
S1131650BC01990F880B990B0E9462249F938F936E
S11316607F936F9386E392E09F938F938E010F5F36
S11316701F4F1F930F930E94BA2A1F930F938BE35C
S113168092E09F938F930E94C21E0FB6F894DEBF20
S11316900FBECDBF82C0033011050CF471C00430FD
S11316A011050CF070C0F701848195810E946129B5
S11316B07C01F1E0F81708F469C061E572E0C60145
S11316C00E94622A8C01892B51F58E2D0E942814C8
S11316D0BC01990F880B990B0E9462249F938F93EE
S11316E07F936F9386E392E09F938F939E012F5F86
S11316F03F4F69013F932F930E94BA2ADF92CF9202
S1131700FF24FF92EF9285E592E09F938F930E94CE
S1131710C21E0FB6F894DEBF0FBECDBF3CC064E658
S113172072E0C6010E94622A8C01892B91F58E2DEC
S11317300E943114BC01990F880B990B0E946224FA
S11317409F938F937F936F9386E392E09F938F93FE
S1131750FE0131966F01FF93EF930E94BA2ADF9244
S1131760CF92FF24FF92EF928CE692E09F938F93A7
S11317700E94C21E0FB6F894DEBF0FBECDBF0BC0D1
S113178003E010E008C002E010E005C004E010E04F
S113179002C004E010E0802F912F0F900F900F9063
S11317A00F900F90DF91CF911F910F91FF90EF90C9
S11317B0DF90CF9008950F931F93CF93DF938330DF
S11317C091054CF1049754F5EB018A819B810E94A9
S11317D061298C01843028F58C819D810E946129C6
S11317E0C82FD92F682F792F802F0E94BF16DF931F
S11317F0CF9311271F930F938AE892E09F938F93BF
S11318000E94C21E0F900F900F900F900F900F9098
S113181080E090E008C083E090E005C082E090E0C2
S113182002C084E090E0DF91CF911F910F91089561
S11318308230910574F003977CF4FB0182819381DB
S11318400E946129853058F40E943F1480E090E0A2
S1131850089583E090E0089582E090E0089584E0A4
S113186090E008950F931F93CF93DF9382309105F7
S11318704CF1039754F5FB010281138169EB74E089
S1131880C8010E94622AEC01892B91F480E00E9435
S1131890521481E00E94521482E00E94521489EA98
S11318A092E09F938F930E94C21E0F900F9012C0DC
S11318B0C8010E946129853058F40E945214C0E086
S11318C0D0E008C0C3E0D0E005C0C2E0D0E002C070
S11318D0C4E0D0E0CE01DF91CF911F910F91089524
S11318E0CF9382309105C4F00397CCF4FB0182813D
S11318F093810E9461298330A8F4C82FCC0F8C2FC8
S11319000E948A168C2F0E94521481E08C0F0E9430
S1131910521480E090E008C083E090E005C082E0CB
S113192090E002C084E090E0CF9108958230910568
S11319307CF0039784F4FB01828193810E946129E6
S1131940833060F4880F0E94661480E090E008956C
S113195083E090E0089582E090E0089584E090E0D0
S1131960089502972CF40E94C81680E090E0089530
S113197082E090E0089502972CF40E94991780E089
S113198090E0089582E090E0089502972CF40E947C
S11319909D1780E090E0089582E090E008950F9311
S11319A01F93CF93DF9384309105DCF00597E4F423
S11319B0EB018C819D810E946129082F8A819B8182
S11319C00E946129182F8E819F810E946129143001
S11319D070F4AC01602F812F0E947A1480E090E0B3
S11319E008C083E090E005C082E090E002C084E09B
S11319F090E0DF91CF911F910F910895CF93DF93E2
S1131A008230910504F103970CF5FB0182819381E7
S1131A100E946129EC018330E0F40E94AD169F938B
S1131A208F93DD27DF93CF9380EC92E09F938F9386
S1131A300E94C21E0F900F900F900F900F900F9066
S1131A4080E090E008C083E090E005C082E090E090
S1131A5002C084E090E0DF91CF910895FF920F934C
S1131A601F93CF93DF9385309105FCF0069704F51F
S1131A70EB018A819B810E946129182F8C819D81B1
S1131A800E946129082F8E819F810E946129F82E6E
S1131A90888599850E946129282F4F2D602F812FD9
S1131AA00E94002080E090E005C083E090E002C046
S1131AB082E090E0DF91CF911F910F91FF90089504
S1131AC00297DCF40E9418201F929F931F928F9319
S1131AD01F927F931F926F938CED92E09F938F934D
S1131AE00E94C21E8DB79EB70A960FB6F8949EBF89
S1131AF00FBE8DBF80E090E0089582E090E00895ED
S1131B00CF93DF9382309105ECF00397F4F4EB016B
S1131B108A819B810E946129853608F084E60E94AF
S1131B204D138B818F938A818F9384E193E09F93EC
S1131B308F930E94C21E0F900F900F900F9080E021
S1131B4090E005C083E090E002C082E090E0DF9185
S1131B50CF91089502978CF40E9459131F928F938A
S1131B6086E393E09F938F930E94C21E0F900F9081
S1131B700F900F9080E090E0089582E090E0089547
S1131B80AF92BF92CF92DF92EF92FF920F931F9387
S1131B90CF93DF9300D000D01F92CDB7DEB700E023
S1131BA010E00F2EF6E3AF2EF2E0BF2EF02DCE01A3
S1131BB001966C010F2EF5E5EF2EF2E0FF2EF02DCD
S1131BC0802F0E942814BC01990F880B990B0E9446
S1131BD062249F938F937F936F93BF92AF92DF9210
S1131BE0CF920E94BA2ADF92CF921F930F93FF9253
S1131BF0EF920E94C21E0F5F1F4F0FB6F894DEBF14
S1131C000FBECDBF04301105D9F686E593E09F934E
S1131C108F930E94C21E0E94C8160E9418201F9211
S1131C209F931F928F931F927F931F926F9382E6CD
S1131C3093E09F938F930E94C21E0E9459131F9298
S1131C408F9383E893E09F938F930E94C21E0FB6F5
S1131C50F894DEBF0FBECDBF80E090E00F900F90F0
S1131C600F900F900F90DF91CF911F910F91FF90E4
S1131C70EF90DF90CF90BF90AF9008950F931F9394
S1131C80CF93DF93CDB7DEB7EE970FB6F894DEBFF0
S1131C900FBECDBF02970CF059C00E94A40929833E
S1131CA03A834B835C836D837E830E94C5092F83B3
S1131CB0388749875A876B877C878E818F938D817C
S1131CC08F938C818F938B818F938A818F9389815A
S1131CD08F9387E993E09F938F938E01035F1F4F48
S1131CE01F930F930E94BA2AF80101900020E9F78C
S1131CF03197BF01601B710BC8010E94EF198C85DD
S1131D008F938B858F938A858F9389858F9388850D
S1131D108F938F818F9385EB93E09F938F931F9382
S1131D200F930E94BA2AF80101900020E9F7319735
S1131D30BF01601B710BC8010E94EF190FB6F89424
S1131D40DEBF0FBECDBF80E090E002C082E090E035
S1131D50EE960FB6F894DEBF0FBECDBFDF91CF91E4
S1131D601F910F9108950F931F93CF93DF93CDB7D6
S1131D70DEB7E2970FB6F894DEBF0FBECDBF029771
S1131D801CF50E9415149F938F9380ED93E09F930D
S1131D908F938E010F5F1F4F1F930F930E94BA2AD8
S1131DA0F80101900020E9F73197BF01601B710B26
S1131DB0C8010E94EF190F900F900F900F900F9091
S1131DC00F9080E090E002C082E090E0E2960FB6CF
S1131DD0F894DEBF0FBECDBFDF91CF911F910F915D
S1131DE0089561E071E080E091E00E949E200895F2
S1131DF00F931F93CF93DF93CEEED3E00AE01BE063
S1131E00CE010E94081ACF5BDF4FC017D107C1F77C
S1131E108EE092E00E94E019DF91CF911F910F9123
S1131E2008950E94B4190E941A1A9093860A809306
S1131E30850A80E4E5E4FAE0DF011D928A95E9F77A
S1131E401092440A8EED93E00E94E0198AEC97E028
S1131E500E94E0190E94F80E08950E941F1A85E05E
S1131E600E945C220E946F1A9093F30A8093F20AF4
S1131E7084EC9AE090938B0A80938A0A81E99AE031
S1131E809093890A8093880A08950E942D0F60E92F
S1131E9071E08FE891E00E949E200895CF92DF9236
S1131EA0EF92FF920F93CF93DF93CDB7DEB7609796
S1131EB00FB6F894DEBF0FBECDBF6E0182E0C80E30
S1131EC0D11C8FE0F60111928A95E9F7E0918A0A14
S1131ED0F0918B0A80818A830F2EFCE8EF2EFAE0C2
S1131EE0FF2EF02D00E021E041E0B60180E00E94E9
S1131EF09B22AE014F5F5F4FB601C7010E94B8221B
S1131F006981C6010E94561A60960FB6F894DEBF26
S1131F100FBECDBFDF91CF910F91FF90EF90DF9077
S1131F20CF900895E0918A0AF0918B0A6181623022
S1131F3050F4828190E0982F88272381822B0E947D
S1131F401F140E944E0F0895E0918A0AF0918B0AA3
S1131F508181823020F40E943F140E944E0F089524
S1131F60E0918A0AF0918B0A8181823020F40E94E8
S1131F7052140E944E0F0895CF93E0918A0AF09173
S1131F808B0A8181823070F4C82FCC0F8C2F0E9471
S1131F908A168C2F0E94521481E08C0F0E945214D6
S1131FA00E944E0FCF910895E0918A0AF0918B0A16
S1131FB08181823028F4880F0E9466140E944E0F9B
S1131FC00895E0918A0AF0918B0A8181823058F455
S1131FD0438150E0542F44279481492B62810E940D
S1131FE07A140E944E0F0895E0918A0AF0918B0AA8
S1131FF08181823050F4628170E0762F662793816C
S1132000692B0E94BF160E944E0F0895E0918A0A20
S1132010F0918B0A24814381628181810E94002096
S11320200E944E0F0895E0918A0AF0918B0A8181F3
S1132030853608F084E60E944D130E944E0F0895E1
S1132040EF92FF920F93CF93DF93CDB7DEB7E39771
S11320500FB6F894DEBF0FBECDBFE0918A0AF091AF
S11320608B0A2181233008F041C082818230F0F54F
S1132070A091880AB091890A40814C9311962C93BF
S1132080119712968C93211104C00E942814382FA2
S11320900BC0213021F40E943114382F05C02230A6
S11320A019F40E943A14382F6091880A7091890AB1
S11320B0FB01938334830F2EFCE8EF2EFAE0FF2E0E
S11320C0F02D07E021E045E080E090E00E946122ED
S11320D0AE014D5C5F4FBE016F5F7F4FC7010E9431
S11320E0B8226BA9CE0101960E94561AE3960FB648
S11320F0F894DEBF0FBECDBFDF91CF910F91FF905B
S1132100EF900895EF92FF920F931F93CF93DF9375
S1132110CDB7DEB7E3970FB6F894DEBF0FBECDBFE1
S1132120E0918A0AF0918B0A1181123060F5812FB7
S11321300E94AD16E091880AF091890AA0918A0A5A
S1132140B0918B0A2C9120831183928383830F2E69
S1132150FCE8EF2EFAE0FF2EF02D07E021E044E04A
S1132160BF0180E090E00E946122AE014D5C5F4FB0
S1132170BE016F5F7F4FC7010E94B8226BA9CE01D9
S113218001960E94561AE3960FB6F894DEBF0FBE6E
S1132190CDBFDF91CF911F910F91FF90EF900895E4
S11321A0EF92FF920F93CF93DF93CDB7DEB7E39710
S11321B00FB6F894DEBF0FBECDBF0E941820E09189
S11321C0880AF091890AA0918A0AB0918B0A2C910D
S11321D0208361837283838394830F2EFCE8EF2E24
S11321E0FAE0FF2EF02D07E021E045E0BF0180E09A
S11321F090E00E946122AE014D5C5F4FBE016F5FB3
S11322007F4FC7010E94B8226BA9CE0101960E949C
S1132210561AE3960FB6F894DEBF0FBECDBFDF911A
S1132220CF910F91FF90EF900895EF92FF920F934B
S1132230CF93DF93CDB7DEB7E3970FB6F894DEBF45
S11322400FBECDBF0E9459136091880A7091890A0C
S1132250E0918A0AF0918B0A9081FB01908381833B
S11322600F2EFCE8EF2EFAE0FF2EF02D07E021E020
S113227042E080E090E00E946122AE014D5C5F4F3D
S1132280BE016F5F7F4FC7010E94B8226BA9CE01C8
S113229001960E94561AE3960FB6F894DEBF0FBE5D
S11322A0CDBFDF91CF910F91FF90EF900895CF9222
S11322B0DF92EF92FF920F931F93CF93DF93CDB7EB
S11322C0DEB7EF970FB6F894DEBF0FBECDBF0E9406
S11322D0A409D22EC32EF42EE52E162F072F2CABD5
S11322E03DAB4EAB5FAB68AF79AF0E94C5092AAF77
S11322F03BAF4CAF5DAF6EAF7FAFE091880AF0911A
S1132300890AA0918A0AB0918B0A8C918083C18238
S1132310D282E382F4820583168337832087518730
S11323204287738764870F2EFCE8EF2EFAE0FF2EB6
S1132330F02D07E021E04DE0BF0180E090E00E9435
S11323406122AE014D5C5F4FBE016F5F7F4FC701DD
S11323500E94B8226BA9CE0101960E94561AEF96EC
S11323600FB6F894DEBF0FBECDBFDF91CF911F91A2
S11323700F91FF90EF90DF90CF900895EF92FF922E
S11323800F93CF93DF93CDB7DEB7E3970FB6F894EF
S1132390DEBF0FBECDBF0E9415146091880A7091F4
S11323A0890AE0918A0AF0918B0A9081FB0190835B
S11323B081830F2EFCE8EF2EFAE0FF2EF02D07E0CC
S11323C021E043E080E090E00E946122AE014D5C98
S11323D05F4FBE016F5F7F4FC7010E94B8226BA998
S11323E0CE0101960E94561AE3960FB6F894DEBF0A
S11323F00FBECDBFDF91CF910F91FF90EF90089565
S1132400EF92FF920F931F93CF93DF93CDB7DEB775
S1132410E3970FB6F894DEBF0FBECDBFE0918A0AF2
S1132420F0918B0A8081E091880AF091890A808377
S113243080E00E942814E091880AF091890A91832F
S1132440828381E00E942814E091880AF091890A2D
S11324509383848382E00E942814E091880AF09197
S1132460890A9583868383E00E942814E091880A70
S1132470F091890A9783808780E00E943114E0916B
S1132480880AF091890A9187828781E00E94311439
S1132490E091880AF091890A938784870E943A140C
S11324A0E091880AF091890A9587868780E00E94E6
S11324B0AD16E091880AF091890A9787808B81E0B4
S11324C00E94AD16E091880AF091890A918B828B63
S11324D082E00E94AD16E091880AF091890A938BFC
S11324E0848B83E00E94AD16E091880AF091890AFA
S11324F0958B868B80E00E94B616E091880AF09155
S1132500890A978B808F81E00E94B616E091880A31
S1132510F091890A918F828F82E00E94B616E09131
S1132520880AF091890A938F848F83E00E94B616FB
S1132530E091880AF091890A958F868F0E9418206D
S11325400091880A1091890AF801678F70A381A30A
S113255092A30E945913F80183A36091880A709191
S1132560890A0F2EFCE8EF2EFAE0FF2EF02D07E08B
S113257021E044E280E090E00E946122AE014D5CE3
S11325805F4FBE016F5F7F4FC7010E94B8226BA9E6
S1132590CE0101960E94561AE3960FB6F894DEBF58
S11325A00FBECDBFDF91CF911F910F91FF90EF90A0
S11325B00895E0918A0AF0918B0A8081A091880A9B
S11325C0B091890A8C93E0818E2F90E0FC013197C1
S11325D0E331F10598F5EA5BFF4F0C940A290E9458
S11325E0920F08950E94201008950E948210089569
S11325F00E94A40F08950E94B00F08950E94BC0F7A
S113260008950E94D40F08950E94E10F08950E9436
S1132610F40F08950E94061008950E94D0100895A2
S11326200E94131008950E94151108950E945711D5
S113263008950E94BE1108950E94001208951DC0BD
S11326408091F20A9091F30A0E949F199091870A4F
S113265091111092870A6FEB7AE00E949F238130D8
S113266019F0833031F009C08FEB9AE00E94D9123F
S113267004C087E799E00E94E0198091F20A9091E2
S1132680F30A0E9483198823D9F2089540E068EE82
S113269073E086E00E94CD170895CF93C82F853646
S11326A008F0C4E68C2F0E941118C093F40ACF914D
S11326B008958091F40A08956AE08AE89BE00E94F4
S11326C0B31F089567E971E086E991E00E949E20B6
S11326D00895E2E6F0E08081846080830895E091CB
S11326E0F60AF091F70A8081882319F08130C9F144
S11326F008958091F50A80FF1AC080E00E9491201D
S1132700882309F445C0E5EFFAE080818E7F808359
S11327100E946913E2E6F0E080818860808344EFE0
S113272051E060E070E080E00E948620089580E03F
S11327300E949120882361F1E5EFFAE080818160B5
S11327408083E2E6F0E080818B7F80838081877FD5
S1132750808344EF51E060E070E080E00E948620D6
S113276008958091F50A80FF13C080E00E949120B3
S1132770882371F0E5EFFAE080818E7F80830E94E8
S1132780691348EB5BE060E070E080E00E94862023
S11327900895CF93DF93E1E6F0E080818460808345
S11327A0C2E6D0E088818B7F8883808188608083C3
S11327B08881877F8883E5EFFAE080818E7F8D7F33
S11327C0808382EC9CE0928381830E9469138881D8
S11327D088608883DF91CF9108956EE971E08DE977
S11327E091E00E949E2008950E9466200E94110F8D
S11327F00E94A3170E94A6170E94C9130E94B21434
S11328000E94F81F0E9446130E942D0F0E94ED1390
S11328100E94F10E0E9418140E9462130E94450F38
S11328200E949F210E94A221FDCF0E94DE1E0895D6
S113283061ED71E080ED91E00E949E200895E62F05
S1132840F0E0EE0FFF1FEE54FE4F91838083089556
S1132850E82FF0E0EE0FFF1FEC55FE4F80819181D1
S11328600895E82FF0E0EE0FFF1FE455FE4F80813E
S1132870918108958091B0019091B1010895CF9311
S1132880C82F0E942A20E4EAF1E0CC0F81E090E016
S113289002C0880F991FCA95E2F7968D892B868FFF
S11328A0CF910895CF93C82F0E944420E4EAF1E029
S11328B0CC0F81E090E002C0880F991FCA95E2F71F
S11328C08095968D8923868FCF910895E4EAF1E06F
S11328D090E0880F991F019621E030E0A90102C021
S11328E0440F551F8A95E2F7CA018095968D892376
S11328F0868F08950F93CF93082FC62FE82FF0E00B
S1132900EE0FFF1FE654FE4F51834083CA01A0E03F
S1132910B0E0BC01CD01052E5CE0660F771F881F77
S1132920991F5A95D1F7502D2EE734E040E050E03E
S11329300E94E828C13049F480E098E0A0E0B0E0CB
S1132940821B930BA40BB50B05C0DA01C901985F78
S1132950AF4FBF4F21E040E060E00E94161FCF91CF
S11329600F910895CF930E94B1170E9421200E94D5
S1132970EA1E0E942918C0E08C2F0E94442042E3E2
S113298050E061E08C2F0E947A14CF5FC430A1F72D
S1132990CF910895EF92FF920F931F93CF93DF93FC
S11329A0F62EE42EC62FD0E08E01000F111F000F6B
S11329B0111F2091C20130E0002E02C035952795E9
S11329C00A94E2F720FD8BC0FE01EE0FFF1FEE54C8
S11329D0FE4F408151819A01225031098217930799
S11329E038F5FF0C8F2D0E942A20E4EAF1E081E003
S11329F090E0002E02C0880F991F0A94E2F7968D8A
S1132A00892B868FEE2009F49CC081E08F0D0E94F3
S1132A102A20E4EAF1E00E5F1F4F81E090E002C05B
S1132A20880F991F0A95E2F7968D892B868F89C0A6
S1132A302817390708F085C0FE01EE0FFF1FEC557B
S1132A40FE4F208131812817390730F0425E5F4FF5
S1132A504817590708F075C0FE01EE0FFF1FE75035
S1132A60F54F80819181019691838083853F9140C8
S1132A7008F467C0FE01EC55FE4F10A6FE01EE0FF0
S1132A80FF1FE750F54F118210828091F80A8823C6
S1132A9061F01F92FF928FE899E09F938F930E94B9
S1132AA0C21E0F900F900F900F90CC0FDD1FFF0CE4
S1132AB0FE01EE0FFF1FE654FE4F4081518160E09E
S1132AC08F2D0E947A14CC0FDD1FC454DE4F488131
S1132AD0598160E081E08F0D0E947A1432C0CC0FDE
S1132AE0DD1FCE54DE4F288139812E5F3F4F2817DA
S1132AF0390738F5FF0C8F2D0E944420E4EAF1E0F9
S1132B0081E090E0002E02C0880F991F0A94E2F73A
S1132B108095968D8923868FEE2099F081E08F0D24
S1132B200E944420E4EAF1E00E5F1F4F81E090E050
S1132B3002C0880F991F0A95E2F78095968D892324
S1132B40868FDF91CF911F910F91FF90EF900895A1
S1132B50EF92FF920F931F93CF93DF93F62EE42E01
S1132B60C62FD0E08E01000F111F000F111F2091FE
S1132B70C20130E0002E02C0359527950A94E2F791
S1132B8020FD8FC0FE01EE0FFF1FEE54FE4F20818B
S1132B903181A9014E5F5F4F4817590738F5FF0C83
S1132BA08F2D0E942A20E4EAF1E081E090E0002EDB
S1132BB002C0880F991F0A94E2F7968D892B868F9D
S1132BC0EE2009F4A0C081E08F0D0E942A20E4EADF
S1132BD0F1E00E5F1F4F81E090E002C0880F991F63
S1132BE00A95E2F7968D892B868F8DC0A9014250F4
S1132BF051098417950708F086C0FE01EE0FFF1FE8
S1132C00EC55FE4F408151818417950730F02E51C9
S1132C1031098217930708F076C0FE01EE0FFF1FFB
S1132C20E750F54F80819181019691838083853FA0
S1132C30914008F468C081E0FE01EC55FE4F80A786
S1132C40FE01EE0FFF1FE750F54F118210828091B5
S1132C50F80A882361F01F92FF928CEB99E09F930E
S1132C608F930E94C21E0F900F900F900F90CC0F65
S1132C70DD1FFF0CFE01EE0FFF1FE654FE4F4081E7
S1132C80518161E08F2D0E947A14CC0FDD1FC45452
S1132C90DE4F4881598161E081E08F0D0E947A14F2
S1132CA032C0CC0FDD1FCE54DE4F28813981225033
S1132CB031098217930738F5FF0C8F2D0E944420A9
S1132CC0E4EAF1E081E090E0002E02C0880F991F51
S1132CD00A94E2F78095968D8923868FEE2099F0E9
S1132CE081E08F0D0E944420E4EAF1E00E5F1F4F63
S1132CF081E090E002C0880F991F0A95E2F7809561
S1132D00968D8923868FDF91CF911F910F91FF902C
S1132D10EF900895282F30E0E4EAF1E0B901660F5E
S1132D20771F6F5F7F4F41E050E002C0440F551F93
S1132D306A95E2F7968D492B468F220F331FF901CE
S1132D40E654FE4F40815181E82FE695F0E0EC55C2
S1132D50FE4F60A50E947A140895E82FF0E0EE0F6C
S1132D60FF1FEE54FE4F808191810895E82FF0E01B
S1132D70EE0FFF1FE654FE4F808191810895E82FE6
S1132D80F0E0EE0FFF1FE654FE4F71836083089559
S1132D90E4EAF1E0868D95899F9394899F939389C2
S1132DA09F9392899F9391899F9390899F939785ED
S1132DB09F9396859F9393A51F929F9392A51F928D
S1132DC09F9391A51F929F9390A51F929F9386FB1B
S1132DD0992790F91F929F9384FB992790F91F924A
S1132DE09F9382FB992790F91F929F9381701F9262
S1132DF08F9389EE99E09F938F930E94C21E8DB7A3
S1132E009EB74A960FB6F8949EBF0FBE8DBF089525
S1132E10AF92BF92CF92DF92EF92FF920F931F93E4
S1132E20CF93DF9380E00E94A91F7C0181E00E9480
S1132E30A91F8C0182E00E94A91F5C0183E00E940B
S1132E40A91F6C018091C20181FF0FC08091CC0148
S1132E50813031F441E060E0C7010E94CA1405C02A
S1132E6041E060E0C7010E94A8158091C20183FF80
S1132E7035C08091CD01813031F441E061E0C80179
S1132E800E94CA1405C041E061E0C8010E94A8156F
S1132E908091C20183FF22C08091CD01813031F441
S1132EA041E062E0C8010E94CA1405C041E062E04A
S1132EB0C8010E94A8158091C20183FF0FC08091B0
S1132EC0CD01813031F441E063E0C8010E94CA14AD
S1132ED005C041E063E0C8010E94A815C4EAD1E03E
S1132EE0F982E8821B830A83BD82AC82DF82CE82B0
S1132EF00E94D21E9D878C8781E00E9491208823A6
S1132F0069F08091F80A882349F048EE53E060E0C4
S1132F1070E081E00E9486200E94C816DF91CF9164
S1132F201F910F91FF90EF90DF90CF90BF90AF90E3
S1132F30089581E08093F80A08951092F80A08959C
S1132F400E94632008950E945E20089568ED71E058
S1132F5087ED91E00E94D2208091D7010E94032145
S1132F60089517B83E9A86B1876886B9089588236C
S1132F7021F0813019F480E001C081E097B1907FA5
S1132F8097B997B18F70892B87B9369A3699FECF46
S1132F9084B125B190E0922B0895CF93C42F48B308
S1132FA021E030E0F90102C0EE0FFF1F8A95E2F73D
S1132FB0CF019E2F9095492348BB97B3892B87BB9C
S1132FC08FB582608FBD8EB588618EBD8FB58062EE
S1132FD08FBD8EB583608EBD80E090E00E9460243A
S1132FE020E030E040E05EE30E94EE240E943124C1
S1132FF077BD66BD86B597B5C89FB001C99F700DF2
S1133000112480E090E00E9460242AE037ED43E23E
S11330105CE30E94EE240E94312479BD68BDCF9107
S1133020089526B537B5482F429FC001439F900DA0
S11330301124BC0180E090E00E9460242AE037ED76
S113304043E25CE30E94EE240E94312479BD68BD12
S11330500895B89AC09A87B3866087BBBB988DB130
S113306081658DB908958FB9779BFECF8FB108958F
S113307083B7846083BF87B7826087BF78940895DD
S113308083B7886083BF12BE8CE781BF089584E94B
S113309080937400E4E7F0E0808184FDFDCF08951F
S11330A085EC8093740010922C0B08951F920F925C
S11330B00FB60F9211242F933F934F935F936F9307
S11330C07F938F939F93AF93BF93EF93FF938091DD
S11330D07100E82FE87F8E2F90E0893C910508F07D
S11330E0F5C0FC01E75AFF4F0C940A2980912B0B81
S11330F08093730085E880937400E8C090911C0B62
S113310080911B0B981780F4E0911C0B81E08E0FCB
S113311080931C0BF0E0E35EF44F80818093730096
S113312085EC80937400D2C080912A0B882319F017
S11331300E944718CBC081E08093290B84EA8093D6
S1133140740010922C0BC2C080E28093FD0A0E948E
S11331504718BCC080E38093FD0A0E944718B6C09C
S113316088E38093FD0A0E945018B0C0E091120BCE
S113317081E08E0F8093120B80917300F0E0ED5E7E
S1133180F44F80839091120B8091110B981720F4C7
S113319085EC809374009AC085E88093740096C08F
S11331A0E091120B81E08E0F8093120B80917300DB
S11331B0F0E0ED5EF44F808380912A0B882319F0B0
S11331C00E94471883C081E08093290B84EA80938E
S11331D0740010922C0B7AC00E94471877C083E0C9
S11331E080932C0B1092FE0A85EC809374006EC0C1
S11331F08091FE0A883080F4E091FE0A81E08E0F0F
S11332008093FE0A80917300F0E0E150F54F8083D3
S113321085EC809374005AC085E88093740056C08E
S11332200E9450188091FE0A883030F4E091FE0A22
S1133230F0E0E150F54F10826091FE0A70E0E091F9
S1133240250BF091260B8FEF9AE009951092FE0A58
S11332503DC085E88093740039C084E080932C0BD2
S11332601092080B1092070BE091270BF091280B9A
S113327009958091070B811105C081E08093070BAC
S11332801092090BE091080B81E08E0F8093080BDC
S1133290F0E0E75FF44F8081809373009091080B16
S11332A08091070B981720F485EC809374000EC06E
S11332B085E8809374000AC085EC809374001092B2
S11332C02C0B04C01092FD0A0E944718FF91EF9145
S11332D0BF91AF919F918F917F916F915F914F912A
S11332E03F912F910F900FBE0F901F9018952FB7FD
S11332F0F894FC01E05CFF4F108231961082319605
S113330010822FBF08958E5B9F4FFC01908181E056
S1133310911180E00895FB01E05CFF4F9081DB0197
S1133320A90FB11D8C939FB7F89480818F5F8F7321
S11333308083329680818F5F80839FBF0895FC01D4
S1133340EF5BFF4F2081DC01A20FB11D3C914FB711
S1133350F89420812F5F2F732083319690819150B0
S113336090834FBF832F08958091DF019091E001F6
S11333708D5B9F4F0E9477198091DF019091E0014E
S11333800E9477191092900083E389B98AB1886901
S11333908AB9E5E9F0E080818660808378940895B5
S11333A06091DF017091E001FB01EB57FF4F9081C9
S11333B09034E9F36D5B7F4F0E948B19559A089501
S11333C0CF93DF93EC018881882331F021960E940A
S11333D0D01989918111FBCFDF91CF9108950F937B
S11333E01F93CF93DF93662371F0EC016150062F96
S11333F010E00F5F1F4F080F191F89910E94D01909
S1133400C017D107D1F7DF91CF911F910F91089584
S1133410CF93DF93EC012196FC018491882339F04A
S11334200E94D019FE01849121968111F9CFDF9178
S1133430CF9108958091DF019091E00108958091EA
S1133440DD019091DE018D5B9F4F0E947719809181
S1133450DD019091DE010E9477191092980089E1B4
S113346080939900EAE9F0E0808188698083EDE93E
S1133470F0E0808186608083EBE9F0E08081826007
S1133480808308956091DD017091DE01FB01EB57AB
S1133490FF4F90819034E9F36D5B7F4F0E948B194D
S11334A0EAE9F0E080818062808308950F931F939E
S11334B0CF93DF93662371F0EC016150062F10E087
S11334C00F5F1F4F080F191F89910E94421AC017DE
S11334D0D107D1F7DF91CF911F910F91089580917A
S11334E0DD019091DE0108951F920F920FB60F92A5
S11334F011242F933F934F935F936F937F938F93F5
S11335009F93AF93BF93EF93FF938CB16091DF01CF
S11335107091E001FB01EE5BFF4F9081903471F0FC
S11335200E948B19E091DF01F091E0018BB18C7165
S113353090E0EA57FF4F9183808309C08BB18C716F
S1133540816090E0FB01EA57FF4F91838083FF91F4
S1133550EF91BF91AF919F918F917F916F915F9107
S11335604F913F912F910F900FBE0F901F90189580
S11335701F920F920FB60F9211242F933F934F93E4
S11335805F936F937F938F939F93AF93BF93EF93C7
S1133590FF938091DF019091E001FC01EB57FF4F15
S11335A02081222331F08D5B9F4F0E949F198CB99B
S11335B001C05598FF91EF91BF91AF919F918F9169
S11335C07F916F915F914F913F912F910F900FBE1B
S11335D00F901F9018951F920F920FB60F921124FF
S11335E02F933F934F935F936F937F938F939F9307
S11335F0AF93BF93EF93FF9380919C006091DD01A3
S11336007091DE01FB01EE5BFF4F9081903479F005
S11336100E948B19E091DD01F091DE0180919B0005
S11336208C7190E0EA57FF4F918380830AC08091A8
S11336309B008C7190E09160FB01EA57FF4F9183EE
S11336408083FF91EF91BF91AF919F918F917F9173
S11336506F915F914F913F912F910F900FBE0F90FB
S11336601F9018951F920F920FB60F9211242F934B
S11336703F934F935F936F937F938F939F93AF93F6
S1133680BF93EF93FF938091DD019091DE01FC01E4
S1133690EB57FF4F2081222339F08D5B9F4F0E940F
S11336A09F1980939C0005C0EAE9F0E080818F7D3A
S11336B08083FF91EF91BF91AF919F918F917F9103
S11336C06F915F914F913F912F910F900FBE0F908B
S11336D01F9018952F923F924F925F926F927F9214
S11336E08F929F92AF92BF92CF92DF92EF92FF920E
S11336F00F931F93CF93DF93CDB7DEB7AA970FB67F
S1133700F894DEBF0FBECDBF8C017AA769A76E0106
S113371089E1C80ED11C2C2C3D2C17C319821A82A6
S11337201B821C8289819A81AB81BC81F801E80FDC
S1133730F91F8081853249F189819A81AB81BC81ED
S1133740F801E80FF91F80818823F9F089819A81B3
S1133750AB81BC810196A11DB11D89839A83AB8382
S1133760BC8389819A81AB81BC81F801E80FF91F80
S11337708081853251F089819A81AB81BC81F801C5
S1133780E80FF91F80818111E1CF69817A818B81F2
S11337909C81C8010E94EF1989819A81AB81BC8107
S11337A0080F191FD8018C91853209F0CEC21196E9
S11337B01D861E861F86188A6894FF24F5F88D01DD
S11337C00F5F1F4F2C91422F022E000C550B660BDE
S11337D0770BFA01B597E435F10508F0ABC2EE5D5D
S11337E0FE4F0C940A29203361F48D859E85AF85A4
S11337F0B889892B8A2B8B2B21F40F2EF0E3FF2E13
S1133800F02D8D859E85AF85B889880F991FAA1FD5
S1133810BB1FAC01BD01440F551F661F771F440F2A
S1133820551F661F771F840F951FA61FB71F8D870F
S11338309E87AF87B88B4D855E856F857889022E0C
S1133840000C330BC901C097092E000CAA0BBB0B4B
S1133850840F951FA61FB71F8D879E87AF87B88BD0
S1133860D801ADCFE9A4FAA4B4E0EB0EF11CE9A5AC
S1133870FAA580819181A281B3818D839E83AF83D8
S1133880B88761E0CE0105960E94EF19FAA6E9A671
S11338905CC229A53AA52E5F3F4FA9A5BAA58D9173
S11338A09C91A0E0B0E08D839E83AF83B887198696
S11338B01A861B861C868D819E81AF81B885BB23A9
S11338C0C4F48D819E81AF81B885B095A095909503
S11338D081959F4FAF4FBF4F8D839E83AF83B88732
S11338E081E090E0A0E0B0E08D8B9E8BAF8BB88F31
S11338F004C01D8A1E8A1F8A188E8AE090E0A0E008
S1133900B0E0898B9A8BAB8BBC8B3AA729A7BCC040
S1133910E9A4FAA492E0E90EF11CA9A5BAA58D9137
S11339209C9119821A821B821C8249815A816B8163
S11339307C81FC01E40FF51F20812223B1F0498131
S11339405A816B817C814F5F5F4F6F4F7F4F4983FB
S11339505A836B837C8349815A816B817C81FC010E
S1133960E40FF51F20812111EACF49815A816B812F
S11339707C81642F0E94EF194D855E856F8578895F
S113398089819A81AB81BC8184179507A607B70703
S113399008F0D6C149815A816B817C818D859E85D1
S11339A0AF85B889841B950BA60BB70B8D879E87B3
S11339B0AF87B88B8D859E85AF85B889AC01BD0175
S11339C041505109610971094D875E876F87788B72
S11339D0892B8A2B8B2B09F4B6C161E08FE092E02E
S11339E00E94EF198D859E85AF85B889AC01BD0114
S11339F041505109610971094D875E876F87788B42
S1133A00892B8A2B8B2B49F7FAA6E9A69EC1E9A537
S1133A10FAA580819181A0E0B0E08D839E83AF837D
S1133A20B88719861A861B861C868AE090E0A0E077
S1133A30B0E0898B9A8BAB8BBC8B1D8A1E8A1F8A44
S1133A40188E3296FAA7E9A71FC0A9A5BAA58D9129
S1133A509C91A0E0B0E08D839E83AF83B8871986E4
S1133A601A861B861C8680E190E0A0E0B0E0898B7A
S1133A709A8BAB8BBC8B1D8A1E8A1F8A188EA9A5B4
S1133A80BAA51296BAA7A9A781E090E0A0E0B0E099
S1133A9089839A83AB83BC8329813A814B815C817E
S1133AA069897A898B899C898D809E80AF80B8844E
S1133AB00E94D82886169706A806B90668F548C055
S1133AC029893A894B895C8969817A818B819C81B6
S1133AD00E94D82869837A838B839C838D859E85F5
S1133AE0AF85B8890197A109B1098D879E87AF87F2
S1133AF0B88B29813A814B815C8169897A898B8968
S1133B009C898D809E80AF80B8840E94D8288616B8
S1133B109706A806B906E0F029813A814B815C81B9
S1133B2069897A898B899C8949885A886B887C88B9
S1133B3089809A80AB80BC800E94D828A30192011E
S1133B400E94E828281539054A055B0509F4B8CF11
S1133B508D899E89AF89B88D892B8A2B8B2B59F03F
S1133B608D859E85AF85B8890197A109B1098D8797
S1133B709E87AF87B88B8D899E89AF89B88D892B35
S1133B808A2B8B2BD1F090E3F91217C089859A8583
S1133B90AB85BC85AC01BD014F5F5F4F6F4F7F4F5D
S1133BA049875A876B877C87F601E80FF91FADE2D6
S1133BB0A0831D8A1E8A1F8A188E8D859E85AF85D7
S1133BC0B8890297A105B10508F440C08D859E858A
S1133BD0AF85B8894097A105B105C0F58D859E854F
S1133BE0AF85B8890197A109B1098D879E87AF87F1
S1133BF0B88B8D859E85AF85B889892B8A2B8B2BB5
S1133C0029F189859A85AB85BC85AC01BD014F5FDF
S1133C105F4F6F4F7F4F49875A876B877C87F601C9
S1133C20E80FF91FF0828D859E85AF85B8890197CD
S1133C30A109B1098D879E87AF87B88B8D859E8535
S1133C40AF85B889892B8A2B8B2BD9F68D899E89D0
S1133C50AF89B88D892B8A2B8B2B99F089859A850E
S1133C60AB85BC85AC01BD014F5F5F4F6F4F7F4F8C
S1133C7049875A876B877C87F601E80FF91FBDE2F5
S1133C80B08389819A81AB81BC81892B8A2B8B2B50
S1133C9009F442C049845A846B847C84B301A20130
S1133CA04F5F5F4F6F4F7F4F49875A876B877C8782
S1133CB06D817E818F81988529813A814B815C81D8
S1133CC089889A88AB88BC887601E40CF51C0E942C
S1133CD0E828CA01B901A50194010E94E828FB0162
S1133CE0E15FF54F8081F701808329893A894B8907
S1133CF05C8969817A818B819C810E94E82829836F
S1133D003A834B835C8389819A81AB81BC81892B03
S1133D108A2B8B2B09F0BECF69857A858B859C8590
S1133D20822D932D0E94EF1910C061E0CD010E94F5
S1133D30EF190BC065E080E29AE00E94EF1905C01C
S1133D40FAA6E9A602C0FAA6E9A6D8018C918111C7
S1133D50E5CCAA960FB6F894DEBF0FBECDBFDF91B7
S1133D60CF911F910F91FF90EF90DF90CF90BF9074
S1133D70AF909F908F907F906F905F904F903F9007
S1133D802F900895CF93DF93CDB7DEB7BE016B5F5D
S1133D907F4FFB0181919191BF010E946A1BDF91CA
S1133DA0CF9108956091FA0C7091FB0C8091FC0CFA
S1133DB09091FD0C0E942A24CB0108956091020D7C
S1133DC07091030D8091040D9091050D0E942A2499
S1133DD0CB010895BC9A8E9AA49AA59A8F9A0E94B0
S1133DE029180895813041F028F0823039F0833069
S1133DF039F00895C498089596980895AC98089554
S1133E00AD980895813041F028F0823039F0833044
S1133E1039F00895C49A0895969A0895AC9A08952D
S1133E20AD9A089597980895979A0895AF92BF927E
S1133E30CF92DF92EF92FF920F931F93CF93DF9372
S1133E40CDB7DEB728970FB6F894DEBF0FBECDBF4F
S1133E50043008F06CC0122FB42EA62E6C01802FF3
S1133E600E94F21EE02EF12CC6019F70F701EE0FA6
S1133E70FF1F21E030E02C0F3D1FE20FF31F808372
S1133E809F708181807F892B8183AA2049F0F7016B
S1133E90EE0FFF1FE20FF31F81818F7E81830CC021
S1133EA0F701EE0FFF1F81E090E08C0F9D1FE80FDC
S1133EB0F91F818180618183BB2069F0F701EE0FD6
S1133EC0FF1F21E030E02C0F3D1FE20FF31F818123
S1133ED08F7D81830CC0F701EE0FFF1F81E090E01E
S1133EE08C0F9D1FE80FF91F818180628183EE0C86
S1133EF0FF1CE1E0F0E0EC0FFD1FEE0EFF1EF701EA
S1133F00818110FB86F9818381818F77818381810F
S1133F100E943318F70180810E943318802F0E9479
S1133F20021F0E94121F0E94141F80E001C081E042
S1133F3028960FB6F894DEBF0FBECDBFDF91CF91A8
S1133F401F910F91FF90EF90DF90CF90BF90AF90B3
S1133F5008950E94B717880F991FFC01E65FF44F7C
S1133F60859194910895FC01C798BF9AF8942FEF16
S1133F70260F662309F428C098B3892F8F77906899
S1133F800190008009D0029007D001900190019027
S1133F9003D0019001D015C008D007D006D005D0B9
S1133FA004D003D002D001D00895001C90933800AF
S1133FB010F0809338000000000010F48093380063
S1133FC00895215008F0D8CF7894089580E090E0C7
S1133FD0FC01EE0FFF1FEE0FFF1FE657F44F108298
S1133FE011821282138201968A30910589F708950D
S1133FF00E94E61F6AE08AE89BE00E94B31F0895CE
S1134000E4E5FDE08083618342832383EAE8FBE007
S1134010A2EBBBE080836183428323833496EA1757
S1134020FB07C1F76AE08AE89BE00E94B31F08958A
S11340306091540D7091550D8091560D9091570DCE
S11340400895E4E6F0E0808181608083D79AD49A71
S1134050A69A0895813069F028F0823069F083309F
S113406071F010C0E5E6F0E080818160808380E03B
S11340700895DF9A80E00895DC9A80E00895AE9A6E
S113408080E0089581E00895813069F028F082305D
S113409069F0833071F010C0E5E6F0E080818E7F36
S11340A0808380E00895DF9880E00895DC9880E0C4
S11340B00895AE9880E0089581E00895129A1698C4
S11340C01E9A1A9808951A9A1A9808951092590DDA
S11340D01092580D10924C0B10922D0B8CE3EDE4C2
S11340E0FBE0DF011D928A95E9F78EE1EEE2FBE049
S11340F0DF011D928A95E9F788E0EAE5FDE0DF013A
S11341001D928A95E9F70E9440180895823040F480
S1134110E82FF0E0EE0FFF1FE65AF24F5183408381
S11341200895E82FF0E0EE0FFF1FE65AF24F2081CA
S1134130318181E0232B09F080E00895CF93DF9350
S1134140EC01892B39F16115710531F190914C0B1A
S1134150993020F5292F30E0F901EE0FFF1FDF0120
S1134160A20FB31FAA0FBB1FA35BB44F15967C937A
S11341706E93149711961C92119713961C921E928B
S11341801297FD0181E0808398839F5F90934C0B8D
S113419080E005C081E003C081E001C081E0DF91DF
S11341A0CF910895CF93DF93EC01892B21F1611511
S11341B0710519F190912D0B943008F5292F30E0F9
S11341C0F901EE0FFF1FDF01A20FB31FAA0FBB1FE0
S11341D0A25DB44F15967C936E9314971C9211961E
S11341E01C921197FD011382128298839F5F909312
S11341F02D0B80E005C081E003C081E001C081E0B7
S1134200DF91CF91089590912D0B8917A0F490E040
S1134210FC01EE0FFF1FDF01A80FB91FAA0FBB1F80
S1134220A25DB44F13961C921E921297FD0181E079
S1134230808380E0089581E008951F93CF93DF93F6
S11342408091580D9091590D01969093590D80933A
S1134250580D80914C0B882359F1EDE4FBE081501B
S113426090E001969C01220F331F820F931F880F49
S1134270991F835B944F61E0A481B5812C91213017
S113428099F42081213081F4228133812F5F3F4FC3
S11342903383228312964D915C911397241735072B
S11342A018F01382128261833696E817F90721F712
S11342B040912D0B442361F1EEE2FBE080E051E0FC
S11342C010E0DF0190819130B1F4228133812F5FBE
S11342D03F4F33832283C481D58169817A81261734
S11342E0370748F0518313821282952F2881223098
S11342F009F0912F9C938F5F36968413E2CF08C008
S1134300EAE5FDE08281938101979383828313C060
S113431080915A0D90915B0D892B39F0EAE5FDE00F
S11343208081918101979183808380915C0D90912C
S11343305D0D892B29F7DF91CF911F9108950E947C
S113434038180895CF9380914C0B8823B9F1C0E0BD
S11343508C2F90E0FC01EE0FFF1FE80FF91FEE0F0A
S1134360FF1FE35BF44F2181213019F5FC01EE0FAF
S1134370FF1FE80FF91FEE0FFF1FE35BF44F2081CF
S11343802130B9F4FC01EE0FFF1FDF01A80FB91FA4
S1134390AA0FBB1FA35BB44F11961C921197FD018A
S11343A00480F581E02D0480F581E02D309709F03B
S11343B00995CF5F80914C0BC81750F280912D0B5B
S11343C0882359F1C0E08C2F90E0FC01EE0FFF1F11
S11343D0E80FF91FEE0FFF1FE25DF44F218121303A
S11343E0B9F4FC01EE0FFF1FDF01A80FB91FAA0FDC
S11343F0BB1FA25DB44F11961C921197FD0104805E
S1134400F581E02D0380F481E02D309709F00995C2
S1134410CF5F80912D0BC817B0F2CF9108951F92F2
S11344200F920FB60F9211242F933F934F935F93E4
S11344306F937F938F939F93AF93BF93EF93FF9368
S11344400E941D21FF91EF91BF91AF919F918F9198
S11344507F916F915F914F913F912F910F900FBE7C
S11344600F901F901895FC015FEF540F442311F136
S1134470A62FB72F2D912F27322F32953F70922FD1
S11344809327292F30E0FE2FEE27E227F327C901D7
S1134490982F88279295907FE827F927220F331FBA
S11344A022953295307F3227207F3227E227F32767
S11344B0515000F7CF01089580935E0D1092890B3F
S11344C00895EF92FF920F93CF93DF93E7013AECB5
S11344D0388330915E0D39832A834B830C832FEE0E
S11344E02AAB009741F021E0240F2B83FC0180814B
S11344F08D8381E001C080E0442361F0E62FF72F33
S1134500480F9191DE01A80FB11D15969C938F5F02
S11345104813F7CF4B814C5FBE016F5F7F4F80E044
S113452090E00E94332299AB88ABDF91CF910F9139
S1134530FF90EF900895EF92FF920F93CF93DF9344
S11345401F92CDB7DEB78983013031F408E0CE0184
S113455001960E94612205C007E0CE0101960E94E7
S113456061220F90DF91CF910F91FF90EF9008950A
S1134570AF92BF92DF92EF92FF920F931F93CF936C
S1134580DF93FC01DB01D0A8E1A87E2D6D2D808195
S11345908C93818111968C931197828112968C93BE
S11345A01297838113968C931397848114968C931A
S11345B014978381882309F444C020E095E08DEBAF
S11345C00F2EFBEDFF2EF02D1EED3CEDEF01C20F83
S11345D0D11D0D810A3C69F4ED01C90FD11D8883F9
S11345E0C1E0C90F5D01AC0EB11CE5019E5F3883CB
S11345F023C00F3E69F4ED01C90FD11D8883C1E0CA
S1134600C90F5D01AC0EB11CE5019E5F188314C097
S11346100D3B69F4ED01C90FD11D8883C1E0C90FB9
S11346205D01AC0EB11CE5019E5FF88205C0ED0191
S1134630C90FD11D08839F5F2F5FC3812C1730F2F0
S113464001C095E07A3C71F4FD01E90FF11D8DEB99
S1134650808322E0290F9F5FFD01E90FF11D8CED9E
S1134660808326C07F3E71F4FD01E90FF11D8DEBBF
S1134670808322E0290F9F5FFD01E90FF11D8EED7C
S1134680808316C07D3B71F4FD01E90FF11D8DEBB4
S1134690808322E0290F9F5FFD01E90FF11D8BED5F
S11346A0808306C021E0290FFD01E90FF11DE0829E
S11346B06A3C71F4FD01E20FF11D8DEB808382E011
S11346C0820F2F5FFD01E20FF11D9CED908326C048
S11346D06F3E71F4FD01E20FF11D8DEB808382E0EA
S11346E0820F2F5FFD01E20FF11D9EED908316C036
S11346F06D3B71F4FD01E20FF11D8DEB808382E0CF
S1134700820F2F5FFD01E20FF11D9BED908306C028
S113471081E0820FFD01E20FF11DD082A80FB11DCF
S11347209FEE9C938F5FFA018083DF91CF911F915D
S11347300F91FF90EF90DF90BF90AF900895CF93CB
S1134740DF93982F8091890B823001F128F488231C
S113475041F08130A1F03DC0833039F1843091F1D2
S113476038C09A3C41F4FB0190839091890B9F5F80
S11347709093890B6CC01092890B82E068C0FB0196
S1134780918382E08093890B80E061C0FB01928376
S113479080915E0D981305C083E08093890B80E0BF
S11347A056C01092890B83E052C09C3220F01092C4
S11347B0890B82E04CC0FB01938384E08093890BD6
S11347C080E045C0FB01948385E08093890B80E001
S11347D03EC0282F30E0FB014381E42FF0E0DF01ED
S11347E015962A173B074CF4FB01E20FF31F908345
S11347F08F5F8093890B80E02AC02A173B0741F41E
S1134800FB0110AA91AB8F5F8093890B80E01FC0DE
S113481036962E173F07C1F4FB01C0A9D1A9C92BB5
S1134820D1ABC0AB4C5F6F5F7F4F80E090E00E94E4
S11348303322C817D90721F41092890B81E007C0ED
S11348401092890B82E003C01092890B84E0DF91FF
S1134850CF9108950E9431246894B1110C94E824F6
S113486008950E94CD2488F09F5798F0B92F992776
S1134870B751B0F0E1F0660F771F881F991F1AF047
S1134880BA95C9F714C0B13091F00E94E724B1E0A1
S113489008950C94E724672F782F8827B85F39F0A0
S11348A0B93FCCF3869577956795B395D9F73EF4E0
S11348B090958095709561957F4F8F4F9F4F089588
S11348C0E89409C097FB3EF49095809570956195A6
S11348D07F4F8F4F9F4F9923A9F0F92F96E9BB275C
S11348E09395F695879577956795B795F111F8CFD8
S11348F0FAF4BB0F11F460FF1BC06F5F7F4F8F4F43
S11349009F4F16C0882311F096E911C0772321F038
S11349109EE8872F762F05C0662371F096E8862FD0
S113492070E060E02AF09A95660F771F881FDAF727
S1134930880F9695879597F9089597F99F6780E86A
S113494070E060E008959FEF80EC089500240A94DD
S11349501616170618060906089500240A94121656
S11349601306140605060895092E0394000C11F489
S1134970882352F0BB0F40F4BF2B11F460FF04C036
S11349806F5F7F4F8F4F9F4F089557FD9058440F8F
S1134990551F59F05F3F71F04795880F97FB991F9A
S11349A061F09F3F79F08795089512161306140657
S11349B0551FF2CF4695F1DF08C0161617061806E4
S11349C0991FF1CF86957105610508940895E894BF
S11349D0BB2766277727CB0197F908950E94012505
S11349E00C94B4240E94A62438F00E94AD2420F034
S11349F0952311F00C949D240C94A32411240C945D
S1134A00E8240E94C52470F3959FC1F3950F50E0EC
S1134A10551F629FF001729FBB27F00DB11D639F6C
S1134A20AA27F00DB11DAA1F649F6627B00DA11D12
S1134A30661F829F2227B00DA11D621F739FB00DB8
S1134A40A11D621F839FA00D611D221F749F332728
S1134A50A00D611D231F849F600D211D822F762FC1
S1134A606A2F11249F5750409AF0F1F088234AF09E
S1134A70EE0FFF1FBB1F661F771F881F915050400A
S1134A80A9F79E3F510580F00C949D240C94E824D2
S1134A905F3FE4F3983ED4F3869577956795B79591
S1134AA0F795E7959F5FC1F7FE2B880F911D9695AB
S1134AB0879597F90895A0E1B0E0E1E6F5E20C945A
S1134AC01B297C011B016A01FC0117821682838168
S1134AD081FF44C39E012F5F3F4F3901F70193814A
S1134AE0F10193FD859193FF81911F01882309F4BE
S1134AF031C3853239F493FD859193FF81911F0170
S1134B00853239F4B70190E00E947E2A560165018E
S1134B10E5CF10E0512C912CFFE1F915D8F08B3240
S1134B2079F038F4803279F08332A1F4F92DF06110
S1134B302EC08D3261F0803369F4292D21602DC09F
S1134B40392D3260932E892D8460982E2AC0E92D48
S1134B50E86015C097FC2DC020ED280F2A3088F49A
S1134B6096FE06C03AE0139F200D1124122F19C09F
S1134B708AE0589E200D1124522EE92DE0629E2ECB
S1134B8010C08E3231F496FCE5C2F92DF0649F2EEC
S1134B9008C08C3621F4292D2068922E02C0883654
S1134BA041F4F10193FD859193FF81911F018111DE
S1134BB0B3CF9BEB980F933020F4992D9061805ED6
S1134BC007C09BE9980F933008F066C1992D9F7E2A
S1134BD096FF16E09F73992E853619F49064992EEA
S1134BE008C0863621F4392F3068932E02C0111183
S1134BF0115097FE07C01C3350F444244394410ED3
S1134C0027E00BC0183038F027E017E005C027E094
S1134C109CE3492E02C0212F412C560184E0A80EAA
S1134C20B11CF6016081718182819381042DA301FD
S1134C300E947F296C01F981FC87F0FF02C0F3FF19
S1134C4006C091FC06C092FE06C000E205C00DE25B
S1134C5003C00BE201C000E08C858C7019F00111D7
S1134C605AC29BC297FE10C04C0CFC85F4FF04C0D2
S1134C708A81813309F44A94141474F528E02415C4
S1134C8078F588E0482E2CC096FC2AC0812F90E04D
S1134C908C159D059CF03CEFC3163FEFD30674F0D2
S1134CA0892D8068982E0AC0E2E0F0E0EC0FFD1F29
S1134CB0E10FF11D8081803319F411501111F4CFEB
S1134CC097FE0EC044244394410E812F90E0C816F1
S1134CD0D9062CF41C1904C04424439401C010E0E8
S1134CE097FE06C01C141D0434F4C601019605C0C9
S1134CF085E090E002C081E090E00111019611236B
S1134D0031F0212F30E02F5F3F4F820F931F252D6D
S1134D1030E08217930714F4581A01C0512C892DDE
S1134D20897049F4552039F0B70180E290E00E947F
S1134D307E2A5A94F7CF002329F0B701802F90E000
S1134D400E947E2A93FC09C0552039F0B70180E304
S1134D5090E00E947E2A5A94F7CF97FE4CC04601F9
S1134D60D7FE02C0812C912CC60188199909F30140
S1134D70E80FF91FFE87ED87960124193109388B56
S1134D802F87012F10E01195019511093FEF83162C
S1134D90930629F4B7018EE290E00E947E2AC8149B
S1134DA0D9044CF08F8598898815990524F4ED85EC
S1134DB0FE85818101C080E3F1E08F1A91082D8581
S1134DC03E852F5F3F4F3E872D87801691062CF03E
S1134DD0B70190E00E947E2AD9CFC814D90441F4C7
S1134DE09A81963320F4953319F43C8534FF81E39A
S1134DF0B70190E04EC08A81813319F09C859F7E73
S1134E009C87B70190E00E947E2A111105C094FC92
S1134E1018C085E690E017C0B7018EE290E00E94CA
S1134E207E2A1E5F82E001E0080FF301E80FF11D06
S1134E308081B70190E00E947E2A802F0113F3CF76
S1134E40E6CF85E490E0B7010E947E2AD7FC06C035
S1134E50C114D10441F4EC85E4FF05C0D194C1949C
S1134E60D1088DE201C08BE2B70190E00E947E2A56
S1134E7080E32AE0C216D1042CF08F5FFAE0CF1A47
S1134E80D108F7CFB70190E00E947E2AB701C6018E
S1134E90C0960E947E2A54C1833631F0833779F05C
S1134EA0833509F056C020C0560132E0A30EB11C70
S1134EB0F6018081898301E010E0630112C056018C
S1134EC0F2E0AF0EB11CF601C080D18096FE03C0A3
S1134ED0612F70E002C06FEF7FEFC6010E946B2A62
S1134EE08C01F92DFF7714C0560122E0A20EB11CEB
S1134EF0F601C080D18096FE03C0612F70E002C02D
S1134F006FEF7FEFC6010E94572A8C01F92DF068DC
S1134F109F2EF3FD1AC0852D90E008171907A8F4F9
S1134F20B70180E290E00E947E2A5A94F4CFF60101
S1134F3097FC859197FE81916F01B70190E00E94E3
S1134F407E2A51105A94015011090115110579F75F
S1134F50F7C0843611F0893661F5560197FE09C011
S1134F6024E0A20EB11CF6016081718182819381DB
S1134F700AC0F2E0AF0EB11CF60160817181072E08
S1134F80000C880B990BF92DFF769F2E97FF09C013
S1134F9090958095709561957F4F8F4F9F4FF068E6
S1134FA09F2E2AE030E0A3010E94DC2AC82EC618F6
S1134FB03FC0092D853721F40F7E2AE030E01DC063
S1134FC0097F8F3691F018F4883559F0C3C08037C3
S1134FD019F0883711F0BEC0006104FF09C00460F5
S1134FE007C094FE08C0066006C028E030E005C093
S1134FF020E130E002C020E132E0560107FF09C0A1
S113500084E0A80EB11CF6016081718182819381D4
S113501008C0F2E0AF0EB11CF6016081718180E03E
S113502090E0A3010E94DC2AC82EC6180F77902EA8
S113503096FE0BC0092D0E7FC11650F494FE0AC0D3
S113504092FC08C0092D0E7E05C0DC2C092D03C07E
S1135050DC2C01C0D12E04FF0DC0FE01EC0DF11DAE
S11350608081803311F4097E09C002FF06C0D39405
S1135070D39404C0802F867809F0D39403FD11C023
S113508000FF06C01C2DD51480F4150D1D190DC08C
S1135090D51458F4B70180E290E00E947E2AD3949C
S11350A0F7CFD51410F45D1801C0512C04FF10C0C3
S11350B0B70180E390E00E947E2A02FF17C001FD41
S11350C003C088E790E002C088E590E0B7010CC017
S11350D0802F867859F001FF02C08BE201C080E284
S11350E007FD8DE2B70190E00E947E2AC11638F4D4
S11350F0B70180E390E00E947E2A1150F7CFCA9452
S1135100F301EC0DF11D8081B70190E00E947E2A2D
S1135110C110F5CF15C0F4E0F51560F584E0581A18
S113512093FE1FC0011127C02C8523FF2AC00CEE5B
S113513012E0392D3071932EF8018491811124C02D
S1135140552009F4E4CCB70180E290E00E947E2A65
S11351505A94F6CFF7018681978126C08FEF9FEF8F
S113516023C0B70180E290E00E947E2A5A94511035
S1135170F8CFD8CF512CB701802F90E00E947E2A1F
S1135180D3CF00EF12E0D5CF91108052B70190E059
S11351900E947E2A0F5F1F4FCFCF23E0251510F406
S11351A083E0BDCF512CC0CF6096E2E10C94372947
S11351B0DB018F939F930E941029BF91AF91A29F0F
S11351C0800D911DA39F900DB29F900D1124089501
S11351D0A1E21A2EAA1BBB1BFD010DC0AA1FBB1FF7
S11351E0EE1FFF1FA217B307E407F50720F0A21B69
S11351F0B30BE40BF50B661F771F881F991F1A94D6
S113520069F760957095809590959B01AC01BD01FF
S1135210CF010895EE0FFF1F0590F491E02D09943E
S11352200E945229A59F900DB49F900DA49F800DBC
S1135230911D112408952F923F924F925F926F9285
S11352407F928F929F92AF92BF92CF92DF92EF9212
S1135250FF920F931F93CF93DF93CDB7DEB7CA1B93
S1135260DB0B0FB6F894DEBF0FBECDBF09942A88BE
S1135270398848885F846E847D848C849B84AA8466
S1135280B984C884DF80EE80FD800C811B81AA81F3
S1135290B981CE0FD11D0FB6F894DEBF0FBECDBFBE
S11352A0ED010895A29FB001B39FC001A39F700DAB
S11352B0811D1124911DB29F700D811D1124911D1A
S11352C00895FC0188279927E89421912032E9F375
S11352D0293010F02E30C8F32B3241F02D3239F43E
S11352E0689404C00E94762A820F911D2191205354
S11352F02A30C0F31EF4909581959F4F089528306D
S113530008F027E03327DA01990F311D87FD9160FA
S113531000966105710539F432602E5F3D9330E3E8
S11353202A95E1F708959F3F30F0803871056105B3
S113533009F03C5F3C5F3D93913008F08068911D1B
S1135340DF93CF931F930F93FF92EF92192F987FC0
S11353509695E92F96959695E90FFF27E25BFC4F0A
S113536099273327EE24FF24A701E7010590089429
S1135370079428F4360FE71EF81E491F511D660FC7
S1135380771F881F991F0694A1F70590079428F4A6
S1135390E70EF81E491F561FC11D770F881F991F5E
S11353A0661F0694A1F70590079428F4F80E491F88
S11353B0561FC71FD11D880F991F661F771F06949C
S11353C0A1F70590079420F4490F561FC71FD81F53
S11353D0990F661F771F881F0694A9F7849110956B
S11353E0177041F0D695C79557954795F794E7946C
S11353F01A95C1F7E4EFF2E0689415901591359190
S11354006591959105907FE27395E118F10A430B3C
S1135410560BC90BD009C0F7E10CF11E431F561FF0
S1135420C91FD01D7EF4703311F48A95E6CFE89439
S1135430015030F0080F0AF40027021708F4202F57
S11354402395022F7A3328F079E37D932A95E9F79F
S113545010C07D932A9589F606949795679537959C
S113546017951794E118F10A430B560BC90BD00991
S113547098F023957E9173957A3308F070E37C93CA
S11354802013B8F77E9170617D9330F0839571E3BA
S11354907D9370E32A95E1F71124EF90FF900F912B
S11354A01F91CF91DF91992787FD90950895FC0175
S11354B00590615070400110D8F7809590958E0F3B
S11354C09F1F0895FB01DC018D910190801901104B
S11354D0D9F3990B0895FC016150704001900110BB
S11354E0D8F7809590958E0F9F1F08957AE0979F27
S11354F0902D879F802D910D112408950F931F9354
S1135500CF93DF93FB01238121FD03C08FEF9FEF36
S11355102CC022FF16C04681578124813581421751
S1135520530744F4A081B1819D012F5F3F4F318324
S113553020838C93268137812F5F3F4F37832683C7
S113554014C08B01EC01FB010084F185E02D099569
S1135550892BE1F6D80116968D919C9117970196A7
S113556017969C938E931697CE01DF91CF911F913E
S11355700F910895AEE0B0E0E0ECFAE20C94292932
S11355800D891E8986E08C831A8309838FEF9FE738
S11355909E838D83AE01475E5F4F6F89788DCE0108
S11355A001960E945B25EF81F885E00FF11F1082C0
S11355B02E96E4E00C944529FA01AA27283051F1EB
S11355C0203181F1E8946F936E7F6E5F7F4F8F4F30
S11355D09F4FAF4FB1E03ED0B4E03CD0670F781F8F
S11355E0891F9A1FA11D680F791F8A1F911DA11D74
S11355F06A0F711D811D911DA11D20D009F46894AD
S11356003F912AE0269F11243019305D3193DEF654
S1135610CF010895462F4770405D4193B3E00FD00A
S1135620C9F7F6CF462F4F70405D4A3318F0495DF5
S113563031FD4052419302D0A9F7EACFB4E0A695D8
S11356409795879577956795BA95C9F700976105FA
S1135650710508959B01AC010A2E06945795479550
S113566037952795BA95C9F7620F731F841F951F45
S10B5670A01D0895F894FFCF7A
S1135678FF01000A00670AF503C10AFE033E04415C
S11356880A19044304070B4C047204FE0C8404B383
S113569804180CBB04EA04320CF2042205960C2FFD
S11356A8056405700C7105A805CF0CB7052506DB44
S11356B80B3A06A306B10CB2064407BB0C240750E8
S11356C807C50C5C0789072E0D9907DF07600DCC09
S11356D807EF07800D01087408AA0D4508BD083EA8
S11356E80E8608F108B30ECC080C09C00DFB08009F
S11356F800000000001B09200932094A096109FF5A
S113570801000A001F13FF01001E005C13FF0100C3
S113571832006F13000000000000000000000000C9
S11357280000FA00FA00FA00FA00320032003200EF
S11357383200000000000000000000000101010127
S1135748FF010064000817FF026400A017B20B3AB7
S11357580C0A417661696C61626C6520636F6D6DDA
S1135768616E64730D0A002D2D2D2D2D2D2D2D2DDB
S11357782D2D2D2D2D2D2D2D2D0D0A000D0A3E20FC
S11357880033004368616E6E656C20256420736580
S11357987420706F696E743A202564200D0A0062C3
S11357A86D7033393000252E30660054656D7020D5
S11357B86F6620424D503439303A202573200D0A43
S11357C8004E5443004E54435B25645D3A202573D0
S11357D8200D0A006F6E65776972650054656D70F7
S11357E820312D57697265206368616E6E656C207F
S11357F825643A202573200D0A004368616E6E659E
S11358086C202564206175746F20766F6C746167F1
S1135818653A202564200D0A0064697361626C6529
S11358286420616C6C206368616E6E656C0D0A009F
S1135838536574706F696E74206368616E6E656C0D
S11358485B25645D3A202564200D0A0052696E6761
S11358586C65643A20524544203D2025642C204739
S11358685245454E203D2025642C20424C55452068
S11358783D2025642C205748495445203D20256463
S1135888200D0A004C656420495220736574206217
S113589872696768746E6573732069732025732051
S11358A82525200D0A004C6564204952277320627F
S11358B872696768746E6573732069732025642040
S11358C82525200D0A0053746174757320544543CB
S11358D83A0052494E4C45443A20523D25642C2006
S11358E8473D25642C20423D25642C20573D2564E2
S11358F80D0A0049524C45443A20647574792025B0
S1135908642025250D0A00616363656C6572617402
S1135918696F6E20252E326620252E326620252EAC
S113592832660D0A006779726F73636F706520259C
S11359382E326620252E326620252E32660D0A0068
S113594850726573733A20252E35660D0A00494F47
S113595855204649524D574152452056312E302E36
S113596830200D0A007365745F74656D7000203A09
S11359782073657420646573697265642074656D49
S1135988706572617475726500203A204469737099
S11359986C6179206C697374206F6620636F6D6D18
S11359A8616E64732C20666F726D61743A20686549
S11359B86C70006765745F74656D7000203A2047E9
S11359C86574207468652063757272656E742074DA
S11359D8656D7065726174757265206F66205445D3
S11359E843006765745F74656D705F736574706F89
S11359F8696E7400203A20476574207468652063D2
S1135A08757272656E742074656D706572617475F3
S1135A18726520736574706F696E74206F662054A4
S1135A284543007465635F656E6100203A20656EC6
S1135A3861626C6520544543206368616E6E656CD1
S1135A482C20666F726D61743A207465635F656EAD
S1135A5861206368616E6E656C007465635F646978
S1135A687300203A2064697361626C65205445436D
S1135A78206368616E6E656C2C20666F726D61744C
S1135A883A207465635F646973206368616E6E6548
S1135A986C007465635F6469735F6175746F00207B
S1135AA83A2064697361626C65206175746F206360
S1135AB86F6E74726F6C2C20666F726D61742074D3
S1135AC865635F6469735F6175746F206368616E91
S1135AD86E656C007465635F656E615F6175746F94
S1135AE800203A2020656E61626C65206175746FD0
S1135AF820636F6E74726F6C2C2020666F726D61F8
S1135B08743A207465635F656E615F6175746F20B4
S1135B186368616E6E656C007465635F7365745F5A
S1135B286F757470757400203A202073657420743E
S1135B386865206F7574707574206D616E75616C1D
S1135B486C792C2020666F726D61743A20746563D9
S1135B585F7365745F6F7574707574206368616EC4
S1135B686E656C20686561745F636F6F6C28303A8A
S1135B78434F4F4C2C20313A204845415429207634
S1135B886F6C7461676528313530206D65616E20EE
S1135B98312E3529007465635F7365745F617574AC
S1135BA86F5F766F6C7461676500203A20207365B7
S1135BB8742074686520766F6C7461676520666FFD
S1135BC872206175746F20636F6E74726F6C206DD0
S1135BD86F64652C2020666F726D61743A20746559
S1135BE8635F7365745F6175746F5F766F6C7461FE
S1135BF86765206368616E6E656C2020766F6C74CF
S1135C086167650928313530206D65616E20312E54
S1135C183529007465635F6765745F7374617475AF
S1135C287300203A202067657420746563207374B8
S1135C38617475732C2020666F726D61743A2074D8
S1135C4865635F6765745F7374617475732C207220
S1135C586573706F6E7365206E746330206E746341
S1135C683120746563305F737461742074656331C3
S1135C785F7374617420746563325F737461742034
S1135C88746563335F7374617420482F433020480C
S1135C982F433100203A20656E61626C652070657F
S1135CA872696F646963206C6F672C20666F726D0C
S1135CB861743A207465635F6C6F675F656E610039
S1135CC87465635F6C6F675F64697300203A20646E
S1135CD8697361626C6520706572696F64696320B9
