S0130000494F554669726D776172652E73726563E7
S11300000C949F090C94BC090C94BC090C94BC0975
S11300100C94BC090C94BC090C94BC090C94BC0948
S11300200C94BC090C94BC090C94BC090C94BC0938
S11300300C94BC090C94BC090C94BC090C941D22AE
S11300400C94BC090C94BC090C9486150C94CA1528
S11300500C94BC090C94BC090C94BC090C94BC0908
S11300600C94BC090C94BC090C94BC090C94BC09F8
S11300700C94BC090C94BC090C94FD150C94441606
S11300800C94BC090C949F130C94BC09AB14AF14CE
S1130090AF14AF14AF14AF14AF14AF14BF13AF1435
S11300A0AF14AF14AF14AF14AF14AF14BF13AF1425
S11300B0AF14AF14AF14AF14AF14AF14C713AF140D
S11300C0AF14AF14AF14AF14AF14AF14ED13AF14D7
S11300D0AF14AF14AF14AF14AF14AF14C713AF14ED
S11300E0AF14AF14AF14AF14AF14AF14F313AF14B1
S11300F0AF14AF14AF14AF14AF14AF14F913AF149B
S1130100AF14AF14AF14AF14AF14AF140B14AF1477
S1130110AF14AF14AF14AF14AF14AF143514AF143D
S1130120AF14AF14AF14AF14AF14AF14FF13AF1464
S1130130AF14AF14AF14AF14AF14AF141914AF1439
S1130140AF14AF14AF14AF14AF14AF143814AF140A
S1130150AF14AF14AF14AF14AF14AF143814AF14FA
S1130160AF14AF14AF14AF14AF14AF143814AF14EA
S1130170AF14AF14AF14AF14AF14AF143814AF14DA
S1130180AF14AF14AF14AF14AF14AF144114AF14C1
S1130190AF14AF14AF14AF14AF14AF147214AF1480
S11301A0AF14AF14AF14AF14AF14AF144114AF14A1
S11301B0AF14AF14AF14AF14AF14AF147214AF1460
S11301C0AF14AF14AF14AF14AF14AF145914AF1469
S11301D0AF14AF14AF14AF14AF14AF147614AF143C
S11301E0AF14AF14AF14AF14AF14AF147614AF142C
S11301F0AF14AF14AF14AF14AF14AF148B14AF1407
S1130200AF14AF14AF14AF14AF14AF14A514AF14DC
S1130210AF14AF14AF14AF14AF14AF14A514A719CF
S1130220AC19AC19AC19AC19AC19AC19AC19AC19A2
S1130230AC19AC1905170517051705170517051788
S11302400517051705170517AC19AC19AC19AC1926
S1130250AC19AC19AC19AC19AC19AC19AC19AC1972
S1130260AC19AC19AC19AC19AC19AC19AC19AC1962
S1130270AC19AC19AC19AC19AC19AC19AC19AC1952
S1130280AC19AC193718AC19AC19AC19AC19AC19B8
S1130290AC19AC19AC19AC19AC1944175B17AC19EF
S11302A0AC19AC19AC195B17AC19AC19AC19AC1975
S11302B0AC19AC193718AC19AC199A17AC19191830
S11302C0AC19AC19371808000000BE922449123E3C
S11302D0ABAAAA2ABECDCCCC4C3E00000080BEAB5B
S11302E0AAAAAA3E00000000BF000000803F000050
S11302F0000000084178D3BB4387D1133D190E3C5D
S1130300C3BD4282AD2B3E68EC8276BED98FE1A993
S11303103E4C80EFFFBE01C4FF7F3F0000000000A1
S11303206E616E00696E660000407A10F35A00A098
S1130330724E18090010A5D4E80000E876481700AA
S113034000E40B54020000CA9A3B000000E1F505EA
S1130350000080969800000040420F000000A08634
S113036001000000102700000000E8030000000066
S11303706400000000000A0000000000010000000A
S113038000002C76D888DC674F0823DFC1DFAE5924
S1130390E1B1B796E5E3E453C63AE651997696E8B7
S11303A0E6C28426EB898C9B62ED407C6FFCEFBC3B
S11303B09C9F40F2BAA56FA5F490055A2AF75C9366
S11303C06B6CF9676DC11BFCE0E40D47FEF520E69C
S11303D0B500D0ED902E0300943577050080841E7F
S11303E0080000204E0A000000C80C333333330FDA
S11303F0986E12831141EF8D2114893BE65516CF77
S1130400FEE6DB18D1844B381BF77C1D901DA4BB82
S1130410E424203284725E228100C9F124ECA1E537
S11304203D272E2E2E2E2E2E2E2E2E2E2E2E2E2EE0
S11304302E2E2E2E2E2E2E2E2E2E2E2E2E2E2E2ED8
S11304402E2E2E2E2E2E2E2E2E2E2E2E2E2E2E2EC8
S11304502E2E2E2E2E2E2E2E2E0D0A0000000000E3
S11304600000002E2E2E2E2E2E2E2E2E2E2E2E2E32
S11304702E2E2E2E2E2E2E2E2E2E2E2E2E2E2E2E98
S11304802E2E2E2E2E2E2E2E2E2E2E2E2E2E2E2E88
S11304902E2E2E2E2E2E2E2E2E2E0D0A0000000075
S11304A0000000002E2E20202020202020202020AC
S11304B02020202020202020202020202020202038
S11304C02020202020202020202020202020202028
S11304D02020202020202020202E2E0D0A00000085
S11304E000000000002E2E2020202020202020208C
S11304F020202020202020202020202020202020F8
S113050020202020202020202020202020202020E7
S1130510202020202020202020202E2E0D0A000024
S11305200000000000002E2E20202020202020206B
S11305302020202020205F5F5F5F5F20202020207C
S113054020202020202020202020202020202020A7
S113055020202020202020202020202E2E0D0A00C4
S1130560000000000000002E2E202020202020204B
S11305702020202020202F205F5F5F5F7C20202010
S11305802020202020202020202020202020202067
S11305902020202020202020202020202E2E0D0A64
S11305A000000000000000002E2E2020202020202B
S11305B02020202020207C20285F5F5F20205F20D7
S11305C05F5F2020205F5F205F20205F5F5F205FF0
S11305D05F5F20202020202020202020202E2E0D90
S11305E00A00000000000000002E2E202020202001
S11305F020202020202020205C5F5F5F205C7C2066
S1130600275F205C202F205F60207C2F205F5F2FDE
S1130610205F205C202020202020202020202E2E3F
S11306200D0A00000000000000002E2E20202020D3
S11306302020202020202020205F5F5F5F29207C55
S1130640207C5F29207C20285F7C207C20285F7C04
S113065020205F5F2F202020202020202020202EFB
S11306602E0D0A00000000000000002E2E20202085
S11306702020202020202020207C5F5F5F5F5F2FD0
S11306807C202E5F5F2F205C5F5F2C5F7C5C5F5F54
S11306905F5C5F5F5F7C20202020202020202020C2
S11306A02E2E0D0A00000000000000002E2E202037
S11306B0202020202020205F2020202020205F20B8
S11306C05F7C207C205F5F5F5F5F5F5F2020202076
S11306D0202020205F2020202020202020202020D7
S11306E0202E2E0D0A00000000000000002E2E20F7
S11306F0202020202020207C207C20202020285FF7
S11307007C5F295F7C7C5F5F2020205F5F7C2020F2
S1130710202020207C207C2020202020202020201D
S113072020202E2E0D0A00000000000000002E2EB6
S113073020202020202020207C207C2020202020FD
S11307405F205F205F205F5F207C207C205F5F5FF5
S113075020205F5F5F7C207C5F5F202020202020A2
S11307602020202E2E0D0A00000000000000002E84
S11307702E20202020202020207C207C20202020AF
S11307807C207C207C20275F205C7C207C2F205FC9
S1130790205C2F205F5F7C20275F205C20202020AE
S11307A0202020202E2E0D0A000000000000000052
S11307B02E2E20202020202020207C207C5F5F5FA4
S11307C05F7C207C207C207C207C207C207C202062
S11307D05F5F2F20285F5F7C207C207C207C202092
S11307E020202020202E2E0D0A00000000000000F2
S11307F0002E2E20202020202020207C5F5F5F5FA1
S11308005F5F7C5F7C5F7C5F7C207C5F7C5F7C5C6B
S11308105F5F5F7C5C5F5F5F7C5F7C207C5F7C20D4
S11308202020202020202E2E0D0A00000000000091
S113083000002E2E202020202020202020202020D8
S113084020202020202020202020202020202020A4
S11308502020202020202020202020202020202094
S1130860202020202020202E2E0D0A000000000031
S11308700000002E2E2020202020202020202020B8
S11308802020202020202020202020202020202064
S11308902020202020202020202020202020202054
S11308A020202020202020202E2E0D0A00000000D1
S11308B0000000002E2E202020205F5F5F5F5F205D
S11308C05F5F5F5F20205F202020205F20205F5F2C
S11308D0202020205F5F5F5F2020205F5F5F20205B
S11308E0205F5F5F20202020202E2E0D0A000000B4
S11308F000000000002E2E2020207C5F2020205F9E
S11309002F205F5F205C7C207C20207C207C205C6E
S1130910205C20202F202F5F207C202F205F205C54
S1130920202F205F205C202020202E2E0D0A000086
S11309300000000000002E2E20202020207C207C9F
S11309407C207C20207C207C207C20207C207C201F
S1130950205C205C2F202F207C207C7C207C207C31
S1130960207C207C207C207C2020202E2E0D0A0040
S1130970000000000000002E2E202020205F7C209C
S11309807C7C207C5F5F7C207C207C5F5F7C207C87
S11309902020205C20202F20207C207C7C207C5F59
S11309A07C207C207C5F7C207C2020202E2E0D0A45
S11309B000000000000000002E2E2020207C5F5F3D
S11309C05F5F5F5C5F5F5F5F2F205C5F5F5F5F2FD8
S11309D020202020205C2F2020207C5F285F295F9E
S11309E05F5F285F295F5F5F2F202020202E2E0D60
S11309F00A00000000000000002E2E2020202020ED
S1130A0020202020202020202020202020202020E2
S1130A1020202020202020202020202020202020D2
S1130A2020202020202020202020202020202E2EA6
S1130A300D0A00000000000000002E2E20202020BF
S1130A4020202020202020202020202020202020A2
S1130A502020202020202020202020202020202092
S1130A602020202020202020202020202020202E74
S1130A702E0D0A00000000000000002E2E2E2E2E47
S1130A802E2E2E2E2E2E2E2E2E2E2E2E2E2E2E2E82
S1130A902E2E2E2E2E2E2E2E2E2E2E2E2E2E2E2E72
S1130AA02E2E2E2E2E2E2E2E2E2E2E2E2E2E2E2E62
S1130AB02E2E0D0A00000000000000002E2E2E2E07
S1130AC02E2E2E2E2E2E2E2E2E2E2E2E2E2E2E2E42
S1130AD02E2E2E2E2E2E2E2E2E2E2E2E2E2E2E2E32
S1130AE02E2E2E2E2E2E2E2E2E2E2E2E2E2E2E2E22
S1130AF02E2E2E0D0A00000000000000000D0A003A
S1130B0000000000000000000000000000000000E1
S1130B1000000000000000000000000000000000D1
S1130B2000000000000000000000000000000000C1
S1130B30000000000000000000000000000015FD9F
S1130B4040FD6BFD8BFDA4FDB9FDCCFDDCFDEAFD94
S1130B50F7FD03FE0EFE19FE22FE2BFE34FE3CFEC4
S1130B6043FE4BFE52FE58FE5FFE65FE6BFE71FEB9
S1130B7076FE7CFE81FE86FE8BFE90FE94FE99FE40
S1130B809DFEA1FEA6FEAAFEAEFEB2FEB6FEB9FE14
S1130B90BDFEC1FEC4FEC8FECBFECEFED2FED5FE17
S1130BA0D8FEDBFEDEFEE1FEE4FEE7FEEAFEEDFE3D
S1130BB0F0FEF3FEF5FEF8FEFBFEFDFE00FF03FF74
S1130BC005FF08FF0AFF0DFF0FFF11FF14FF16FFBB
S1130BD018FF1BFF1DFF1FFF21FF24FF26FF28FF17
S1130BE02AFF2CFF2EFF30FF32FF34FF37FF39FF7F
S1130BF03AFF3CFF3EFF40FF42FF44FF46FF48FFF1
S1130C004AFF4CFF4EFF4FFF51FF53FF55FF56FF66
S1130C1058FF5AFF5CFF5DFF5FFF61FF63FF64FFE6
S1130C2066FF68FF69FF6BFF6CFF6EFF70FF71FF6B
S1130C3073FF74FF76FF78FF79FF7BFF7CFF7EFFF5
S1130C407FFF81FF82FF84FF85FF87FF88FF8AFF84
S1130C508BFF8CFF8EFF8FFF91FF92FF94FF95FF18
S1130C6096FF98FF99FF9BFF9CFF9DFF9FFFA0FFAE
S1130C70A1FFA3FFA4FFA5FFA7FFA8FFA9FFABFF48
S1130C80ACFFADFFAFFFB0FFB1FFB2FFB4FFB5FFE4
S1130C90B6FFB7FFB9FFBAFFBBFFBCFFBEFFBFFF84
S1130CA0C0FFC1FFC3FFC4FFC5FFC6FFC7FFC9FF25
S1130CB0CAFFCBFFCCFFCDFFCFFFD0FFD1FFD2FFC8
S1130CC0D3FFD4FFD6FFD7FFD8FFD9FFDAFFDBFF6E
S1130CD0DCFFDEFFDFFFE0FFE1FFE2FFE3FFE4FF15
S1130CE0E5FFE6FFE8FFE9FFEAFFEBFFECFFEDFFBE
S1130CF0EEFFEFFFF0FFF1FFF2FFF4FFF5FFF6FF69
S1130D00F7FFF8FFF9FFFAFFFBFFFCFFFDFFFEFF13
S1130D10FFFF0000010002000300040005000600BC
S1130D20080009000A000B000C000D000E000F0063
S1130D301000110012001300140015001600170013
S1130D40180019001A001B001C001D001E001F00C3
S1130D502000210022002300240024002500260076
S1130D602700280029002A002B002C002D002E002B
S1130D702F003000310032003300340035003600DB
S1130D803700380039003A003A003B003C003D008F
S1130D903E003F0040004100420043004400450043
S1130DA0460047004800480049004A004B004C00F8
S1130DB04D004E004F0050005100520053005300AC
S1130DC05400550056005700580059005A005B0063
S1130DD05C005C005D005E005F006000610062001A
S1130DE063006400650065006600670068006900D0
S1130DF06A006B006C006D006D006E006F00700087
S1130E00710072007300740075007500760077003D
S1130E10780079007A007B007C007C007D007E00F5
S1130E207F008000810082008300830084008500AD
S1130E3086008700880089008A008A008B008C0065
S1130E408D008E008F00900091009100920093001D
S1130E5094009500960097009700980099009A00D6
S1130E609B009C009D009D009E009F00A000A1008F
S1130E70A200A300A400A400A500A600A700A80047
S1130E80A900AA00AA00AB00AC00AD00AE00AF0000
S1130E90B000B000B100B200B300B400B500B600B9
S1130EA0B600B700B800B900BA00BB00BC00BC0073
S1130EB0BD00BE00BF00C000C100C200C200C3002C
S1130EC0C400C500C600C700C800C900C900CA00E4
S1130ED0CB00CC00CD00CE00CF00CF00D000D1009D
S1130EE0D200D300D400D500D500D600D700D80056
S1130EF0D900DA00DB00DB00DC00DD00DE00DF000F
S1130F00E000E100E200E200E300E400E500E600C6
S1130F10E700E800E900E900EA00EB00EC00ED007E
S1130F20EE00EF00EF00F000F100F200F300F40037
S1130F30F500F600F600F700F800F900FA00FB00EF
S1130F40FC00FD00FE00FE00FF00000101010201A3
S1130F500301040105010501060107010801090156
S1130F600A010B010C010D010D010E010F0110010D
S1130F7011011201130114011501160116011701C3
S1130F80180119011A011B011C011D011E011F0179
S1130F901F01200121012201230124012501260131
S1130FA02701280129012A012A012B012C012D01E5
S1130FB02E012F0130013101320133013401350199
S1130FC0360136013701380139013A013B013C0150
S1130FD03D013E013F014001410142014301440101
S1130FE04501450146014701480149014A014B01B8
S1130FF04C014D014E014F01500151015201530169
S11310005401550156015701580159015A015B0118
S11310105C015D015E015F016001610162016301C8
S11310206401650166016701680169016A016B0178
S11310306C016D016E016F01700171017201730128
S11310407401750176017701780179017A017B01D8
S11310507C017D017E017F01800181018201830188
S11310608401850186018701880189018A018C0137
S11310708D018E018F0190019101920193019401E0
S1131080950196019701980199019B019C019D018D
S11310909E019F01A001A101A201A301A501A60136
S11310A0A701A801A901AA01AB01AC01AE01AF01DE
S11310B0B001B101B201B301B401B601B701B80185
S11310C0B901BA01BB01BC01BE01BF01C001C1012C
S11310D0C201C401C501C601C701C801CA01CB01CF
S11310E0CC01CD01CE01D001D101D201D301D50172
S11310F0D601D701D801D901DB01DC01DD01DF0113
S1131100E001E101E201E401E501E601E701E901B1
S1131110EA01EB01ED01EE01EF01F101F201F3014E
S1131120F501F601F701F901FA01FB01FD01FE01E8
S1131130FF0101020202030205020602080209027B
S11311400A020C020D020F02100211021302140211
S11311501602170219021A021C021D021F022002A3
S11311602202230224022602280229022B022C0234
S11311702E022F02310232023402350237023902C2
S11311803A023C023D023F0240024202440245024E
S1131190470249024A024C024E024F0251025302D4
S11311A05402560258025A025B025D025F02610257
S11311B0620264026602680269026B026D026F02D7
S11311C0710273027402760278027A027C027E0251
S11311D0800282028402860288028A028C028E02C3
S11311E0900292029402960298029A029C029E0233
S11311F0A002A202A402A602A902AB02AD02AF029F
S1131200B102B402B602B802BA02BD02BF02C10200
S1131210C302C602C802CB02CD02CF02D202D4025C
S1131220D702D902DC02DE02E102E302E602E902AD
S1131230EB02EE02F002F302F602F902FB02FE02F6
S113124001030403070309030C030F03120315032B
S113125018031B031E032103240328032B032E035B
S11312603103340338033B033E034203450349037C
S11312704C035003530357035B035E03620366038B
S11312806A036E037103750379037E038203860385
S11312908A038E03930397039C03A003A503A90366
S11312A0AE03B303B803BC03C103C703CC03D10328
S11312B0D603DC03E103E703EC03F203F803FE03C4
S11312C004040A04110417041E0424042B04320425
S11312D0390440044804500457045F04670470044C
S11312E0780481048A0493049D04A704B104BB0414
S11312F0C604D104DC04E804F40400050D051B0550
S11313002905370546055605670578058A059D05AF
S1131310B105C705DD05F5050E062A06470666066E
S11313208806AD06D606030736076F07B107FD0723
S11313305808C9085A09210A560BC10D2C1011244A
S11313401FBECFEFD0E1DEBFCDBF1AE0A0E0B1E019
S1131350EEE6F5E502C005900D92AC3FB107D9F772
S11313602FE0ACEFBAE001C01D92A030B207E1F764
S11313700E94710F0C94B52A0C94000088E09BE045
S11313800E94D81D8CEF9AE00E943B1E08950E9493
S1131390CF1D089561E071E080E091E00E94AC20EF
S11313A008950F931F93CF93DF93CDB7DEB7E297E2
S11313B00FB6F894DEBF0FBECDBFE8E0FBE0838537
S11313C08F9382858F9381858F9380858F93878177
S11313D08F9386818F9385818F9384818F9383816B
S11313E08F9382818F9381818F9380818F9388EEF5
S11313F091E09F938F938E010F5F1F4F1F930F9365
S11314000E94352AF80101900020E9F73197BF01C5
S1131410601B710BC8010E943815ECEFFAE083855C
S11314208F9382858F9381858F9380858F93878116
S11314308F9386818F9385818F9384818F9383810A
S11314408F9382818F9381818F9380818F9386E0A4
S113145092E09F938F931F930F930E94352AF80174
S113146001900020E9F73197BF01601B710B0FB6A3
S1131470F894DEBF0FBECDBFC8010E943815E296B6
S11314800FB6F894DEBF0FBECDBFDF91CF911F9191
S11314900F910895EF92FF920F931F93CF93FC0146
S11314A08081882309F444C091E0C0E020E031E069
S11314B0803219F41082932F0EC0992361F0C83042
S11314C0C8F5AC2FB0E0AA0FBB1FAC5EB44FED93D0
S11314D0FC93CF5F922F319680818111E9CFCC2389
S11314E059F160910E0170910F016115710531F18F
S11314F0E090140BF090150B0EE011E0C7010E9470
S1131500DD29892B59F4D8011296ED91FC9113979A
S113151064E17BE08C2F90E0099511C00A5F1F4FB6
S1131520F801608171816115710541F781E007C09F
S113153081E005C082E003C081E001C081E0CF9179
S11315401F910F91FF90EF900895CF93DF9381E265
S113155092E00E94291587E392E00E942915809168
S11315600E0190910F01009789F0CEE0D1E00E9426
S113157029158C819D810E94291586E494E00E949E
S11315802915269688819981009789F780E090E053
S1131590DF91CF910895CF934DC08091A70B909187
S11315A0A80B0E94E814C82F0E941915CD3011F021
S11315B0CA3029F58091260B8823E1F0E82FF0E06A
S11315C0E95DF44F10828F5F8093260B87E29BE0E6
S11315D00E944A0A1092260B880F990BFC01E457CB
S11315E0FE4F808191810E9429158EE492E00E9431
S11315F0291520C08CE492E00E9429151BC0C83034
S113160011F0CF3741F48091260B882399F0815053
S11316108093260B0FC08091260BE82FF0E0E95D44
S1131620F44FC0838F5F813818F48093260B02C077
S11316301092260B8091A70B9091A80B0E94CC14BA
S1131640882309F4AACFCF9108950F931F93CF93C2
S1131650DF93833091057CF1049784F5FB0182814B
S11316609381F2E081359F0709F058F529E083332F
S1131670920750F1EB010E94DC288C018C819D8142
S11316800E94DC28C82FD92F602F0E94AE0FDF9351
S1131690CF9311271F930F9383E592E09F938F932A
S11316A00E94D4190F900F900F900F900F900F90ED
S11316B080E090E00BC083E090E008C082E090E01E
S11316C005C084E090E002C084E090E0DF91CF9117
S11316D01F910F910895CF92DF92EF92FF920F9393
S11316E01F93CF93DF9300D000D01F92CDB7DEB706
S11316F08C017B01FB01C280D38061E772E0C601EB
S11317000E94DD29892B59F5033011051CF002E0F4
S113171010E0A5C00E94C90FBC01990F880B990B5A
S11317200E9458239F938F937F936F9388E792E04F
S11317309F938F938E010F5F1F4F1F930F930E94F0
S1131740352A1F930F938DE792E09F938F930E9406
S1131750D4190FB6F894DEBF0FBECDBF82C00330DC
S113176011050CF471C0043011050CF070C0F701C0
S1131770848195810E94DC287C01F1E0F81708F44B
S113178069C06EE972E0C6010E94DD298C01892BD3
S113179051F58E2D0E94B70FBC01990F880B990B40
S11317A00E9458239F938F937F936F9388E792E0CF
S11317B09F938F939E012F5F3F4F69013F932F9318
S11317C00E94352ADF92CF92FF24FF92EF9282EAA1
S11317D092E09F938F930E94D4190FB6F894DEBFC2
S11317E00FBECDBF3CC06BEC72E0C6010E94DD2988
S11317F08C01892B91F58E2D0E94C00FBC01990F8D
S1131800880B990B0E9458239F938F937F936F9318
S113181088E792E09F938F93FE0131966F01FF93C7
S1131820EF930E94352ADF92CF92FF24FF92EF922A
S113183083ED92E09F938F930E94D4190FB6F8948E
S1131840DEBF0FBECDBF0BC003E010E008C002E056
S113185010E005C004E010E002C004E010E0802FB6
S1131860912F0F900F900F900F900F90DF91CF91C9
S11318701F910F91FF90EF90DF90CF9008950F93F9
S11318801F93CF93DF93833091054CF1049754F564
S1131890EB018A819B810E94DC288C01843028F52D
S11318A08C819D810E94DC28C82FD92F682F792F25
S11318B0802F0E944212DF93CF9311271F930F931F
S11318C08FEF92E09F938F930E94D4190F900F9003
S11318D00F900F900F900F9080E090E008C083E08D
S11318E090E005C082E090E002C084E090E0DF91E7
S11318F0CF911F910F9108958230910574F0039751
S11319007CF4FB01828193810E94DC28853058F4A9
S11319100E94CE0F80E090E0089583E090E0089567
S113192082E090E0089584E090E008950F931F937F
S1131930CF93DF93823091054CF1039754F5FB016B
S1131940028113816DEA75E0C8010E94DD29EC0172
S1131950892B91F480E00E94E10F81E00E94E10F65
S113196082E00E94E10F80E293E09F938F930E94B4
S1131970D4190F900F9012C0C8010E94DC28853042
S113198058F40E94E10FC0E0D0E008C0C3E0D0E00A
S113199005C0C2E0D0E002C0C4E0D0E0CE01DF91D7
S11319A0CF911F910F910895CF9382309105C4F088
S11319B00397CCF4FB01828193810E94DC2883305D
S11319C0A8F4C82FCC0F8C2F0E9416128C2F0E94C3
S11319D0E10F81E08C0F0E94E10F80E090E008C0ED
S11319E083E090E005C082E090E002C084E090E0F3
S11319F0CF910895823091057CF0039784F4FB0124
S1131A00828193810E94DC28833060F4880F0E94D5
S1131A10F50F80E090E0089583E090E0089582E07F
S1131A2090E0089584E090E0089502972CF40E94D9
S1131A304B1280E090E0089582E090E0089580E009
S1131A400E94B70F9F938F9387E393E09F938F93A5
S1131A500E94D41981E00E94B70F9F938F938FE562
S1131A6093E09F938F930E94D4190E944B128DB7D9
S1131A709EB708960FB6F8949EBF0FBE8DBF80E048
S1131A8090E0089502972CF40E94FA1280E090E00E
S1131A90089582E090E0089502972CF40E94FE12CB
S1131AA080E090E0089582E090E008950F931F9302
S1131AB0CF93DF9384309105DCF00597E4F4EB01D8
S1131AC08C819D810E94DC28082F8A819B810E9441
S1131AD0DC28182F8E819F810E94DC28143070F43A
S1131AE0AC01602F812F0E94091080E090E008C0B3
S1131AF083E090E005C082E090E002C084E090E0E2
S1131B00DF91CF911F910F910895CF93DF9382308E
S1131B10910504F103970CF5FB01828193810E94E6
S1131B20DC28EC018330E0F40E9439129F938F93F8
S1131B30DD27DF93CF9387E893E09F938F930E94F1
S1131B40D4190F900F900F900F900F900F9080E08A
S1131B5090E008C083E090E005C082E090E002C01D
S1131B6084E090E0DF91CF9108950F931F93CF937A
S1131B70DF9384309105CCF00597D4F4EB018A818E
S1131B809B810E94DC28182F8C819D810E94DC2877
S1131B90082F8E819F810E94DC28482F602F812F7F
S1131BA00E94122080E090E005C083E090E002C033
S1131BB082E090E0DF91CF911F910F9108950297F9
S1131BC0CCF40E9428201F928F931F927F931F9220
S1131BD06F9384EA93E09F938F930E94D4198DB7F7
S1131BE09EB708960FB6F8949EBF0FBE8DBF80E0D7
S1131BF090E0089582E090E00895CF93DF938230DF
S1131C0091052CF1039734F5EB018A819B810E94A5
S1131C10DC28853648F086ED93E09F938F930E94ED
S1131C20D4190F900F9084E60E94CE0E8B818F936F
S1131C308A818F9387E094E09F938F930E94D419B5
S1131C400F900F900F900F9080E090E005C083E01C
S1131C5090E002C082E090E0DF91CF910895029776
S1131C608CF40E94D60E1F928F9389E294E09F9386
S1131C708F930E94D4190F900F900F900F9080E0D3
S1131C8090E0089582E090E0089502972CF40E9479
S1131C90D10980E090E0089582E090E008950F93E8
S1131CA01F93CF93DF93CDB7DEB7E2970FB6F894C7
S1131CB0DEBF0FBECDBF029744F5E6E5FCE08785A5
S1131CC08F9386858F9385858F9384858F9389E4FD
S1131CD094E09F938F938E010F5F1F4F1F930F9379
S1131CE00E94352AF80101900020E9F73197BF01DD
S1131CF0601B710BC8010E9438150FB6F894DEBF43
S1131D000FBECDBF80E090E002C082E090E0E2969A
S1131D100FB6F894DEBF0FBECDBFDF91CF911F91F8
S1131D200F91089568E071E087E091E00E94AC2093
S1131D3008950F931F93CF93DF93C2E2D4E00EE391
S1131D401BE0CE010E945115CF5BDF4FC017D107B6
S1131D50C1F78EE492E00E942915DF91CF911F9183
S1131D600F9108950E94FD140E9463159093A80B8F
S1131D708093A70B80E8E7E2FBE0DF011D928A95E0
S1131D80E9F71092260B87E594E00E9429158AEB67
S1131D9098E00E9429150E94990E0895CF93C82FA8
S1131DA00E942613C093A90BCF9108958091A90B8B
S1131DB008956AE088E39CE00E94CD1F089567E9D6
S1131DC071E086E991E00E94AC200895E2E6F0E03B
S1131DD08081846080830895E091AB0BF091AC0B1B
S1131DE08081882319F08130C9F108958091AA0B6C
S1131DF080FF1AC080E00E949F20882309F445C018
S1131E00EAEAFBE080818E7F80830E94E60EE2E6B0
S1131E10F0E080818860808344EF51E060E070E00E
S1131E2080E00E949420089580E00E949F208823EF
S1131E3061F1EAEAFBE0808181608083E2E6F0E020
S1131E4080818B7F80838081877F808344EF51E012
S1131E5060E070E080E00E94942008958091AA0BD5
S1131E6080FF13C080E00E949F20882371F0EAEA7B
S1131E70FBE080818E7F80830E94E60E48EB5BE06E
S1131E8060E070E080E00E9494200895CF93DF9397
S1131E90E1E6F0E0808184608083C2E6D0E088815E
S1131EA08B7F88838081886080838881877F888313
S1131EB0EAEAFBE080818E7F8D7F808384EC9EE064
S1131EC0928381830E94E60E888188608883DF91F3
S1131ED0CF9108956EE971E08DE991E00E94AC2004
S1131EE008950E94460F0E94B20E0E9468150E9437
S1131EF004130E943E100E940A200E94C7090E94F7
S1131F009B0F0E9474200E946A0F0E94920E0E94EE
S1131F1007130E94A70F0E94DF0E0E94CA090E94A5
S1131F20A00F0E94AD210E94B021FDCF86E59CE068
S1131F300E94931D089586E59CE00E94AB1B0895C2
S1131F4065EA71E084EA91E00E94AC20089568EDAE
S1131F5071E087ED91E00E94AC200895E62FF0E057
S1131F60EE0FFF1FE754FE4F918380830895E82FFF
S1131F70F0E0EE0FFF1FE555FE4F8081918108953B
S1131F80E82FF0E0EE0FFF1FED54FE4F80819181AA
S1131F9008958091B7019091B8010895CF93C82F07
S1131FA00E943820EBEAF1E0CC0F81E090E002C01F
S1131FB0880F991FCA95E2F7968D892B868FCF914A
S1131FC00895CF93C82F0E945220EBEAF1E0CC0F82
S1131FD081E090E002C0880F991FCA95E2F78095CE
S1131FE0968D8923868FCF910895EBEAF1E090E0F6
S1131FF0880F991F019621E030E0A90102C0440F27
S1132000551F8A95E2F7CA018095968D8923868F9C
S113201008950F93CF93082FC62FCA01A0E0B0E014
S1132020BC01CD01052E5CE0660F771F881F991F48
S11320305A95D1F7502D27EF32E040E050E00E944E
S11320406328C13049F48FE19CE0A0E0B0E0821B3A
S1132050930BA40BB50B06C0DA01C901815E934F43
S1132060AF4FBF4FB695A7959795879521E041E06F
S113207060E00E94DC1ECF910F910895CF930E94DF
S113208012130E942F200E94B01E0E943E13C0E033
S11320908C2F0E94522042E350E061E08C2F0E947A
S11320A00910CF5FC430A1F7CF910895EF92FF924A
S11320B00F931F93CF93DF93F62EE42EC62FD0E019
S11320C08E01000F111F000F111F2091C90130E074
S11320D0002E02C0359527950A94E2F720FD8BC0A7
S11320E0FE01EE0FFF1FE754FE4F408151819A011C
S11320F0225031098217930738F5FF0C8F2D0E9467
S11321003820EBEAF1E081E090E0002E02C0880F75
S1132110991F0A94E2F7968D892B868FEE2009F495
S11321209CC081E08F0D0E943820EBEAF1E00E5F45
S11321301F4F81E090E002C0880F991F0A95E2F7D3
S1132140968D892B868F89C02817390708F085C09A
S1132150FE01EE0FFF1FE555FE4F20813181281748
S1132160390730F0425E5F4F4817590708F075C0D1
S1132170FE01EE0FFF1FE255F44F8081918101961D
S113218091838083853F914008F467C0FE01E55543
S1132190FE4F10A6FE01EE0FFF1FE255F44F118211
S11321A010828091AD0B882361F01F92FF9287E625
S11321B09AE09F938F930E94D4190F900F900F90E1
S11321C00F90CC0FDD1FFF0CFE01EE0FFF1FEF532E
S11321D0FE4F4081518160E08F2D0E940910CC0F89
S11321E0DD1FCD53DE4F4881598160E081E08F0DC2
S11321F00E94091032C0CC0FDD1FC754DE4F288166
S113220039812E5F3F4F2817390738F5FF0C8F2D82
S11322100E945220EBEAF1E081E090E0002E02C03F
S1132220880F991F0A94E2F78095968D8923868FEB
S1132230EE2099F081E08F0D0E945220EBEAF1E04C
S11322400E5F1F4F81E090E002C0880F991F0A952E
S1132250E2F78095968D8923868FDF91CF911F9128
S11322600F91FF90EF900895EF92FF920F931F93B9
S1132270CF93DF93F62EE42EC62FD0E08E01000F0D
S1132280111F000F111F2091C90130E0002E02C060
S1132290359527950A94E2F720FD8FC0FE01EE0FD5
S11322A0FF1FE754FE4F20813181A9014E5F5F4F2C
S11322B04817590738F5FF0C8F2D0E943820EBEA98
S11322C0F1E081E090E0002E02C0880F991F0A948B
S11322D0E2F7968D892B868FEE2009F4A0C081E069
S11322E08F0D0E943820EBEAF1E00E5F1F4F81E072
S11322F090E002C0880F991F0A95E2F7968D892B0A
S1132300868F8DC0A901425051098417950708F0A2
S113231086C0FE01EE0FFF1FE555FE4F408151813F
S11323208417950730F02E5131098217930708F06E
S113233076C0FE01EE0FFF1FE255F44F80819181BC
S1132340019691838083853F914008F468C081E0C1
S1132350FE01E555FE4F80A7FE01EE0FFF1FE2557B
S1132360F44F118210828091AD0B882361F01F928B
S1132370FF9284E99AE09F938F930E94D4190F905F
S11323800F900F900F90CC0FDD1FFF0CFE01EE0F8E
S1132390FF1FEF53FE4F4081518161E08F2D0E945A
S11323A00910CC0FDD1FCD53DE4F4881598161E008
S11323B081E08F0D0E94091032C0CC0FDD1FC7547D
S11323C0DE4F28813981225031098217930738F56D
S11323D0FF0C8F2D0E945220EBEAF1E081E090E0A7
S11323E0002E02C0880F991F0A94E2F78095968DFB
S11323F08923868FEE2099F081E08F0D0E94522070
S1132400EBEAF1E00E5F1F4F81E090E002C0880F1D
S1132410991F0A95E2F78095968D8923868FDF911F
S1132420CF911F910F91FF90EF900895282F30E0E6
S1132430EBEAF1E0B901660F771F6F5F7F4F41E070
S113244050E002C0440F551F6A95E2F7968D492B60
S1132450468F220F331FF901EF53FE4F4081518104
S1132460E82FE695F0E0E555FE4F60A50E940910BF
S11324700895E82FF0E0EE0FFF1FE754FE4F808130
S113248091810895E82FF0E0EE0FFF1FEF53FE4F08
S11324907183608308951F93CF93DF93CBEAD1E0D8
S11324A01E8D8B818F938A818F9389818F938881ED
S11324B08F9381EC9AE09F938F930E94D41989891A
S11324C08F9388898F938F858F938E858F9389A51A
S11324D01F928F9388A51F928F9316FB882780F9EC
S11324E01F928F9314FB882780F91F928F9312FBFE
S11324F0882780F91F928F9311701F921F938AEC83
S11325009AE09F938F930E94D4198DB79EB74896F3
S11325100FB6F8949EBF0FBE8DBFDF91CF911F9170
S11325200895EF92FF920F931F93CF93DF9380E070
S11325300E946F1F7C0181E00E946F1F8C018091BB
S1132540C90181FF0FC08091D301813031F441E092
S113255060E0C7010E94561005C041E060E0C70179
S11325600E9434118091C90185FF0FC08091D4016C
S1132570813031F441E061E0C8010E94561005C089
S113258041E061E0C8010E943411CBEAD1E0F98254
S1132590E8821B830A8380E00E94C81F998788878A
S11325A081E00E94C81F9B878A8760915A0C7091B2
S11325B05B0C80915C0C90915D0C0E9420237D87C4
S11325C06C8781E00E949F20882369F08091AD0B85
S11325D0882349F048EE53E060E070E081E00E9417
S11325E094200E944B12DF91CF911F910F91FF9085
S11325F0EF90089581E08093AD0B08951092AD0B98
S113260008950E94712008950E946C2008956FED32
S113261071E08EED91E00E94E0208091DE010E9445
S11326201121089517B886B1876886B9089597B1BE
S1132630907F97B997B18F70982B97B9369A36993E
S1132640FECF84B125B190E0922B089526B537B51D
S1132650482F429FC001439F900D1124BC0180E08C
S113266090E00E9456232AE037ED43E25CE30E94A7
S113267034240E94272379BD68BD0895B89AC09A6E
S113268087B3866087BBBB988DB181658DB908958A
S11326908FB9779BFECF8FB1089583B7846083BFD2
S11326A087B7826087BF7894089583B7886083BFB3
S11326B012BE8CE781BF089584E980937400E4E737
S11326C0F0E0808184FDFDCF80E0089584EA80936A
S11326D07400E4E7F0E080818823ECF7089584E94E
S11326E080937400E4E7F0E0808184FDFDCF0895D9
S11326F08093730084E880937400E4E7F0E08081C1
S11327008823ECF7089584EC80937400E4E7F0E008
S113271080818823ECF780917300089584E8809386
S11327207400E4E7F0E080818823ECF78091730083
S1132730089585EC809374001092E10B08951F9224
S11327400F920FB60F9211242F933F934F935F93E1
S11327506F937F938F939F93AF93BF93EF93FF9365
S113276080917100E82FE87F8E2F90E0893C9105DD
S113277008F0F5C0FC01EA5BFF4F0C9485288091BA
S1132780E00B8093730085E880937400E8C0909117
S1132790D10B8091D00B981780F4E091D10B81E09C
S11327A08E0F8093D10BF0E0EE52F44F8081809332
S11327B0730085EC80937400D2C08091DF0B882372
S11327C019F00E946F13CBC081E08093DE0B84EA82
S11327D0809374001092E10BC2C080E28093B20B2C
S11327E00E946F13BCC080E38093B20B0E946F13EE
S11327F0B6C088E38093B20B0E949913B0C0E091F5
S1132800C70B81E08E0F8093C70B80917300F0E0BB
S1132810E853F44F80839091C70B8091C60B9817AF
S113282020F485EC809374009AC085E8809374004A
S113283096C0E091C70B81E08E0F8093C70B809107
S11328407300F0E0E853F44F80838091DF0B88231A
S113285019F00E946F1383C081E08093DE0B84EA39
S1132860809374001092E10B7AC00E946F1377C0BA
S113287083E08093E10B1092B30B85EC809374009A
S11328806EC08091B30B883080F4E091B30B81E08B
S11328908E0F8093B30B80917300F0E0EC54F44FEF
S11328A0808385EC809374005AC085E8809374001B
S11328B056C00E9499138091B30B883030F4E09194
S11328C0B30BF0E0EC54F44F10826091B30B70E062
S11328D0E091DA0BF091DB0B84EB9BE0099510920D
S11328E0B30B3DC085E88093740039C084E08093C5
S11328F0E10B1092BD0B1092BC0BE091DC0BF0913C
S1132900DD0B09958091BC0B811105C081E080939A
S1132910BC0B1092BE0BE091BD0B81E08E0F809337
S1132920BD0BF0E0E254F44F8081809373009091EA
S1132930BD0B8091BC0B981720F485EC8093740038
S11329400EC085E8809374000AC085EC80937400FF
S11329501092E10B04C01092B20B0E946F13FF910E
S1132960EF91BF91AF919F918F917F916F915F9103
S11329704F913F912F910F900FBE0F901F9018957C
S11329802FB7F894FC01E058FF4F10823196108263
S1132990319610822FBF08958E579F4FFC0190816E
S11329A081E0911180E00895FB01E058FF4F908190
S11329B0DB01A90FB11D8C939FB7F89480818F5FC1
S11329C08F778083329680818F5F80839FBF089545
S11329D0FC01EF57FF4F2081DC01A20FB11D3C9198
S11329E04FB7F89420812F5F2F7720833196908101
S11329F0915090834FBF832F08958091E601909169
S1132A00E7018D579F4F0E94C0148091E601909179
S1132A10E7010E94C0141092900083E389B98AB13F
S1132A2088698AB9E5E9F0E08081866080837894DA
S1132A3008956091E6017091E701FB01EB5FFE4FA1
S1132A4090819038E9F36D577F4F0E94D414559AC2
S1132A500895CF93DF93EC018881882331F0219688
S1132A600E94191589918111FBCFDF91CF910895AF
S1132A700F931F93CF93DF93662371F0EC016150A2
S1132A80062F10E00F5F1F4F080F191F89910E9436
S1132A901915C017D107D1F7DF91CF911F910F916D
S1132AA00895CF93DF93EC012196FC018491882350
S1132AB039F00E941915FE01849121968111F9CFF4
S1132AC0DF91CF9108958091E6019091E7010895F7
S1132AD08091E4019091E5018D579F4F0E94C014AD
S1132AE08091E4019091E5010E94C0141092980035
S1132AF083E380939900EAE9F0E080818869808328
S1132B00EDE9F0E080818660808308951F920F9242
S1132B100FB60F9211242F933F934F935F936F93AC
S1132B207F938F939F93AF93BF93EF93FF938CB156
S1132B306091E6017091E701FB01EE57FF4F908130
S1132B40903871F00E94D414E091E601F091E7010D
S1132B508BB18C7190E0EA5FFE4F9183808309C052
S1132B608BB18C71816090E0FB01EA5FFE4F918331
S1132B708083FF91EF91BF91AF919F918F917F914E
S1132B806F915F914F913F912F910F900FBE0F90D6
S1132B901F9018951F920F920FB60F9211242F9326
S1132BA03F934F935F936F937F938F939F93AF93D1
S1132BB0BF93EF93FF938091E6019091E701FC01AD
S1132BC0EB5FFE4F2081222331F08D579F4F0E94EF
S1132BD0E8148CB901C05598FF91EF91BF91AF9162
S1132BE09F918F917F916F915F914F913F912F9121
S1132BF00F900FBE0F901F9018951F920F920FB653
S1132C000F9211242F933F934F935F936F937F936E
S1132C108F939F93AF93BF93EF93FF9380919C0007
S1132C206091E4017091E501FB01EE57FF4F908143
S1132C30903879F00E94D414E091E401F091E50118
S1132C4080919B008C7190E0EA5FFE4F91838083BA
S1132C500AC080919B008C7190E09160FB01EA5F57
S1132C60FE4F91838083FF91EF91BF91AF919F912C
S1132C708F917F916F915F914F913F912F910F9021
S1132C800FBE0F901F9018951F920F920FB60F92C0
S1132C9011242F933F934F935F936F937F938F935D
S1132CA09F93AF93BF93EF93FF938091E40190912F
S1132CB0E501FC01EB5FFE4F2081222339F08D57A3
S1132CC09F4F0E94E81480939C0005C0EAE9F0E05D
S1132CD080818F7D8083FF91EF91BF91AF919F9110
S1132CE08F917F916F915F914F913F912F910F90B1
S1132CF00FBE0F901F9018952F923F924F925F92A4
S1132D006F927F928F929F92AF92BF92CF92DF92F7
S1132D10EF92FF920F931F93CF93DF93CDB7DEB75C
S1132D20AA970FB6F894DEBF0FBECDBF8C017AA769
S1132D3069A76E0189E1C80ED11C2C2C3D2C17C348
S1132D4019821A821B821C8289819A81AB81BC817F
S1132D50F801E80FF91F8081853249F189819A8150
S1132D60AB81BC81F801E80FF91F80818823F9F059
S1132D7089819A81AB81BC810196A11DB11D898392
S1132D809A83AB83BC8389819A81AB81BC81F8012E
S1132D90E80FF91F8081853251F089819A81AB81D6
S1132DA0BC81F801E80FF91F80818111E1CF6981AD
S1132DB07A818B819C81C8010E94381589819A810E
S1132DC0AB81BC81080F191FD8018C91853209F0A1
S1132DD0CEC211961D861E861F86188A6894FF240B
S1132DE0F5F88D010F5F1F4F2C91422F022E000C1E
S1132DF0550B660B770BFA01B597E435F10508F02E
S1132E00ABC2E15FFE4F0C948528203361F48D85BD
S1132E109E85AF85B889892B8A2B8B2B21F40F2EA5
S1132E20F0E3FF2EF02D8D859E85AF85B889880F40
S1132E30991FAA1FBB1FAC01BD01440F551F661F7C
S1132E40771F440F551F661F771F840F951FA61FFA
S1132E50B71F8D879E87AF87B88B4D855E856F853D
S1132E607889022E000C330BC901C097092E000C7F
S1132E70AA0BBB0B840F951FA61FB71F8D879E87B8
S1132E80AF87B88BD801ADCFE9A4FAA4B4E0EB0EB8
S1132E90F11CE9A5FAA580819181A281B3818D837A
S1132EA09E83AF83B88761E0CE0105960E943815F2
S1132EB0FAA6E9A65CC229A53AA52E5F3F4FA9A5AB
S1132EC0BAA58D919C91A0E0B0E08D839E83AF83E1
S1132ED0B88719861A861B861C868D819E81AF81D0
S1132EE0B885BB23C4F48D819E81AF81B885B0952C
S1132EF0A095909581959F4FAF4FBF4F8D839E8333
S1132F00AF83B88781E090E0A0E0B0E08D8B9E8B2A
S1132F10AF8BB88F04C01D8A1E8A1F8A188E8AE060
S1132F2090E0A0E0B0E0898B9A8BAB8BBC8B3AA786
S1132F3029A7BCC0E9A4FAA492E0E90EF11CA9A552
S1132F40BAA58D919C9119821A821B821C82498197
S1132F505A816B817C81FC01E40FF51F20812223BF
S1132F60B1F049815A816B817C814F5F5F4F6F4F14
S1132F707F4F49835A836B837C8349815A816B8158
S1132F807C81FC01E40FF51F20812111EACF4981E6
S1132F905A816B817C81642F0E9438154D855E8532
S1132FA06F85788989819A81AB81BC818417950763
S1132FB0A607B70708F0D6C149815A816B817C8185
S1132FC08D859E85AF85B889841B950BA60BB70BA1
S1132FD08D879E87AF87B88B8D859E85AF85B88991
S1132FE0AC01BD0141505109610971094D875E87EA
S1132FF06F87788B892B8A2B8B2B09F4B6C161E000
S113300089EC94E00E9438158D859E85AF85B8893A
S1133010AC01BD0141505109610971094D875E87B9
S11330206F87788B892B8A2B8B2B49F7FAA6E9A615
S11330309EC1E9A5FAA580819181A0E0B0E08D83CD
S11330409E83AF83B88719861A861B861C868AE0FE
S113305090E0A0E0B0E0898B9A8BAB8BBC8B1D8A8F
S11330601E8A1F8A188E3296FAA7E9A71FC0A9A53F
S1133070BAA58D919C91A0E0B0E08D839E83AF832F
S1133080B88719861A861B861C8680E190E0A0E02A
S1133090B0E0898B9A8BAB8BBC8B1D8A1E8A1F8AEE
S11330A0188EA9A5BAA51296BAA7A9A781E090E09F
S11330B0A0E0B0E089839A83AB83BC8329813A8101
S11330C04B815C8169897A898B899C898D809E80FA
S11330D0AF80B8840E94532886169706A806B906BE
S11330E068F548C029893A894B895C8969817A8164
S11330F08B819C810E94532869837A838B839C8370
S11331008D859E85AF85B8890197A109B1098D8701
S11331109E87AF87B88B29813A814B815C8169890D
S11331207A898B899C898D809E80AF80B8840E9427
S1133130532886169706A806B906E0F029813A8135
S11331404B815C8169897A898B899C8949885A88F1
S11331506B887C8889809A80AB80BC800E945328CD
S1133160A30192010E946328281539054A055B05CD
S113317009F4B8CF8D899E89AF89B88D892B8A2BA4
S11331808B2B59F08D859E85AF85B8890197A10950
S1133190B1098D879E87AF87B88B8D899E89AF894A
S11331A0B88D892B8A2B8B2BD1F090E3F91217C0A1
S11331B089859A85AB85BC85AC01BD014F5F5F4FA6
S11331C06F4F7F4F49875A876B877C87F601E80FDB
S11331D0F91FADE2A0831D8A1E8A1F8A188E8D8571
S11331E09E85AF85B8890297A105B10508F440C052
S11331F08D859E85AF85B8894097A105B105C0F539
S11332008D859E85AF85B8890197A109B1098D8700
S11332109E87AF87B88B8D859E85AF85B889892BAE
S11332208A2B8B2B29F189859A85AB85BC85AC01CA
S1133230BD014F5F5F4F6F4F7F4F49875A876B8741
S11332407C87F601E80FF91FF0828D859E85AF8596
S1133250B8890197A109B1098D879E87AF87B88B7B
S11332608D859E85AF85B889892B8A2B8B2BD9F6C2
S11332708D899E89AF89B88D892B8A2B8B2B99F0E8
S113328089859A85AB85BC85AC01BD014F5F5F4FD5
S11332906F4F7F4F49875A876B877C87F601E80F0A
S11332A0F91FBDE2B08389819A81AB81BC81892BEE
S11332B08A2B8B2B09F442C049845A846B847C8406
S11332C0B301A2014F5F5F4F6F4F7F4F49875A870A
S11332D06B877C876D817E818F81988529813A8176
S11332E04B815C8189889A88AB88BC887601E40C20
S11332F0F51C0E946328CA01B901A50194010E942A
S11333006328FB01EC51F54F8081F7018083298903
S11333103A894B895C8969817A818B819C810E947D
S1133320632829833A834B835C8389819A81AB81A7
S1133330BC81892B8A2B8B2B09F0BECF69857A85BA
S11333408B859C85822D932D0E94381510C061E0D9
S1133350CD010E9438150BC065E085EF9AE00E940C
S1133360381505C0FAA6E9A602C0FAA6E9A6D8014E
S11333708C918111E5CCAA960FB6F894DEBF0FBEEE
S1133380CDBFDF91CF911F910F91FF90EF90DF9010
S1133390CF90BF90AF909F908F907F906F905F90F1
S11333A04F903F902F900895CF93DF93CDB7DEB722
S11333B0BE016B5F7F4FFB0181919191BF010E9420
S11333C07C16DF91CF910895CF92DF92EF92FF9216
S11333D00F931F93CF93DF93CDB7DEB765970FB6E7
S11333E0F894DEBF0FBECDBF6C010E9466138EEE53
S11333F00E94781381E30E9478130E9466138FEE73
S11334000E9478138E010F5F1F4F7E0185E1E80E45
S1133410F11C0E948313F80181938F01EE15FF05BF
S1133420C1F70E948E132A8130E0322F222799811E
S1133430292BF601328B218B2C8130E0322F22276D
S11334409B81292B348B238B9D81958B2F8130E09D
S1133450322F22279E81292B378B268B298530E01A
S1133460322F22279885292B318F208F9A85928F8E
S11334709B85938F2D8530E0322F22279C85292B25
S1133480358F248F2F8530E0322F22279E85292BDC
S1133490378F268F988990A3998991A32B8930E03F
S11334A0322F22279A89292B33A322A39C8994A300
S11334B085A30E946F1365960FB6F894DEBF0FBE06
S11334C0CDBFDF91CF911F910F91FF90EF90DF90CF
S11334D0CF9008950F931F93CF93DF93EC016989E5
S11334E07A8980E090E00E94562320E030E040E8B2
S11334F053E40E9434246EA37FA388A799A76B8901
S11335007C8980E090E00E94562320E030E040E88F
S113351050E30E9434246AA77BA78CA79DA76D89DA
S1133520062E000C770B880B990B0E94582320E081
S113353030E040E857E20E9434246EA77FA788ABAE
S113354099AB6E897F897054072E000C880B990BF8
S11335500E94582320E030E040E855E30E943424E0
S11335606AAB7BAB8CAB9DAB688D798D7054072EA9
S1133570000C880B990B0E94582320E030E040E0B7
S113358051E30E9434246EAB7FAB88AF99AF6A8D50
S1133590062E000C770B880B990B0E94582320E011
S11335A030E040E85FE20E9434246AAF7BAF8CAF26
S11335B09DAF8E01025C1F4F6B8D062E000C770BA6
S11335C0880B990B0E94582320E030E040E05DE234
S11335D00E943424F80160837183828393830C5F97
S11335E01F4F6C8D7D8D80E090E00E94562320E07B
S11335F030E040E051E40E943424F8016083718398
S1133600828393830C5F1F4F6E8D7F8D80E090E0EB
S11336100E94562320E030E040E85CE30E9434241A
S1133620F80160837183828393830C5F1F4F68A1C9
S1133630062E000C770B880B990B0E94582320E070
S113364030E040E85BE30E943424F8016083718336
S1133650828393830C5F1F4F69A1062E000C770BA6
S1133660880B990B0E94582320E030E040E058E397
S11336700E943424F80160837183828393830C5FF6
S11336801F4F6AA17BA180E090E00E94562320E0B6
S113369030E040E857E20E943424F80160837183EB
S11336A0828393830C5F1F4F6CA1062E000C770B53
S11336B0880B990B0E94582320E030E040E857E241
S11336C00E943424F80160837183828393830C5FA6
S11336D01F4F6DA1062E000C770B880B990B0E94CF
S11336E0582320E030E040E05FE10E943424F801F8
S11336F06083718382839383DF91CF911F910F91B4
S11337000895CF93C82F0E9466138EEE0E947813FB
S11337108BE10E9478130E9466138FEE0E94781347
S11337200E948E1390E1C99F900111248F7CC82FB1
S1133730C22B0E946F130E9466138EEE0E947813B0
S11337408BE10E9478138C2F83600E9478130E946F
S11337506F13CF910895CF93DF93EC0183E00E9420
S1133760811BCE010E94E419CE010E946A1ADF91E6
S1133770CF910895CF92DF92EF92FF920F931F9310
S1133780CF93DF9300D000D000D0CDB7DEB77C015B
S11337900E9466138EEE0E94781384E00E947813D0
S11337A00E9466138FEE0E9478138E010F5F1F4FE5
S11337B06E0186E0C80ED11C0E948313F801819328
S11337C08F01EC15FD05C1F70E948E139B814A8180
S11337D050E060E070E0762F652F542F4427692B6A
S11337E09981492B0D8110E020E030E0322F212F08
S11337F0102F00279C81092B282BF70100831183AC
S11338002283338340875187628773870E946F13B3
S113381026960FB6F894DEBF0FBECDBFDF91CF91D1
S11338201F910F91FF90EF90DF90CF9008958F92AA
S11338309F92AF92BF92CF92DF92EF92FF92CF937B
S1133840DF93EC01688179818A819B810E945823EE
S11338502EA13FA148A559A50E9441226B017C01DC
S11338609B01AC010E9434242EA53FA548A959A967
S11338700E9434244B015C012AA53BA54CA55DA5FF
S1133880C701B6010E9434249B01AC01C501B401F7
S11338900E94422220E030E040E251E40E943424BD
S11338A06C837D838E839F83DF91CF91FF90EF9014
S11338B0DF90CF90BF90AF909F908F9008954F92DC
S11338C05F926F927F928F929F92AF92BF92CF92AC
S11338D0DF92EF92FF920F931F93CF93DF93CDB7B5
S11338E0DEB762970FB6F894DEBF0FBECDBF9A8BDA
S11338F0898BFC014480558066807780A301920106
S1133900C301B2010E9434246B017C019B01AC0110
S1133910C301B2010E9434246D837E838F83988710
S1133920E989FA8960857185828593850E94582387
S113393069837A838B839C839B01AC010E9434242A
S113394069877A878B879C87E989FA8926A937A9A9
S113395040AD51ADC301B2010E943424E989FA8912
S113396022A933A944A955A90E9442224B015C0112
S1133970E989FA8922AD33AD44AD55ADC701B6012D
S11339800E9434249B01AC01C501B4010E9442226F
S11339904B015C01E989FA89FE96208131814281DB
S11339A053816D817E818F8198850E9434249B018F
S11339B0AC01C501B4010E94422229813A814B81A4
S11339C05C810E9434244B015C01E989FA89EA5B39
S11339D0FF4F2081318142815381C301B2010E9492
S11339E03424E989FA89EE5BFF4F208131814281D9
S11339F053810E9442226D877E878F87988BE98945
S1133A00FA89E65BFF4F2081318142815381C701EE
S1133A10B6010E9434249B01AC016D857E858F859F
S1133A2098890E9442226B017C01E989FA89E25B50
S1133A30FF4F20813181428153816D817E818F814D
S1133A4098850E9434249B01AC01C701B6010E94F1
S1133A5042229B01AC01C501B4010E9442226B01C8
S1133A607C01E989FA89EE5AFF4FA989BA89AA5AD1
S1133A70BF4F2D913D914D915C9160817181828107
S1133A8093810E943424A30192010E943424298545
S1133A903A854B855C850E9434244B015C0109897D
S1133AA01A89065A1F4F29853A854B855C85698199
S1133AB07A818B819C810E943424F8012081318198
S1133AC0428153810E9434249B01AC01C501B4019D
S1133AD00E9442229B01AC01C701B6010E9442220E
S1133AE020E030E040E251E40E943424E989FA897C
S1133AF0648775878687978762960FB6F894DEBFCA
S1133B000FBECDBFDF91CF911F910F91FF90EF902A
S1133B10DF90CF90BF90AF909F908F907F906F90E9
S1133B205F904F900895CF93DF93EC010E94AB1BFD
S1133B30CE010E94BA1BCE010E94171CCE010E9426
S1133B405F1CDF91CF910895CF93DF93D82FC62FB9
S1133B500E94661384ED0E9478138D2F0E947813BF
S1133B608C2F0E9478130E946F13DF91CF910895D8
S1133B70CF93C82F0E94661384ED0E9478138C2F74
S1133B800E9478130E94661385ED0E9478130E94A8
S1133B908E13C82F0E945C138C2FCF91089560E47C
S1133BA080E10E94A41D60E481E10E94A41D0895A7
S1133BB0CF92DF92EF92FF920F931F93CF93DF93F5
S1133BC0EC0188E20E94B81DE82E89E20E94B81D2B
S1133BD0C82E8AE20E94B81D082F8BE20E94B81DED
S1133BE0D82E8CE20E94B81D182F8DE20E94B81DB9
S1133BF0F82E6E2D70E07C29072E000C880B990B93
S1133C000E94582323E23BED49E75DE30E943424FC
S1133C10688379838A839B83602F70E07D29072ED4
S1133C20000C880B990B0E94582323E23BED49E7D3
S1133C305DE30E9434246C837D838E839F83612F94
S1133C4070E07F29072E000C880B990B0E945823E3
S1133C5023E23BED49E75DE30E94342468877987DA
S1133C608A879B87DF91CF911F910F91FF90EF90EF
S1133C70DF90CF900895CF92DF92EF92FF920F934F
S1133C801F93CF93DF93EC0182E20E94B81DE82ECC
S1133C9083E20E94B81DC82E84E20E94B81D082F3A
S1133CA08BE20E94B81DD82E8CE20E94B81D182FFA
S1133CB08DE20E94B81DF82E6E2D70E07C29072E2F
S1133CC0000C880B990B0E94582320E030E04CE054
S1133CD051E40E94342420E030E04AE754E40E9496
S1133CE0AE22688379838A839B83602F70E07D2969
S1133CF0072E000C880B990B0E94582320E030E01B
S1133D004CE051E40E94342420E030E04AE754E4DB
S1133D100E94AE226C837D838E839F83612F70E02B
S1133D207F29072E000C880B990B0E94582320E052
S1133D3030E04CE051E40E94342420E030E04AE7D3
S1133D4054E40E94AE22688779878A879B87DF9133
S1133D50CF911F910F91FF90EF90DF90CF90089536
S1133D60BC9A8E9AA49AA59A8F9A0E943E1308959B
S1133D70813041F028F0823039F0833039F00895F1
S1133D80C498089596980895AC980895AD980895A8
S1133D90813041F028F0823039F0833039F00895D1
S1133DA0C49A0895969A0895AC9A0895AD9A089580
S1133DB097980895979A0895AF92BF92CF92DF9201
S1133DC0EF92FF920F931F93CF93DF93CDB7DEB79C
S1133DD028970FB6F894DEBF0FBECDBF043008F0AD
S1133DE06CC0122FB42EA62E6C01802F0E94B81E18
S1133DF0E02EF12CC6019F70F701EE0FFF1F21E0AA
S1133E0030E02C0F3D1FE20FF31F80839F708181F0
S1133E10807F892B8183AA2049F0F701EE0FFF1FD1
S1133E20E20FF31F81818F7E81830CC0F701EE0FB7
S1133E30FF1F81E090E08C0F9D1FE80FF91F818127
S1133E4080618183BB2069F0F701EE0FFF1F21E041
S1133E5030E02C0F3D1FE20FF31F81818F7D8183A2
S1133E600CC0F701EE0FFF1F81E090E08C0F9D1F47
S1133E70E80FF91F818180628183EE0CFF1CE1E071
S1133E80F0E0EC0FFD1FEE0EFF1EF701818110FB29
S1133E9086F9818381818F77818381810E94481390
S1133EA0F70180810E944813802F0E94C81E0E943F
S1133EB0D81E0E94DA1E80E001C081E028960FB669
S1133EC0F894DEBF0FBECDBFDF91CF911F910F914C
S1133ED0FF90EF90DF90CF90BF90AF9008950E9435
S1133EE01713880F991FFC01E25CF44F859194919C
S1133EF00895BC01660F771F660F771F860F971F03
S1133F00BC0180E090E00E9456239B01AC0160E07C
S1133F1070E583E497E40E94AE2220E030E040E8BC
S1133F2054E40E94342420E030E44CE156E40E943E
S1133F30412220E030E44CE156E40E94AE220E948B
S1133F40EC2320E030EE46E755E40E94AE222FE059
S1133F503FEC4BE55BE30E9442229B01AC0160E035
S1133F6070E080E89FE30E94AE2223E333E948E84F
S1133F7053E40E94412208950E94791F20E030E01A
S1133F8040E251E40E9434240E942023CB0108958E
S1133F900E9417130E94BC1F0895FC01C798BF9A82
S1133FA0F8942FEF260F662309F426C098B3892FBF
S1133FB08F7790680190008007D0029005D001901F
S1133FC00190019001D015C008D007D006D005D0CB
S1133FD004D003D002D001D00895001C909338007F
S1133FE010F0809338000000000010F48093380033
S1133FF00895215008F0DACF78940895E8E3FCE0BE
S113400086E59CE01082118212823396E817F90744
S1134010C9F708950E94FE1F6AE088E39CE00E94AD
S1134020CD1F0895E7EFFEE0808361834283E8E3D8
S1134030FCE026E53CE08083618342833396E2170B
S1134040F307C9F76AE088E39CE00E94CD1F089556
S11340506091F70E7091F80E8091F90E0895E4E6E0
S1134060F0E0808181608083D79AD49AA69A0895DB
S1134070813069F028F0823069F0833071F010C02B
S1134080E5E6F0E080818160808380E00895DF9A36
S113409080E00895DC9A80E00895AE9A80E0089567
S11340A081E00895813069F028F0823069F083302E
S11340B071F010C0E5E6F0E080818E7F808380E0BF
S11340C00895DF9880E00895DC9880E00895AE9824
S11340D080E0089581E00895129A16981E9A1A981D
S11340E008951A9A1A9808951092FB0E1092FA0ED7
S11340F01092010C1092E20B86E3E2E0FCE0DF0197
S11341001D928A95E9F78EE1E3EEFBE0DF011D9253
S11341108A95E9F788E0ECEFFEE0DF011D928A95CD
S1134120E9F70E9455130895823040F4E82FF0E037
S1134130EE0FFF1FE450F14F518340830895E82FA1
S1134140F0E0EE0FFF1FE450F14F2081318181E058
S1134150232B09F080E00895CF93DF93EC01892BA2
S113416039F16115710531F19091010C983020F508
S1134170292F30E0F901EE0FFF1FDF01A20FB31F5B
S1134180AA0FBB1FAE5FB34F15967C936E93149723
S113419011961C92119713961C921E921297FD0170
S11341A081E0808398839F5F9093010C80E005C039
S11341B081E003C081E001C081E0DF91CF910895E7
S11341C0CF93DF93EC01892B21F16115710519F16E
S11341D09091E20B943008F5292F30E0F901EE0FAD
S11341E0FF1FDF01A20FB31FAA0FBB1FAD51B44FB6
S11341F015967C936E9314971C9211961C921197AA
S1134200FD011382128298839F5F9093E20B80E0FA
S113421005C081E003C081E001C081E0DF91CF915E
S113422008959091E20B8917A0F490E0FC01EE0F41
S1134230FF1FDF01A80FB91FAA0FBB1FAD51B44F59
S113424013961C921E921297FD0181E0808380E0F8
S1134250089581E008951F93CF93DF938091FA0E20
S11342609091FB0E01969093FB0E8093FA0E809131
S1134270010C882359F1E2E0FCE0815090E00196C2
S11342809C01220F331F820F931F880F991F8E5F8B
S1134290934F61E0A481B5812C91213099F4208160
S11342A0213081F4228133812F5F3F4F3383228376
S11342B012964D915C9113972417350718F01382C9
S11342C0128261833696E817F90721F74091E20BD1
S11342D0442361F1E3EEFBE080E051E010E0DF0114
S11342E090819130B1F4228133812F5F3F4F33832A
S11342F02283C481D58169817A812617370748F0E2
S1134300518313821282952F2881223009F0912F34
S11343109C938F5F36968413E2CF08C0ECEFFEE0E7
S11343208281938101979383828313C08091FC0ED1
S11343309091FD0E892B39F0ECEFFEE080819181A4
S11343400197918380838091FE0E9091FF0E892BBB
S113435029F7DF91CF911F9108950E944D1308957D
S1134360CF938091010C8823B9F1C0E08C2F90E0A9
S1134370FC01EE0FFF1FE80FF91FEE0FFF1FEE5FAA
S1134380F34F2181213019F5FC01EE0FFF1FE80FD7
S1134390F91FEE0FFF1FEE5FF34F20812130B9F4B8
S11343A0FC01EE0FFF1FDF01A80FB91FAA0FBB1FEF
S11343B0AE5FB34F11961C921197FD010480F581F5
S11343C0E02D0480F581E02D309709F00995CF5F49
S11343D08091010CC81750F28091E20B882359F1A7
S11343E0C0E08C2F90E0FC01EE0FFF1FE80FF91FD7
S11343F0EE0FFF1FED51F44F21812130B9F4FC0180
S1134400EE0FFF1FDF01A80FB91FAA0FBB1FAD518D
S1134410B44F11961C921197FD010480F581E02D93
S11344200380F481E02D309709F00995CF5F8091E6
S1134430E20BC817B0F2CF9108951F920F920FB6F6
S11344400F9211242F933F934F935F936F937F9316
S11344508F939F93AF93BF93EF93FF930E942B216E
S1134460FF91EF91BF91AF919F918F917F916F9148
S11344705F914F913F912F910F900FBE0F901F901E
S113448018955058BB27AA270E9459220C94AA2396
S11344900E949C2338F00E94A32320F039F49F3F0C
S11344A019F426F40C9499230EF4E095E7FB0C948C
S11344B09323E92F0E94BB2358F3BA1762077307AB
S11344C08407950720F079F4A6F50C94DD230EF407
S11344D0E0950B2EBA2FA02D0B01B90190010C0110
S11344E0CA01A0011124FF27591B99F0593F50F428
S11344F0503E68F11A16F040A22F232F342F442780
S1134500585FF3CF469537952795A795F040539577
S1134510C9F77EF41F16BA0B620B730B840BBAF047
S11345209150A1F0FF0FBB1F661F771F881FC2F7B2
S11345300EC0BA0F621F731F841F48F487957795C6
S11345406795B795F7959E3F08F0B0CF9395880F80
S113455008F09927EE0F9795879508950E94C22237
S11345600C94AA230E94A32358F00E949C2340F099
S113457029F45F3F29F00C94932351110C94DE230A
S11345800C9499230E94BB2368F39923B1F3552318
S113459091F3951B550BBB27AA2762177307840752
S11345A038F09F5F5F4F220F331F441FAA1FA9F3E8
S11345B035D00E2E3AF0E0E832D091505040E695D6
S11345C0001CCAF72BD0FE2F29D0660F771F881F37
S11345D0BB1F261737074807AB07B0E809F0BB0B2A
S11345E0802DBF01FF2793585F4F3AF09E3F51053E
S11345F078F00C9493230C94DE235F3FE4F3983E0D
S1134600D4F3869577956795B795F7959F5FC9F726
S1134610880F911D9695879597F90895E1E0660FA7
S1134620771F881FBB1F621773078407BA0720F020
S1134630621B730B840BBA0BEE1F88F7E095089589
S11346400E9427236894B1110C94DE2308950E94DC
S1134650C32388F09F5798F0B92F9927B751B0F02A
S1134660E1F0660F771F881F991F1AF0BA95C9F7F2
S113467014C0B13091F00E94DD23B1E008950C9490
S1134680DD23672F782F8827B85F39F0B93FCCF343
S1134690869577956795B395D9F73EF4909580956F
S11346A0709561957F4F8F4F9F4F0895E89409C08F
S11346B097FB3EF490958095709561957F4F8F4F51
S11346C09F4F9923A9F0F92F96E9BB279395F69567
S11346D0879577956795B795F111F8CFFAF4BB0FE5
S11346E011F460FF1BC06F5F7F4F8F4F9F4F16C049
S11346F0882311F096E911C0772321F09EE8872FD3
S1134700762F05C0662371F096E8862F70E060E08E
S11347102AF09A95660F771F881FDAF7880F969507
S1134720879597F9089597F99F6780E870E060E0AE
S113473008959FEF80EC089500240A941616170636
S113474018060906089500240A941216130614067E
S113475005060895092E0394000C11F4882352F0E1
S1134760BB0F40F4BF2B11F460FF04C06F5F7F4F99
S11347708F4F9F4F089557FD9058440F551F59F080
S11347805F3F71F04795880F97FB991F61F09F3F3A
S113479079F087950895121613061406551FF2CF63
S11347A04695F1DF08C0161617061806991FF1CFB3
S11347B086957105610508940895E894BB276627DA
S11347C07727CB0197F9089516F00C94A1240C9443
S11347D0992368940C9493230E94C323A8F39923E8
S11347E0C1F3AEF3DF93CF931F930F93FF92C92FBF
S11347F0DD2788232AF02197660F771F881FDAF7B1
S113480020E030E040E85FEB9FE3883920F0803E11
S113481038F021968F770E944222E6ECF2E004C041
S11348200E944222E3EFF2E00E94AF248B01BE011A
S1134830EC01FB2E6F5771097595771F880B990B47
S11348400E94582328E132E741E35FE30E944724B2
S1134850AF2D9801AE01FF900F911F91CF91DF9181
S11348600E9459220C94AA230E9447240C94AA2340
S11348700E949C2338F00E94A32320F0952311F07A
S11348800C9493230C94992311240C94DE230E94FA
S1134890BB2370F3959FC1F3950F50E0551F629FA2
S11348A0F001729FBB27F00DB11D639FAA27F00D85
S11348B0B11DAA1F649F6627B00DA11D661F829FAC
S11348C02227B00DA11D621F739FB00DA11D621F91
S11348D0839FA00D611D221F749F3327A00D611DAE
S11348E0231F849F600D211D822F762F6A2F112490
S11348F09F5750409AF0F1F088234AF0EE0FFF1FC3
S1134900BB1F661F771F881F91505040A9F79E3F19
S1134910510580F00C9493230C94DE235F3FE4F361
S1134920983ED4F3869577956795B795F795E7956F
S11349309F5FC1F7FE2B880F911D9695879597F978
S113494008959F3F31F0915020F4879577956795AE
S1134950B795880F911D9695879597F90895DF93DC
S1134960CF931F930F93FF92EF92DF927B018C0101
S1134970689406C0DA2EEF010E944724FE01E894F1
S1134980A5912591359145915591A6F3EF010E948A
S11349905922FE019701A801DA9469F7DF90EF909C
S11349A0FF900F911F91CF91DF910895A0E1B0E0A6
S11349B0ECEDF4E20C9496287C011B016A01FC01E5
S11349C017821682838181FF44C39E012F5F3F4F6C
S11349D03901F7019381F10193FD859193FF819151
S11349E01F01882309F431C3853239F493FD85917D
S11349F093FF81911F01853239F4B70190E00E9441
S1134A00F92956016501E5CF10E0512C912CFFE105
S1134A10F915D8F08B3279F038F4803279F083329A
S1134A20A1F4F92DF0612EC08D3261F0803369F468
S1134A30292D21602DC0392D3260932E892D84605B
S1134A40982E2AC0E92DE86015C097FC2DC020EDF2
S1134A50280F2A3088F496FE06C03AE0139F200DF2
S1134A601124122F19C08AE0589E200D1124522EB1
S1134A70E92DE0629E2E10C08E3231F496FCE5C220
S1134A80F92DF0649F2E08C08C3621F4292D20685E
S1134A90922E02C0883641F4F10193FD859193FF73
S1134AA081911F018111B3CF9BEB980F933020F4B8
S1134AB0992D9061805E07C09BE9980F933008F0B0
S1134AC066C1992D9F7E96FF16E09F73992E8536B9
S1134AD019F49064992E08C0863621F4392F306871
S1134AE0932E02C01111115097FE07C01C3350F4CD
S1134AF044244394410E27E00BC0183038F027E0DB
S1134B0017E005C027E09CE3492E02C0212F412C69
S1134B10560184E0A80EB11CF60160817181828186
S1134B209381042DA3010E94FA286C01F981FC876A
S1134B30F0FF02C0F3FF06C091FC06C092FE06C05F
S1134B4000E205C00DE203C00BE201C000E08C8569
S1134B508C7019F001115AC29BC297FE10C04C0C04
S1134B60FC85F4FF04C08A81813309F44A94141447
S1134B7074F528E0241578F588E0482E2CC096FCBE
S1134B802AC0812F90E08C159D059CF03CEFC31644
S1134B903FEFD30674F0892D8068982E0AC0E2E0B6
S1134BA0F0E0EC0FFD1FE10FF11D8081803319F45B
S1134BB011501111F4CF97FE0EC044244394410EBA
S1134BC0812F90E0C816D9062CF41C1904C0442483
S1134BD0439401C010E097FE06C01C141D0434F475
S1134BE0C601019605C085E090E002C081E090E036
S1134BF001110196112331F0212F30E02F5F3F4F37
S1134C00820F931F252D30E08217930714F4581A4E
S1134C1001C0512C892D897049F4552039F0B70110
S1134C2080E290E00E94F9295A94F7CF002329F0FA
S1134C30B701802F90E00E94F92993FC09C0552008
S1134C4039F0B70180E390E00E94F9295A94F7CF34
S1134C5097FE4CC04601D7FE02C0812C912CC601A0
S1134C6088199909F301E80FF91FFE87ED8796016A
S1134C7024193109388B2F87012F10E011950195E4
S1134C8011093FEF8316930629F4B7018EE290E0F1
S1134C900E94F929C814D9044CF08F859889881585
S1134CA0990524F4ED85FE85818101C080E3F1E05E
S1134CB08F1A91082D853E852F5F3F4F3E872D87A4
S1134CC0801691062CF0B70190E00E94F929D9CF03
S1134CD0C814D90441F49A81963320F4953319F415
S1134CE03C8534FF81E3B70190E04EC08A81813373
S1134CF019F09C859F7E9C87B70190E00E94F9295A
S1134D00111105C094FC18C085E690E017C0B701E6
S1134D108EE290E00E94F9291E5F82E001E0080F14
S1134D20F301E80FF11D8081B70190E00E94F92999
S1134D30802F0113F3CFE6CF85E490E0B7010E9402
S1134D40F929D7FC06C0C114D10441F4EC85E4FF71
S1134D5005C0D194C194D1088DE201C08BE2B701A2
S1134D6090E00E94F92980E32AE0C216D1042CF0D5
S1134D708F5FFAE0CF1AD108F7CFB70190E00E9415
S1134D80F929B701C601C0960E94F92954C1833696
S1134D9031F0833779F0833509F056C020C05601CD
S1134DA032E0A30EB11CF6018081898301E010E09A
S1134DB0630112C05601F2E0AF0EB11CF601C080CF
S1134DC0D18096FE03C0612F70E002C06FEF7FEFC9
S1134DD0C6010E94E6298C01F92DFF7714C0560103
S1134DE022E0A20EB11CF601C080D18096FE03C061
S1134DF0612F70E002C06FEF7FEFC6010E94D229DD
S1134E008C01F92DF0689F2EF3FD1AC0852D90E0DA
S1134E1008171907A8F4B70180E290E00E94F92965
S1134E205A94F4CFF60197FC859197FE81916F0116
S1134E30B70190E00E94F92951105A9401501109C8
S1134E400115110579F7F7C0843611F0893661F53B
S1134E50560197FE09C024E0A20EB11CF601608140
S1134E607181828193810AC0F2E0AF0EB11CF60118
S1134E7060817181072E000C880B990BF92DFF7648
S1134E809F2E97FF09C090958095709561957F4FEF
S1134E908F4F9F4FF0689F2E2AE030E0A3010E94BD
S1134EA0572AC82EC6183FC0092D853721F40F7E16
S1134EB02AE030E01DC0097F8F3691F018F4883560
S1134EC059F0C3C0803719F0883711F0BEC00061B3
S1134ED004FF09C0046007C094FE08C0066006C051
S1134EE028E030E005C020E130E002C020E132E0FB
S1134EF0560107FF09C084E0A80EB11CF6016081C9
S1134F0071818281938108C0F2E0AF0EB11CF60179
S1134F106081718180E090E0A3010E94572AC82E2D
S1134F20C6180F77902E96FE0BC0092D0E7FC11662
S1134F3050F494FE0AC092FC08C0092D0E7E05C0F0
S1134F40DC2C092D03C0DC2C01C0D12E04FF0DC0C4
S1134F50FE01EC0DF11D8081803311F4097E09C03E
S1134F6002FF06C0D394D39404C0802F867809F03E
S1134F70D39403FD11C000FF06C01C2DD51480F48A
S1134F80150D1D190DC0D51458F4B70180E290E039
S1134F900E94F929D394F7CFD51410F45D1801C0F9
S1134FA0512C04FF10C0B70180E390E00E94F9295E
S1134FB002FF17C001FD03C088E790E002C088E546
S1134FC090E0B7010CC0802F867859F001FF02C031
S1134FD08BE201C080E207FD8DE2B70190E00E9400
S1134FE0F929C11638F4B70180E390E00E94F92949
S1134FF01150F7CFCA94F301EC0DF11D8081B70174
S113500090E00E94F929C110F5CF15C0F4E0F51520
S113501060F584E0581A93FE1FC0011127C02C8547
S113502023FF2AC000E213E0392D3071932EF801DA
S11350308491811124C0552009F4E4CCB70180E2A5
S113504090E00E94F9295A94F6CFF701868197815E
S113505026C08FEF9FEF23C0B70180E290E00E944B
S1135060F9295A945110F8CFD8CF512CB701802F79
S113507090E00E94F929D3CF04E213E0D5CF911038
S11350808052B70190E00E94F9290F5F1F4FCFCFE4
S113509023E0251510F483E0BDCF512CC0CF6096DA
S11350A0E2E10C94B228DB018F939F930E948B283A
S11350B0BF91AF91A29F800D911DA39F900DB29FB0
S11350C0900D11240895A1E21A2EAA1BBB1BFD0109
S11350D00DC0AA1FBB1FEE1FFF1FA217B307E407D3
S11350E0F50720F0A21BB30BE40BF50B661F771F2B
S11350F0881F991F1A9469F760957095809590950B
S11351009B01AC01BD01CF010895EE0FFF1F059077
S1135110F491E02D09940E94CD28A59F900DB49F91
S1135120900DA49F800D911D112408952F923F92FC
S11351304F925F926F927F928F929F92AF92BF92A3
S1135140CF92DF92EF92FF920F931F93CF93DF934F
S1135150CDB7DEB7CA1BDB0B0FB6F894DEBF0FBEAC
S1135160CDBF09942A88398848885F846E847D84F9
S11351708C849B84AA84B984C884DF80EE80FD80FB
S11351800C811B81AA81B981CE0FD11D0FB6F89471
S1135190DEBF0FBECDBFED010895A29FB001B39F46
S11351A0C001A39F700D811D1124911DB29F700D2C
S11351B0811D1124911D0895FC0188279927E894E5
S11351C021912032E9F3293010F02E30C8F32B322C
S11351D041F02D3239F4689404C00E94F129820F01
S11351E0911D219120532A30C0F31EF4909581958E
S11351F09F4F0895283008F027E03327DA01990FEC
S1135200311D87FD916000966105710539F43260A6
S11352102E5F3D9330E32A95E1F708959F3F30F0E8
S113522080387105610509F03C5F3C5F3D93913026
S113523008F08068911DDF93CF931F930F93FF9223
S1135240EF92192F987F9695E92F96959695E90FE9
S1135250FF27EE57FC4F99273327EE24FF24A7019D
S1135260E70105900894079428F4360FE71EF81E0A
S1135270491F511D660F771F881F991F0694A1F7B8
S11352800590079428F4E70EF81E491F561FC11D08
S1135290770F881F991F661F0694A1F7059007943E
S11352A028F4F80E491F561FC71FD11D880F991FD8
S11352B0661F771F0694A1F70590079420F4490F01
S11352C0561FC71FD81F990F661F771F881F069484
S11352D0A9F784911095177041F0D695C795579505
S11352E04795F794E7941A95C1F7E8E2F3E06894D8
S11352F01590159135916591959105907FE273957F
S1135300E118F10A430B560BC90BD009C0F7E10CA5
S1135310F11E431F561FC91FD01D7EF4703311F4B4
S11353208A95E6CFE894015030F0080F0AF400277C
S1135330021708F4202F2395022F7A3328F079E3FB
S11353407D932A95E9F710C07D932A9589F60694F2
S113535097956795379517951794E118F10A430BBC
S1135360560BC90BD00998F023957E9173957A3327
S113537008F070E37C932013B8F77E9170617D93FD
S113538030F0839571E37D9370E32A95E1F711245E
S1135390EF90FF900F911F91CF91DF91992787FD97
S11353A090950895FC010590615070400110D8F764
S11353B0809590958E0F9F1F0895FB01DC018D91C0
S11353C0019080190110D9F3990B0895FC016150E3
S11353D0704001900110D8F7809590958E0F9F1F13
S11353E008957AE0979F902D879F802D910D112429
S11353F008950F931F93CF93DF93FB01238121FD26
S113540003C08FEF9FEF2CC022FF16C04681578147
S1135410248135814217530744F4A081B1819D0151
S11354202F5F3F4F318320838C93268137812F5FF9
S11354303F4F3783268314C08B01EC01FB010084AA
S1135440F185E02D0995892BE1F6D80116968D9109
S11354509C911797019617969C938E931697CE015D
S1135460DF91CF911F910F910895AEE0B0E0EBE38F
S1135470FAE20C94A4280D891E8986E08C831A8391
S113548009838FEF9FE79E838D83AE01475E5F4F55
S11354906F89788DCE0101960E94D624EF81F8851C
S11354A0E00FF11F10822E96E4E00C94C028FA015C
S11354B0AA27283051F1203181F1E8946F936E7F4F
S11354C06E5F7F4F8F4F9F4FAF4FB1E03ED0B4E040
S11354D03CD0670F781F891F9A1FA11D680F791F81
S11354E08A1F911DA11D6A0F711D811D911DA11D92
S11354F020D009F468943F912AE0269F11243019A2
S1135500305D3193DEF6CF010895462F4770405D3C
S11355104193B3E00FD0C9F7F6CF462F4F70405DEB
S11355204A3318F0495D31FD4052419302D0A9F746
S1135530EACFB4E0A6959795879577956795BA9540
S1135540C9F700976105710508959B01AC010A2E06
S113555006945795479537952795BA95C9F7620FDD
S1115560731F841F951FA01D0895F894FFCF9C
S113556EFF0100B80BBE09FF01000A00CB0A6E044E
S113557E250B7704F004A50ACB04F5046B0BFE048B
S113558E4205850D5405A7057C0CAF05DE05960C6A
S113559EE6051606FA0C23065806D40C65069C0678
S11355AE560DAB0619073F0C2E079707150DA607C8
S11355BE3808420D180844084C0D50087D08B50DE6
S11355CE8D08CF08DF0DBC08DF08FD0DF108640956
S11355DE2F0E3509AD09450E7609E1094F0EBC09AA
S11355EEFC091F0DEB090000000000000B0A100A55
S11355FE220A3A0A510AFF01006400D90EFF010083
S113560EF401EC0EFF0100B80B960F000000000031
S113561E000000000000000000FA00FA00FA00FA90
S113562E00320032003200320000000000000000A0
S113563E00000001010101FF01000A009112FF02A6
S113564EE8030113B40CBC0D616363656C65726190
S113565E74696F6E20252E326620252E3266202523
S113566E2E32660D0A006779726F73636F70652050
S113567E252E326620252E326620252E32660D0A00
S113568E000A417661696C61626C6520636F6D6DB1
S113569E616E64730D0A002D2D2D2D2D2D2D2D2DA6
S11356AE2D2D2D2D2D2D2D2D2D0D0A000D0A3E20C7
S11356BE0033004368616E6E656C2025642073654B
S11356CE7420706F696E74206973202564200D0A2E
S11356DE00626D7033393000252E30660054656DCE
S11356EE70657261747572652066726F6D20424DBD
S11356FE50343930206973202573200D0A004E541E
S113570E430054656D7065726174757265206672BE
S113571E6F6D204E5443206368616E6E656C202558
S113572E64206973202573200D0A006F6E657769F6
S113573E72650054656D706572617475726520666C
S113574E726F6D20312D57697265206368616E6EBC
S113575E656C202564206973202573200D0A00438F
S113576E68616E6E656C202564206175746F207699
S113577E6F6C74616765206973202564200D0A00BF
S113578E64697361626C656420616C6C206368612A
S113579E6E6E656C0D0A0054656D7065726174757C
S11357AE72652066726F6D204E5443206368616E7D
S11357BE6E656C2030206973202564200D0A005418
S11357CE656D70657261747572652066726F6D2099
S11357DE4E5443206368616E6E656C20312069738C
S11357EE202564200D0A00536574706F696E742051
S11357FE6368616E6E656C20256420697320256470
S113580E200D0A0052696E676C65642069732073FB
S113581E657420524544203D2025642C2047524572
S113582E454E203D2025642C20424C5545203D20DC
S113583E2564200D0A005741524E494E473A2044E2
S113584E757479206379636C652072616E67657314
S113585E2066726F6D203020746F203130302070CE
S113586E657263656E74004C6564204952207365DD
S113587E74206272696768746E657373206973202D
S113588E2573202525200D0A004C656420495227D6
S113589E73206272696768746E657373206973200E
S11358AE2564202525200D0A0050726573733A2055
S11358BE252E35660D0A00494F55204649524D573F
S11358CE4152452056312E302E30200D0A0073657C
S11358DE745F74656D7000203A207365742064657E
S11358EE73697265642074656D7065726174757226
S11358FE652C666F726D61743A207365745F74659E
S113590E6D70206368616E6E656C20736574706F64
S113591E696E742028323530206D65616E20323503
S113592E2043656C63697573292000203A2044690D
S113593E73706C6179206C697374206F6620636F69
S113594E6D6D616E64732C20666F726D61743A2096
S113595E68656C70006765745F74656D7000203ADD
S113596E20476574207468652063757272656E7461
S113597E2074656D7065726174757265206F662032
S113598E5445432C20666F726D61743A20676574BA
S113599E5F74656D70204E5443206368616E6E654E
S11359AE6C006765745F74656D705F736574706F9A
S11359BE696E7400203A204765742074686520630C
S11359CE757272656E742074656D7065726174752E
S11359DE726520736574706F696E74206F662054DF
S11359EE45432C20666F726D61743A206765745F4F
S11359FE74656D705F736574706F696E7420206367
S1135A0E68616E6E656C007465635F656E6100201F
S1135A1E3A20656E61626C6520544543206368616B
S1135A2E6E6E656C2C20666F726D61743A207465AF
S1135A3E635F656E61206368616E6E656C0074658C
S1135A4E635F64697300203A2064697361626C65F4
S1135A5E20544543206368616E6E656C2C20666F1E
S1135A6E726D61743A207465635F64697320636850
S1135A7E616E6E656C007465635F6469735F6175F6
S1135A8E746F00203A2064697361626C65206175DD
S1135A9E746F20636F6E74726F6C2C20666F726DF0
S1135AAE6174207465635F6469735F6175746F20DC
S1135ABE6368616E6E656C007465635F656E615FCD
S1135ACE6175746F00203A2020656E61626C6520EA
S1135ADE6175746F20636F6E74726F6C2C20206608
S1135AEE6F726D61743A207465635F656E615F6198
S1135AFE75746F206368616E6E656C007465635FA8
S1135B0E7365745F6F757470757400203A2020731A
S1135B1E657420746865206F7574707574206D617A
S1135B2E6E75616C6C792C2020666F726D61743A9F
S1135B3E207465635F7365745F6F7574707574201C
S1135B4E6368616E6E656C20686561745F636F6F08
S1135B5E6C28303A434F4F4C2C20313A2048454163
S1135B6E542920766F6C7461676528313530206D49
S1135B7E65616E20312E3529007465635F7365741B
S1135B8E5F6175746F5F766F6C7461676500203A40
S1135B9E20207365742074686520766F6C74616759
S1135BAE6520666F72206175746F20636F6E7472F8
S1135BBE6F6C206D6F64652C2020666F726D61743E
S1135BCE3A207465635F7365745F6175746F5F7695
S1135BDE6F6C74616765206368616E6E656C2020FE
S1135BEE766F6C746167650928313530206D656197
S1135BFE6E20312E3529007465635F6765745F739B
S1135C0E746174757300203A20206765742074657E
S1135C1E63207374617475732C2020666F726D61CA
S1135C2E743A207465635F6765745F737461747529
S1135C3E732C20726573706F6E7365206E7463308F
S1135C4E206E74633120746563305F7374617420E5
S1135C5E746563315F7374617420746563325F734A
S1135C6E74617420746563335F7374617420482F98
S1135C7E433020482F433100203A20656E61626C18
S1135C8E6520706572696F646963206C6F672C2080
S1135C9E666F726D61743A207465635F6C6F675FD3
S1135CAE656E61007465635F6C6F675F6469730032
S1135CBE203A2064697361626C6520706572696F45
S1135CCE646963206C6F672C20666F726D61743A21
S1135CDE207465635F6C6F675F656E610072696ED9
