:100000000C9485090C94A2090C94A2090C94A209E1
:100010000C94A2090C94A2090C94A2090C94A209B4
:100020000C94A2090C94A2090C94A2090C94A209A4
:100030000C94A2090C94A2090C94A2090C944D27CB
:100040000C94A2090C94A2090C94EB1A0C942F1B8B
:100050000C94A2090C94A2090C94A2090C94A20974
:100060000C94A2090C94A2090C94A2090C94A20964
:100070000C94A2090C94A2090C94621B0C94A91B69
:100080000C94A2090C94CD180C94A2090213051328
:1000900008130B130E131113141317131A13311320
:1000A000311331131D1320132313261329132C137B
:1000B0002F13D919DD19DD19DD19DD19DD19DD1948
:1000C000DD19ED18DD19DD19DD19DD19DD19DD1971
:1000D000DD19ED18DD19DD19DD19DD19DD19DD1961
:1000E000DD19F518DD19DD19DD19DD19DD19DD1949
:1000F000DD191B19DD19DD19DD19DD19DD19DD1912
:10010000DD19F518DD19DD19DD19DD19DD19DD1928
:10011000DD192119DD19DD19DD19DD19DD19DD19EB
:10012000DD192719DD19DD19DD19DD19DD19DD19D5
:10013000DD193919DD19DD19DD19DD19DD19DD19B3
:10014000DD196319DD19DD19DD19DD19DD19DD1979
:10015000DD192D19DD19DD19DD19DD19DD19DD199F
:10016000DD194719DD19DD19DD19DD19DD19DD1975
:10017000DD196619DD19DD19DD19DD19DD19DD1946
:10018000DD196619DD19DD19DD19DD19DD19DD1936
:10019000DD196619DD19DD19DD19DD19DD19DD1926
:1001A000DD196619DD19DD19DD19DD19DD19DD1916
:1001B000DD196F19DD19DD19DD19DD19DD19DD19FD
:1001C000DD19A019DD19DD19DD19DD19DD19DD19BC
:1001D000DD196F19DD19DD19DD19DD19DD19DD19DD
:1001E000DD19A019DD19DD19DD19DD19DD19DD199C
:1001F000DD198719DD19DD19DD19DD19DD19DD19A5
:10020000DD19A419DD19DD19DD19DD19DD19DD1977
:10021000DD19A419DD19DD19DD19DD19DD19DD1967
:10022000DD19B919DD19DD19DD19DD19DD19DD1942
:10023000DD19D319DD19DD19DD19DD19DD19DD1918
:10024000DD19D3190C1F111F111F111F111F111FB1
:10025000111F111F111F111F111F6A1C6A1C6A1C1C
:100260006A1C6A1C6A1C6A1C6A1C6A1C6A1C111FB4
:10027000111F111F111F111F111F111F111F111FFE
:10028000111F111F111F111F111F111F111F111FEE
:10029000111F111F111F111F111F111F111F111FDE
:1002A000111F111F111F111F111F9C1D111F111F45
:1002B000111F111F111F111F111F111F111F111FBE
:1002C000A91CC01C111F111F111F111FC01C111FC1
:1002D000111F111F111F111F111F9C1D111F111F15
:1002E000FF1C111F7E1D111F111F9C1D6E616E00D2
:1002F000696E660000407A10F35A00A0724E180929
:100300000010A5D4E80000E87648170000E40B547C
:10031000020000CA9A3B000000E1F505000080964B
:100320009800000040420F000000A086010000007D
:10033000102700000000E803000000006400000037
:1003400000000A00000000000100000000002C7600
:10035000D888DC674F0823DFC1DFAE59E1B1B7961B
:10036000E5E3E453C63AE651997696E8E6C2842678
:10037000EB898C9B62ED407C6FFCEFBC9C9F40F254
:10038000BAA56FA5F490055A2AF75C936B6CF967D0
:100390006DC11BFCE0E40D47FEF520E6B500D0ED95
:1003A000902E0300943577050080841E08000020FD
:1003B0004E0A000000C80C333333330F986E12839B
:1003C0001141EF8D2114893BE65516CFFEE6DB186F
:1003D000D1844B381BF77C1D901DA4BBE424203234
:1003E00084725E228100C9F124ECA1E53D272E2E06
:1003F0002E2E2E2E2E2E2E2E2E2E2E2E2E2E2E2E1D
:100400002E2E2E2E2E2E2E2E2E2E2E2E2E2E2E2E0C
:100410002E2E2E2E2E2E2E2E2E2E2E2E2E2E2E2EFC
:100420002E2E2E2E2E0D0A00000000000000002EA1
:100430002E2E2E2E2E2E2E2E2E2E2E2E2E2E2E2EDC
:100440002E2E2E2E2E2E2E2E2E2E2E2E2E2E2E2ECC
:100450002E2E2E2E2E2E2E2E2E2E2E2E2E2E2E2EBC
:100460002E2E2E2E2E2E0D0A000000000000000061
:100470002E2E202020202020202020202020202060
:10048000202020202020202020202020202020206C
:10049000202020202020202020202020202020205C
:1004A00020202020202E2E0D0A0000000000000039
:1004B000002E2E2020202020202020202020202040
:1004C000202020202020202020202020202020202C
:1004D000202020202020202020202020202020201C
:1004E0002020202020202E2E0D0A000000000000D9
:1004F00000002E2E20202020202020202020202020
:1005000020205F5F5F5F5F202020202020202020B0
:1005100020202020202020202020202020202020DB
:10052000202020202020202E2E0D0A000000000078
:100530000000002E2E2020202020202020202020FF
:1005400020202F205F5F5F5F7C2020202020202044
:10055000202020202020202020202020202020209B
:1005600020202020202020202E2E0D0A0000000018
:10057000000000002E2E20202020202020202020DF
:1005800020207C20285F5F5F20205F205F5F20208D
:10059000205F5F205F20205F5F5F205F5F5F202024
:1005A0002020202020202020202E2E0D0A000000B8
:1005B00000000000002E2E202020202020202020BF
:1005C000202020205C5F5F5F205C7C20275F205C18
:1005D000202F205F60207C2F205F5F2F205F205C1A
:1005E000202020202020202020202E2E0D0A000058
:1005F0000000000000002E2E20202020202020209F
:1006000020202020205F5F5F5F29207C207C5F29E5
:10061000207C20285F7C207C20285F7C20205F5F5E
:100620002F202020202020202020202E2E0D0A00E8
:10063000000000000000002E2E202020202020207E
:1006400020202020207C5F5F5F5F5F2F7C202E5F5B
:100650005F2F205C5F5F2C5F7C5C5F5F5F5C5F5F38
:100660005F7C202020202020202020202E2E0D0AFC
:1006700000000000000000002E2E2020202020205E
:100680002020205F2020202020205F205F7C207CF5
:10069000205F5F5F5F5F5F5F2020202020202020A1
:1006A0005F2020202020202020202020202E2E0D02
:1006B0000A00000000000000002E2E202020202034
:1006C0002020207C207C20202020285F7C5F295F48
:1006D0007C7C5F5F2020205F5F7C2020202020200A
:1006E0007C207C20202020202020202020202E2E36
:1006F0000D0A00000000000000002E2E2020202007
:10070000202020207C207C20202020205F205F20B3
:100710005F205F5F207C207C205F5F5F20205F5F29
:100720005F7C207C5F5F2020202020202020202E46
:100730002E0D0A00000000000000002E2E202020B8
:1007400020202020207C207C202020207C207C2039
:100750007C20275F205C7C207C2F205F205C2F206A
:100760005F5F7C20275F205C20202020202020202D
:100770002E2E0D0A00000000000000002E2E20206A
:100780002020202020207C207C5F5F5F5F7C207CFD
:10079000207C207C207C207C207C20205F5F2F2000
:1007A000285F5F7C207C207C207C20202020202053
:1007B000202E2E0D0A00000000000000002E2E202A
:1007C000202020202020207C5F5F5F5F5F5F7C5FB8
:1007D0007C5F7C5F7C207C5F7C5F7C5C5F5F5F7CA0
:1007E0005C5F5F5F7C5F7C207C5F7C202020202022
:1007F00020202E2E0D0A00000000000000002E2EEA
:1008000020202020202020202020202020202020E8
:1008100020202020202020202020202020202020D8
:1008200020202020202020202020202020202020C8
:100830002020202E2E0D0A00000000000000002EB7
:100840002E2020202020202020202020202020209A
:100850002020202020202020202020202020202098
:100860002020202020202020202020202020202088
:10087000202020202E2E0D0A000000000000000085
:100880002E2E202020205F5F5F5F5F205F5F5F5F15
:1008900020205F202020205F20205F5F202020205C
:1008A0005F5F5F5F2020205F5F5F2020205F5F5FD2
:1008B00020202020202E2E0D0A0000000000000025
:1008C000002E2E2020207C5F2020205F2F205F5FC5
:1008D000205C7C207C20207C207C205C205C2020F4
:1008E0002F202F5F207C202F205F205C202F205F77
:1008F000205C202020202E2E0D0A00000000000089
:1009000000002E2E20202020207C207C7C207C209B
:10091000207C207C207C20207C207C20205C205C93
:100920002F202F207C207C7C207C207C207C207C25
:10093000207C207C2020202E2E0D0A0000000000AC
:100940000000002E2E202020205F7C207C7C207C3C
:100950005F5F7C207C207C5F5F7C207C2020205C93
:1009600020202F20207C207C7C207C5F7C207C2011
:100970007C5F7C207C2020202E2E0D0A00000000B1
:10098000000000002E2E2020207C5F5F5F5F5F5CF8
:100990005F5F5F5F2F205C5F5F5F5F2F2020202005
:1009A000205C2F2020207C5F285F295F5F5F285F0D
:1009B000295F5F5F2F202020202E2E0D0A000000CF
:1009C00000000000002E2E202020202020202020AB
:1009D0002020202020202020202020202020202017
:1009E0002020202020202020202020202020202007
:1009F000202020202020202020202E2E0D0A000044
:100A00000000000000002E2E20202020202020208A
:100A100020202020202020202020202020202020D6
:100A200020202020202020202020202020202020C6
:100A300020202020202020202020202E2E0D0A00E3
:100A4000000000000000002E2E2E2E2E2E2E2E2E08
:100A50002E2E2E2E2E2E2E2E2E2E2E2E2E2E2E2EB6
:100A60002E2E2E2E2E2E2E2E2E2E2E2E2E2E2E2EA6
:100A70002E2E2E2E2E2E2E2E2E2E2E2E2E2E0D0ADB
:100A800000000000000000002E2E2E2E2E2E2E2EF6
:100A90002E2E2E2E2E2E2E2E2E2E2E2E2E2E2E2E76
:100AA0002E2E2E2E2E2E2E2E2E2E2E2E2E2E2E2E66
:100AB0002E2E2E2E2E2E2E2E2E2E2E2E2E2E2E0D77
:100AC0000A00000000000000000D0A000000000005
:100AD0000000000000000000000000000000000016
:100AE0000000000000000000000000000000000006
:100AF00000000000000000000000000000000000F6
:100B00000000000000000000000015FD40FD6BFD2E
:100B10008BFDA4FDB9FDCCFDDCFDEAFDF7FD03FE78
:100B20000EFE19FE22FE2BFE34FE3CFE43FE4BFE63
:100B300052FE58FE5FFE65FE6BFE71FE76FE7CFE89
:100B400081FE86FE8BFE90FE94FE99FE9DFEA1FE28
:100B5000A6FEAAFEAEFEB2FEB6FEB9FEBDFEC1FE08
:100B6000C4FEC8FECBFECEFED2FED5FED8FEDBFE16
:100B7000DEFEE1FEE4FEE7FEEAFEEDFEF0FEF3FE41
:100B8000F5FEF8FEFBFEFDFE00FF03FF05FF08FF7C
:100B90000AFF0DFF0FFF11FF14FF16FF18FF1BFFC9
:100BA0001DFF1FFF21FF24FF26FF28FF2AFF2CFF28
:100BB0002EFF30FF32FF34FF37FF39FF3AFF3CFF93
:100BC0003EFF40FF42FF44FF46FF48FF4AFF4CFF05
:100BD0004EFF4FFF51FF53FF55FF56FF58FF5AFF7F
:100BE0005CFF5DFF5FFF61FF63FF64FF66FF68FFFF
:100BF00069FF6BFF6CFF6EFF70FF71FF73FF74FF87
:100C000076FF78FF79FF7BFF7CFF7EFF7FFF81FF10
:100C100082FF84FF85FF87FF88FF8AFF8BFF8CFFA1
:100C20008EFF8FFF91FF92FF94FF95FF96FF98FF35
:100C300099FF9BFF9CFF9DFF9FFFA0FFA1FFA3FFCC
:100C4000A4FFA5FFA7FFA8FFA9FFABFFACFFADFF67
:100C5000AFFFB0FFB1FFB2FFB4FFB5FFB6FFB7FF04
:100C6000B9FFBAFFBBFFBCFFBEFFBFFFC0FFC1FFA4
:100C7000C3FFC4FFC5FFC6FFC7FFC9FFCAFFCBFF45
:100C8000CCFFCDFFCFFFD0FFD1FFD2FFD3FFD4FFEA
:100C9000D6FFD7FFD8FFD9FFDAFFDBFFDCFFDEFF8F
:100CA000DFFFE0FFE1FFE2FFE3FFE4FFE5FFE6FF38
:100CB000E8FFE9FFEAFFEBFFECFFEDFFEEFFEFFFE0
:100CC000F0FFF1FFF2FFF4FFF5FFF6FFF7FFF8FF8B
:100CD000F9FFFAFFFBFFFCFFFDFFFEFFFFFF000037
:100CE00001000200030004000500060008000900DE
:100CF0000A000B000C000D000E000F001000110088
:100D00001200130014001500160017001800190037
:100D10001A001B001C001D001E001F0020002100E7
:100D2000220023002400240025002600270028009C
:100D300029002A002B002C002D002E002F0030004F
:100D400031003200330034003500360037003800FF
:100D500039003A003A003B003C003D003E003F00B5
:100D60004000410042004300440045004600470067
:100D70004800480049004A004B004C004D004E001E
:100D80004F005000510052005300530054005500D2
:100D900056005700580059005A005B005C005C0088
:100DA0005D005E005F00600061006200630064003F
:100DB0006500650066006700680069006A006B00F6
:100DC0006C006D006D006E006F00700071007200AD
:100DD0007300740075007500760077007800790064
:100DE0007A007B007C007C007D007E007F0080001C
:100DF00081008200830083008400850086008700D4
:100E0000880089008A008A008B008C008D008E008B
:100E10008F00900091009100920093009400950043
:100E2000960097009700980099009A009B009C00FC
:100E30009D009D009E009F00A000A100A200A300B5
:100E4000A400A400A500A600A700A800A900AA006D
:100E5000AA00AB00AC00AD00AE00AF00B000B00027
:100E6000B100B200B300B400B500B600B600B700E0
:100E7000B800B900BA00BB00BC00BC00BD00BE0099
:100E8000BF00C000C100C200C200C300C400C50052
:100E9000C600C700C800C900C900CA00CB00CC000A
:100EA000CD00CE00CF00CF00D000D100D200D300C3
:100EB000D400D500D500D600D700D800D900DA007C
:100EC000DB00DB00DC00DD00DE00DF00E000E10035
:100ED000E200E200E300E400E500E600E700E800ED
:100EE000E900E900EA00EB00EC00ED00EE00EF00A5
:100EF000EF00F000F100F200F300F400F500F6005E
:100F0000F600F700F800F900FA00FB00FC00FD0015
:100F1000FE00FE00FF0000010101020103010401C7
:100F20000501050106010701080109010A010B017C
:100F30000C010D010D010E010F0110011101120133
:100F400013011401150116011601170118011901E9
:100F50001A011B011C011D011E011F011F0120019F
:100F60002101220123012401250126012701280155
:100F700029012A012A012B012C012D012E012F010B
:100F800030013101320133013401350136013601BE
:100F90003701380139013A013B013C013D013E0175
:100FA0003F01400141014201430144014501450126
:100FB00046014701480149014A014B014C014D01DD
:100FC0004E014F015001510152015301540155018D
:100FD00056015701580159015A015B015C015D013D
:100FE0005E015F01600161016201630164016501ED
:100FF00066016701680169016A016B016C016D019D
:101000006E016F017001710172017301740175014C
:1010100076017701780179017A017B017C017D01FC
:101020007E017F01800181018201830184018501AC
:1010300086018701880189018A018C018D018E0159
:101040008F01900191019201930194019501960104
:101050009701980199019B019C019D019E019F01AF
:10106000A001A101A201A301A501A601A701A80158
:10107000A901AA01AB01AC01AE01AF01B001B10100
:10108000B201B301B401B601B701B801B901BA01A7
:10109000BB01BC01BE01BF01C001C101C201C4014D
:1010A000C501C601C701C801CA01CB01CC01CD01F0
:1010B000CE01D001D101D201D301D501D601D70192
:1010C000D801D901DB01DC01DD01DF01E001E10133
:1010D000E201E401E501E601E701E901EA01EB01D2
:1010E000ED01EE01EF01F101F201F301F501F6016D
:1010F000F701F901FA01FB01FD01FE01FF01010207
:101100000202030205020602080209020A020C0298
:101110000D020F021002110213021402160217022E
:1011200019021A021C021D021F02200222022302BF
:1011300024022602280229022B022C022E022F0250
:101140003102320234023502370239023A023C02DD
:101150003D023F0240024202440245024702490268
:101160004A024C024E024F025102530254025602EE
:1011700058025A025B025D025F026102620264026F
:101180006602680269026B026D026F0271027302ED
:101190007402760278027A027C027E028002820267
:1011A0008402860288028A028C028E0290029202D7
:1011B0009402960298029A029C029E02A002A20247
:1011C000A402A602A902AB02AD02AF02B102B402B0
:1011D000B602B802BA02BD02BF02C102C302C60211
:1011E000C802CB02CD02CF02D202D402D702D9026A
:1011F000DC02DE02E102E302E602E902EB02EE02B9
:10120000F002F302F602F902FB02FE0201030403FC
:10121000070309030C030F031203150318031B0331
:101220001E032103240328032B032E03310334035D
:1012300038033B033E034203450349034C03500379
:10124000530357035B035E03620366036A036E0383
:101250007103750379037E03820386038A038E0379
:10126000930397039C03A003A503A903AE03B30351
:10127000B803BC03C103C703CC03D103D603DC030B
:10128000E103E703EC03F203F803FE0304040A049A
:10129000110417041E0424042B04320439044004EE
:1012A0004804500457045F04670470047804810400
:1012B0008A0493049D04A704B104BB04C604D104AA
:1012C000DC04E804F40400050D051B0529053705B9
:1012D00046055605670578058A059D05B105C705CC
:1012E000DD05F5050E062A06470666068806AD06E4
:1012F000D606030736076F07B107FD075808C90868
:101300005A09210A560BC10D2C1011241FBECFEF14
:10131000D0E1DEBFCDBF1AE0A0E0B1E0E2EBF2E643
:1013200002C005900D92A433B107D9F72DE0A4E3D4
:10133000BAE001C01D92AD36B207E1F70E94071472
:101340000C9457310C9400008AE39AE00E945023D9
:1013500084E39AE00E94B32308950E9447230895EE
:1013600061E071E080E091E00E94DC250895CF9378
:10137000DF9300D000D000D0CDB7DEB786E0EAE33F
:10138000FAE0DE01119601900D928A95E1F729812C
:101390003A814B815C816D817E8180E090E0269670
:1013A0000FB6F894DEBF0FBECDBFDF91CF91089589
:1013B000CF93DF9300D000D000D0CDB7DEB786E06A
:1013C000E4E3FAE0DE01119601900D928A95E1F7CF
:1013D00029813A814B815C816D817E8180E090E042
:1013E00026960FB6F894DEBF0FBECDBFDF91CF912A
:1013F0000895EF92FF920F931F93CF93FC0180818A
:10140000882309F444C091E0C0E020E031E080325C
:1014100019F41082932F0EC0992361F0C830C8F5DB
:10142000AC2FB0E0AA0FBB1FA05CB54FED93FC93AF
:10143000CF5F922F319680818111E9CFCC2359F172
:1014400060910E0170910F016115710531F1E0900D
:10145000400AF090410A0EE011E0C7010E947F307F
:10146000892B59F4D8011296ED91FC91139760E401
:101470007AE08C2F90E0099511C00A5F1F4FF801A8
:10148000608171816115710541F781E007C081E0DC
:1014900005C082E003C081E001C081E0CF911F91CF
:1014A0000F91FF90EF900895CF93DF938FEE91E02F
:1014B0000E94571A85E092E00E94571A80910E010F
:1014C00090910F01009789F0CEE0D1E00E94571A69
:1014D0008C819D810E94571A81E693E00E94571AE1
:1014E000269688819981009789F780E090E0DF91C6
:1014F000CF910895CF934DC08091930A9091940A13
:101500000E94161AC82F0E94471ACD3011F0CA3017
:1015100029F58091520A8823E1F0E82FF0E0ED5A96
:10152000F54F10828F5F8093520A83E59AE00E9404
:10153000F9091092520A880F990BFC01E457FE4FEB
:10154000808191810E94571A8CE192E00E94571A83
:1015500020C08AE192E00E94571A1BC0C83011F0E7
:10156000CF3741F48091520A882399F081508093BB
:10157000520A0FC08091520AE82FF0E0ED5AF54F61
:10158000C0838F5F813418F48093520A02C0109296
:10159000520A8091930A9091940A0E94FA19882322
:1015A00009F4AACFCF9108950F931F93CF93DF93A0
:1015B000833091057CF1049784F5FB01828193814E
:1015C000F2E08F319F0709F058F528E08135920746
:1015D00050F1EB010E947E2F8C018C819D810E9435
:1015E0007E2FC82FD92F602F0E944714DF93CF93EF
:1015F00011271F930F9381E292E09F938F930E9494
:10160000391F0F900F900F900F900F900F9080E068
:1016100090E00BC083E090E008C082E090E005C05D
:1016200084E090E002C084E090E0DF91CF911F91D0
:101630000F910895CF92DF92EF92FF920F931F9335
:10164000CF93DF9300D000D01F92CDB7DEB78C01CF
:101650007B01FB01C280D3806DE372E0C6010E9472
:101660007F30892B59F5033011051CF002E010E0A2
:10167000A5C00E946214BC01990F880B990B0E94AF
:101680007F2A9F938F937F936F9384E492E09F933D
:101690008F938E010F5F1F4F1F930F930E94D730C0
:1016A0001F930F9389E492E09F938F930E94391FB9
:1016B0000FB6F894DEBF0FBECDBF82C00330110558
:1016C0000CF471C0043011050CF070C0F701848176
:1016D00095810E947E2F7C01F1E0F81708F469C023
:1016E0006FE572E0C6010E947F308C01892B51F5B5
:1016F0008E2D0E945014BC01990F880B990B0E94EB
:101700007F2A9F938F937F936F9384E492E09F93BC
:101710008F939E012F5F3F4F69013F932F930E944C
:10172000D730DF92CF92FF24FF92EF9283E692E0D0
:101730009F938F930E94391F0FB6F894DEBF0FBEA0
:10174000CDBF3CC062E772E0C6010E947F308C01D1
:10175000892B91F58E2D0E945914BC01990F880B8D
:10176000990B0E947F2A9F938F937F936F9384E4BA
:1017700092E09F938F93FE0131966F01FF93EF9359
:101780000E94D730DF92CF92FF24FF92EF928AE738
:1017900092E09F938F930E94391F0FB6F894DEBF9B
:1017A0000FBECDBF0BC003E010E008C002E010E0A8
:1017B00005C004E010E002C004E010E0802F912F8B
:1017C0000F900F900F900F900F90DF91CF911F917E
:1017D0000F91FF90EF90DF90CF9008950F931F939C
:1017E000CF93DF93833091054CF1049754F5EB01CF
:1017F0008A819B810E947E2F8C01843028F58C8108
:101800009D810E947E2FC82FD92F682F792F802F7E
:101810000E94E716DF93CF9311271F930F9388E958
:1018200092E09F938F930E94391F0F900F900F901B
:101830000F900F900F9080E090E008C083E090E060
:1018400005C082E090E002C084E090E0DF91CF919B
:101850001F910F9108958230910574F003977CF4E5
:10186000FB01828193810E947E2F853058F40E9473
:10187000671480E090E0089583E090E0089582E0AE
:1018800090E0089584E090E008950F931F93CF9324
:10189000DF93823091054CF1039754F5FB010281EF
:1018A000138167EC74E0C8010E947F30EC01892B42
:1018B00091F480E00E947A1481E00E947A1482E020
:1018C0000E947A1487EB92E09F938F930E94391FB6
:1018D0000F900F9012C0C8010E947E2F853058F4DF
:1018E0000E947A14C0E0D0E008C0C3E0D0E005C098
:1018F000C2E0D0E002C0C4E0D0E0CE01DF91CF91E1
:101900001F910F910895CF9382309105C4F00397F2
:10191000CCF4FB01828193810E947E2F8330A8F456
:10192000C82FCC0F8C2F0E94B2168C2F0E947A14D5
:1019300081E08C0F0E947A1480E090E008C083E080
:1019400090E005C082E090E002C084E090E0CF919A
:101950000895823091057CF0039784F4FB01828125
:1019600093810E947E2F833060F4880F0E948E1432
:1019700080E090E0089583E090E0089582E090E0B8
:10198000089584E090E0089502972CF40E94F016E8
:1019900080E090E0089582E090E0089502972CF4B2
:1019A0000E94C11780E090E0089582E090E00895E1
:1019B00002972CF40E94C51780E090E0089582E021
:1019C00090E008950F931F93CF93DF938430910598
:1019D000DCF00597E4F4EB018C819D810E947E2F61
:1019E000082F8A819B810E947E2F182F8E819F81D4
:1019F0000E947E2F143070F4AC01602F812F0E9462
:101A0000A21480E090E008C083E090E005C082E08E
:101A100090E002C084E090E0DF91CF911F910F91A0
:101A20000895CF93DF938230910504F103970CF56D
:101A3000FB01828193810E947E2FEC018330E0F4D0
:101A40000E94D5169F938F93DD27DF93CF938EEC63
:101A500092E09F938F930E94391F0F900F900F90E9
:101A60000F900F900F9080E090E008C083E090E02E
:101A700005C082E090E002C084E090E0DF91CF9169
:101A80000895FF920F931F93CF93DF9385309105B5
:101A9000FCF0069704F5EB018A819B810E947E2F62
:101AA000182F8C819D810E947E2F082F8E819F810F
:101AB0000E947E2FF82E888599850E947E2F282FE0
:101AC0004F2D602F812F0E943E2580E090E005C0C1
:101AD00083E090E002C082E090E0DF91CF911F911F
:101AE0000F91FF9008950297DCF40E9456251F92F3
:101AF0009F931F928F931F927F931F926F938AEEF3
:101B000092E09F938F930E94391F8DB79EB70A96DC
:101B10000FB6F8949EBF0FBE8DBF80E090E0089591
:101B200082E090E00895CF93DF9382309105ECF04E
:101B30000397F4F4EB018A819B810E947E2F853606
:101B400008F084E60E9460138B818F938A818F93C3
:101B500082E293E09F938F930E94391F0F900F9022
:101B60000F900F9080E090E005C083E090E002C00D
:101B700082E090E0DF91CF91089502978CF40E946B
:101B80006C131F928F9384E493E09F938F930E9432
:101B9000391F0F900F900F900F9080E090E0089504
:101BA00082E090E00895AF92BF92CF92DF92EF92E1
:101BB000FF920F931F93CF93DF9300D000D01F921B
:101BC000CDB7DEB700E010E00F2EF4E4AF2EF2E068
:101BD000BF2EF02DCE0101966C010F2EF3E6EF2EF5
:101BE000F2E0FF2EF02D802F0E945014BC01990FBF
:101BF000880B990B0E947F2A9F938F937F936F93FB
:101C0000BF92AF92DF92CF920E94D730DF92CF92F5
:101C10001F930F93FF92EF920E94391F0F5F1F4F88
:101C20000FB6F894DEBF0FBECDBF04301105D9F654
:101C300084E693E09F938F930E94391F0E94F016D1
:101C40000E9456251F929F931F928F931F927F93FE
:101C50001F926F9380E793E09F938F930E94391FA9
:101C60000E946C131F928F9381E993E09F938F934F
:101C70000E94391F0FB6F894DEBF0FBECDBF80E0C3
:101C800090E00F900F900F900F900F90DF91CF91F9
:101C90001F910F91FF90EF90DF90CF90BF90AF908A
:101CA00008950F931F93CF93DF93CDB7DEB7EE97D1
:101CB0000FB6F894DEBF0FBECDBF02970CF059C02F
:101CC0000E94B70929833A834B835C836D837E83AB
:101CD0000E94D8092F83388749875A876B877C876A
:101CE0008E818F938D818F938C818F938B818F9336
:101CF0008A818F9389818F9385EA93E09F938F9355
:101D00008E01035F1F4F1F930F930E94D730F8017E
:101D100001900020E9F73197BF01601B710BC801EA
:101D20000E94661A8C858F938B858F938A858F93FB
:101D300089858F9388858F938F818F9383EC93E030
:101D40009F938F931F930F930E94D730F8010190B8
:101D50000020E9F73197BF01601B710BC8010E9499
:101D6000661A0FB6F894DEBF0FBECDBF80E090E0DC
:101D700002C082E090E0EE960FB6F894DEBF0FBE90
:101D8000CDBFDF91CF911F910F9108950F931F93B6
:101D9000CF93DF93CDB7DEB7E2970FB6F894DEBFEF
:101DA0000FBECDBF02971CF50E943D149F938F93E9
:101DB0008EED93E09F938F938E010F5F1F4F1F93C4
:101DC0000F930E94D730F80101900020E9F7319776
:101DD000BF01601B710BC8010E94661A0F900F9023
:101DE0000F900F900F900F9080E090E002C082E083
:101DF00090E0E2960FB6F894DEBF0FBECDBFDF9144
:101E0000CF911F910F91089568E071E087E091E014
:101E10000E94DC2508950F931F93CF93DF93CEEE9E
:101E2000D3E00AE01BE0CE010E947F1ACF5BDF4FB8
:101E3000C017D107C1F78CE192E00E94571ADF91D9
:101E4000CF911F910F9108950E942B1A0E94911A11
:101E50009093940A8093930A80E4E3E5FAE0DF012B
:101E60001D928A95E9F71092520A8CEE93E00E9437
:101E7000571A88ED97E00E94571A0E940B0F089599
:101E80000E94961A85E00E949A270E94E61A909373
:101E9000010B8093000B82ED9AE09093990A809356
:101EA000980A8FE99AE09093970A8093960A08958A
:101EB0000E94400F67E971E086E991E00E94DC250D
:101EC0000895CF92DF92EF92FF920F93CF93DF931B
:101ED000CDB7DEB760970FB6F894DEBF0FBECDBFAB
:101EE0006E0182E0C80ED11C8FE0F60111928A9536
:101EF000E9F7E091980AF091990A80818A830F2E80
:101F0000FAE9EF2EFAE0FF2EF02D00E021E041E0AB
:101F1000B60180E00E94D927AE014F5F5F4FB60146
:101F2000C7010E94F6276981C6010E94CD1A6096FA
:101F30000FB6F894DEBF0FBECDBFDF91CF910F91EA
:101F4000FF90EF90DF90CF900895E091980AF09184
:101F5000990A6181623050F4828190E0982F88273D
:101F60002381822B0E9447140E94610F0895E09103
:101F7000980AF091990A8181823020F40E946714B6
:101F80000E94610F0895E091980AF091990A818169
:101F9000823020F40E947A140E94610F0895CF933A
:101FA000E091980AF091990A8181823070F4C82FEB
:101FB000CC0F8C2F0E94B2168C2F0E947A1481E0D5
:101FC0008C0F0E947A140E94610FCF910895E091C6
:101FD000980AF091990A8181823028F4880F0E9432
:101FE0008E140E94610F0895E091980AF091990A69
:101FF0008181823058F4438150E0542F44279481EA
:10200000492B62810E94A2140E94610F0895E09101
:10201000980AF091990A8181823050F4628170E0CF
:10202000762F66279381692B0E94E7160E94610F25
:102030000895E091980AF091990A24814381628180
:1020400081810E943E250E94610F0895E091980AC7
:10205000F091990A8181853608F084E60E94601328
:102060000E94610F0895EF92FF920F93CF93DF9339
:10207000CDB7DEB7E3970FB6F894DEBF0FBECDBF86
:10208000E091980AF091990A2181233008F041C02B
:1020900082818230F0F5A091960AB091970A408132
:1020A0004C9311962C93119712968C93211104C086
:1020B0000E945014382F0BC0213021F40E94591473
:1020C000382F05C0223019F40E946214382F609115
:1020D000960A7091970AFB01938334830F2EFAE9D5
:1020E000EF2EFAE0FF2EF02D07E021E045E080E042
:1020F00090E00E949F27AE014D5C5F4FBE016F5F75
:102100007F4FC7010E94F6276BA9CE0101960E945E
:10211000CD1AE3960FB6F894DEBF0FBECDBFDF91A8
:10212000CF910F91FF90EF900895EF92FF920F9350
:102130001F93CF93DF93CDB7DEB7E3970FB6F89435
:10214000DEBF0FBECDBFE091980AF091990A1181D0
:10215000123060F5812F0E94D516E091960AF09119
:10216000970AA091980AB091990A2C912083118323
:10217000928383830F2EFAE9EF2EFAE0FF2EF02DE3
:1021800007E021E044E0BF0180E090E00E949F274B
:10219000AE014D5C5F4FBE016F5F7F4FC7010E9474
:1021A000F6276BA9CE0101960E94CD1AE3960FB6D1
:1021B000F894DEBF0FBECDBFDF91CF911F910F917D
:1021C000FF90EF900895EF92FF920F93CF93DF93DC
:1021D000CDB7DEB7E3970FB6F894DEBF0FBECDBF25
:1021E0000E945625E091960AF091970AA091980ACC
:1021F000B091990A2C9120836183728383839483A5
:102200000F2EFAE9EF2EFAE0FF2EF02D07E021E085
:1022100045E0BF0180E090E00E949F27AE014D5C49
:102220005F4FBE016F5F7F4FC7010E94F6276BA90A
:10223000CE0101960E94CD1AE3960FB6F894DEBF48
:102240000FBECDBFDF91CF910F91FF90EF9008951A
:10225000EF92FF920F93CF93DF93CDB7DEB7E39763
:102260000FB6F894DEBF0FBECDBF0E946C13609115
:10227000960A7091970AE091980AF091990A9081D4
:10228000FB01908381830F2EFAE9EF2EFAE0FF2EF7
:10229000F02D07E021E042E080E090E00E949F27DF
:1022A000AE014D5C5F4FBE016F5F7F4FC7010E9463
:1022B000F6276BA9CE0101960E94CD1AE3960FB6C0
:1022C000F894DEBF0FBECDBFDF91CF910F91FF908D
:1022D000EF900895CF92DF92EF92FF920F931F93AA
:1022E000CF93DF93CDB7DEB7EF970FB6F894DEBF8D
:1022F0000FBECDBF0E94B709D22EC32EF42EE52EFD
:10230000162F072F2CAB3DAB4EAB5FAB68AF79AF51
:102310000E94D8092AAF3BAF4CAF5DAF6EAF7FAF25
:10232000E091960AF091970AA091980AB091990AC3
:102330008C918083C182D282E382F48205831683EA
:102340003783208751874287738764870F2EFAE986
:10235000EF2EFAE0FF2EF02D07E021E04DE0BF0167
:1023600080E090E00E949F27AE014D5C5F4FBE0170
:102370006F5F7F4FC7010E94F6276BA9CE010196C0
:102380000E94CD1AEF960FB6F894DEBF0FBECDBFF8
:10239000DF91CF911F910F91FF90EF90DF90CF9041
:1023A0000895EF92FF920F93CF93DF93CDB7DEB7EF
:1023B000E3970FB6F894DEBF0FBECDBF0E943D1469
:1023C0006091960A7091970AE091980AF091990AA3
:1023D0009081FB01908381830F2EFAE9EF2EFAE0C2
:1023E000FF2EF02D07E021E043E080E090E00E9426
:1023F0009F27AE014D5C5F4FBE016F5F7F4FC701EE
:102400000E94F6276BA9CE0101960E94CD1AE39691
:102410000FB6F894DEBF0FBECDBFDF91CF910F9105
:10242000FF90EF900895EF92FF920F931F93CF9339
:10243000DF93CDB7DEB7E3970FB6F894DEBF0FBEDC
:10244000CDBFE091980AF091990A8081E091960AB7
:10245000F091970A808380E00E945014E091960AE0
:10246000F091970A9183828381E00E945014E09159
:10247000960AF091970A9383848382E00E94501415
:10248000E091960AF091970A9583868383E00E94F3
:102490005014E091960AF091970A9783808780E024
:1024A0000E945914E091960AF091970A91878287C9
:1024B00081E00E945914E091960AF091970A93875F
:1024C00084870E946214E091960AF091970A95879A
:1024D000868780E00E94D516E091960AF091970ACF
:1024E0009787808B81E00E94D516E091960AF09143
:1024F000970A918B828B82E00E94D516E091960A12
:10250000F091970A938B848B83E00E94D516E0911B
:10251000960AF091970A958B868B80E00E94DE16D2
:10252000E091960AF091970A978B808F81E00E9444
:10253000DE16E091960AF091970A918F828F82E0E1
:102540000E94DE16E091960AF091970A938F848F8D
:1025500083E00E94DE16E091960AF091970A958F2B
:10256000868F0E9456250091960A1091970AF801CD
:10257000678F70A381A392A30E946C13F80183A3B9
:102580006091960A7091970A0F2EFAE9EF2EFAE001
:10259000FF2EF02D07E021E044E280E090E00E9471
:1025A0009F27AE014D5C5F4FBE016F5F7F4FC7013C
:1025B0000E94F6276BA9CE0101960E94CD1AE396E0
:1025C0000FB6F894DEBF0FBECDBFDF91CF911F9144
:1025D0000F91FF90EF900895E091980AF091990A79
:1025E0008081A091960AB091970A8C93E0818E2FFA
:1025F00090E0FC013197E331F10598F5EA5BFF4F7C
:102600000C94272F0E94A50F08950E94331008955F
:102610000E94951008950E94B70F08950E94C30F5D
:1026200008950E94CF0F08950E94E70F08950E9419
:10263000F40F08950E94071008950E94191008953C
:102640000E94E31008950E94261008950E94281108
:1026500008950E946A1108950E94D11108950E9460
:10266000131208951DC08091000B9091010B0E94E0
:10267000161A9091950A91111092950A6DEC7AE0D4
:102680000E94DD28813019F0833031F009C08DECD3
:102690009AE00E94EC1204C085E899E00E94571A63
:1026A0008091000B9091010B0E94FA198823D9F2B6
:1026B000089540E068EE73E086E00E94F517089503
:1026C000CF93C82F853608F0C4E68C2F0E943918A6
:1026D000C093020BCF9108958091020B08956AE098
:1026E00088E99BE00E94F12408956EE971E08DE98C
:1026F00091E00E94DC250895E2E6F0E080818460AC
:1027000080830895E091040BF091050B808188236C
:1027100019F08130C9F108958091030B80FF1AC030
:1027200080E00E94CF25882309F445C0E3E0FBE068
:1027300080818E7F80830E947C13E2E6F0E08081BE
:102740008860808344EF51E060E070E080E00E94A8
:10275000C425089580E00E94CF25882361F1E3E03D
:10276000FBE0808181608083E2E6F0E080818B7F06
:1027700080838081877F808344EF51E060E070E058
:1027800080E00E94C42508958091030B80FF13C050
:1027900080E00E94CF25882371F0E3E0FBE0808198
:1027A0008E7F80830E947C1348EB5BE060E070E0EA
:1027B00080E00E94C4250895CF93DF93E1E6F0E026
:1027C000808184608083C2E6D0E088818B7F8883AB
:1027D0008081886080838881877F8883E3E0FBE055
:1027E00080818E7F8D7F808380ED9CE092838183CA
:1027F0000E947C13888188608883DF91CF9108953F
:1028000065EA71E084EA91E00E94DC2508950E9467
:10281000A4250E94240F0E94CB170E94CE170E946D
:10282000DC130E94DA140E9436250E9459130E947C
:10283000AD090E9433140E94400F0E9400140E94B0
:10284000040F0E9440140E9475130E94B0090E9458
:1028500036140E94580F0E94DD260E94E026FDCF0C
:102860000E94F52208950E94102108956CEA71E0FB
:102870008BEA91E00E94DC2508950E9410230895C0
:102880006FED71E08EED91E00E94DC250895E62F5A
:10289000F0E0EE0FFF1FE054FE4F91838083089518
:1028A000E82FF0E0EE0FFF1FEE54FE4F8081918184
:1028B0000895E82FF0E0EE0FFF1FE654FE4F8081F1
:1028C000918108958091BE019091BF010895CF93A9
:1028D000C82F0E946825E2EBF1E0CC0F81E090E088
:1028E00002C0880F991FCA95E2F7968D892B868FB3
:1028F000CF910895CF93C82F0E948225E2EBF1E09B
:10290000CC0F81E090E002C0880F991FCA95E2F7D2
:102910008095968D8923868FCF910895E2EBF1E023
:1029200090E0880F991F019621E030E0A90102C0D4
:10293000440F551F8A95E2F7CA018095968D892329
:10294000868F08950F93CF93082FC62FE82FF0E0BE
:10295000EE0FFF1FE853FE4F51834083CA01A0E0F2
:10296000B0E0BC01CD01052E5CE0660F771F881F2B
:10297000991F5A95D1F7502D2EE734E040E050E0F2
:102980000E94052FC13049F480E098E0A0E0B0E05B
:10299000821B930BA40BB50B05C0DA01C901985F2C
:1029A000AF4FBF4F21E040E060E00E945424CF9140
:1029B0000F910895CF930E94D9170E945F250E941E
:1029C00028240E945118C0E08C2F0E94822542E3E7
:1029D00050E061E08C2F0E94A214CF5FC430A1F7B9
:1029E000CF910895EF92FF920F931F93CF93DF93B0
:1029F000F62EE42EC62FD0E08E01000F111F000F1F
:102A0000111F2091D00130E0002E02C0359527958E
:102A10000A94E2F720FD8BC0FE01EE0FFF1FE05489
:102A2000FE4F408151819A0122503109821793074C
:102A300038F5FF0C8F2D0E946825E2EBF1E081E074
:102A400090E0002E02C0880F991F0A94E2F7968D3D
:102A5000892B868FEE2009F49CC081E08F0D0E94A7
:102A60006825E2EBF1E00E5F1F4F81E090E002C0CD
:102A7000880F991F0A95E2F7968D892B868F89C05A
:102A80002817390708F085C0FE01EE0FFF1FEE542E
:102A9000FE4F208131812817390730F0425E5F4FA9
:102AA0004817590708F075C0FE01EE0FFF1FE95FD8
:102AB000F44F80819181019691838083853F91407D
:102AC00008F467C0FE01EE54FE4F10A6FE01EE0FA3
:102AD000FF1FE95FF44F118210828091060B88235B
:102AE00061F01F92FF928DE999E09F938F930E946E
:102AF000391F0F900F900F900F90CC0FDD1FFF0C20
:102B0000FE01EE0FFF1FE853FE4F4081518160E050
:102B10008F2D0E94A214CC0FDD1FC653DE4F4881BB
:102B2000598160E081E08F0D0E94A21432C0CC0F69
:102B3000DD1FC054DE4F288139812E5F3F4F28179B
:102B4000390738F5FF0C8F2D0E948225E2EBF1E06A
:102B500081E090E0002E02C0880F991F0A94E2F7EE
:102B60008095968D8923868FEE2099F081E08F0DD8
:102B70000E948225E2EBF1E00E5F1F4F81E090E0C2
:102B800002C0880F991F0A95E2F78095968D8923D8
:102B9000868FDF91CF911F910F91FF90EF90089555
:102BA000EF92FF920F931F93CF93DF93F62EE42EB5
:102BB000C62FD0E08E01000F111F000F111F2091B2
:102BC000D00130E0002E02C0359527950A94E2F737
:102BD00020FD8FC0FE01EE0FFF1FE054FE4F20814D
:102BE0003181A9014E5F5F4F4817590738F5FF0C37
:102BF0008F2D0E946825E2EBF1E081E090E0002E4D
:102C000002C0880F991F0A94E2F7968D892B868F50
:102C1000EE2009F4A0C081E08F0D0E946825E2EB50
:102C2000F1E00E5F1F4F81E090E002C0880F991F16
:102C30000A95E2F7968D892B868F8DC0A9014250A7
:102C400051098417950708F086C0FE01EE0FFF1F9B
:102C5000EE54FE4F408151818417950730F02E517C
:102C600031098217930708F076C0FE01EE0FFF1FAF
:102C7000E95FF44F80819181019691838083853F44
:102C8000914008F468C081E0FE01EE54FE4F80A739
:102C9000FE01EE0FFF1FE95FF44F11821082809159
:102CA000060B882361F01F92FF928AEC99E09F93B4
:102CB0008F930E94391F0F900F900F900F90CC0FA1
:102CC000DD1FFF0CFE01EE0FFF1FE853FE4F40819A
:102CD000518161E08F2D0E94A214CC0FDD1FC653DD
:102CE000DE4F4881598161E081E08F0D0E94A2147E
:102CF00032C0CC0FDD1FC054DE4F288139812250F5
:102D000031098217930738F5FF0C8F2D0E94822519
:102D1000E2EBF1E081E090E0002E02C0880F991F05
:102D20000A94E2F78095968D8923868FEE2099F09C
:102D300081E08F0D0E948225E2EBF1E00E5F1F4FD4
:102D400081E090E002C0880F991F0A95E2F7809514
:102D5000968D8923868FDF91CF911F910F91FF90E0
:102D6000EF900895282F30E0E2EBF1E0B901660F13
:102D7000771F6F5F7F4F41E050E002C0440F551F47
:102D80006A95E2F7968D492B468F220F331FF90182
:102D9000E853FE4F40815181E82FE695F0E0EE5474
:102DA000FE4F60A50E94A2140895E82FF0E0EE0FF8
:102DB000FF1FE054FE4F808191810895E82FF0E0DD
:102DC000EE0FFF1FE853FE4F808191810895E82F99
:102DD000F0E0EE0FFF1FE853FE4F7183608308950C
:102DE000E2EBF1E0868D95899F9394899F93938977
:102DF0009F9392899F9391899F9390899F939785A1
:102E00009F9396859F9393A51F929F9392A51F9240
:102E10009F9391A51F929F9390A51F929F9386FBCE
:102E2000992790F91F929F9384FB992790F91F92FD
:102E30009F9382FB992790F91F929F9381701F9215
:102E40008F9387EF99E09F938F930E94391F8DB7DF
:102E50009EB74A960FB6F8949EBF0FBE8DBF0895D9
:102E6000AF92BF92CF92DF92EF92FF920F931F9398
:102E7000CF93DF9380E00E94E7247C0181E00E94F1
:102E8000E7248C0182E00E94E7245C0183E00E9439
:102E9000E7246C018091D00181FF0FC08091DA019D
:102EA000813031F441E060E0C7010E94F21405C0B6
:102EB00041E060E0C7010E94D0158091D00183FFFE
:102EC00035C08091DB01813031F441E061E0C8011F
:102ED0000E94F21405C041E061E0C8010E94D015D3
:102EE0008091D00183FF22C08091DB01813031F4D9
:102EF00041E062E0C8010E94F21405C041E062E0D6
:102F0000C8010E94D0158091D00183FF0FC080912D
:102F1000DB01813031F441E063E0C8010E94F2142A
:102F200005C041E063E0C8010E94D015C2EBD1E0CA
:102F3000F982E8821B830A83BD82AC82DF82CE8263
:102F40000E9404239D878C8781E00E94CF258823DF
:102F500069F08091060B882349F048EE53E060E069
:102F600070E081E00E94C4250E94F016DF91CF91AD
:102F70001F910F91FF90EF90DF90CF90BF90AF9097
:102F8000089581E08093060B08951092060B089532
:102F90000E94A12508950E949C25089566EE71E087
:102FA00085EE91E00E9410268091E5010E94412665
:102FB000089517B83E9A86B1876886B90895882320
:102FC00021F0813019F480E001C081E097B1907F59
:102FD00097B997B18F70892B87B9369A3699FECFFA
:102FE00084B125B190E0922B0895CF93C42F48B3BC
:102FF00021E030E0F90102C0EE0FFF1F8A95E2F7F1
:10300000CF019E2F9095492348BB97B3892B87BB4F
:103010008FB582608FBD8EB588618EBD8FB58062A1
:103020008FBD8EB583608EBD80E090E00E947D2ACA
:1030300020E030E040E05EE30E940B2B0E944E2A2D
:1030400077BD66BD86B597B5C89FB001C99F700DA5
:10305000112480E090E00E947D2A2AE037ED43E2CF
:103060005CE30E940B2B0E944E2A79BD68BDCF9174
:10307000089526B537B5482F429FC001439F900D54
:103080001124BC0180E090E00E947D2A2AE037ED07
:1030900043E25CE30E940B2B0E944E2A79BD68BD7F
:1030A0000895B89AC09A87B3866087BBBB988DB1E4
:1030B00081658DB908958FB9779BFECF8FB1089543
:1030C00083B7846083BF87B7826087BF7894089591
:1030D00083B7886083BF12BE8CE781BF089584E9FF
:1030E00080937400E4E7F0E0808184FDFDCF80E010
:1030F000089584EA8093740080E49FE1E4E7F0E0BF
:1031000002C0019719F020812223DCF7089584E999
:103110008093740080E49FE1E4E7F0E002C001974F
:1031200019F0208124FDFBCF08958093730084E87B
:103130008093740080E49FE1E4E7F0E002C001972F
:1031400019F020812223DCF7089584EC8093740029
:1031500080E49FE1E4E7F0E002C0019731F02081D4
:103160002223DCF7809173000895089584E880930A
:10317000740080E49FE1E4E7F0E002C0019731F0E1
:1031800020812223DCF7809173000895089585EC57
:103190008093740010923A0B08951F920F920FB60D
:1031A0000F9211242F933F934F935F936F937F93CD
:1031B0008F939F93AF93BF93EF93FF938091710091
:1031C000E82FE87F8E2F90E0893C910508F0F5C04C
:1031D000FC01E75AFF4F0C94272F8091390B809305
:1031E000730085E880937400E8C090912A0B809169
:1031F000290B981780F4E0912A0B81E08E0F8093C1
:103200002A0BF0E0E55DF44F80818093730085EC3C
:1032100080937400D2C08091380B882319F00E94EB
:103220008718CBC081E08093370B84EA80937400C9
:1032300010923A0BC2C080E280930B0B0E94871859
:10324000BCC080E380930B0B0E948718B6C088E354
:1032500080930B0B0E94C718B0C0E091200B81E057
:103260008E0F8093200B80917300F0E0EF5DF44FA0
:1032700080839091200B80911F0B981720F485EC90
:10328000809374009AC085E88093740096C0E091A2
:10329000200B81E08E0F8093200B80917300F0E073
:1032A000EF5DF44F80838091380B882319F00E94E2
:1032B000871883C081E08093370B84EA8093740081
:1032C00010923A0B7AC00E94871877C083E08093EF
:1032D0003A0B10920C0B85EC809374006EC08091B9
:1032E0000C0B883080F4E0910C0B81E08E0F809302
:1032F0000C0B80917300F0E0E35FF44F808385EC6A
:10330000809374005AC085E88093740056C00E9470
:10331000C71880910C0B883030F4E0910C0BF0E072
:10332000E35FF44F108260910C0B70E0E091330B7F
:10333000F091340B8DE09BE0099510920C0B3DC091
:1033400085E88093740039C084E080933A0B109232
:10335000160B1092150BE091350BF091360B099579
:103360008091150B811105C081E08093150B10929F
:10337000170BE091160B81E08E0F8093160BF0E097
:10338000E95EF44F8081809373009091160B8091D9
:10339000150B981720F485EC809374000EC085E817
:1033A000809374000AC085EC8093740010923A0BED
:1033B00004C010920B0B0E948718FF91EF91BF91F0
:1033C000AF919F918F917F916F915F914F913F91BD
:1033D0002F910F900FBE0F901F9018952FB7F89454
:1033E000FC01E05CFF4F1082319610823196108212
:1033F0002FBF08958E5B9F4FFC01908181E091115A
:1034000080E00895FB01E05CFF4F9081DB01A90F94
:10341000B11D8C939FB7F89480818F5F8F738083E9
:10342000329680818F5F80839FBF0895FC01EF5BA0
:10343000FF4F2081DC01A20FB11D3C914FB7F894E2
:1034400020812F5F2F73208331969081915090833C
:103450004FBF832F08958091ED019091EE018D5B18
:103460009F4F0E94EE198091ED019091EE010E9414
:10347000EE191092900083E389B98AB188698AB9FC
:10348000E5E9F0E08081866080837894089560911A
:10349000ED017091EE01FB01EB57FF4F90819034ED
:1034A000E9F36D5B7F4F0E94021A559A0895CF93FE
:1034B000DF93EC018881882331F021960E94471A1E
:1034C00089918111FBCFDF91CF9108950F931F93C5
:1034D000CF93DF93662371F0EC016150062F10E06B
:1034E0000F5F1F4F080F191F89910E94471AC017BD
:1034F000D107D1F7DF91CF911F910F910895CF930D
:10350000DF93EC012196FC018491882339F00E941D
:10351000471AFE01849121968111F9CFDF91CF9155
:1035200008958091ED019091EE0108958091EB0155
:103530009091EC018D5B9F4F0E94EE198091EB0101
:103540009091EC010E94EE191092980089E180930D
:103550009900EAE9F0E0808188698083EDE9F0E094
:10356000808186608083EBE9F0E0808182608083E7
:1035700008956091EB017091EC01FB01EB57FF4F57
:1035800090819034E9F36D5B7F4F0E94021AEAE963
:10359000F0E080818062808308950F931F93CF9322
:1035A000DF93662371F0EC016150062F10E00F5F8E
:1035B0001F4F080F191F89910E94B91AC017D10710
:1035C000D1F7DF91CF911F910F9108958091EB0179
:1035D0009091EC0108951F920F920FB60F92112453
:1035E0002F933F934F935F936F937F938F939F930B
:1035F000AF93BF93EF93FF938CB16091ED01709106
:10360000EE01FB01EE5BFF4F9081903471F00E9460
:10361000021AE091ED01F091EE018BB18C7190E016
:10362000EA57FF4F9183808309C08BB18C71816011
:1036300090E0FB01EA57FF4F91838083FF91EF9168
:10364000BF91AF919F918F917F916F915F914F91BA
:103650003F912F910F900FBE0F901F9018951F92C2
:103660000F920FB60F9211242F933F934F935F93B6
:103670006F937F938F939F93AF93BF93EF93FF933A
:103680008091ED019091EE01FC01EB57FF4F2081FD
:10369000222331F08D5B9F4F0E94161A8CB901C016
:1036A0005598FF91EF91BF91AF919F918F917F912D
:1036B0006F915F914F913F912F910F900FBE0F909F
:1036C0001F9018951F920F920FB60F9211242F93EF
:1036D0003F934F935F936F937F938F939F93AF939A
:1036E000BF93EF93FF9380919C006091EB017091E9
:1036F000EC01FB01EE5BFF4F9081903479F00E946A
:10370000021AE091EB01F091EC0180919B008C7129
:1037100090E0EA57FF4F918380830AC080919B001D
:103720008C7190E09160FB01EA57FF4F9183808399
:10373000FF91EF91BF91AF919F918F917F916F9189
:103740005F914F913F912F910F900FBE0F901F905F
:1037500018951F920F920FB60F9211242F933F933B
:103760004F935F936F937F938F939F93AF93BF9389
:10377000EF93FF938091EB019091EC01FC01EB57EB
:10378000FF4F2081222339F08D5B9F4F0E94161A34
:1037900080939C0005C0EAE9F0E080818F7D808302
:1037A000FF91EF91BF91AF919F918F917F916F9119
:1037B0005F914F913F912F910F900FBE0F901F90EF
:1037C00018952F923F924F925F926F927F928F92B5
:1037D0009F92AF92BF92CF92DF92EF92FF920F93A0
:1037E0001F93CF93DF93CDB7DEB7AA970FB6F894A8
:1037F000DEBF0FBECDBF8C017AA769A76E0189E13C
:10380000C80ED11C2C2C3D2C17C319821A821B8286
:103810001C8289819A81AB81BC81F801E80FF91F74
:103820008081853249F189819A81AB81BC81F8011F
:10383000E80FF91F80818823F9F089819A81AB8193
:10384000BC810196A11DB11D89839A83AB83BC8382
:1038500089819A81AB81BC81F801E80FF91F8081D1
:10386000853251F089819A81AB81BC81F801E80FE2
:10387000F91F80818111E1CF69817A818B819C81DF
:10388000C8010E94661A89819A81AB81BC81080FA8
:10389000191FD8018C91853209F0CEC211961D8670
:1038A0001E861F86188A6894FF24F5F88D010F5F25
:1038B0001F4F2C91422F022E000C550B660B770BDD
:1038C000FA01B597E435F10508F0ABC2EE5DFE4FA5
:1038D0000C94272F203361F48D859E85AF85B889A0
:1038E000892B8A2B8B2B21F40F2EF0E3FF2EF02D4A
:1038F0008D859E85AF85B889880F991FAA1FBB1F2C
:10390000AC01BD01440F551F661F771F440F551FA3
:10391000661F771F840F951FA61FB71F8D879E8771
:10392000AF87B88B4D855E856F857889022E000C38
:10393000330BC901C097092E000CAA0BBB0B840FD7
:10394000951FA61FB71F8D879E87AF87B88BD8019D
:10395000ADCFE9A4FAA4B4E0EB0EF11CE9A5FAA5F9
:1039600080819181A281B3818D839E83AF83B8874B
:1039700061E0CE0105960E94661AFAA6E9A65CC22D
:1039800029A53AA52E5F3F4FA9A5BAA58D919C9177
:10399000A0E0B0E08D839E83AF83B88719861A8636
:1039A0001B861C868D819E81AF81B885BB23C4F4A4
:1039B0008D819E81AF81B885B095A09590958195B8
:1039C0009F4FAF4FBF4F8D839E83AF83B88781E0FA
:1039D00090E0A0E0B0E08D8B9E8BAF8BB88F04C0E1
:1039E0001D8A1E8A1F8A188E8AE090E0A0E0B0E04F
:1039F000898B9A8BAB8BBC8B3AA729A7BCC0E9A457
:103A0000FAA492E0E90EF11CA9A5BAA58D919C91AA
:103A100019821A821B821C8249815A816B817C81A6
:103A2000FC01E40FF51F20812223B1F049815A8166
:103A30006B817C814F5F5F4F6F4F7F4F49835A830C
:103A40006B837C8349815A816B817C81FC01E40F0B
:103A5000F51F20812111EACF49815A816B817C8138
:103A6000642F0E94661A4D855E856F8578898981ED
:103A70009A81AB81BC8184179507A607B70708F028
:103A8000D6C149815A816B817C818D859E85AF85A8
:103A9000B889841B950BA60BB70B8D879E87AF87C4
:103AA000B88B8D859E85AF85B889AC01BD0141502D
:103AB0005109610971094D875E876F87788B892B62
:103AC0008A2B8B2B09F4B6C161E08DE192E00E9454
:103AD000661A8D859E85AF85B889AC01BD014150C0
:103AE0005109610971094D875E876F87788B892B32
:103AF0008A2B8B2B49F7FAA6E9A69EC1E9A5FAA560
:103B000080819181A0E0B0E08D839E83AF83B887F0
:103B100019861A861B861C868AE090E0A0E0B0E039
:103B2000898B9A8BAB8BBC8B1D8A1E8A1F8A188E41
:103B30003296FAA7E9A71FC0A9A5BAA58D919C91B5
:103B4000A0E0B0E08D839E83AF83B88719861A8684
:103B50001B861C8680E190E0A0E0B0E0898B9A8B08
:103B6000AB8BBC8B1D8A1E8A1F8A188EA9A5BAA58D
:103B70001296BAA7A9A781E090E0A0E0B0E08983FF
:103B80009A83AB83BC8329813A814B815C816989AB
:103B90007A898B899C898D809E80AF80B8840E94B1
:103BA000F52E86169706A806B90668F548C0298935
:103BB0003A894B895C8969817A818B819C810E94D9
:103BC000F52E69837A838B839C838D859E85AF8553
:103BD000B8890197A109B1098D879E87AF87B88BF6
:103BE00029813A814B815C8169897A898B899C8999
:103BF0008D809E80AF80B8840E94F52E8616970631
:103C0000A806B906E0F029813A814B815C81698977
:103C10007A898B899C8949885A886B887C888980B5
:103C20009A80AB80BC800E94F52EA30192010E9475
:103C3000052F281539054A055B0509F4B8CF8D898C
:103C40009E89AF89B88D892B8A2B8B2B59F08D8556
:103C50009E85AF85B8890197A109B1098D879E8797
:103C6000AF87B88B8D899E89AF89B88D892B8A2BB8
:103C70008B2BD1F090E3F91217C089859A85AB851B
:103C8000BC85AC01BD014F5F5F4F6F4F7F4F4987D0
:103C90005A876B877C87F601E80FF91FADE2A08396
:103CA0001D8A1E8A1F8A188E8D859E85AF85B889CC
:103CB0000297A105B10508F440C08D859E85AF85AA
:103CC000B8894097A105B105C0F58D859E85AF8562
:103CD000B8890197A109B1098D879E87AF87B88BF5
:103CE0008D859E85AF85B889892B8A2B8B2B29F1F1
:103CF00089859A85AB85BC85AC01BD014F5F5F4F5F
:103D00006F4F7F4F49875A876B877C87F601E80F93
:103D1000F91FF0828D859E85AF85B8890197A1092D
:103D2000B1098D879E87AF87B88B8D859E85AF85BE
:103D3000B889892B8A2B8B2BD9F68D899E89AF89DF
:103D4000B88D892B8A2B8B2B99F089859A85AB8529
:103D5000BC85AC01BD014F5F5F4F6F4F7F4F4987FF
:103D60005A876B877C87F601E80FF91FBDE2B083A5
:103D700089819A81AB81BC81892B8A2B8B2B09F499
:103D800042C049845A846B847C84B301A2014F5F92
:103D90005F4F6F4F7F4F49875A876B877C876D8155
:103DA0007E818F81988529813A814B815C818988C8
:103DB0009A88AB88BC887601E40CF51C0E94052F1C
:103DC000CA01B901A50194010E94052FFB01E35E20
:103DD000F54F8081F701808329893A894B895C8975
:103DE00069817A818B819C810E94052F29833A8386
:103DF0004B835C8389819A81AB81BC81892B8A2B1F
:103E00008B2B09F0BECF69857A858B859C85822DA9
:103E1000932D0E94661A10C061E0CD010E94661ABF
:103E20000BC065E08EE29AE00E94661A05C0FAA611
:103E3000E9A602C0FAA6E9A6D8018C918111E5CCC9
:103E4000AA960FB6F894DEBF0FBECDBFDF91CF911B
:103E50001F910F91FF90EF90DF90CF90BF90AF90A8
:103E60009F908F907F906F905F904F903F902F909A
:103E70000895CF93DF93CDB7DEB7BE016B5F7F4F61
:103E8000FB0181919191BF010E94E11BDF91CF91D4
:103E90000895CF92DF92EF92FF920F931F93CF93EB
:103EA000DF93CDB7DEB765970FB6F894DEBF0FBED0
:103EB000CDBF6C010E9479188EEE0E94951881E3A7
:103EC0000E9495180E9479188FEE0E9495188E0115
:103ED0000F5F1F4F7E0185E1E80EF11C0E94A518BF
:103EE000F80181938F01EE15FF05C1F70E94B61806
:103EF0002A8130E0322F22279981292BF601328B3B
:103F0000218B2C8130E0322F22279B81292B348B6F
:103F1000238B9D81958B2F8130E0322F22279E812C
:103F2000292B378B268B298530E0322F2227988545
:103F3000292B318F208F9A85928F9B85938F2D858A
:103F400030E0322F22279C85292B358F248F2F8517
:103F500030E0322F22279E85292B378F268F988994
:103F600090A3998991A32B8930E0322F22279A8937
:103F7000292B33A322A39C8994A385A30E9487188D
:103F800065960FB6F894DEBF0FBECDBFDF91CF911F
:103F90001F910F91FF90EF90DF90CF9008950F93B6
:103FA0001F93CF93DF93EC0169897A8980E090E0D9
:103FB0000E947D2A20E030E040E853E40E940B2B71
:103FC0006EA37FA388A799A76B897C8980E090E086
:103FD0000E947D2A20E030E040E850E30E940B2B55
:103FE0006AA77BA78CA79DA76D89062E000C770B6F
:103FF000880B990B0E947F2A20E030E040E857E2CE
:104000000E940B2B6EA77FA788AB99AB6E897F8927
:104010007054072E000C880B990B0E947F2A20E019
:1040200030E040E855E30E940B2B6AAB7BAB8CABD6
:104030009DAB688D798D7054072E000C880B990B01
:104040000E947F2A20E030E040E051E30E940B2BE9
:104050006EAB7FAB88AF99AF6A8D062E000C770BE5
:10406000880B990B0E947F2A20E030E040E85FE255
:104070000E940B2B6AAF7BAF8CAF9DAF8E01025CB1
:104080001F4F6B8D062E000C770B880B990B0E942F
:104090007F2A20E030E040E05DE20E940B2BF80137
:1040A00060837183828393830C5F1F4F6C8D7D8D42
:1040B00080E090E00E947D2A20E030E040E051E482
:1040C0000E940B2BF80160837183828393830C5FC2
:1040D0001F4F6E8D7F8D80E090E00E947D2A20E052
:1040E00030E040E85CE30E940B2BF80160837183B1
:1040F000828393830C5F1F4F68A1062E000C770B01
:10410000880B990B0E947F2A20E030E040E85BE3B7
:104110000E940B2BF80160837183828393830C5F71
:104120001F4F69A1062E000C770B880B990B0E947C
:104130007F2A20E030E040E058E30E940B2BF8019A
:1041400060837183828393830C5F1F4F6AA17BA17D
:1041500080E090E00E947D2A20E030E040E857E2D5
:104160000E940B2BF80160837183828393830C5F21
:104170001F4F6CA1062E000C770B880B990B0E9429
:104180007F2A20E030E040E857E20E940B2BF80144
:1041900060837183828393830C5F1F4F6DA1062E12
:1041A000000C770B880B990B0E947F2A20E030E0EF
:1041B00040E05FE10E940B2BF801608371838283F2
:1041C0009383DF91CF911F910F910895CF93C82FC3
:1041D0000E9479188EEE0E9495188BE10E94951826
:1041E0000E9479188FEE0E9495180E94B61890E1EF
:1041F000C99F900111248F7CC82FC22B0E94871861
:104200000E9479188EEE0E9495188BE10E949518F5
:104210008C2F83600E9495180E948718CF91089573
:1042200083E00E94E62084E09DE00E94491F84E034
:104230009DE00E94CF1F0895CF92DF92EF92FF92F0
:104240000F931F93CF93DF9300D000D000D0CDB752
:10425000DEB77C010E9479188EEE0E94951884E0EA
:104260000E9495180E9479188FEE0E9495188E0171
:104270000F5F1F4F6E0186E0C80ED11C0E94A5186B
:10428000F80181938F01EC15FD05C1F70E94B61866
:104290009B814A8150E060E070E0762F652F542FBB
:1042A0004427692B9981492B0D8110E020E030E0F3
:1042B000322F212F102F00279C81092B282BF7014B
:1042C00000831183228333834087518762877387FA
:1042D0000E94871826960FB6F894DEBF0FBECDBF9A
:1042E000DF91CF911F910F91FF90EF90DF90CF90D2
:1042F00008958F929F92AF92BF92CF92DF92EF92EA
:10430000FF92CF93DF93EC01688179818A819B8151
:104310000E947F2A2EA13FA148A559A50E94682985
:104320006B017C019B01AC010E940B2B2EA53FA5CC
:1043300048A959A90E940B2B4B015C012AA53BA55A
:104340004CA55DA5C701B6010E940B2B9B01AC01DA
:10435000C501B4010E94692920E030E040E251E447
:104360000E940B2B6C837D838E839F83DF91CF9183
:10437000FF90EF90DF90CF90BF90AF909F908F9085
:1043800008954F925F926F927F928F929F92AF9219
:10439000BF92CF92DF92EF92FF920F931F93CF9332
:1043A000DF93CDB7DEB762970FB6F894DEBF0FBECE
:1043B000CDBF9A8B898BFC014480558066807780C5
:1043C000A3019201C301B2010E940B2B6B017C017E
:1043D0009B01AC01C301B2010E940B2B6D837E8354
:1043E0008F839887E989FA896085718582859385AD
:1043F0000E947F2A69837A838B839C839B01AC0113
:104400000E940B2B69877A878B879C87E989FA89B9
:1044100026A937A940AD51ADC301B2010E940B2BB3
:10442000E989FA8922A933A944A955A90E946929D1
:104430004B015C01E989FA8922AD33AD44AD55AD3C
:10444000C701B6010E940B2B9B01AC01C501B40151
:104450000E9469294B015C01E989FA89FE96208155
:104460003181428153816D817E818F8198850E9447
:104470000B2B9B01AC01C501B4010E946929298164
:104480003A814B815C810E940B2B4B015C01E989D5
:10449000FA89EA5BFF4F2081318142815381C30158
:1044A000B2010E940B2BE989FA89EE5BFF4F208154
:1044B0003181428153810E9469296D877E878F8770
:1044C000988BE989FA89E65BFF4F2081318142812F
:1044D0005381C701B6010E940B2B9B01AC016D8576
:1044E0007E858F8598890E9469296B017C01E98905
:1044F000FA89E25BFF4F20813181428153816D81D6
:104500007E818F8198850E940B2B9B01AC01C70196
:10451000B6010E9469299B01AC01C501B4010E944A
:1045200069296B017C01E989FA89EE5AFF4FA98953
:10453000BA89AA5ABF4F2D913D914D915C916081EE
:104540007181828193810E940B2BA30192010E94B1
:104550000B2B29853A854B855C850E940B2B4B01E3
:104560005C0109891A89065A1F4F29853A854B85AE
:104570005C8569817A818B819C810E940B2BF8017B
:1045800020813181428153810E940B2B9B01AC0120
:10459000C501B4010E9469299B01AC01C701B601A4
:1045A0000E94692920E030E040E251E40E940B2B98
:1045B000E989FA89648775878687978762960FB637
:1045C000F894DEBF0FBECDBFDF91CF911F910F9149
:1045D000FF90EF90DF90CF90BF90AF909F908F9023
:1045E0007F906F905F904F9008950E94102184E01B
:1045F0009DE00E941C2184E09DE00E94792184E0DE
:104600009DE00E94C12108956091080D7091090DEF
:1046100080910A0D90910B0D0E94472ACB010895BD
:104620006091100D7091110D8091120D9091130DEC
:104630000E94472ACB010895CF93DF93D82FC62F2E
:104640000E94791884ED0E9495188D2F0E9495186C
:104650008C2F0E9495180E948718DF91CF910895A2
:10466000CF93C82F0E94791884ED0E9495188C2F43
:104670000E9495180E94791885ED0E9495180E9455
:10468000B618C82F0E946F188C2FCF91089560E440
:1046900080E10E941C2360E481E10E941C230895B4
:1046A000CF92DF92EF92FF920F931F93CF93DF93FE
:1046B000EC0188E20E943023E82E89E20E94302338
:1046C000C82E8AE20E943023082F8BE20E943023FA
:1046D000D82E8CE20E943023182F8DE20E943023C6
:1046E000F82E6E2D70E07C29072E000C880B990B9C
:1046F0000E947F2A23E23BED49E75DE30E940B2BFA
:104700000E94472A79836883602F70E07D29072EF5
:10471000000C880B990B0E947F2A23E23BED49E7AE
:104720005DE30E940B2B0E94472A7B836A83612FE3
:1047300070E07F29072E000C880B990B0E947F2ABE
:1047400023E23BED49E75DE30E940B2B0E94472AE1
:104750007D836C83DF91CF911F910F91FF90EF903C
:10476000DF90CF900895CF92DF92EF92FF920F9358
:104770001F93CF93DF93EC0182E20E943023E82E57
:1047800083E20E943023C82E84E20E943023082F47
:104790008BE20E943023D82E8CE20E943023182F07
:1047A0008DE20E943023F82E6E2D70E07C29072EBA
:1047B000000C880B990B0E947F2A20E030E04CE02F
:1047C00051E40E940B2B20E030E04AE754E40E94C1
:1047D000D5290E94472A79836883602F70E07D295C
:1047E000072E000C880B990B0E947F2A20E030E0F6
:1047F0004CE051E40E940B2B20E030E04AE754E407
:104800000E94D5290E94472A7B836A83612F70E02A
:104810007F29072E000C880B990B0E947F2A20E02D
:1048200030E04CE051E40E940B2B20E030E04AE7FE
:1048300054E40E94D5290E94472A7D836C83DF912E
:10484000CF911F910F91FF90EF90DF90CF9008953F
:10485000BC9A8E9AA49AA59A8F9A0E94511808958C
:10486000813041F028F0823039F0833039F00895FA
:10487000C498089596980895AC980895AD980895B1
:10488000813041F028F0823039F0833039F00895DA
:10489000C49A0895969A0895AC9A0895AD9A089589
:1048A00097980895979A0895AF92BF92CF92DF920A
:1048B000EF92FF920F931F93CF93DF93CDB7DEB7A5
:1048C00028970FB6F894DEBF0FBECDBF043008F0B6
:1048D0006CC0122FB42EA62E6C01802F0E943024A3
:1048E000E02EF12CC6019F70F701EE0FFF1F21E0B3
:1048F00030E02C0F3D1FE20FF31F80839F708181FA
:10490000807F892B8183AA2049F0F701EE0FFF1FDA
:10491000E20FF31F81818F7E81830CC0F701EE0FC0
:10492000FF1F81E090E08C0F9D1FE80FF91F818130
:1049300080618183BB2069F0F701EE0FFF1F21E04A
:1049400030E02C0F3D1FE20FF31F81818F7D8183AB
:104950000CC0F701EE0FFF1F81E090E08C0F9D1F50
:10496000E80FF91F818180628183EE0CFF1CE1E07A
:10497000F0E0EC0FFD1FEE0EFF1EF701818110FB32
:1049800086F9818381818F77818381810E945B1881
:10499000F70180810E945B18802F0E9440240E94B2
:1049A00050240E94522480E001C081E028960FB676
:1049B000F894DEBF0FBECDBFDF91CF911F910F9155
:1049C000FF90EF90DF90CF90BF90AF9008950E943E
:1049D000DF17880F991FFC01E65FF44F85919491D2
:1049E0000895FC01C798BF9AF8942FEF260F66230D
:1049F00009F428C098B3892F8F77906801900080C0
:104A000009D0029007D001900190019003D001904D
:104A100001D015C008D007D006D005D004D003D0EF
:104A200002D001D00895001C9093380010F08093BC
:104A300038000000000010F48093380008952150E1
:104A400008F0D8CF7894089580E090E0FC01EE0F54
:104A5000FF1FEE0FFF1FE856F44F108211821282E3
:104A6000138201968A30910589F708950E942425C2
:104A70006AE088E99BE00E94F1240895E2E6FDE007
:104A80008083618342832383E8E9FBE0A0ECBBE001
:104A900080836183428323833496EA17FB07C1F73F
:104AA0006AE088E99BE00E94F12408956091620D1C
:104AB0007091630D8091640D9091650D0895E4E609
:104AC000F0E0808181608083D79AD49AA69A089575
:104AD000813069F028F0823069F0833071F010C0C5
:104AE000E5E6F0E080818160808380E00895DF9AD0
:104AF00080E00895DC9A80E00895AE9A80E0089501
:104B000081E00895813069F028F0823069F08330C7
:104B100071F010C0E5E6F0E080818E7F808380E058
:104B20000895DF9880E00895DC9880E00895AE98BD
:104B300080E0089581E00895129A16981E9A1A98B6
:104B400008951A9A1A9808951092670D1092660D9A
:104B500010925A0B10923B0B8CE3EBE5FBE0DF016C
:104B60001D928A95E9F78EE1ECE3FBE0DF011D92EF
:104B70008A95E9F788E0E8E6FDE0DF011D928A9575
:104B8000E9F70E9468180895823040F4E82FF0E0B9
:104B9000EE0FFF1FE859F24F518340830895E82F2D
:104BA000F0E0EE0FFF1FE859F24F2081318181E0E4
:104BB000232B09F080E00895CF93DF93EC01892B3C
:104BC00039F16115710531F190915A0B993020F549
:104BD000292F30E0F901EE0FFF1FDF01A20FB31FF5
:104BE000AA0FBB1FA55AB44F15967C936E931497CA
:104BF00011961C92119713961C921E921297FD010A
:104C000081E0808398839F5F90935A0B80E005C07A
:104C100081E003C081E001C081E0DF91CF91089580
:104C2000CF93DF93EC01892B21F16115710519F107
:104C300090913B0B943008F5292F30E0F901EE0FED
:104C4000FF1FDF01A20FB31FAA0FBB1FA45CB44F4D
:104C500015967C936E9314971C9211961C92119743
:104C6000FD011382128298839F5F90933B0B80E03B
:104C700005C081E003C081E001C081E0DF91CF91F8
:104C8000089590913B0B8917A0F490E0FC01EE0F82
:104C9000FF1FDF01A80FB91FAA0FBB1FA45CB44FF1
:104CA00013961C921E921297FD0181E0808380E092
:104CB000089581E008951F93CF93DF938091660D4F
:104CC0009091670D01969093670D8093660D80918A
:104CD0005A0B882359F1EBE5FBE0815090E00196F7
:104CE0009C01220F331F820F931F880F991F855A33
:104CF000944F61E0A481B5812C91213099F42081F9
:104D0000213081F4228133812F5F3F4F338322830F
:104D100012964D915C9113972417350718F0138262
:104D2000128261833696E817F90721F740913B0B11
:104D3000442361F1ECE3FBE080E051E010E0DF01AF
:104D400090819130B1F4228133812F5F3F4F3383C3
:104D50002283C481D58169817A812617370748F07B
:104D6000518313821282952F2881223009F0912FCE
:104D70009C938F5F36968413E2CF08C0E8E6FDE08F
:104D80008281938101979383828313C08091680D00
:104D90009091690D892B39F0E8E6FDE080819181E1
:104DA00001979183808380916A0D90916B0D892B7F
:104DB00029F7DF91CF911F9108950E9460180895FF
:104DC000CF9380915A0B8823B9F1C0E08C2F90E0EB
:104DD000FC01EE0FFF1FE80FF91FEE0FFF1FE55A52
:104DE000F44F2181213019F5FC01EE0FFF1FE80F70
:104DF000F91FEE0FFF1FE55AF44F20812130B9F45F
:104E0000FC01EE0FFF1FDF01A80FB91FAA0FBB1F88
:104E1000A55AB44F11961C921197FD010480F5819B
:104E2000E02D0480F581E02D309709F00995CF5FE2
:104E300080915A0BC81750F280913B0B882359F18F
:104E4000C0E08C2F90E0FC01EE0FFF1FE80FF91F70
:104E5000EE0FFF1FE45CF44F21812130B9F4FC0117
:104E6000EE0FFF1FDF01A80FB91FAA0FBB1FA45C25
:104E7000B44F11961C921197FD010480F581E02D2D
:104E80000380F481E02D309709F00995CF5F809180
:104E90003B0BC817B0F2CF9108951F920F920FB637
:104EA0000F9211242F933F934F935F936F937F93B0
:104EB0008F939F93AF93BF93EF93FF930E945B26D3
:104EC000FF91EF91BF91AF919F918F917F916F91E2
:104ED0005F914F913F912F910F900FBE0F901F90B8
:104EE0001895FC015FEF540F442311F1A62FB72F43
:104EF0002D912F27322F32953F70922F9327292FF4
:104F000030E0FE2FEE27E227F327C901982F8827EC
:104F10009295907FE827F927220F331F229532952B
:104F2000307F3227207F3227E227F327515000F7C6
:104F3000CF01089580936C0D1092970B0895EF9216
:104F4000FF920F93CF93DF93E7013AEC38833091D0
:104F50006C0D39832A834B830C832FEE2AAB009789
:104F600041F021E0240F2B83FC0180818D8381E0BF
:104F700001C080E0442361F0E62FF72F480F9191A4
:104F8000DE01A80FB11D15969C938F5F4813F7CFD4
:104F90004B814C5FBE016F5F7F4F80E090E00E94CD
:104FA000712799AB88ABDF91CF910F91FF90EF9074
:104FB0000895EF92FF920F93CF93DF931F92CDB797
:104FC000DEB78983013031F408E0CE0101960E94FA
:104FD0009F2705C007E0CE0101960E949F270F90F2
:104FE000DF91CF910F91FF90EF900895AF92BF9214
:104FF000DF92EF92FF920F931F93CF93DF93FC0109
:10500000DB01D0A8E1A87E2D6D2D80818C9381815C
:1050100011968C931197828112968C9312978381AB
:1050200013968C931397848114968C931497838191
:10503000882309F444C020E095E08DEB0F2EFBEDB2
:10504000FF2EF02D1EED3CEDEF01C20FD11D0D81A5
:105050000A3C69F4ED01C90FD11D8883C1E0C90F75
:105060005D01AC0EB11CE5019E5F388323C00F3E8D
:1050700069F4ED01C90FD11D8883C1E0C90F5D013D
:10508000AC0EB11CE5019E5F188314C00D3B69F4A2
:10509000ED01C90FD11D8883C1E0C90F5D01AC0EC0
:1050A000B11CE5019E5FF88205C0ED01C90FD11D5D
:1050B00008839F5F2F5FC3812C1730F201C095E0FA
:1050C0007A3C71F4FD01E90FF11D8DEB808322E044
:1050D000290F9F5FFD01E90FF11D8CED808326C034
:1050E0007F3E71F4FD01E90FF11D8DEB808322E01D
:1050F000290F9F5FFD01E90FF11D8EED808316C022
:105100007D3B71F4FD01E90FF11D8DEB808322E001
:10511000290F9F5FFD01E90FF11D8BED808306C014
:1051200021E0290FFD01E90FF11DE0826A3C71F4D5
:10513000FD01E20FF11D8DEB808382E0820F2F5F76
:10514000FD01E20FF11D9CED908326C06F3E71F4CE
:10515000FD01E20FF11D8DEB808382E0820F2F5F56
:10516000FD01E20FF11D9EED908316C06D3B71F4C1
:10517000FD01E20FF11D8DEB808382E0820F2F5F36
:10518000FD01E20FF11D9BED908306C081E0820FCF
:10519000FD01E20FF11DD082A80FB11D9FEE9C937F
:1051A0008F5FFA018083DF91CF911F910F91FF9064
:1051B000EF90DF90BF90AF900895CF93DF93982F3B
:1051C0008091970B823001F128F4882341F08130DF
:1051D000A1F03DC0833039F1843091F138C09A3C60
:1051E00041F4FB0190839091970B9F5F9093970BF5
:1051F0006CC01092970B82E068C0FB01918382E043
:105200008093970B80E061C0FB01928380916C0DCD
:10521000981305C083E08093970B80E056C01092EE
:10522000970B83E052C09C3220F01092970B82E0E3
:105230004CC0FB01938384E08093970B80E045C0D2
:10524000FB01948385E08093970B80E03EC0282F7C
:1052500030E0FB014381E42FF0E0DF0115962A17CF
:105260003B074CF4FB01E20FF31F90838F5F8093A9
:10527000970B80E02AC02A173B0741F4FB0110AAD4
:1052800091AB8F5F8093970B80E01FC036962E17EF
:105290003F07C1F4FB01C0A9D1A9C92BD1ABC0AB59
:1052A0004C5F6F5F7F4F80E090E00E947127C817CE
:1052B000D90721F41092970B81E007C01092970B49
:1052C00082E003C01092970B84E0DF91CF910895A4
:1052D0005058BB27AA270E9480290C94D12A0E94EB
:1052E000C32A38F00E94CA2A20F039F49F3F19F4EB
:1052F00026F40C94C02A0EF4E095E7FB0C94BA2A2D
:10530000E92F0E94E22A58F3BA176207730784074D
:10531000950720F079F4A6F50C94042B0EF4E09593
:105320000B2EBA2FA02D0B01B90190010C01CA015F
:10533000A0011124FF27591B99F0593F50F4503E0A
:1053400068F11A16F040A22F232F342F4427585FFC
:10535000F3CF469537952795A795F0405395C9F714
:105360007EF41F16BA0B620B730B840BBAF09150CC
:10537000A1F0FF0FBB1F661F771F881FC2F70EC06B
:10538000BA0F621F731F841F48F48795779567953E
:10539000B795F7959E3F08F0B0CF9395880F08F02A
:1053A0009927EE0F9795879508950E94E9290C9407
:1053B000D12A0E94CA2A58F00E94C32A40F029F438
:1053C0005F3F29F00C94BA2A51110C94052B0C94D0
:1053D000C02A0E94E22A68F39923B1F3552391F37E
:1053E000951B550BBB27AA2762177307840738F054
:1053F0009F5F5F4F220F331F441FAA1FA9F335D0B1
:105400000E2E3AF0E0E832D091505040E695001C64
:10541000CAF72BD0FE2F29D0660F771F881FBB1F1E
:10542000261737074807AB07B0E809F0BB0B802DFC
:10543000BF01FF2793585F4F3AF09E3F510578F028
:105440000C94BA2A0C94052B5F3FE4F3983ED4F3F6
:10545000869577956795B795F7959F5FC9F7880FFC
:10546000911D9695879597F90895E1E0660F771F4E
:10547000881FBB1F621773078407BA0720F0621BDF
:10548000730B840BBA0BEE1F88F7E09508950E940A
:105490004E2A6894B1110C94052B08950E94EA2AB3
:1054A00088F09F5798F0B92F9927B751B0F0E1F0E5
:1054B000660F771F881F991F1AF0BA95C9F714C095
:1054C000B13091F00E94042BB1E008950C94042BAC
:1054D000672F782F8827B85F39F0B93FCCF38695CE
:1054E00077956795B395D9F73EF49095809570952B
:1054F00061957F4F8F4F9F4F0895E89409C097FBA8
:105500003EF490958095709561957F4F8F4F9F4F9A
:105510009923A9F0F92F96E9BB279395F6958795DE
:1055200077956795B795F111F8CFFAF4BB0F11F4A1
:1055300060FF1BC06F5F7F4F8F4F9F4F16C0882348
:1055400011F096E911C0772321F09EE8872F762F7E
:1055500005C0662371F096E8862F70E060E02AF0BF
:105560009A95660F771F881FDAF7880F96958795AB
:1055700097F9089597F99F6780E870E060E00895D3
:105580009FEF80EC089500240A941616170618065B
:105590000906089500240A94121613061406050637
:1055A0000895092E0394000C11F4882352F0BB0FC8
:1055B00040F4BF2B11F460FF04C06F5F7F4F8F4F2B
:1055C0009F4F089557FD9058440F551F59F05F3F66
:1055D00071F04795880F97FB991F61F09F3F79F015
:1055E00087950895121613061406551FF2CF469597
:1055F000F1DF08C0161617061806991FF1CF869519
:105600007105610508940895E894BB2766277727FC
:10561000CB0197F908950E941E2B0C94D12A0E9469
:10562000C32A38F00E94CA2A20F0952311F00C9466
:10563000BA2A0C94C02A11240C94052B0E94E22A49
:1056400070F3959FC1F3950F50E0551F629FF001D5
:10565000729FBB27F00DB11D639FAA27F00DB11DEE
:10566000AA1F649F6627B00DA11D661F829F222777
:10567000B00DA11D621F739FB00DA11D621F839FFE
:10568000A00D611D221F749F3327A00D611D231FD4
:10569000849F600D211D822F762F6A2F11249F5722
:1056A00050409AF0F1F088234AF0EE0FFF1FBB1F25
:1056B000661F771F881F91505040A9F79E3F5105E4
:1056C00080F00C94BA2A0C94052B5F3FE4F3983ECB
:1056D000D4F3869577956795B795F795E7959F5F8E
:1056E000C1F7FE2B880F911D9695879597F9089520
:1056F000A0E1B0E0EEE7FBE20C94382F7C011B0147
:105700006A01FC0117821682838181FF44C39E01D6
:105710002F5F3F4F3901F7019381F10193FD85918F
:1057200093FF81911F01882309F431C3853239F435
:1057300093FD859193FF81911F01853239F4B70163
:1057400090E00E949B3056016501E5CF10E0512C9E
:10575000912CFFE1F915D8F08B3279F038F48032D2
:1057600079F08332A1F4F92DF0612EC08D3261F011
:10577000803369F4292D21602DC0392D3260932E9C
:10578000892D8460982E2AC0E92DE86015C097FC09
:105790002DC020ED280F2A3088F496FE06C03AE08E
:1057A000139F200D1124122F19C08AE0589E200D3E
:1057B0001124522EE92DE0629E2E10C08E3231F45B
:1057C00096FCE5C2F92DF0649F2E08C08C3621F4BA
:1057D000292D2068922E02C0883641F4F10193FDF4
:1057E000859193FF81911F018111B3CF9BEB980F9E
:1057F000933020F4992D9061805E07C09BE9980F4B
:10580000933008F066C1992D9F7E96FF16E09F7336
:10581000992E853619F49064992E08C0863621F4A5
:10582000392F3068932E02C01111115097FE07C016
:105830001C3350F444244394410E27E00BC018302D
:1058400038F027E017E005C027E09CE3492E02C0AE
:10585000212F412C560184E0A80EB11CF601608175
:10586000718182819381042DA3010E949C2F6C0180
:10587000F981FC87F0FF02C0F3FF06C091FC06C06F
:1058800092FE06C000E205C00DE203C00BE201C0BB
:1058900000E08C858C7019F001115AC29BC297FEF2
:1058A00010C04C0CFC85F4FF04C08A81813309F4DC
:1058B0004A94141474F528E0241578F588E0482EED
:1058C0002CC096FC2AC0812F90E08C159D059CF081
:1058D0003CEFC3163FEFD30674F0892D8068982EF5
:1058E0000AC0E2E0F0E0EC0FFD1FE10FF11D808146
:1058F000803319F411501111F4CF97FE0EC04424D7
:105900004394410E812F90E0C816D9062CF41C193F
:1059100004C04424439401C010E097FE06C01C1448
:105920001D0434F4C601019605C085E090E002C074
:1059300081E090E001110196112331F0212F30E038
:105940002F5F3F4F820F931F252D30E08217930763
:1059500014F4581A01C0512C892D897049F455202E
:1059600039F0B70180E290E00E949B305A94F7CF63
:10597000002329F0B701802F90E00E949B3093FC18
:1059800009C0552039F0B70180E390E00E949B30B8
:105990005A94F7CF97FE4CC04601D7FE02C0812C27
:1059A000912CC60188199909F301E80FF91FFE87A8
:1059B000ED87960124193109388B2F87012F10E0CC
:1059C0001195019511093FEF8316930629F4B7014C
:1059D0008EE290E00E949B30C814D9044CF08F8571
:1059E00098898815990524F4ED85FE85818101C08B
:1059F00080E3F1E08F1A91082D853E852F5F3F4FA0
:105A00003E872D87801691062CF0B70190E00E940A
:105A10009B30D9CFC814D90441F49A81963320F42D
:105A2000953319F43C8534FF81E3B70190E04EC013
:105A30008A81813319F09C859F7E9C87B70190E015
:105A40000E949B30111105C094FC18C085E690E0BF
:105A500017C0B7018EE290E00E949B301E5F82E08B
:105A600001E0080FF301E80FF11D8081B70190E01C
:105A70000E949B30802F0113F3CFE6CF85E490E0A6
:105A8000B7010E949B30D7FC06C0C114D10441F479
:105A9000EC85E4FF05C0D194C194D1088DE201C02A
:105AA0008BE2B70190E00E949B3080E32AE0C216AF
:105AB000D1042CF08F5FFAE0CF1AD108F7CFB701ED
:105AC00090E00E949B30B701C601C0960E949B30B7
:105AD00054C1833631F0833779F0833509F056C0ED
